{
  "abi": [
    {
      "inputs": [
        {
          "internalType": "contract IIndexedUniswapV2Oracle",
          "name": "oracle",
          "type": "address"
        },
        {
          "internalType": "contract IPoolFactory",
          "name": "factory",
          "type": "address"
        },
        {
          "internalType": "contract IDelegateCallProxyManager",
          "name": "proxyManager",
          "type": "address"
        }
      ],
      "stateMutability": "nonpayable",
      "type": "constructor"
    },
    {
      "anonymous": false,
      "inputs": [
        {
          "indexed": false,
          "internalType": "uint256",
          "name": "categoryID",
          "type": "uint256"
        },
        {
          "indexed": false,
          "internalType": "bytes32",
          "name": "metadataHash",
          "type": "bytes32"
        }
      ],
      "name": "CategoryAdded",
      "type": "event"
    },
    {
      "anonymous": false,
      "inputs": [
        {
          "indexed": false,
          "internalType": "uint256",
          "name": "categoryID",
          "type": "uint256"
        }
      ],
      "name": "CategorySorted",
      "type": "event"
    },
    {
      "anonymous": false,
      "inputs": [
        {
          "indexed": false,
          "internalType": "address",
          "name": "pool",
          "type": "address"
        },
        {
          "indexed": false,
          "internalType": "address",
          "name": "initializer",
          "type": "address"
        },
        {
          "indexed": false,
          "internalType": "uint256",
          "name": "categoryID",
          "type": "uint256"
        },
        {
          "indexed": false,
          "internalType": "uint256",
          "name": "indexSize",
          "type": "uint256"
        }
      ],
      "name": "NewPoolInitializer",
      "type": "event"
    },
    {
      "anonymous": false,
      "inputs": [
        {
          "indexed": true,
          "internalType": "address",
          "name": "previousOwner",
          "type": "address"
        },
        {
          "indexed": true,
          "internalType": "address",
          "name": "newOwner",
          "type": "address"
        }
      ],
      "name": "OwnershipTransferred",
      "type": "event"
    },
    {
      "anonymous": false,
      "inputs": [
        {
          "indexed": false,
          "internalType": "address",
          "name": "pool",
          "type": "address"
        },
        {
          "indexed": false,
          "internalType": "address",
          "name": "unboundTokenSeller",
          "type": "address"
        },
        {
          "indexed": false,
          "internalType": "uint256",
          "name": "categoryID",
          "type": "uint256"
        },
        {
          "indexed": false,
          "internalType": "uint256",
          "name": "indexSize",
          "type": "uint256"
        }
      ],
      "name": "PoolInitialized",
      "type": "event"
    },
    {
      "anonymous": false,
      "inputs": [
        {
          "indexed": false,
          "internalType": "address",
          "name": "token",
          "type": "address"
        },
        {
          "indexed": false,
          "internalType": "uint256",
          "name": "categoryID",
          "type": "uint256"
        }
      ],
      "name": "TokenAdded",
      "type": "event"
    },
    {
      "inputs": [
        {
          "internalType": "address",
          "name": "token",
          "type": "address"
        },
        {
          "internalType": "uint256",
          "name": "categoryID",
          "type": "uint256"
        }
      ],
      "name": "addToken",
      "outputs": [],
      "stateMutability": "nonpayable",
      "type": "function"
    },
    {
      "inputs": [
        {
          "internalType": "uint256",
          "name": "categoryID",
          "type": "uint256"
        },
        {
          "internalType": "address[]",
          "name": "tokens",
          "type": "address[]"
        }
      ],
      "name": "addTokens",
      "outputs": [],
      "stateMutability": "nonpayable",
      "type": "function"
    },
    {
      "inputs": [],
      "name": "categoryIndex",
      "outputs": [
        {
          "internalType": "uint256",
          "name": "",
          "type": "uint256"
        }
      ],
      "stateMutability": "view",
      "type": "function"
    },
    {
      "inputs": [
        {
          "internalType": "address",
          "name": "token",
          "type": "address"
        }
      ],
      "name": "computeAverageMarketCap",
      "outputs": [
        {
          "internalType": "uint144",
          "name": "",
          "type": "uint144"
        }
      ],
      "stateMutability": "view",
      "type": "function"
    },
    {
      "inputs": [
        {
          "internalType": "address[]",
          "name": "tokens",
          "type": "address[]"
        }
      ],
      "name": "computeAverageMarketCaps",
      "outputs": [
        {
          "internalType": "uint144[]",
          "name": "marketCaps",
          "type": "uint144[]"
        }
      ],
      "stateMutability": "view",
      "type": "function"
    },
    {
      "inputs": [
        {
          "internalType": "address",
          "name": "poolAddress",
          "type": "address"
        }
      ],
      "name": "computeInitializerAddress",
      "outputs": [
        {
          "internalType": "address",
          "name": "initializerAddress",
          "type": "address"
        }
      ],
      "stateMutability": "view",
      "type": "function"
    },
    {
      "inputs": [
        {
          "internalType": "uint256",
          "name": "categoryID",
          "type": "uint256"
        },
        {
          "internalType": "uint256",
          "name": "indexSize",
          "type": "uint256"
        }
      ],
      "name": "computePoolAddress",
      "outputs": [
        {
          "internalType": "address",
          "name": "poolAddress",
          "type": "address"
        }
      ],
      "stateMutability": "view",
      "type": "function"
    },
    {
      "inputs": [
        {
          "internalType": "address",
          "name": "poolAddress",
          "type": "address"
        }
      ],
      "name": "computeSellerAddress",
      "outputs": [
        {
          "internalType": "address",
          "name": "sellerAddress",
          "type": "address"
        }
      ],
      "stateMutability": "view",
      "type": "function"
    },
    {
      "inputs": [
        {
          "internalType": "bytes32",
          "name": "metadataHash",
          "type": "bytes32"
        }
      ],
      "name": "createCategory",
      "outputs": [],
      "stateMutability": "nonpayable",
      "type": "function"
    },
    {
      "inputs": [],
      "name": "defaultSellerPremium",
      "outputs": [
        {
          "internalType": "uint8",
          "name": "",
          "type": "uint8"
        }
      ],
      "stateMutability": "view",
      "type": "function"
    },
    {
      "inputs": [
        {
          "internalType": "address",
          "name": "poolAddress",
          "type": "address"
        },
        {
          "internalType": "address[]",
          "name": "tokens",
          "type": "address[]"
        },
        {
          "internalType": "uint256[]",
          "name": "balances",
          "type": "uint256[]"
        }
      ],
      "name": "finishPreparedIndexPool",
      "outputs": [],
      "stateMutability": "nonpayable",
      "type": "function"
    },
    {
      "inputs": [
        {
          "internalType": "uint256",
          "name": "categoryID",
          "type": "uint256"
        }
      ],
      "name": "getCategoryMarketCaps",
      "outputs": [
        {
          "internalType": "uint144[]",
          "name": "marketCaps",
          "type": "uint144[]"
        }
      ],
      "stateMutability": "view",
      "type": "function"
    },
    {
      "inputs": [
        {
          "internalType": "uint256",
          "name": "categoryID",
          "type": "uint256"
        }
      ],
      "name": "getCategoryTokens",
      "outputs": [
        {
          "internalType": "address[]",
          "name": "tokens",
          "type": "address[]"
        }
      ],
      "stateMutability": "view",
      "type": "function"
    },
    {
      "inputs": [
        {
          "internalType": "uint256",
          "name": "categoryID",
          "type": "uint256"
        },
        {
          "internalType": "uint256",
          "name": "indexSize",
          "type": "uint256"
        },
        {
          "internalType": "uint144",
          "name": "wethValue",
          "type": "uint144"
        }
      ],
      "name": "getInitialTokensAndBalances",
      "outputs": [
        {
          "internalType": "address[]",
          "name": "tokens",
          "type": "address[]"
        },
        {
          "internalType": "uint256[]",
          "name": "balances",
          "type": "uint256[]"
        }
      ],
      "stateMutability": "view",
      "type": "function"
    },
    {
      "inputs": [
        {
          "internalType": "uint256",
          "name": "categoryID",
          "type": "uint256"
        }
      ],
      "name": "getLastCategoryUpdate",
      "outputs": [
        {
          "internalType": "uint256",
          "name": "",
          "type": "uint256"
        }
      ],
      "stateMutability": "view",
      "type": "function"
    },
    {
      "inputs": [
        {
          "internalType": "uint256",
          "name": "categoryID",
          "type": "uint256"
        },
        {
          "internalType": "uint256",
          "name": "num",
          "type": "uint256"
        }
      ],
      "name": "getTopCategoryTokens",
      "outputs": [
        {
          "internalType": "address[]",
          "name": "tokens",
          "type": "address[]"
        }
      ],
      "stateMutability": "view",
      "type": "function"
    },
    {
      "inputs": [
        {
          "internalType": "uint256",
          "name": "categoryID",
          "type": "uint256"
        }
      ],
      "name": "hasCategory",
      "outputs": [
        {
          "internalType": "bool",
          "name": "",
          "type": "bool"
        }
      ],
      "stateMutability": "view",
      "type": "function"
    },
    {
      "inputs": [
        {
          "internalType": "uint256",
          "name": "categoryID",
          "type": "uint256"
        },
        {
          "internalType": "address",
          "name": "token",
          "type": "address"
        }
      ],
      "name": "isTokenInCategory",
      "outputs": [
        {
          "internalType": "bool",
          "name": "",
          "type": "bool"
        }
      ],
      "stateMutability": "view",
      "type": "function"
    },
    {
      "inputs": [],
      "name": "oracle",
      "outputs": [
        {
          "internalType": "contract IIndexedUniswapV2Oracle",
          "name": "",
          "type": "address"
        }
      ],
      "stateMutability": "view",
      "type": "function"
    },
    {
      "inputs": [
        {
          "internalType": "uint256",
          "name": "categoryID",
          "type": "uint256"
        }
      ],
      "name": "orderCategoryTokensByMarketCap",
      "outputs": [],
      "stateMutability": "nonpayable",
      "type": "function"
    },
    {
      "inputs": [],
      "name": "owner",
      "outputs": [
        {
          "internalType": "address",
          "name": "",
          "type": "address"
        }
      ],
      "stateMutability": "view",
      "type": "function"
    },
    {
      "inputs": [
        {
          "internalType": "uint256",
          "name": "categoryID",
          "type": "uint256"
        },
        {
          "internalType": "uint256",
          "name": "indexSize",
          "type": "uint256"
        },
        {
          "internalType": "uint256",
          "name": "initialWethValue",
          "type": "uint256"
        },
        {
          "internalType": "string",
          "name": "name",
          "type": "string"
        },
        {
          "internalType": "string",
          "name": "symbol",
          "type": "string"
        }
      ],
      "name": "prepareIndexPool",
      "outputs": [
        {
          "internalType": "address",
          "name": "poolAddress",
          "type": "address"
        },
        {
          "internalType": "address",
          "name": "initializerAddress",
          "type": "address"
        }
      ],
      "stateMutability": "nonpayable",
      "type": "function"
    },
    {
      "inputs": [
        {
          "internalType": "address",
          "name": "poolAddress",
          "type": "address"
        }
      ],
      "name": "reindexPool",
      "outputs": [],
      "stateMutability": "nonpayable",
      "type": "function"
    },
    {
      "inputs": [],
      "name": "renounceOwnership",
      "outputs": [],
      "stateMutability": "nonpayable",
      "type": "function"
    },
    {
      "inputs": [
        {
          "internalType": "address",
          "name": "poolAddress",
          "type": "address"
        }
      ],
      "name": "reweighPool",
      "outputs": [],
      "stateMutability": "nonpayable",
      "type": "function"
    },
    {
      "inputs": [
        {
          "internalType": "uint8",
          "name": "_defaultSellerPremium",
          "type": "uint8"
        }
      ],
      "name": "setDefaultSellerPremium",
      "outputs": [],
      "stateMutability": "nonpayable",
      "type": "function"
    },
    {
      "inputs": [
        {
          "internalType": "address",
          "name": "poolAddress",
          "type": "address"
        },
        {
          "internalType": "uint256",
          "name": "maxPoolTokens",
          "type": "uint256"
        }
      ],
      "name": "setMaxPoolTokens",
      "outputs": [],
      "stateMutability": "nonpayable",
      "type": "function"
    },
    {
      "inputs": [
        {
          "internalType": "address",
          "name": "poolAddress",
          "type": "address"
        },
        {
          "internalType": "uint256",
          "name": "swapFee",
          "type": "uint256"
        }
      ],
      "name": "setSwapFee",
      "outputs": [],
      "stateMutability": "nonpayable",
      "type": "function"
    },
    {
      "inputs": [
        {
          "internalType": "address",
          "name": "newOwner",
          "type": "address"
        }
      ],
      "name": "transferOwnership",
      "outputs": [],
      "stateMutability": "nonpayable",
      "type": "function"
    },
    {
      "inputs": [
        {
          "internalType": "uint256",
          "name": "categoryID",
          "type": "uint256"
        }
      ],
      "name": "updateCategoryPrices",
      "outputs": [],
      "stateMutability": "nonpayable",
      "type": "function"
    },
    {
      "inputs": [
        {
          "internalType": "contract IPool",
          "name": "pool",
          "type": "address"
        },
        {
          "internalType": "address",
          "name": "tokenAddress",
          "type": "address"
        }
      ],
      "name": "updateMinimumBalance",
      "outputs": [],
      "stateMutability": "nonpayable",
      "type": "function"
    },
    {
      "inputs": [
        {
          "internalType": "address",
          "name": "tokenSeller",
          "type": "address"
        },
        {
          "internalType": "uint8",
          "name": "premiumPercent",
          "type": "uint8"
        }
      ],
      "name": "updateSellerPremium",
      "outputs": [],
      "stateMutability": "nonpayable",
      "type": "function"
    }
  ],
  "address": "0xABCc7CE99c961cA06D1Cd714228765b9526a669d",
  "args": [
    "0x8C5bAe4c044b8CaD35F36adb62D22cFaF97bC79b",
    "0x7564A4C627aF7824676725470f3d1269e0eA8869",
    "0x68Cf58DD7d90bBcfAc51D52bF5005c202B17974c"
  ],
  "solcInputHash": "0xaf8c618a376cbc497299d7a053a95bf87290e7411f280b695e28e1d76929501e",
  "bytecode": "0x60e06040526005805460ff191660021790553480156200001e57600080fd5b5060405162004a1838038062004a188339810160408190526200004191620000c3565b8260006200004e620000bf565b600080546001600160a01b0319166001600160a01b0383169081178255604051929350917f8be0079c531659141344cd1fd0a4f28419497f9722a3daafe3b4186f6b6457e0908290a3506001600160601b0319606091821b811660805292811b831660a0521b1660c052506200012f565b3390565b600080600060608486031215620000d8578283fd5b8351620000e58162000116565b6020850151909350620000f88162000116565b60408501519092506200010b8162000116565b809150509250925092565b6001600160a01b03811681146200012c57600080fd5b50565b60805160601c60a05160601c60c05160601c614863620001b560003980610f8e528061144b5280611dcf528061204f5280612c6d525080611b65528061207052508061070352806108b25280610b49528061112452806112f652806117ed52806119a75280611f7c52806121a552806128795280612d4d5280612e6f52506148636000f3fe608060405234801561001057600080fd5b50600436106101f05760003560e01c80637dc0d1d01161010f578063df8e238a116100a2578063f2fde38b11610071578063f2fde38b14610447578063f3cd354f1461045a578063fa7c0b5e1461046d578063fd37113814610480576101f0565b8063df8e238a146103f9578063e9819daf1461040c578063ea99fc041461041f578063f256a9d014610434576101f0565b8063af81c5b9116100de578063af81c5b9146103ad578063b25f86f9146103c0578063dcdf7e16146103d3578063de105dbd146103e6576101f0565b80637dc0d1d0146103775780638da5cb5b1461037f578063991991c7146103875780639dd19a521461039a576101f0565b8063582edc9b116101875780636b5b8808116101565780636b5b88081461031b5780636bfc3d401461032e578063715018a61461034e57806374a5878314610356576101f0565b8063582edc9b146102c25780636696bf11146102e25780636866ada8146102f55780636a7a93ed14610308576101f0565b806336176824116101c35780633617682414610266578063372accd21461028757806350b1e3421461029c57806351531cce146102af576101f0565b8063030fb7f4146101f5578063034b904e1461021e5780631ab66317146102335780631fbaf27514610253575b600080fd5b610208610203366004613d05565b6104a0565b6040516102159190614215565b60405180910390f35b61023161022c366004613b7d565b6105ec565b005b610246610241366004613b65565b610825565b604051610215919061436f565b610246610261366004613c98565b610841565b610279610274366004613d26565b61089f565b604051610215929190614228565b61028f610a1c565b604051610215919061479e565b6102316102aa366004613723565b610a25565b6102316102bd3660046137da565b610eb5565b6102d56102d0366004613723565b610f87565b6040516102159190613fe4565b6102316102f0366004613b65565b610ffb565b610231610303366004613b65565b611078565b61023161031636600461375b565b6111b7565b610231610329366004613cbc565b611702565b61034161033c36600461386a565b611898565b6040516102159190614322565b610231611a44565b610369610364366004613d5e565b611ac3565b604051610215929190613ff8565b6102d5611f7a565b6102d5611f9e565b6102316103953660046137da565b611fad565b6102d56103a8366004613d05565b612048565b6102316103bb3660046137da565b6120f2565b6102316103ce366004613b65565b612249565b6102316103e1366004613832565b6124cc565b6102086103f4366004613b65565b612595565b610231610407366004613de7565b612682565b61023161041a366004613723565b6126ff565b610427612ac9565b6040516102159190614795565b610427610442366004613b65565b612acf565b610231610455366004613723565b612b14565b610341610468366004613b65565b612bca565b6102d561047b366004613723565b612c66565b61049361048e366004613723565b612cbf565b6040516102159190614781565b60608260015481111580156104b55750600081115b6104da5760405162461bcd60e51b81526004016104d1906145af565b60405180910390fd5b600084815260026020526040902080548411156105095760405162461bcd60e51b81526004016104d19061465e565b600085815260046020526040902054620151804291909103111561053f5760405162461bcd60e51b81526004016104d1906143cd565b836001600160401b038111801561055557600080fd5b5060405190808252806020026020018201604052801561057f578160200160208202803683370190505b50925060005b848110156105e35781818154811061059957fe5b9060005260206000200160009054906101000a90046001600160a01b03168482815181106105c357fe5b6001600160a01b0390921660209283029190910190910152600101610585565b50505092915050565b6001600160a01b038216600090815260066020526040902054829060ff166106265760405162461bcd60e51b81526004016104d1906145d8565b61062e6134d2565b6040516364c7d66160e01b81526001600160a01b038516906364c7d6619061065a908690600401613fe4565b60e06040518083038186803b15801561067257600080fd5b505afa158015610686573d6000803e3d6000fd5b505050506040513d601f19601f820116820180604052508101906106aa9190613baa565b90508060200151156106ce5760405162461bcd60e51b81526004016104d1906146cc565b60006106d985612dde565b6001600160901b031690506106ec61350e565b604051635765361560e01b81526001600160a01b037f000000000000000000000000000000000000000000000000000000000000000016906357653615906107419088906104b0906202a3009060040161412c565b604080518083038186803b15801561075857600080fd5b505afa15801561076c573d6000803e3d6000fd5b505050506040513d601f19601f820116820180604052508101906107909190613c49565b9050600060646107a08385612eff565b6001600160901b0316816107b057fe5b046001600160901b03169050866001600160a01b031663a49c44d787836040518363ffffffff1660e01b81526004016107ea9291906140e4565b600060405180830381600087803b15801561080457600080fd5b505af1158015610818573d6000803e3d6000fd5b5050505050505050505050565b600060015482111580156108395750600082115b90505b919050565b60008260015481111580156108565750600081115b6108725760405162461bcd60e51b81526004016104d1906145af565b505060009182526003602090815260408084206001600160a01b0393909316845291905290205460ff1690565b6060806108ac85856104a0565b915060607f00000000000000000000000000000000000000000000000000000000000000006001600160a01b031663768d2c198462015180620dd7c06040518463ffffffff1660e01b8152600401610906939291906142f2565b60006040518083038186803b15801561091e57600080fd5b505afa158015610932573d6000803e3d6000fd5b505050506040513d6000823e601f3d908101601f1916820160405261095a9190810190613a1d565b905060606109688483612f3d565b9050856001600160401b038111801561098057600080fd5b506040519080825280602002602001820160405280156109aa578160200160208202803683370190505b50925060005b86811015610a11576109e9868383815181106109c857fe5b60200260200101518584815181106109dc57fe5b6020026020010151613026565b6001600160901b03168482815181106109fe57fe5b60209081029190910101526001016109b0565b505050935093915050565b60055460ff1681565b610a2d613525565b506001600160a01b038116600090815260066020908152604091829020825160a081018452905460ff8082161515808452610100830461ffff16948401949094526301000000820481169483019490945264010000000081049093166060820152600160281b9092046001600160401b03166080830152610ac05760405162461bcd60e51b81526004016104d1906145d8565b62093a8081608001516001600160401b031642031015610af25760405162461bcd60e51b81526004016104d19061457f565b60608101805160010160ff16908190526004900615610b235760405162461bcd60e51b81526004016104d190614554565b6000816040015160ff1690506060610b43836020015161ffff16836104a0565b905060607f00000000000000000000000000000000000000000000000000000000000000006001600160a01b031663768d2c198362015180620dd7c06040518463ffffffff1660e01b8152600401610b9d939291906142f2565b60006040518083038186803b158015610bb557600080fd5b505afa158015610bc9573d6000803e3d6000fd5b505050506040513d6000823e601f3d908101601f19168201604052610bf19190810190613a1d565b90506060610bff8383612f3d565b90506060846001600160401b0381118015610c1957600080fd5b50604051908082528060200260200182016040528015610c43578160200160208202803683370190505b5090506060856001600160401b0381118015610c5e57600080fd5b50604051908082528060200260200182016040528015610c88578160200160208202803683370190505b5090506000610c9689612dde565b905060005b87811015610d4e576064610cd4836001600160901b0316888481518110610cbe57fe5b6020026020010151612eff90919063ffffffff16565b6001600160901b031681610ce457fe5b046001600160901b0316848281518110610cfa57fe5b602002602001018181525050610d22858281518110610d1557fe5b602002602001015161305d565b838281518110610d2e57fe5b6001600160601b0390921660209283029190910190910152600101610c9b565b504288608001906001600160401b031690816001600160401b03168152505087600660008b6001600160a01b03166001600160a01b0316815260200190815260200160002060008201518160000160006101000a81548160ff02191690831515021790555060208201518160000160016101000a81548161ffff021916908361ffff16021790555060408201518160000160036101000a81548160ff021916908360ff16021790555060608201518160000160046101000a81548160ff021916908360ff16021790555060808201518160000160056101000a8154816001600160401b0302191690836001600160401b03160217905550905050886001600160a01b031663c3f468108784866040518463ffffffff1660e01b8152600401610e78939291906142b9565b600060405180830381600087803b158015610e9257600080fd5b505af1158015610ea6573d6000803e3d6000fd5b50505050505050505050505050565b610ebd613075565b6000546001600160a01b03908116911614610eea5760405162461bcd60e51b81526004016104d190614604565b6001600160a01b038216600090815260066020526040902054829060ff16610f245760405162461bcd60e51b81526004016104d1906145d8565b60405163534d4f3d60e01b81526001600160a01b0384169063534d4f3d90610f50908590600401614795565b600060405180830381600087803b158015610f6a57600080fd5b505af1158015610f7e573d6000803e3d6000fd5b50505050505050565b60006108397f0000000000000000000000000000000000000000000000000000000000000000307f7ca83b20f9ebcf7361e9aa92ccaf4288e58f283ef8643d48af11fb81be1fc9e485604051602001610fe09190613f48565b60405160208183030381529060405280519060200120613079565b611003613075565b6000546001600160a01b039081169116146110305760405162461bcd60e51b81526004016104d190614604565b600180548101908190556040517f087cd6515ab9d8ad2d847c4b093743cd73acf162a4260bd0ea2429ec6709a6329061106c9083908590613fd6565b60405180910390a15050565b80600154811115801561108b5750600081115b6110a75760405162461bcd60e51b81526004016104d1906145af565b60008281526002602090815260409182902080548351818402810184019094528084526060939283018282801561110757602002820191906000526020600020905b81546001600160a01b031681526001909101906020018083116110e9575b50506040516303f294b760e51b8152939450506001600160a01b037f00000000000000000000000000000000000000000000000000000000000000001692637e5296e0925061115b91508490600401614215565b600060405180830381600087803b15801561117557600080fd5b505af1158015611189573d6000803e3d6000fd5b505050506040513d6000823e601f3d908101601f191682016040526111b19190810190613992565b50505050565b6111c085612c66565b6001600160a01b0316336001600160a01b0316146111f05760405162461bcd60e51b81526004016104d1906144c8565b828181146112105760405162461bcd60e51b81526004016104d190614639565b611218613525565b506001600160a01b038616600090815260066020908152604091829020825160a081018452905460ff8082161580158452610100830461ffff16948401949094526301000000820481169483019490945264010000000081049093166060820152600160281b9092046001600160401b031660808301526112ab5760405162461bcd60e51b81526004016104d19061452b565b6060826001600160401b03811180156112c357600080fd5b506040519080825280602002602001820160405280156112ed578160200160208202803683370190505b509050600060607f00000000000000000000000000000000000000000000000000000000000000006001600160a01b0316637c906a2a8a8a8a8a6104b06202a3006040518763ffffffff1660e01b815260040161134f969594939291906141ca565b60006040518083038186803b15801561136757600080fd5b505afa15801561137b573d6000803e3d6000fd5b505050506040513d6000823e601f3d908101601f191682016040526113a39190810190613aba565b905060005b858110156113e9576113df8282815181106113bf57fe5b60200260200101516001600160901b0316846130be90919063ffffffff16565b92506001016113a8565b5060005b858110156114465761141a61141583838151811061140757fe5b6020026020010151856130e3565b61305d565b84828151811061142657fe5b6001600160601b03909216602092830291909101909101526001016113ed565b5060007f00000000000000000000000000000000000000000000000000000000000000006001600160a01b0316631a5e5bc57f7ca83b20f9ebcf7361e9aa92ccaf4288e58f283ef8643d48af11fb81be1fc9e48d6040516020016114aa9190613f48565b604051602081830303815290604052805190602001206040518363ffffffff1660e01b81526004016114dd929190613fd6565b602060405180830381600087803b1580156114f757600080fd5b505af115801561150b573d6000803e3d6000fd5b505050506040513d601f19601f8201168201806040525081019061152f919061373f565b60405163a20cfa7560e01b81529091506001600160a01b038c169063a20cfa759061156a908d908d908d908d908b9033908a90600401614167565b600060405180830381600087803b15801561158457600080fd5b505af1158015611598573d6000803e3d6000fd5b5050600554604051634a1d925960e11b81526001600160a01b038516935063943b24b292506115d1918f9160ff9091169060040161437a565b600060405180830381600087803b1580156115eb57600080fd5b505af11580156115ff573d6000803e3d6000fd5b505050426001600160401b0390811660808801908152600188526001600160a01b038e166000908152600660209081526040918290208a518154928c0151848d015160608e0151965160ff199095169215159290921762ffff00191661010061ffff8316021763ff0000001916630100000060ff808516919091029190911764ff0000000019166401000000009190971602959095176cffffffffffffffff00000000001916600160281b939096169290920294909417909355517f9ff2050ac7faae9dc192e1cc9abe73b18a9b849f9b43f509914d80fa104d590393506116ed928f928692909190614012565b60405180910390a15050505050505050505050565b61170a613075565b6000546001600160a01b039081169116146117375760405162461bcd60e51b81526004016104d190614604565b82600154811115801561174a5750600081115b6117665760405162461bcd60e51b81526004016104d1906145af565b600084815260026020526040902054600f90830111156117985760405162461bcd60e51b81526004016104d190614396565b60005b828110156117d5576117cd8484838181106117b257fe5b90506020020160208101906117c79190613723565b8661315e565b60010161179b565b506040516303f294b760e51b81526001600160a01b037f00000000000000000000000000000000000000000000000000000000000000001690637e5296e0906118249086908690600401614153565b600060405180830381600087803b15801561183e57600080fd5b505af1158015611852573d6000803e3d6000fd5b505050506040513d6000823e601f3d908101601f1916820160405261187a9190810190613992565b50505060009182525060046020526040902080546201517f19019055565b805160609081816001600160401b03811180156118b457600080fd5b506040519080825280602002602001820160405280156118de578160200160208202803683370190505b50905060005b8281101561198f578481815181106118f857fe5b60200260200101516001600160a01b03166318160ddd6040518163ffffffff1660e01b815260040160206040518083038186803b15801561193857600080fd5b505afa15801561194c573d6000803e3d6000fd5b505050506040513d601f19601f820116820180604052508101906119709190613c80565b82828151811061197c57fe5b60209081029190910101526001016118e4565b50604051633e48351560e11b81526001600160a01b037f00000000000000000000000000000000000000000000000000000000000000001690637c906a2a906119e890879085906201518090620dd7c09060040161424d565b60006040518083038186803b158015611a0057600080fd5b505afa158015611a14573d6000803e3d6000fd5b505050506040513d6000823e601f3d908101601f19168201604052611a3c9190810190613aba565b949350505050565b611a4c613075565b6000546001600160a01b03908116911614611a795760405162461bcd60e51b81526004016104d190614604565b600080546040516001600160a01b03909116907f8be0079c531659141344cd1fd0a4f28419497f9722a3daafe3b4186f6b6457e0908390a3600080546001600160a01b0319169055565b600080611ace613075565b6000546001600160a01b03908116911614611afb5760405162461bcd60e51b81526004016104d190614604565b6002881015611b1c5760405162461bcd60e51b81526004016104d1906146f5565b6008881115611b3d5760405162461bcd60e51b81526004016104d1906144ff565b6001600160901b038710611b635760405162461bcd60e51b81526004016104d190614721565b7f00000000000000000000000000000000000000000000000000000000000000006001600160a01b031663187775f97fbdf45dfa5500a1d836ba9679b5628de7fdcf2f7f2fddf5d722fa3f4965ce70278b8b604051602001611bc6929190613fd6565b604051602081830303815290604052805190602001206040518363ffffffff1660e01b8152600401611bf9929190613fd6565b602060405180830381600087803b158015611c1357600080fd5b505af1158015611c27573d6000803e3d6000fd5b505050506040513d601f19601f82011682018060405250810190611c4b919061373f565b6040516319f0f84960e01b81529092506001600160a01b038316906319f0f84990611c829030908a908a908a908a906004016140a0565b600060405180830381600087803b158015611c9c57600080fd5b505af1158015611cb0573d6000803e3d6000fd5b505050506040518060a001604052806000151581526020018a61ffff1681526020018960ff168152602001600060ff16815260200160006001600160401b031681525060066000846001600160a01b03166001600160a01b0316815260200190815260200160002060008201518160000160006101000a81548160ff02191690831515021790555060208201518160000160016101000a81548161ffff021916908361ffff16021790555060408201518160000160036101000a81548160ff021916908360ff16021790555060608201518160000160046101000a81548160ff021916908360ff16021790555060808201518160000160056101000a8154816001600160401b0302191690836001600160401b031602179055509050507f00000000000000000000000000000000000000000000000000000000000000006001600160a01b0316631a5e5bc57f9134d4340af80bbc89b1b5b9756e9daac8b06847b04cae9580168b4d1c5191fa84604051602001611e2e9190613f48565b604051602081830303815290604052805190602001206040518363ffffffff1660e01b8152600401611e61929190613fd6565b602060405180830381600087803b158015611e7b57600080fd5b505af1158015611e8f573d6000803e3d6000fd5b505050506040513d601f19601f82011682018060405250810190611eb3919061373f565b905080606080611ec48c8c8c61089f565b60405160016271545760e11b0319815291935091506001600160a01b0384169063ff1d575290611efc9088908690869060040161406a565b600060405180830381600087803b158015611f1657600080fd5b505af1158015611f2a573d6000803e3d6000fd5b505050507f7ad23833dba658b2bdc6f260fb60a3240b3868086ad60b4e42276f5eeba73e6a85858e8e604051611f639493929190614041565b60405180910390a150505097509795505050505050565b7f000000000000000000000000000000000000000000000000000000000000000081565b6000546001600160a01b031690565b611fb5613075565b6000546001600160a01b03908116911614611fe25760405162461bcd60e51b81526004016104d190614604565b6001600160a01b038216600090815260066020526040902054829060ff1661201c5760405162461bcd60e51b81526004016104d1906145d8565b6040516334e1990760e01b81526001600160a01b038416906334e1990790610f50908590600401614795565b60006120eb7f00000000000000000000000000000000000000000000000000000000000000007f00000000000000000000000000000000000000000000000000000000000000007fbdf45dfa5500a1d836ba9679b5628de7fdcf2f7f2fddf5d722fa3f4965ce70273087876040516020016120c4929190613fd6565b60405160208183030381529060405280519060200120604051602001610fe0929190613f60565b9392505050565b6120fa613075565b6000546001600160a01b039081169116146121275760405162461bcd60e51b81526004016104d190614604565b80600154811115801561213a5750600081115b6121565760405162461bcd60e51b81526004016104d1906145af565b600082815260026020526040902054600f116121845760405162461bcd60e51b81526004016104d190614396565b61218e838361315e565b6040516396e85ced60e01b81526001600160a01b037f000000000000000000000000000000000000000000000000000000000000000016906396e85ced906121da908690600401613fe4565b602060405180830381600087803b1580156121f457600080fd5b505af1158015612208573d6000803e3d6000fd5b505050506040513d601f19601f8201168201806040525081019061222c9190613b45565b5050600090815260046020526040902080546201517f1901905550565b80600154811115801561225c5750600081115b6122785760405162461bcd60e51b81526004016104d1906145af565b6000828152600260209081526040918290208054835181840281018401909452808452606093928301828280156122d857602002820191906000526020600020905b81546001600160a01b031681526001909101906020018083116122ba575b5050505050905060008151905060606122f083611898565b905060015b8281101561245b57600082828151811061230b57fe5b60200260200101519050600085838151811061232357fe5b6020026020010151905060006001840390505b6000811215801561236b5750826001600160901b031685828151811061235857fe5b60200260200101516001600160901b0316105b156123f75784818151811061237c57fe5b602002602001015185826001018151811061239357fe5b60200260200101906001600160901b031690816001600160901b0316815250508681815181106123bf57fe5b60200260200101518782600101815181106123d657fe5b6001600160a01b039092166020928302919091019091015260001901612336565b8285826001018151811061240757fe5b60200260200101906001600160901b031690816001600160901b0316815250508187826001018151811061243757fe5b6001600160a01b0392909216602092830291909101909101525050506001016122f5565b506000858152600260209081526040909120845161247b92860190613553565b5060008581526004602052604090819020429055517f60d2f5fd1812c906f738651cc42bfcb9c52908b88265a1ec508ce32367af72c3906124bd908790614795565b60405180910390a15050505050565b6124d4613075565b6000546001600160a01b039081169116146125015760405162461bcd60e51b81526004016104d190614604565b60008160ff16118015612517575060148160ff16105b6125335760405162461bcd60e51b81526004016104d19061447a565b604051630633177160e41b81526001600160a01b0383169063633177109061255f90849060040161479e565b600060405180830381600087803b15801561257957600080fd5b505af115801561258d573d6000803e3d6000fd5b505050505050565b60608160015481111580156125aa5750600081115b6125c65760405162461bcd60e51b81526004016104d1906145af565b600083815260026020526040902080546001600160401b03811180156125eb57600080fd5b50604051908082528060200260200182016040528015612615578160200160208202803683370190505b50925060005b835181101561267a5781818154811061263057fe5b9060005260206000200160009054906101000a90046001600160a01b031684828151811061265a57fe5b6001600160a01b039092166020928302919091019091015260010161261b565b505050919050565b61268a613075565b6000546001600160a01b039081169116146126b75760405162461bcd60e51b81526004016104d190614604565b60008160ff161180156126cd575060148160ff16105b6126e95760405162461bcd60e51b81526004016104d19061447a565b6005805460ff191660ff92909216919091179055565b612707613525565b506001600160a01b038116600090815260066020908152604091829020825160a081018452905460ff8082161515808452610100830461ffff16948401949094526301000000820481169483019490945264010000000081049093166060820152600160281b9092046001600160401b0316608083015261279a5760405162461bcd60e51b81526004016104d1906145d8565b62093a8081608001516001600160401b0316420310156127cc5760405162461bcd60e51b81526004016104d19061457f565b60608101805160010160ff1690819052600490066127fc5760405162461bcd60e51b81526004016104d190614554565b6060826001600160a01b031663039209af6040518163ffffffff1660e01b815260040160006040518083038186803b15801561283757600080fd5b505afa15801561284b573d6000803e3d6000fd5b505050506040513d6000823e601f3d908101601f191682016040526128739190810190613906565b905060607f00000000000000000000000000000000000000000000000000000000000000006001600160a01b031663768d2c198362015180620dd7c06040518463ffffffff1660e01b81526004016128cd939291906142f2565b60006040518083038186803b1580156128e557600080fd5b505afa1580156128f9573d6000803e3d6000fd5b505050506040513d6000823e601f3d908101601f191682016040526129219190810190613a1d565b9050606061292f8383612f3d565b9050606083516001600160401b038111801561294a57600080fd5b50604051908082528060200260200182016040528015612974578160200160208202803683370190505b50905060005b84518110156129be57612992838281518110610d1557fe5b82828151811061299e57fe5b6001600160601b039092166020928302919091019091015260010161297a565b50426001600160401b03908116608087019081526001600160a01b0388166000818152600660209081526040918290208a518154928c0151848d015160608e0151975160ff199095169215159290921762ffff00191661010061ffff909216919091021763ff0000001916630100000060ff928316021764ff0000000019166401000000009190961602949094176cffffffffffffffff00000000001916600160281b9190951602939093179091559051635d5e8ce760e01b8152635d5e8ce790612a8f9087908590600401614294565b600060405180830381600087803b158015612aa957600080fd5b505af1158015612abd573d6000803e3d6000fd5b50505050505050505050565b60015481565b6000816001548111158015612ae45750600081115b612b005760405162461bcd60e51b81526004016104d1906145af565b505060009081526004602052604090205490565b612b1c613075565b6000546001600160a01b03908116911614612b495760405162461bcd60e51b81526004016104d190614604565b6001600160a01b038116612b6f5760405162461bcd60e51b81526004016104d1906143fd565b600080546040516001600160a01b03808516939216917f8be0079c531659141344cd1fd0a4f28419497f9722a3daafe3b4186f6b6457e091a3600080546001600160a01b0319166001600160a01b0392909216919091179055565b6060816001548111158015612bdf5750600081115b612bfb5760405162461bcd60e51b81526004016104d1906145af565b60008381526002602090815260409182902080548351818402810184019094528084526120eb9392830182828015612c5c57602002820191906000526020600020905b81546001600160a01b03168152600190910190602001808311612c3e575b5050505050611898565b60006108397f0000000000000000000000000000000000000000000000000000000000000000307f9134d4340af80bbc89b1b5b9756e9daac8b06847b04cae9580168b4d1c5191fa85604051602001610fe09190613f48565b600080826001600160a01b03166318160ddd6040518163ffffffff1660e01b815260040160206040518083038186803b158015612cfb57600080fd5b505afa158015612d0f573d6000803e3d6000fd5b505050506040513d601f19601f82011682018060405250810190612d339190613c80565b604051635fb6ec1760e11b81529091506001600160a01b037f0000000000000000000000000000000000000000000000000000000000000000169063bf6dd82e90612d8e90869085906201518090620dd7c0906004016140fd565b60206040518083038186803b158015612da657600080fd5b505afa158015612dba573d6000803e3d6000fd5b505050506040513d601f19601f820116820180604052508101906120eb9190613c64565b6000806000836001600160a01b03166398836f086040518163ffffffff1660e01b8152600401604080518083038186803b158015612e1b57600080fd5b505afa158015612e2f573d6000803e3d6000fd5b505050506040513d601f19601f82011682018060405250810190612e539190613805565b604051635fb6ec1760e11b815291935091506001600160a01b037f0000000000000000000000000000000000000000000000000000000000000000169063bf6dd82e90612eaf90859085906104b0906202a300906004016140fd565b60206040518083038186803b158015612ec757600080fd5b505afa158015612edb573d6000803e3d6000fd5b505050506040513d601f19601f82011682018060405250810190611a3c9190613c64565b60006120eb612f3283604051806020016040528087602001516001600160e01b031681525061322f90919063ffffffff16565b61328e565b92915050565b606080612f4a8484613295565b8051909150600090815b81811015612f8157838181518110612f6857fe5b6020026020010151830192508080600101915050612f54565b50806001600160401b0381118015612f9857600080fd5b50604051908082528060200260200182016040528015612fd257816020015b612fbf6135b8565b815260200190600190039081612fb75790505b50935060005b8181101561301c57612ffd848281518110612fef57fe5b6020026020010151846130e3565b85828151811061300957fe5b6020908102919091010152600101612fd8565b5050505092915050565b60008061303f612f32856001600160901b03881661322f565b9050613054836001600160901b038316612eff565b95945050505050565b6000610839612f328368015af1d78b58c4000061322f565b3390565b600080613087858585613363565b90506130b4817f8fb4522edc5e0645a7ae5cfdbfe3b34d4a14de9e0279b74da795856b5ef4f1e688613399565b9695505050505050565b6000828201838110156120eb5760405162461bcd60e51b81526004016104d190614443565b6130eb6135b8565b6000826001600160701b0316116131145760405162461bcd60e51b81526004016104d19061474a565b6040805160208101909152806001600160701b0384166dffffffffffffffffffffffffffff60701b607087901b168161314957fe5b046001600160e01b0316815250905092915050565b60008181526003602090815260408083206001600160a01b038616845290915290205460ff16156131a15760405162461bcd60e51b81526004016104d19061449f565b60008181526003602090815260408083206001600160a01b038616808552908352818420805460ff19166001908117909155858552600284528285208054918201815585529290932090910180546001600160a01b031916909217909155517ff4c563a3ea86ff1f4275e8c207df0375a51963f2b831b7bf4da8be938d92876c9061106c90849084906140e4565b6132376135ca565b600082158061325d57505082516001600160e01b03168281029083828161325a57fe5b04145b6132795760405162461bcd60e51b81526004016104d190614689565b60408051602081019091529081529392505050565b5160701c90565b8151606090806001600160401b03811180156132b057600080fd5b506040519080825280602002602001820160405280156132da578160200160208202803683370190505b50915060005b8181101561335b57600061331a8683815181106132f957fe5b602002602001015186848151811061330d57fe5b60200260200101516133d8565b6001600160901b0316905061332e81613458565b84838151811061333a57fe5b6001600160701b0390921660209283029190910190910152506001016132e0565b505092915050565b600083838360405160200161337a93929190613f7d565b6040516020818303038152906040528051906020012090509392505050565b60008060ff60f81b8386866040516020016133b79493929190613fa2565b60408051808303601f19018152919052805160209091012095945050505050565b600080836001600160a01b03166318160ddd6040518163ffffffff1660e01b815260040160206040518083038186803b15801561341457600080fd5b505afa158015613428573d6000803e3d6000fd5b505050506040513d601f19601f8201168201806040525081019061344c9190613c80565b9050611a3c83826134a9565b6000600382111561349b575080600260018201045b818110156134955780915060028182858161348457fe5b04018161348d57fe5b04905061346d565b5061083c565b811561083c57506001919050565b604080516020810190915282516001600160e01b031681526000906120eb90612f32908461322f565b6040805160e081018252600080825260208201819052918101829052606081018290526080810182905260a0810182905260c081019190915290565b604080518082019091526000808252602082015290565b6040805160a08101825260008082526020820181905291810182905260608101829052608081019190915290565b8280548282559060005260206000209081019282156135a8579160200282015b828111156135a857825182546001600160a01b0319166001600160a01b03909116178255602090920191600190910190613573565b506135b49291506135dd565b5090565b60408051602081019091526000815290565b6040518060200160405280600081525090565b5b808211156135b45780546001600160a01b03191681556001016135de565b8035612f37816147f1565b60008083601f840112613618578182fd5b5081356001600160401b0381111561362e578182fd5b602083019150836020808302850101111561364857600080fd5b9250929050565b80518015158114612f3757600080fd5b60008083601f840112613670578182fd5b5081356001600160401b03811115613686578182fd5b60208301915083602082850101111561364857600080fd5b6000604082840312156136af578081fd5b6136b960406147ac565b90506136c583836136ea565b81526136d483602084016136ea565b602082015292915050565b8051612f3781614809565b80516001600160e01b0381168114612f3757600080fd5b8051612f378161481e565b80516001600160601b0381168114612f3757600080fd5b600060208284031215613734578081fd5b81356120eb816147f1565b600060208284031215613750578081fd5b81516120eb816147f1565b600080600080600060608688031215613772578081fd5b853561377d816147f1565b945060208601356001600160401b0380821115613798578283fd5b6137a489838a01613607565b909650945060408801359150808211156137bc578283fd5b506137c988828901613607565b969995985093965092949392505050565b600080604083850312156137ec578182fd5b82356137f7816147f1565b946020939093013593505050565b60008060408385031215613817578182fd5b8251613822816147f1565b6020939093015192949293505050565b60008060408385031215613844578182fd5b823561384f816147f1565b9150602083013561385f8161481e565b809150509250929050565b6000602080838503121561387c578182fd5b82356001600160401b03811115613891578283fd5b8301601f810185136138a1578283fd5b80356138b46138af826147d2565b6147ac565b81815283810190838501858402850186018910156138d0578687fd5b8694505b838510156138fa576138e689826135fc565b8352600194909401939185019185016138d4565b50979650505050505050565b60006020808385031215613918578182fd5b82516001600160401b0381111561392d578283fd5b8301601f8101851361393d578283fd5b805161394b6138af826147d2565b8181528381019083850185840285018601891015613967578687fd5b8694505b838510156138fa57805161397e816147f1565b83526001949094019391850191850161396b565b600060208083850312156139a4578182fd5b82516001600160401b038111156139b9578283fd5b8301601f810185136139c9578283fd5b80516139d76138af826147d2565b81815283810190838501858402850186018910156139f3578687fd5b8694505b838510156138fa57613a09898261364f565b8352600194909401939185019185016139f7565b60006020808385031215613a2f578182fd5b82516001600160401b03811115613a44578283fd5b8301601f81018513613a54578283fd5b8051613a626138af826147d2565b818152838101908385016040808502860187018a1015613a80578788fd5b8795505b84861015613aac57613a968a8361369e565b8452600195909501949286019290810190613a84565b509098975050505050505050565b60006020808385031215613acc578182fd5b82516001600160401b03811115613ae1578283fd5b8301601f81018513613af1578283fd5b8051613aff6138af826147d2565b8181528381019083850185840285018601891015613b1b578687fd5b8694505b838510156138fa57613b3189826136df565b835260019490940193918501918501613b1f565b600060208284031215613b56578081fd5b815180151581146120eb578182fd5b600060208284031215613b76578081fd5b5035919050565b60008060408385031215613b8f578182fd5b8235613b9a816147f1565b9150602083013561385f816147f1565b600060e08284031215613bbb578081fd5b613bc560e06147ac565b613bcf848461364f565b8152613bde846020850161364f565b6020820152604083015164ffffffffff81168114613bfa578283fd5b6040820152613c0c846060850161370c565b6060820152613c1e846080850161370c565b6080820152613c308460a08501613701565b60a082015260c083015160c08201528091505092915050565b600060408284031215613c5a578081fd5b6120eb838361369e565b600060208284031215613c75578081fd5b81516120eb81614809565b600060208284031215613c91578081fd5b5051919050565b60008060408385031215613caa578182fd5b82359150602083013561385f816147f1565b600080600060408486031215613cd0578081fd5b8335925060208401356001600160401b03811115613cec578182fd5b613cf886828701613607565b9497909650939450505050565b60008060408385031215613d17578182fd5b50508035926020909101359150565b600080600060608486031215613d3a578081fd5b83359250602084013591506040840135613d5381614809565b809150509250925092565b600080600080600080600060a0888a031215613d78578485fd5b87359650602088013595506040880135945060608801356001600160401b0380821115613da3578384fd5b613daf8b838c0161365f565b909650945060808a0135915080821115613dc7578384fd5b50613dd48a828b0161365f565b989b979a50959850939692959293505050565b600060208284031215613df8578081fd5b81356120eb8161481e565b60008284526020808501945082825b85811015613e40578135613e25816147f1565b6001600160a01b031687529582019590820190600101613e12565b509495945050505050565b6000815180845260208085019450808401835b83811015613e405781516001600160a01b031687529582019590820190600101613e5e565b81835260006001600160fb1b03831115613e9b578081fd5b6020830280836020870137939093016020019283525090919050565b6000815180845260208085019450808401835b83811015613e4057815187529582019590820190600101613eca565b6000815180845260208085019450808401835b83811015613e405781516001600160601b031687529582019590820190600101613ef9565b60008284528282602086013780602084860101526020601f19601f85011685010190509392505050565b60609190911b6001600160601b031916815260140190565b60609290921b6001600160601b0319168252601482015260340190565b60609390931b6001600160601b03191683526014830191909152603482015260540190565b6001600160f81b031994909416845260609290921b6001600160601b03191660018401526015830152603582015260550190565b918252602082015260400190565b6001600160a01b0391909116815260200190565b6001600160a01b0392831681529116602082015260400190565b6001600160a01b03948516815292909316602083015261ffff16604082015260ff909116606082015260800190565b6001600160a01b0394851681529290931660208301526040820152606081019190915260800190565b6001600160a01b038416815260606020820181905260009061408e90830185613e4b565b82810360408401526130b48185613eb7565b6001600160a01b03861681526060602082018190526000906140c59083018688613f1e565b82810360408401526140d8818587613f1e565b98975050505050505050565b6001600160a01b03929092168252602082015260400190565b6001600160a01b03949094168452602084019290925263ffffffff908116604084015216606082015260800190565b6001600160a01b0393909316835263ffffffff918216602084015216604082015260600190565b600060208252611a3c602083018486613e03565b600060a0825261417b60a08301898b613e03565b828103602084015261418e81888a613e83565b905082810360408401526141a28187613ee6565b6001600160a01b03958616606085015293909416608090920191909152509695505050505050565b6000608082526141de60808301888a613e03565b82810360208401526141f1818789613e83565b91505063ffffffff8085166040840152808416606084015250979650505050505050565b6000602082526120eb6020830184613e4b565b60006040825261423b6040830185613e4b565b82810360208401526130548185613eb7565b6000608082526142606080830187613e4b565b82810360208401526142728187613eb7565b91505063ffffffff808516604084015280841660608401525095945050505050565b6000604082526142a76040830185613e4b565b82810360208401526130548185613ee6565b6000606082526142cc6060830186613e4b565b82810360208401526142de8186613ee6565b905082810360408401526130b48185613eb7565b6000606082526143056060830186613e4b565b63ffffffff94851660208401529290931660409091015292915050565b6020808252825182820181905260009190848201906040850190845b818110156143635783516001600160901b03168352928401929184019160010161433e565b50909695505050505050565b901515815260200190565b6001600160a01b0392909216825260ff16602082015260400190565b60208082526017908201527f4552525f4d41585f43415445474f52595f544f4b454e53000000000000000000604082015260600190565b6020808252601690820152754552525f43415445474f52595f4e4f545f524541445960501b604082015260600190565b60208082526026908201527f4f776e61626c653a206e6577206f776e657220697320746865207a65726f206160408201526564647265737360d01b606082015260800190565b6020808252601b908201527f536166654d6174683a206164646974696f6e206f766572666c6f770000000000604082015260600190565b6020808252600b908201526a4552525f5052454d49554d60a81b604082015260600190565b6020808252600f908201526e11549497d513d2d15397d093d55391608a1b604082015260600190565b60208082526017908201527f4552525f4e4f545f5052455f4445504c4f595f504f4f4c000000000000000000604082015260600190565b6020808252601290820152714552525f4d41585f494e4445585f53495a4560701b604082015260600190565b6020808252600f908201526e11549497d253925512505312569151608a1b604082015260600190565b60208082526011908201527008aa4a4bea48aae8a928e90be929c888ab607b1b604082015260600190565b6020808252601690820152754552525f504f4f4c5f524557454947485f44454c415960501b604082015260600190565b6020808252600f908201526e11549497d0d0551151d3d49657d251608a1b604082015260600190565b60208082526012908201527111549497d413d3d317d393d517d193d5539160721b604082015260600190565b6020808252818101527f4f776e61626c653a2063616c6c6572206973206e6f7420746865206f776e6572604082015260600190565b6020808252600b908201526a22a9292fa0a9292fa622a760a91b604082015260600190565b6020808252601190820152704552525f43415445474f52595f53495a4560781b604082015260600190565b60208082526023908201527f4669786564506f696e743a204d554c5449504c49434154494f4e5f4f564552466040820152624c4f5760e81b606082015260800190565b6020808252600f908201526e4552525f544f4b454e5f524541445960881b604082015260600190565b6020808252601290820152714552525f4d494e5f494e4445585f53495a4560701b604082015260600190565b6020808252600f908201526e11549497d3505617d55253950c4d0d608a1b604082015260600190565b60208082526017908201527f4669786564506f696e743a204449565f42595f5a45524f000000000000000000604082015260600190565b6001600160901b0391909116815260200190565b90815260200190565b60ff91909116815260200190565b6040518181016001600160401b03811182821017156147ca57600080fd5b604052919050565b60006001600160401b038211156147e7578081fd5b5060209081020190565b6001600160a01b038116811461480657600080fd5b50565b6001600160901b038116811461480657600080fd5b60ff8116811461480657600080fdfea26469706673582212202fc22bd41dfcd27496faeba045a7ffe1be8141bf4cedcd35fcbf83cadda972ac64736f6c634300060c0033",
  "devdoc": {
    "author": "d1ll0n",
    "details": "This contract implements the market cap square root index management strategy. Index pools have a defined size which is used to select the top tokens from the pool's category. REBALANCING =============== Every 1 weeks, pools are either re-weighed or re-indexed. They are re-indexed once for every three re-weighs. Re-indexing involves selecting the top tokens from the pool's category and weighing them by the square root of their market caps. Re-weighing involves weighing the tokens which are already indexed by the pool by the square root of their market caps. When a pool is re-weighed, only the tokens with a desired weight above 0 are included. ===============",
    "events": {
      "NewPoolInitializer(address,address,uint256,uint256)": {
        "details": "Emitted when a pool and its initializer are deployed. "
      },
      "PoolInitialized(address,address,uint256,uint256)": {
        "details": "Emitted when a pool is initialized and made public. "
      }
    },
    "kind": "dev",
    "methods": {
      "addToken(address,uint256)": {
        "details": "Adds a new token to a category. Note: A token can only be assigned to one category at a time."
      },
      "addTokens(uint256,address[])": {
        "details": "Add tokens to a category.",
        "params": {
          "categoryID": "Category identifier.",
          "tokens": "Array of tokens to add to the category."
        }
      },
      "computeAverageMarketCap(address)": {
        "details": "Compute the average market cap of a token in weth. Queries the average amount of ether that the total supply is worth using the recent moving average price."
      },
      "computeAverageMarketCaps(address[])": {
        "details": "Returns the average market cap for each token."
      },
      "computeInitializerAddress(address)": {
        "details": "Compute the create2 address for a pool initializer."
      },
      "computePoolAddress(uint256,uint256)": {
        "details": "Compute the create2 address for a pool."
      },
      "computeSellerAddress(address)": {
        "details": "Compute the create2 address for a pool's unbound token seller."
      },
      "constructor": {
        "details": "Deploy the controller and configure the addresses of the related contracts."
      },
      "createCategory(bytes32)": {
        "details": "Creates a new token category.",
        "params": {
          "metadataHash": "Hash of metadata about the token category which can be distributed on IPFS."
        }
      },
      "finishPreparedIndexPool(address,address[],uint256[])": {
        "details": "Initializes a pool which has been deployed but not initialized and transfers the underlying tokens from the initialization pool to the actual pool."
      },
      "getCategoryMarketCaps(uint256)": {
        "details": "Returns the fully diluted market caps for the tokens in a category."
      },
      "getCategoryTokens(uint256)": {
        "details": "Returns the array of tokens in a category."
      },
      "getInitialTokensAndBalances(uint256,uint256,uint144)": {
        "details": "Queries the top `indexSize` tokens in a category from the market oracle, computes their relative weights by market cap square root and determines the weighted balance of each token to meet a specified total value."
      },
      "getLastCategoryUpdate(uint256)": {
        "details": "Returns the timestamp of the last time the category was sorted."
      },
      "getTopCategoryTokens(uint256,uint256)": {
        "details": "Get the top `num` tokens in a category. Note: The category must have been sorted by market cap in the last `MAX_SORT_DELAY` seconds."
      },
      "hasCategory(uint256)": {
        "details": "Returns a boolean stating whether a category exists."
      },
      "isTokenInCategory(uint256,address)": {
        "details": "Returns boolean stating whether `token` is a member of the category `categoryID`."
      },
      "orderCategoryTokensByMarketCap(uint256)": {
        "details": "Sorts a category's tokens in descending order by market cap. Note: Uses in-memory insertion sort.",
        "params": {
          "categoryID": "Category to sort"
        }
      },
      "owner()": {
        "details": "Returns the address of the current owner."
      },
      "prepareIndexPool(uint256,uint256,uint256,string,string)": {
        "details": "Deploys an index pool and a pool initializer. The initializer contract is a pool with specific token balance targets which gives pool tokens in the finished pool to users who provide the underlying tokens needed to initialize it."
      },
      "reindexPool(address)": {
        "details": "Re-indexes a pool by setting the underlying assets to the top tokens in its category by market cap."
      },
      "renounceOwnership()": {
        "details": "Leaves the contract without owner. It will not be possible to call `onlyOwner` functions anymore. Can only be called by the current owner. NOTE: Renouncing ownership will leave the contract without an owner, thereby removing any functionality that is only available to the owner."
      },
      "reweighPool(address)": {
        "details": "Reweighs the assets in a pool by market cap and sets the desired new weights, which will be adjusted over time."
      },
      "setDefaultSellerPremium(uint8)": {
        "details": "Sets the default premium rate for token seller contracts."
      },
      "setMaxPoolTokens(address,uint256)": {
        "details": "Sets the maximum number of pool tokens that can be minted for a particular pool. This value will be used in the alpha to limit the maximum damage that can be caused by a catastrophic error. It can be gradually increased as the pool continues to not be exploited. If it is set to 0, the limit will be removed.",
        "params": {
          "maxPoolTokens": "Maximum LP tokens the pool can mint.",
          "poolAddress": "Address of the pool to set the limit on."
        }
      },
      "setSwapFee(address,uint256)": {
        "details": "Sets the swap fee on an index pool."
      },
      "transferOwnership(address)": {
        "details": "Transfers ownership of the contract to a new account (`newOwner`). Can only be called by the current owner."
      },
      "updateCategoryPrices(uint256)": {
        "details": "Updates the prices on the oracle for all the tokens in a category."
      },
      "updateMinimumBalance(address,address)": {
        "details": "Updates the minimum balance of an uninitialized token, which is useful when the token's price on the pool is too low relative to external prices for people to trade it in."
      },
      "updateSellerPremium(address,uint8)": {
        "details": "Set the premium rate on `sellerAddress` to the given rate."
      }
    },
    "title": "MarketCapSqrtController",
    "version": 1
  },
  "userdoc": {
    "kind": "user",
    "methods": {},
    "version": 1
  },
  "storageLayout": {
    "storage": [
      {
        "astId": 1552,
        "contract": "contracts/MarketCapSqrtController.sol:MarketCapSqrtController",
        "label": "_owner",
        "offset": 0,
        "slot": "0",
        "type": "t_address"
      },
      {
        "astId": 3701,
        "contract": "contracts/MarketCapSqrtController.sol:MarketCapSqrtController",
        "label": "categoryIndex",
        "offset": 0,
        "slot": "1",
        "type": "t_uint256"
      },
      {
        "astId": 3706,
        "contract": "contracts/MarketCapSqrtController.sol:MarketCapSqrtController",
        "label": "_categoryTokens",
        "offset": 0,
        "slot": "2",
        "type": "t_mapping(t_uint256,t_array(t_address)dyn_storage)"
      },
      {
        "astId": 3712,
        "contract": "contracts/MarketCapSqrtController.sol:MarketCapSqrtController",
        "label": "_isCategoryToken",
        "offset": 0,
        "slot": "3",
        "type": "t_mapping(t_uint256,t_mapping(t_address,t_bool))"
      },
      {
        "astId": 3716,
        "contract": "contracts/MarketCapSqrtController.sol:MarketCapSqrtController",
        "label": "_lastCategoryUpdate",
        "offset": 0,
        "slot": "4",
        "type": "t_mapping(t_uint256,t_uint256)"
      },
      {
        "astId": 4445,
        "contract": "contracts/MarketCapSqrtController.sol:MarketCapSqrtController",
        "label": "defaultSellerPremium",
        "offset": 0,
        "slot": "5",
        "type": "t_uint8"
      },
      {
        "astId": 4449,
        "contract": "contracts/MarketCapSqrtController.sol:MarketCapSqrtController",
        "label": "_poolMeta",
        "offset": 0,
        "slot": "6",
        "type": "t_mapping(t_address,t_struct(IndexPoolMeta)4442_storage)"
      }
    ],
    "types": {
      "t_address": {
        "encoding": "inplace",
        "label": "address",
        "numberOfBytes": "20"
      },
      "t_array(t_address)dyn_storage": {
        "base": "t_address",
        "encoding": "dynamic_array",
        "label": "address[]",
        "numberOfBytes": "32"
      },
      "t_bool": {
        "encoding": "inplace",
        "label": "bool",
        "numberOfBytes": "1"
      },
      "t_mapping(t_address,t_bool)": {
        "encoding": "mapping",
        "key": "t_address",
        "label": "mapping(address => bool)",
        "numberOfBytes": "32",
        "value": "t_bool"
      },
      "t_mapping(t_address,t_struct(IndexPoolMeta)4442_storage)": {
        "encoding": "mapping",
        "key": "t_address",
        "label": "mapping(address => struct MarketCapSqrtController.IndexPoolMeta)",
        "numberOfBytes": "32",
        "value": "t_struct(IndexPoolMeta)4442_storage"
      },
      "t_mapping(t_uint256,t_array(t_address)dyn_storage)": {
        "encoding": "mapping",
        "key": "t_uint256",
        "label": "mapping(uint256 => address[])",
        "numberOfBytes": "32",
        "value": "t_array(t_address)dyn_storage"
      },
      "t_mapping(t_uint256,t_mapping(t_address,t_bool))": {
        "encoding": "mapping",
        "key": "t_uint256",
        "label": "mapping(uint256 => mapping(address => bool))",
        "numberOfBytes": "32",
        "value": "t_mapping(t_address,t_bool)"
      },
      "t_mapping(t_uint256,t_uint256)": {
        "encoding": "mapping",
        "key": "t_uint256",
        "label": "mapping(uint256 => uint256)",
        "numberOfBytes": "32",
        "value": "t_uint256"
      },
      "t_struct(IndexPoolMeta)4442_storage": {
        "encoding": "inplace",
        "label": "struct MarketCapSqrtController.IndexPoolMeta",
        "members": [
          {
            "astId": 4433,
            "contract": "contracts/MarketCapSqrtController.sol:MarketCapSqrtController",
            "label": "initialized",
            "offset": 0,
            "slot": "0",
            "type": "t_bool"
          },
          {
            "astId": 4435,
            "contract": "contracts/MarketCapSqrtController.sol:MarketCapSqrtController",
            "label": "categoryID",
            "offset": 1,
            "slot": "0",
            "type": "t_uint16"
          },
          {
            "astId": 4437,
            "contract": "contracts/MarketCapSqrtController.sol:MarketCapSqrtController",
            "label": "indexSize",
            "offset": 3,
            "slot": "0",
            "type": "t_uint8"
          },
          {
            "astId": 4439,
            "contract": "contracts/MarketCapSqrtController.sol:MarketCapSqrtController",
            "label": "reweighIndex",
            "offset": 4,
            "slot": "0",
            "type": "t_uint8"
          },
          {
            "astId": 4441,
            "contract": "contracts/MarketCapSqrtController.sol:MarketCapSqrtController",
            "label": "lastReweigh",
            "offset": 5,
            "slot": "0",
            "type": "t_uint64"
          }
        ],
        "numberOfBytes": "32"
      },
      "t_uint16": {
        "encoding": "inplace",
        "label": "uint16",
        "numberOfBytes": "2"
      },
      "t_uint256": {
        "encoding": "inplace",
        "label": "uint256",
        "numberOfBytes": "32"
      },
      "t_uint64": {
        "encoding": "inplace",
        "label": "uint64",
        "numberOfBytes": "8"
      },
      "t_uint8": {
        "encoding": "inplace",
        "label": "uint8",
        "numberOfBytes": "1"
      }
    }
  },
  "gasEstimates": {
    "creation": {
      "codeDepositCost": "3706200",
      "executionCost": "infinite",
      "totalCost": "infinite"
    },
    "external": {
      "addToken(address,uint256)": "infinite",
      "addTokens(uint256,address[])": "infinite",
      "categoryIndex()": "1117",
      "computeAverageMarketCap(address)": "infinite",
      "computeAverageMarketCaps(address[])": "infinite",
      "computeInitializerAddress(address)": "infinite",
      "computePoolAddress(uint256,uint256)": "infinite",
      "computeSellerAddress(address)": "infinite",
      "createCategory(bytes32)": "23363",
      "defaultSellerPremium()": "1114",
      "finishPreparedIndexPool(address,address[],uint256[])": "infinite",
      "getCategoryMarketCaps(uint256)": "infinite",
      "getCategoryTokens(uint256)": "infinite",
      "getInitialTokensAndBalances(uint256,uint256,uint144)": "infinite",
      "getLastCategoryUpdate(uint256)": "2149",
      "getTopCategoryTokens(uint256,uint256)": "infinite",
      "hasCategory(uint256)": "1256",
      "isTokenInCategory(uint256,address)": "2365",
      "oracle()": "infinite",
      "orderCategoryTokensByMarketCap(uint256)": "infinite",
      "owner()": "1138",
      "prepareIndexPool(uint256,uint256,uint256,string,string)": "infinite",
      "reindexPool(address)": "infinite",
      "renounceOwnership()": "24293",
      "reweighPool(address)": "infinite",
      "setDefaultSellerPremium(uint8)": "22119",
      "setMaxPoolTokens(address,uint256)": "infinite",
      "setSwapFee(address,uint256)": "infinite",
      "transferOwnership(address)": "24477",
      "updateCategoryPrices(uint256)": "infinite",
      "updateMinimumBalance(address,address)": "infinite",
      "updateSellerPremium(address,uint8)": "infinite"
    },
    "internal": {
      "_denormalizeFractionalWeight(struct FixedPoint.uq112x112 memory)": "infinite",
      "_estimatePoolValue(contract IPool)": "infinite"
    }
  }
}