{
  "abi": [
    {
      "inputs": [
        {
          "internalType": "contract IIndexedUniswapV2Oracle",
          "name": "oracle",
          "type": "address"
        },
        {
          "internalType": "contract IPoolFactory",
          "name": "factory",
          "type": "address"
        },
        {
          "internalType": "contract IDelegateCallProxyManager",
          "name": "proxyManager",
          "type": "address"
        }
      ],
      "stateMutability": "nonpayable",
      "type": "constructor"
    },
    {
      "anonymous": false,
      "inputs": [
        {
          "indexed": false,
          "internalType": "uint256",
          "name": "categoryID",
          "type": "uint256"
        },
        {
          "indexed": false,
          "internalType": "bytes32",
          "name": "metadataHash",
          "type": "bytes32"
        }
      ],
      "name": "CategoryAdded",
      "type": "event"
    },
    {
      "anonymous": false,
      "inputs": [
        {
          "indexed": false,
          "internalType": "uint256",
          "name": "categoryID",
          "type": "uint256"
        }
      ],
      "name": "CategorySorted",
      "type": "event"
    },
    {
      "anonymous": false,
      "inputs": [
        {
          "indexed": false,
          "internalType": "address",
          "name": "pool",
          "type": "address"
        },
        {
          "indexed": false,
          "internalType": "address",
          "name": "initializer",
          "type": "address"
        },
        {
          "indexed": false,
          "internalType": "uint256",
          "name": "categoryID",
          "type": "uint256"
        },
        {
          "indexed": false,
          "internalType": "uint256",
          "name": "indexSize",
          "type": "uint256"
        }
      ],
      "name": "NewPoolInitializer",
      "type": "event"
    },
    {
      "anonymous": false,
      "inputs": [
        {
          "indexed": true,
          "internalType": "address",
          "name": "previousOwner",
          "type": "address"
        },
        {
          "indexed": true,
          "internalType": "address",
          "name": "newOwner",
          "type": "address"
        }
      ],
      "name": "OwnershipTransferred",
      "type": "event"
    },
    {
      "anonymous": false,
      "inputs": [
        {
          "indexed": false,
          "internalType": "address",
          "name": "pool",
          "type": "address"
        },
        {
          "indexed": false,
          "internalType": "address",
          "name": "unboundTokenSeller",
          "type": "address"
        },
        {
          "indexed": false,
          "internalType": "uint256",
          "name": "categoryID",
          "type": "uint256"
        },
        {
          "indexed": false,
          "internalType": "uint256",
          "name": "indexSize",
          "type": "uint256"
        }
      ],
      "name": "PoolInitialized",
      "type": "event"
    },
    {
      "anonymous": false,
      "inputs": [
        {
          "indexed": false,
          "internalType": "address",
          "name": "token",
          "type": "address"
        },
        {
          "indexed": false,
          "internalType": "uint256",
          "name": "categoryID",
          "type": "uint256"
        }
      ],
      "name": "TokenAdded",
      "type": "event"
    },
    {
      "inputs": [
        {
          "internalType": "uint256",
          "name": "categoryID",
          "type": "uint256"
        },
        {
          "internalType": "address",
          "name": "token",
          "type": "address"
        }
      ],
      "name": "addToken",
      "outputs": [],
      "stateMutability": "nonpayable",
      "type": "function"
    },
    {
      "inputs": [
        {
          "internalType": "uint256",
          "name": "categoryID",
          "type": "uint256"
        },
        {
          "internalType": "address[]",
          "name": "tokens",
          "type": "address[]"
        }
      ],
      "name": "addTokens",
      "outputs": [],
      "stateMutability": "nonpayable",
      "type": "function"
    },
    {
      "inputs": [],
      "name": "categoryIndex",
      "outputs": [
        {
          "internalType": "uint256",
          "name": "",
          "type": "uint256"
        }
      ],
      "stateMutability": "view",
      "type": "function"
    },
    {
      "inputs": [
        {
          "internalType": "address",
          "name": "token",
          "type": "address"
        }
      ],
      "name": "computeAverageMarketCap",
      "outputs": [
        {
          "internalType": "uint144",
          "name": "",
          "type": "uint144"
        }
      ],
      "stateMutability": "view",
      "type": "function"
    },
    {
      "inputs": [
        {
          "internalType": "address[]",
          "name": "tokens",
          "type": "address[]"
        }
      ],
      "name": "computeAverageMarketCaps",
      "outputs": [
        {
          "internalType": "uint144[]",
          "name": "marketCaps",
          "type": "uint144[]"
        }
      ],
      "stateMutability": "view",
      "type": "function"
    },
    {
      "inputs": [
        {
          "internalType": "address",
          "name": "poolAddress",
          "type": "address"
        }
      ],
      "name": "computeInitializerAddress",
      "outputs": [
        {
          "internalType": "address",
          "name": "initializerAddress",
          "type": "address"
        }
      ],
      "stateMutability": "view",
      "type": "function"
    },
    {
      "inputs": [
        {
          "internalType": "uint256",
          "name": "categoryID",
          "type": "uint256"
        },
        {
          "internalType": "uint256",
          "name": "indexSize",
          "type": "uint256"
        }
      ],
      "name": "computePoolAddress",
      "outputs": [
        {
          "internalType": "address",
          "name": "poolAddress",
          "type": "address"
        }
      ],
      "stateMutability": "view",
      "type": "function"
    },
    {
      "inputs": [
        {
          "internalType": "address",
          "name": "poolAddress",
          "type": "address"
        }
      ],
      "name": "computeSellerAddress",
      "outputs": [
        {
          "internalType": "address",
          "name": "sellerAddress",
          "type": "address"
        }
      ],
      "stateMutability": "view",
      "type": "function"
    },
    {
      "inputs": [
        {
          "internalType": "bytes32",
          "name": "metadataHash",
          "type": "bytes32"
        }
      ],
      "name": "createCategory",
      "outputs": [],
      "stateMutability": "nonpayable",
      "type": "function"
    },
    {
      "inputs": [],
      "name": "defaultSellerPremium",
      "outputs": [
        {
          "internalType": "uint8",
          "name": "",
          "type": "uint8"
        }
      ],
      "stateMutability": "view",
      "type": "function"
    },
    {
      "inputs": [
        {
          "internalType": "address",
          "name": "poolAddress",
          "type": "address"
        },
        {
          "internalType": "address[]",
          "name": "tokens",
          "type": "address[]"
        },
        {
          "internalType": "uint256[]",
          "name": "balances",
          "type": "uint256[]"
        }
      ],
      "name": "finishPreparedIndexPool",
      "outputs": [],
      "stateMutability": "nonpayable",
      "type": "function"
    },
    {
      "inputs": [
        {
          "internalType": "uint256",
          "name": "categoryID",
          "type": "uint256"
        }
      ],
      "name": "getCategoryMarketCaps",
      "outputs": [
        {
          "internalType": "uint144[]",
          "name": "marketCaps",
          "type": "uint144[]"
        }
      ],
      "stateMutability": "view",
      "type": "function"
    },
    {
      "inputs": [
        {
          "internalType": "uint256",
          "name": "categoryID",
          "type": "uint256"
        }
      ],
      "name": "getCategoryTokens",
      "outputs": [
        {
          "internalType": "address[]",
          "name": "tokens",
          "type": "address[]"
        }
      ],
      "stateMutability": "view",
      "type": "function"
    },
    {
      "inputs": [
        {
          "internalType": "uint256",
          "name": "categoryID",
          "type": "uint256"
        },
        {
          "internalType": "uint256",
          "name": "indexSize",
          "type": "uint256"
        },
        {
          "internalType": "uint144",
          "name": "wethValue",
          "type": "uint144"
        }
      ],
      "name": "getInitialTokensAndBalances",
      "outputs": [
        {
          "internalType": "address[]",
          "name": "tokens",
          "type": "address[]"
        },
        {
          "internalType": "uint256[]",
          "name": "balances",
          "type": "uint256[]"
        }
      ],
      "stateMutability": "view",
      "type": "function"
    },
    {
      "inputs": [
        {
          "internalType": "uint256",
          "name": "categoryID",
          "type": "uint256"
        }
      ],
      "name": "getLastCategoryUpdate",
      "outputs": [
        {
          "internalType": "uint256",
          "name": "",
          "type": "uint256"
        }
      ],
      "stateMutability": "view",
      "type": "function"
    },
    {
      "inputs": [
        {
          "internalType": "uint256",
          "name": "categoryID",
          "type": "uint256"
        },
        {
          "internalType": "uint256",
          "name": "num",
          "type": "uint256"
        }
      ],
      "name": "getTopCategoryTokens",
      "outputs": [
        {
          "internalType": "address[]",
          "name": "tokens",
          "type": "address[]"
        }
      ],
      "stateMutability": "view",
      "type": "function"
    },
    {
      "inputs": [
        {
          "internalType": "uint256",
          "name": "categoryID",
          "type": "uint256"
        }
      ],
      "name": "hasCategory",
      "outputs": [
        {
          "internalType": "bool",
          "name": "",
          "type": "bool"
        }
      ],
      "stateMutability": "view",
      "type": "function"
    },
    {
      "inputs": [],
      "name": "initialize",
      "outputs": [],
      "stateMutability": "nonpayable",
      "type": "function"
    },
    {
      "inputs": [
        {
          "internalType": "uint256",
          "name": "categoryID",
          "type": "uint256"
        },
        {
          "internalType": "address",
          "name": "token",
          "type": "address"
        }
      ],
      "name": "isTokenInCategory",
      "outputs": [
        {
          "internalType": "bool",
          "name": "",
          "type": "bool"
        }
      ],
      "stateMutability": "view",
      "type": "function"
    },
    {
      "inputs": [],
      "name": "oracle",
      "outputs": [
        {
          "internalType": "contract IIndexedUniswapV2Oracle",
          "name": "",
          "type": "address"
        }
      ],
      "stateMutability": "view",
      "type": "function"
    },
    {
      "inputs": [
        {
          "internalType": "uint256",
          "name": "categoryID",
          "type": "uint256"
        }
      ],
      "name": "orderCategoryTokensByMarketCap",
      "outputs": [],
      "stateMutability": "nonpayable",
      "type": "function"
    },
    {
      "inputs": [],
      "name": "owner",
      "outputs": [
        {
          "internalType": "address",
          "name": "",
          "type": "address"
        }
      ],
      "stateMutability": "view",
      "type": "function"
    },
    {
      "inputs": [
        {
          "internalType": "uint256",
          "name": "categoryID",
          "type": "uint256"
        },
        {
          "internalType": "uint256",
          "name": "indexSize",
          "type": "uint256"
        },
        {
          "internalType": "uint256",
          "name": "initialWethValue",
          "type": "uint256"
        },
        {
          "internalType": "string",
          "name": "name",
          "type": "string"
        },
        {
          "internalType": "string",
          "name": "symbol",
          "type": "string"
        }
      ],
      "name": "prepareIndexPool",
      "outputs": [
        {
          "internalType": "address",
          "name": "poolAddress",
          "type": "address"
        },
        {
          "internalType": "address",
          "name": "initializerAddress",
          "type": "address"
        }
      ],
      "stateMutability": "nonpayable",
      "type": "function"
    },
    {
      "inputs": [
        {
          "internalType": "address",
          "name": "poolAddress",
          "type": "address"
        }
      ],
      "name": "reindexPool",
      "outputs": [],
      "stateMutability": "nonpayable",
      "type": "function"
    },
    {
      "inputs": [
        {
          "internalType": "uint256",
          "name": "categoryID",
          "type": "uint256"
        },
        {
          "internalType": "address",
          "name": "token",
          "type": "address"
        }
      ],
      "name": "removeToken",
      "outputs": [],
      "stateMutability": "nonpayable",
      "type": "function"
    },
    {
      "inputs": [],
      "name": "renounceOwnership",
      "outputs": [],
      "stateMutability": "nonpayable",
      "type": "function"
    },
    {
      "inputs": [
        {
          "internalType": "address",
          "name": "poolAddress",
          "type": "address"
        }
      ],
      "name": "reweighPool",
      "outputs": [],
      "stateMutability": "nonpayable",
      "type": "function"
    },
    {
      "inputs": [
        {
          "internalType": "uint8",
          "name": "_defaultSellerPremium",
          "type": "uint8"
        }
      ],
      "name": "setDefaultSellerPremium",
      "outputs": [],
      "stateMutability": "nonpayable",
      "type": "function"
    },
    {
      "inputs": [
        {
          "internalType": "address",
          "name": "poolAddress",
          "type": "address"
        },
        {
          "internalType": "uint256",
          "name": "maxPoolTokens",
          "type": "uint256"
        }
      ],
      "name": "setMaxPoolTokens",
      "outputs": [],
      "stateMutability": "nonpayable",
      "type": "function"
    },
    {
      "inputs": [
        {
          "internalType": "address",
          "name": "poolAddress",
          "type": "address"
        },
        {
          "internalType": "uint256",
          "name": "swapFee",
          "type": "uint256"
        }
      ],
      "name": "setSwapFee",
      "outputs": [],
      "stateMutability": "nonpayable",
      "type": "function"
    },
    {
      "inputs": [
        {
          "internalType": "address",
          "name": "newOwner",
          "type": "address"
        }
      ],
      "name": "transferOwnership",
      "outputs": [],
      "stateMutability": "nonpayable",
      "type": "function"
    },
    {
      "inputs": [
        {
          "internalType": "uint256",
          "name": "categoryID",
          "type": "uint256"
        }
      ],
      "name": "updateCategoryPrices",
      "outputs": [
        {
          "internalType": "bool[]",
          "name": "pricesUpdated",
          "type": "bool[]"
        }
      ],
      "stateMutability": "nonpayable",
      "type": "function"
    },
    {
      "inputs": [
        {
          "internalType": "contract IIndexPool",
          "name": "pool",
          "type": "address"
        },
        {
          "internalType": "address",
          "name": "tokenAddress",
          "type": "address"
        }
      ],
      "name": "updateMinimumBalance",
      "outputs": [],
      "stateMutability": "nonpayable",
      "type": "function"
    },
    {
      "inputs": [
        {
          "internalType": "address",
          "name": "tokenSeller",
          "type": "address"
        },
        {
          "internalType": "uint8",
          "name": "premiumPercent",
          "type": "uint8"
        }
      ],
      "name": "updateSellerPremium",
      "outputs": [],
      "stateMutability": "nonpayable",
      "type": "function"
    }
  ],
  "address": "0x15A146f33703f7090f7eaA0564C9d74b32255995",
  "args": [
    "0xe351Dc5542C9aD053c75C4e712ee6Bc5EA92AE31",
    "0x0FC8F71f0751eC0900b54aca7E7cCAE373EddceA",
    "0x2fD9B976b7B4310F3d57A19fB011e1E2FEE93251"
  ],
  "solcInputHash": "0x7b2602a5fc33520f8b7fd7dfab2fe1faf009bcd59d28fed777b5540ba351526c",
  "bytecode": "0x60e06040523480156200001157600080fd5b5060405162004e1038038062004e1083398101604081905262000034916200009b565b600080546001600160a01b031916600190811782556040518592907f8be0079c531659141344cd1fd0a4f28419497f9722a3daafe3b4186f6b6457e0908290a36001600160601b0319606091821b811660805292811b831660a0521b1660c0525062000107565b600080600060608486031215620000b0578283fd5b8351620000bd81620000ee565b6020850151909350620000d081620000ee565b6040850151909250620000e381620000ee565b809150509250925092565b6001600160a01b03811681146200010457600080fd5b50565b60805160601c60a05160601c60c05160601c614c836200018d6000398061136c528061182c52806121aa52806124415280612f04525080611f4052806124625250806107415280610b3f5280610dd252806112c1528061150452806116d85280611bce5280611d8852806123575280612b125280612fe452806131045250614c836000f3fe608060405234801561001057600080fd5b50600436106102065760003560e01c806374a587831161011a578063de105dbd116100ad578063f256a9d01161007c578063f256a9d014610472578063f2fde38b14610485578063f3cd354f14610498578063fa7c0b5e146104ab578063fd371138146104be57610206565b8063de105dbd14610424578063df8e238a14610437578063e9819daf1461044a578063ea99fc041461045d57610206565b8063991991c7116100e9578063991991c7146103d85780639dd19a52146103eb578063b25f86f9146103fe578063dcdf7e161461041157610206565b806374a587831461039f5780637dc0d1d0146103c05780638129fc1c146103c85780638da5cb5b146103d057610206565b806351531cce1161019d5780636866ada81161016c5780636866ada8146103315780636a7a93ed146103515780636b5b8808146103645780636bfc3d4014610377578063715018a61461039757610206565b806351531cce146102d857806357016b0a146102eb578063582edc9b146102fe5780636696bf111461031e57610206565b806333fe5676116101d957806333fe56761461027c578063361768241461028f578063372accd2146102b057806350b1e342146102c557610206565b8063030fb7f41461020b578063034b904e146102345780631ab66317146102495780631fbaf27514610269575b600080fd5b61021e610219366004614020565b6104de565b60405161022b919061454c565b60405180910390f35b610247610242366004613e98565b61062a565b005b61025c610257366004613e80565b610862565b60405161022b91906146e0565b61025c610277366004613fb3565b61087e565b61024761028a366004613fb3565b6108dc565b6102a261029d366004614041565b610b2c565b60405161022b92919061455f565b6102b8610ca7565b60405161022b9190614bbe565b6102476102d3366004613a3e565b610cb0565b6102476102e6366004613af5565b61113c565b6102476102f9366004613fb3565b61120e565b61031161030c366004613a3e565b611365565b60405161022b91906142ff565b61024761032c366004613e80565b6113d9565b61034461033f366004613e80565b611456565b60405161022b9190614659565b61024761035f366004613a76565b611599565b610247610372366004613fd7565b611ae3565b61038a610385366004613b85565b611c79565b60405161022b919061469f565b610247611e1b565b6103b26103ad366004614079565b611e9e565b60405161022b929190614313565b610311612355565b610247612379565b610311612390565b6102476103e6366004613af5565b61239f565b6103116103f9366004614020565b61243a565b61024761040c366004613e80565b6124e4565b61024761041f366004613b4d565b612767565b61021e610432366004613e80565b612830565b610247610445366004614102565b61291d565b610247610458366004613a3e565b61299a565b610465612d60565b60405161022b9190614bb5565b610465610480366004613e80565b612d66565b610247610493366004613a3e565b612dab565b61038a6104a6366004613e80565b612e61565b6103116104b9366004613a3e565b612efd565b6104d16104cc366004613a3e565b612f56565b60405161022b9190614ba1565b60608260015481111580156104f35750600081115b6105185760405162461bcd60e51b815260040161050f90614931565b60405180910390fd5b600084815260026020526040902080548411156105475760405162461bcd60e51b815260040161050f90614a2b565b600085815260046020526040902054620151804291909103111561057d5760405162461bcd60e51b815260040161050f90614722565b836001600160401b038111801561059357600080fd5b506040519080825280602002602001820160405280156105bd578160200160208202803683370190505b50925060005b84811015610621578181815481106105d757fe5b9060005260206000200160009054906101000a90046001600160a01b031684828151811061060157fe5b6001600160a01b03909216602092830291909101909101526001016105c3565b50505092915050565b6001600160a01b038216600090815260066020526040902054829060ff166106645760405162461bcd60e51b815260040161050f9061495a565b61066c6137ed565b6040516364c7d66160e01b81526001600160a01b038516906364c7d661906106989086906004016142ff565b60e06040518083038186803b1580156106b057600080fd5b505afa1580156106c4573d6000803e3d6000fd5b505050506040513d601f19601f820116820180604052508101906106e89190613ec5565b905080602001511561070c5760405162461bcd60e51b815260040161050f90614ac0565b600061071785613073565b6001600160901b0316905061072a613829565b604051635765361560e01b81526001600160a01b037f0000000000000000000000000000000000000000000000000000000000000000169063576536159061077e90889060009062093a8090600401614447565b604080518083038186803b15801561079557600080fd5b505afa1580156107a9573d6000803e3d6000fd5b505050506040513d601f19601f820116820180604052508101906107cd9190613f64565b9050600060646107dd8385613193565b6001600160901b0316816107ed57fe5b046001600160901b03169050866001600160a01b031663a49c44d787836040518363ffffffff1660e01b81526004016108279291906143ff565b600060405180830381600087803b15801561084157600080fd5b505af1158015610855573d6000803e3d6000fd5b5050505050505050505050565b600060015482111580156108765750600082115b90505b919050565b60008260015481111580156108935750600081115b6108af5760405162461bcd60e51b815260040161050f90614931565b505060009182526003602090815260408084206001600160a01b0393909316845291905290205460ff1690565b6108e46131d1565b6000546001600160a01b039081169116146109115760405162461bcd60e51b815260040161050f90614986565b8160015481111580156109245750600081115b6109405760405162461bcd60e51b815260040161050f90614931565b6000838152600260205260408120548061096c5760405162461bcd60e51b815260040161050f90614ae9565b60008581526003602090815260408083206001600160a01b038816845290915290205460ff166109ae5760405162461bcd60e51b815260040161050f90614854565b60008581526003602090815260408083206001600160a01b03881684529091529020805460ff191690555b80821015610b0f57600085815260026020526040902080546001600160a01b038616919084908110610a0757fe5b6000918252602090912001546001600160a01b03161415610b04576000198101828114610aae576000868152600260205260408120805483908110610a4857fe5b60009182526020808320909101548983526002909152604090912080546001600160a01b039092169250829186908110610a7e57fe5b9060005260206000200160006101000a8154816001600160a01b0302191690836001600160a01b03160217905550505b600086815260046020908152604080832080546201517f1901905560029091529020805480610ad957fe5b600082815260209020810160001990810180546001600160a01b031916905501905550610b27915050565b6001909101906109d9565b60405162461bcd60e51b815260040161050f90614a99565b505050565b606080610b3985856104de565b915060607f00000000000000000000000000000000000000000000000000000000000000006001600160a01b031663768d2c1984600062093a806040518463ffffffff1660e01b8152600401610b9193929190614629565b60006040518083038186803b158015610ba957600080fd5b505afa158015610bbd573d6000803e3d6000fd5b505050506040513d6000823e601f3d908101601f19168201604052610be59190810190613d38565b90506060610bf384836131d5565b9050856001600160401b0381118015610c0b57600080fd5b50604051908082528060200260200182016040528015610c35578160200160208202803683370190505b50925060005b86811015610c9c57610c7486838381518110610c5357fe5b6020026020010151858481518110610c6757fe5b60200260200101516132be565b6001600160901b0316848281518110610c8957fe5b6020908102919091010152600101610c3b565b505050935093915050565b60055460ff1681565b610cb8613840565b506001600160a01b038116600090815260066020908152604091829020825160a081018452905460ff8082161515808452610100830461ffff16948401949094526301000000820481169483019490945264010000000081049093166060820152600160281b9092046001600160401b03166080830152610d4b5760405162461bcd60e51b815260040161050f9061495a565b603c81608001516001600160401b031642031015610d7b5760405162461bcd60e51b815260040161050f90614901565b60608101805160010160ff16908190526004900615610dac5760405162461bcd60e51b815260040161050f906148d6565b6000816040015160ff1690506060610dcc836020015161ffff16836104de565b905060607f00000000000000000000000000000000000000000000000000000000000000006001600160a01b031663768d2c1983600062093a806040518463ffffffff1660e01b8152600401610e2493929190614629565b60006040518083038186803b158015610e3c57600080fd5b505afa158015610e50573d6000803e3d6000fd5b505050506040513d6000823e601f3d908101601f19168201604052610e789190810190613d38565b90506060610e8683836131d5565b90506060846001600160401b0381118015610ea057600080fd5b50604051908082528060200260200182016040528015610eca578160200160208202803683370190505b5090506060856001600160401b0381118015610ee557600080fd5b50604051908082528060200260200182016040528015610f0f578160200160208202803683370190505b5090506000610f1d89613073565b905060005b87811015610fd5576064610f5b836001600160901b0316888481518110610f4557fe5b602002602001015161319390919063ffffffff16565b6001600160901b031681610f6b57fe5b046001600160901b0316848281518110610f8157fe5b602002602001018181525050610fa9858281518110610f9c57fe5b60200260200101516132f5565b838281518110610fb557fe5b6001600160601b0390921660209283029190910190910152600101610f22565b504288608001906001600160401b031690816001600160401b03168152505087600660008b6001600160a01b03166001600160a01b0316815260200190815260200160002060008201518160000160006101000a81548160ff02191690831515021790555060208201518160000160016101000a81548161ffff021916908361ffff16021790555060408201518160000160036101000a81548160ff021916908360ff16021790555060608201518160000160046101000a81548160ff021916908360ff16021790555060808201518160000160056101000a8154816001600160401b0302191690836001600160401b03160217905550905050886001600160a01b031663c3f468108784866040518463ffffffff1660e01b81526004016110ff939291906145f0565b600060405180830381600087803b15801561111957600080fd5b505af115801561112d573d6000803e3d6000fd5b50505050505050505050505050565b6111446131d1565b6000546001600160a01b039081169116146111715760405162461bcd60e51b815260040161050f90614986565b6001600160a01b038216600090815260066020526040902054829060ff166111ab5760405162461bcd60e51b815260040161050f9061495a565b60405163534d4f3d60e01b81526001600160a01b0384169063534d4f3d906111d7908590600401614bb5565b600060405180830381600087803b1580156111f157600080fd5b505af1158015611205573d6000803e3d6000fd5b50505050505050565b6112166131d1565b6000546001600160a01b039081169116146112435760405162461bcd60e51b815260040161050f90614986565b8160015481111580156112565750600081115b6112725760405162461bcd60e51b815260040161050f90614931565b6000838152600260205260409020546019116112a05760405162461bcd60e51b815260040161050f906146eb565b6112aa838361330d565b6040516396e85ced60e01b81526001600160a01b037f000000000000000000000000000000000000000000000000000000000000000016906396e85ced906112f69085906004016142ff565b602060405180830381600087803b15801561131057600080fd5b505af1158015611324573d6000803e3d6000fd5b505050506040513d601f19601f820116820180604052508101906113489190613e60565b505050600090815260046020526040902080546201517f19019055565b60006108767f0000000000000000000000000000000000000000000000000000000000000000307f7ca83b20f9ebcf7361e9aa92ccaf4288e58f283ef8643d48af11fb81be1fc9e4856040516020016113be9190614263565b604051602081830303815290604052805190602001206133de565b6113e16131d1565b6000546001600160a01b0390811691161461140e5760405162461bcd60e51b815260040161050f90614986565b600180548101908190556040517f087cd6515ab9d8ad2d847c4b093743cd73acf162a4260bd0ea2429ec6709a6329061144a90839085906142f1565b60405180910390a15050565b606081600154811115801561146b5750600081115b6114875760405162461bcd60e51b815260040161050f90614931565b6000838152600260209081526040918290208054835181840281018401909452808452606093928301828280156114e757602002820191906000526020600020905b81546001600160a01b031681526001909101906020018083116114c9575b50506040516303f294b760e51b8152939450506001600160a01b037f00000000000000000000000000000000000000000000000000000000000000001692637e5296e0925061153b9150849060040161454c565b600060405180830381600087803b15801561155557600080fd5b505af1158015611569573d6000803e3d6000fd5b505050506040513d6000823e601f3d908101601f191682016040526115919190810190613cad565b949350505050565b6115a285612efd565b6001600160a01b0316336001600160a01b0316146115d25760405162461bcd60e51b815260040161050f9061481d565b828181146115f25760405162461bcd60e51b815260040161050f90614a06565b6115fa613840565b506001600160a01b038616600090815260066020908152604091829020825160a081018452905460ff8082161580158452610100830461ffff16948401949094526301000000820481169483019490945264010000000081049093166060820152600160281b9092046001600160401b0316608083015261168d5760405162461bcd60e51b815260040161050f906148ad565b6060826001600160401b03811180156116a557600080fd5b506040519080825280602002602001820160405280156116cf578160200160208202803683370190505b509050600060607f00000000000000000000000000000000000000000000000000000000000000006001600160a01b0316637c906a2a8a8a8a8a600062093a806040518763ffffffff1660e01b815260040161173096959493929190614501565b60006040518083038186803b15801561174857600080fd5b505afa15801561175c573d6000803e3d6000fd5b505050506040513d6000823e601f3d908101601f191682016040526117849190810190613dd5565b905060005b858110156117ca576117c08282815181106117a057fe5b60200260200101516001600160901b03168461342390919063ffffffff16565b9250600101611789565b5060005b85811015611827576117fb6117f68383815181106117e857fe5b602002602001015185613448565b6132f5565b84828151811061180757fe5b6001600160601b03909216602092830291909101909101526001016117ce565b5060007f00000000000000000000000000000000000000000000000000000000000000006001600160a01b0316631a5e5bc57f7ca83b20f9ebcf7361e9aa92ccaf4288e58f283ef8643d48af11fb81be1fc9e48d60405160200161188b9190614263565b604051602081830303815290604052805190602001206040518363ffffffff1660e01b81526004016118be9291906142f1565b602060405180830381600087803b1580156118d857600080fd5b505af11580156118ec573d6000803e3d6000fd5b505050506040513d601f19601f820116820180604052508101906119109190613a5a565b60405163a20cfa7560e01b81529091506001600160a01b038c169063a20cfa759061194b908d908d908d908d908b9033908a9060040161449e565b600060405180830381600087803b15801561196557600080fd5b505af1158015611979573d6000803e3d6000fd5b5050600554604051634a1d925960e11b81526001600160a01b038516935063943b24b292506119b2918f9160ff9091169060040161446e565b600060405180830381600087803b1580156119cc57600080fd5b505af11580156119e0573d6000803e3d6000fd5b505050426001600160401b0390811660808801908152600188526001600160a01b038e166000908152600660209081526040918290208a518154928c0151848d015160608e0151965160ff199095169215159290921762ffff00191661010061ffff8316021763ff0000001916630100000060ff808516919091029190911764ff0000000019166401000000009190971602959095176cffffffffffffffff00000000001916600160281b939096169290920294909417909355517f9ff2050ac7faae9dc192e1cc9abe73b18a9b849f9b43f509914d80fa104d59039350611ace928f92869290919061432d565b60405180910390a15050505050505050505050565b611aeb6131d1565b6000546001600160a01b03908116911614611b185760405162461bcd60e51b815260040161050f90614986565b826001548111158015611b2b5750600081115b611b475760405162461bcd60e51b815260040161050f90614931565b60008481526002602052604090205460199083011115611b795760405162461bcd60e51b815260040161050f906146eb565b60005b82811015611bb657611bae85858584818110611b9457fe5b9050602002016020810190611ba99190613a3e565b61330d565b600101611b7c565b506040516303f294b760e51b81526001600160a01b037f00000000000000000000000000000000000000000000000000000000000000001690637e5296e090611c05908690869060040161448a565b600060405180830381600087803b158015611c1f57600080fd5b505af1158015611c33573d6000803e3d6000fd5b505050506040513d6000823e601f3d908101601f19168201604052611c5b9190810190613cad565b50505060009182525060046020526040902080546201517f19019055565b805160609081816001600160401b0381118015611c9557600080fd5b50604051908082528060200260200182016040528015611cbf578160200160208202803683370190505b50905060005b82811015611d7057848181518110611cd957fe5b60200260200101516001600160a01b03166318160ddd6040518163ffffffff1660e01b815260040160206040518083038186803b158015611d1957600080fd5b505afa158015611d2d573d6000803e3d6000fd5b505050506040513d601f19601f82011682018060405250810190611d519190613f9b565b828281518110611d5d57fe5b6020908102919091010152600101611cc5565b50604051633e48351560e11b81526001600160a01b037f00000000000000000000000000000000000000000000000000000000000000001690637c906a2a90611dc7908790859060009062093a8090600401614584565b60006040518083038186803b158015611ddf57600080fd5b505afa158015611df3573d6000803e3d6000fd5b505050506040513d6000823e601f3d908101601f191682016040526115919190810190613dd5565b611e236131d1565b6000546001600160a01b03908116911614611e505760405162461bcd60e51b815260040161050f90614986565b600080546040516001926001600160a01b03909216917f8be0079c531659141344cd1fd0a4f28419497f9722a3daafe3b4186f6b6457e091a3600080546001600160a01b0319166001179055565b600080611ea96131d1565b6000546001600160a01b03908116911614611ed65760405162461bcd60e51b815260040161050f90614986565b6002881015611ef75760405162461bcd60e51b815260040161050f90614b15565b600a881115611f185760405162461bcd60e51b815260040161050f90614881565b6001600160901b038710611f3e5760405162461bcd60e51b815260040161050f90614b41565b7f00000000000000000000000000000000000000000000000000000000000000006001600160a01b031663187775f97fe4105e36f4402bad908f77146a54b96b1aae362be2a9d940c0e19537431e1efb8b8b604051602001611fa19291906142f1565b604051602081830303815290604052805190602001206040518363ffffffff1660e01b8152600401611fd49291906142f1565b602060405180830381600087803b158015611fee57600080fd5b505af1158015612002573d6000803e3d6000fd5b505050506040513d601f19601f820116820180604052508101906120269190613a5a565b6040516319f0f84960e01b81529092506001600160a01b038316906319f0f8499061205d9030908a908a908a908a906004016143bb565b600060405180830381600087803b15801561207757600080fd5b505af115801561208b573d6000803e3d6000fd5b505050506040518060a001604052806000151581526020018a61ffff1681526020018960ff168152602001600060ff16815260200160006001600160401b031681525060066000846001600160a01b03166001600160a01b0316815260200190815260200160002060008201518160000160006101000a81548160ff02191690831515021790555060208201518160000160016101000a81548161ffff021916908361ffff16021790555060408201518160000160036101000a81548160ff021916908360ff16021790555060608201518160000160046101000a81548160ff021916908360ff16021790555060808201518160000160056101000a8154816001600160401b0302191690836001600160401b031602179055509050507f00000000000000000000000000000000000000000000000000000000000000006001600160a01b0316631a5e5bc57f9134d4340af80bbc89b1b5b9756e9daac8b06847b04cae9580168b4d1c5191fa846040516020016122099190614263565b604051602081830303815290604052805190602001206040518363ffffffff1660e01b815260040161223c9291906142f1565b602060405180830381600087803b15801561225657600080fd5b505af115801561226a573d6000803e3d6000fd5b505050506040513d601f19601f8201168201806040525081019061228e9190613a5a565b90508060608061229f8c8c8c610b2c565b60405160016271545760e11b0319815291935091506001600160a01b0384169063ff1d5752906122d790889086908690600401614385565b600060405180830381600087803b1580156122f157600080fd5b505af1158015612305573d6000803e3d6000fd5b505050507f7ad23833dba658b2bdc6f260fb60a3240b3868086ad60b4e42276f5eeba73e6a85858e8e60405161233e949392919061435c565b60405180910390a150505097509795505050505050565b7f000000000000000000000000000000000000000000000000000000000000000081565b6005805460ff1916600217905561238e6134c3565b565b6000546001600160a01b031690565b6123a76131d1565b6000546001600160a01b039081169116146123d45760405162461bcd60e51b815260040161050f90614986565b6001600160a01b038216600090815260066020526040902054829060ff1661240e5760405162461bcd60e51b815260040161050f9061495a565b6040516334e1990760e01b81526001600160a01b038416906334e19907906111d7908590600401614bb5565b60006124dd7f00000000000000000000000000000000000000000000000000000000000000007f00000000000000000000000000000000000000000000000000000000000000007fe4105e36f4402bad908f77146a54b96b1aae362be2a9d940c0e19537431e1efb3087876040516020016124b69291906142f1565b604051602081830303815290604052805190602001206040516020016113be92919061427b565b9392505050565b8060015481111580156124f75750600081115b6125135760405162461bcd60e51b815260040161050f90614931565b60008281526002602090815260409182902080548351818402810184019094528084526060939283018282801561257357602002820191906000526020600020905b81546001600160a01b03168152600190910190602001808311612555575b50505050509050600081519050606061258b83611c79565b905060015b828110156126f65760008282815181106125a657fe5b6020026020010151905060008583815181106125be57fe5b6020026020010151905060006001840390505b600081121580156126065750826001600160901b03168582815181106125f357fe5b60200260200101516001600160901b0316105b156126925784818151811061261757fe5b602002602001015185826001018151811061262e57fe5b60200260200101906001600160901b031690816001600160901b03168152505086818151811061265a57fe5b602002602001015187826001018151811061267157fe5b6001600160a01b0390921660209283029190910190910152600019016125d1565b828582600101815181106126a257fe5b60200260200101906001600160901b031690816001600160901b031681525050818782600101815181106126d257fe5b6001600160a01b039290921660209283029190910190910152505050600101612590565b50600085815260026020908152604090912084516127169286019061386e565b5060008581526004602052604090819020429055517f60d2f5fd1812c906f738651cc42bfcb9c52908b88265a1ec508ce32367af72c390612758908790614bb5565b60405180910390a15050505050565b61276f6131d1565b6000546001600160a01b0390811691161461279c5760405162461bcd60e51b815260040161050f90614986565b60008160ff161180156127b2575060148160ff16105b6127ce5760405162461bcd60e51b815260040161050f906147cf565b604051630633177160e41b81526001600160a01b038316906363317710906127fa908490600401614bbe565b600060405180830381600087803b15801561281457600080fd5b505af1158015612828573d6000803e3d6000fd5b505050505050565b60608160015481111580156128455750600081115b6128615760405162461bcd60e51b815260040161050f90614931565b600083815260026020526040902080546001600160401b038111801561288657600080fd5b506040519080825280602002602001820160405280156128b0578160200160208202803683370190505b50925060005b8351811015612915578181815481106128cb57fe5b9060005260206000200160009054906101000a90046001600160a01b03168482815181106128f557fe5b6001600160a01b03909216602092830291909101909101526001016128b6565b505050919050565b6129256131d1565b6000546001600160a01b039081169116146129525760405162461bcd60e51b815260040161050f90614986565b60008160ff16118015612968575060148160ff16105b6129845760405162461bcd60e51b815260040161050f906147cf565b6005805460ff191660ff92909216919091179055565b6129a2613840565b506001600160a01b038116600090815260066020908152604091829020825160a081018452905460ff8082161515808452610100830461ffff16948401949094526301000000820481169483019490945264010000000081049093166060820152600160281b9092046001600160401b03166080830152612a355760405162461bcd60e51b815260040161050f9061495a565b603c81608001516001600160401b031642031015612a655760405162461bcd60e51b815260040161050f90614901565b60608101805160010160ff169081905260049006612a955760405162461bcd60e51b815260040161050f906148d6565b6060826001600160a01b031663039209af6040518163ffffffff1660e01b815260040160006040518083038186803b158015612ad057600080fd5b505afa158015612ae4573d6000803e3d6000fd5b505050506040513d6000823e601f3d908101601f19168201604052612b0c9190810190613c21565b905060607f00000000000000000000000000000000000000000000000000000000000000006001600160a01b031663768d2c1983600062093a806040518463ffffffff1660e01b8152600401612b6493929190614629565b60006040518083038186803b158015612b7c57600080fd5b505afa158015612b90573d6000803e3d6000fd5b505050506040513d6000823e601f3d908101601f19168201604052612bb89190810190613d38565b90506060612bc683836131d5565b9050606083516001600160401b0381118015612be157600080fd5b50604051908082528060200260200182016040528015612c0b578160200160208202803683370190505b50905060005b8451811015612c5557612c29838281518110610f9c57fe5b828281518110612c3557fe5b6001600160601b0390921660209283029190910190910152600101612c11565b50426001600160401b03908116608087019081526001600160a01b0388166000818152600660209081526040918290208a518154928c0151848d015160608e0151975160ff199095169215159290921762ffff00191661010061ffff909216919091021763ff0000001916630100000060ff928316021764ff0000000019166401000000009190961602949094176cffffffffffffffff00000000001916600160281b9190951602939093179091559051635d5e8ce760e01b8152635d5e8ce790612d2690879085906004016145cb565b600060405180830381600087803b158015612d4057600080fd5b505af1158015612d54573d6000803e3d6000fd5b50505050505050505050565b60015481565b6000816001548111158015612d7b5750600081115b612d975760405162461bcd60e51b815260040161050f90614931565b505060009081526004602052604090205490565b612db36131d1565b6000546001600160a01b03908116911614612de05760405162461bcd60e51b815260040161050f90614986565b6001600160a01b038116612e065760405162461bcd60e51b815260040161050f90614752565b600080546040516001600160a01b03808516939216917f8be0079c531659141344cd1fd0a4f28419497f9722a3daafe3b4186f6b6457e091a3600080546001600160a01b0319166001600160a01b0392909216919091179055565b6060816001548111158015612e765750600081115b612e925760405162461bcd60e51b815260040161050f90614931565b60008381526002602090815260409182902080548351818402810184019094528084526124dd9392830182828015612ef357602002820191906000526020600020905b81546001600160a01b03168152600190910190602001808311612ed5575b5050505050611c79565b60006108767f0000000000000000000000000000000000000000000000000000000000000000307f9134d4340af80bbc89b1b5b9756e9daac8b06847b04cae9580168b4d1c5191fa856040516020016113be9190614263565b600080826001600160a01b03166318160ddd6040518163ffffffff1660e01b815260040160206040518083038186803b158015612f9257600080fd5b505afa158015612fa6573d6000803e3d6000fd5b505050506040513d601f19601f82011682018060405250810190612fca9190613f9b565b604051635fb6ec1760e11b81529091506001600160a01b037f0000000000000000000000000000000000000000000000000000000000000000169063bf6dd82e90613023908690859060009062093a8090600401614418565b60206040518083038186803b15801561303b57600080fd5b505afa15801561304f573d6000803e3d6000fd5b505050506040513d601f19601f820116820180604052508101906124dd9190613f7f565b6000806000836001600160a01b03166398836f086040518163ffffffff1660e01b8152600401604080518083038186803b1580156130b057600080fd5b505afa1580156130c4573d6000803e3d6000fd5b505050506040513d601f19601f820116820180604052508101906130e89190613b20565b604051635fb6ec1760e11b815291935091506001600160a01b037f0000000000000000000000000000000000000000000000000000000000000000169063bf6dd82e90613143908590859060009062093a8090600401614418565b60206040518083038186803b15801561315b57600080fd5b505afa15801561316f573d6000803e3d6000fd5b505050506040513d601f19601f820116820180604052508101906115919190613f7f565b60006124dd6131c683604051806020016040528087602001516001600160e01b03168152506134cb90919063ffffffff16565b61352a565b92915050565b3390565b6060806131e28484613531565b8051909150600090815b818110156132195783818151811061320057fe5b60200260200101518301925080806001019150506131ec565b50806001600160401b038111801561323057600080fd5b5060405190808252806020026020018201604052801561326a57816020015b6132576138d3565b81526020019060019003908161324f5790505b50935060005b818110156132b45761329584828151811061328757fe5b602002602001015184613448565b8582815181106132a157fe5b6020908102919091010152600101613270565b5050505092915050565b6000806132d76131c6856001600160901b0388166134cb565b90506132ec836001600160901b038316613193565b95945050505050565b60006108766131c68368015af1d78b58c400006134cb565b60008281526003602090815260408083206001600160a01b038516845290915290205460ff16156133505760405162461bcd60e51b815260040161050f906147f4565b60008281526003602090815260408083206001600160a01b038516808552908352818420805460ff19166001908117909155868552600284528285208054918201815585529290932090910180546001600160a01b031916909217909155517ff4c563a3ea86ff1f4275e8c207df0375a51963f2b831b7bf4da8be938d92876c9061144a90839085906143ff565b6000806133ec8585856135ff565b9050613419817fa035ad05a1663db5bfd455b99cd7c6ac6bd49269738458eda140e0b78ed53f7988613635565b9695505050505050565b6000828201838110156124dd5760405162461bcd60e51b815260040161050f90614798565b6134506138d3565b6000826001600160701b0316116134795760405162461bcd60e51b815260040161050f90614b6a565b6040805160208101909152806001600160701b0384166dffffffffffffffffffffffffffff60701b607087901b16816134ae57fe5b046001600160e01b0316815250905092915050565b61238e613674565b6134d36138e5565b60008215806134f957505082516001600160e01b0316828102908382816134f657fe5b04145b6135155760405162461bcd60e51b815260040161050f90614a56565b60408051602081019091529081529392505050565b5160701c90565b8151606090806001600160401b038111801561354c57600080fd5b50604051908082528060200260200182016040528015613576578160200160208202803683370190505b50915060005b818110156135f75760006135b686838151811061359557fe5b60200260200101518684815181106135a957fe5b60200260200101516136f3565b6001600160901b031690506135ca81613773565b8483815181106135d657fe5b6001600160701b03909216602092830291909101909101525060010161357c565b505092915050565b600083838360405160200161361693929190614298565b6040516020818303038152906040528051906020012090509392505050565b60008060ff60f81b83868660405160200161365394939291906142bd565b60408051808303601f19018152919052805160209091012095945050505050565b6000546001600160a01b03161561369d5760405162461bcd60e51b815260040161050f906149bb565b60006136a76131d1565b600080546001600160a01b0319166001600160a01b0383169081178255604051929350917f8be0079c531659141344cd1fd0a4f28419497f9722a3daafe3b4186f6b6457e0908290a350565b600080836001600160a01b03166318160ddd6040518163ffffffff1660e01b815260040160206040518083038186803b15801561372f57600080fd5b505afa158015613743573d6000803e3d6000fd5b505050506040513d601f19601f820116820180604052508101906137679190613f9b565b905061159183826137c4565b600060038211156137b6575080600260018201045b818110156137b05780915060028182858161379f57fe5b0401816137a857fe5b049050613788565b50610879565b811561087957506001919050565b604080516020810190915282516001600160e01b031681526000906124dd906131c690846134cb565b6040805160e081018252600080825260208201819052918101829052606081018290526080810182905260a0810182905260c081019190915290565b604080518082019091526000808252602082015290565b6040805160a08101825260008082526020820181905291810182905260608101829052608081019190915290565b8280548282559060005260206000209081019282156138c3579160200282015b828111156138c357825182546001600160a01b0319166001600160a01b0390911617825560209092019160019091019061388e565b506138cf9291506138f8565b5090565b60408051602081019091526000815290565b6040518060200160405280600081525090565b5b808211156138cf5780546001600160a01b03191681556001016138f9565b80356131cb81614c11565b60008083601f840112613933578182fd5b5081356001600160401b03811115613949578182fd5b602083019150836020808302850101111561396357600080fd5b9250929050565b805180151581146131cb57600080fd5b60008083601f84011261398b578182fd5b5081356001600160401b038111156139a1578182fd5b60208301915083602082850101111561396357600080fd5b6000604082840312156139ca578081fd5b6139d46040614bcc565b90506139e08383613a05565b81526139ef8360208401613a05565b602082015292915050565b80516131cb81614c29565b80516001600160e01b03811681146131cb57600080fd5b80516131cb81614c3e565b80516001600160601b03811681146131cb57600080fd5b600060208284031215613a4f578081fd5b81356124dd81614c11565b600060208284031215613a6b578081fd5b81516124dd81614c11565b600080600080600060608688031215613a8d578081fd5b8535613a9881614c11565b945060208601356001600160401b0380821115613ab3578283fd5b613abf89838a01613922565b90965094506040880135915080821115613ad7578283fd5b50613ae488828901613922565b969995985093965092949392505050565b60008060408385031215613b07578182fd5b8235613b1281614c11565b946020939093013593505050565b60008060408385031215613b32578182fd5b8251613b3d81614c11565b6020939093015192949293505050565b60008060408385031215613b5f578182fd5b8235613b6a81614c11565b91506020830135613b7a81614c3e565b809150509250929050565b60006020808385031215613b97578182fd5b82356001600160401b03811115613bac578283fd5b8301601f81018513613bbc578283fd5b8035613bcf613bca82614bf2565b614bcc565b8181528381019083850185840285018601891015613beb578687fd5b8694505b83851015613c1557613c018982613917565b835260019490940193918501918501613bef565b50979650505050505050565b60006020808385031215613c33578182fd5b82516001600160401b03811115613c48578283fd5b8301601f81018513613c58578283fd5b8051613c66613bca82614bf2565b8181528381019083850185840285018601891015613c82578687fd5b8694505b83851015613c15578051613c9981614c11565b835260019490940193918501918501613c86565b60006020808385031215613cbf578182fd5b82516001600160401b03811115613cd4578283fd5b8301601f81018513613ce4578283fd5b8051613cf2613bca82614bf2565b8181528381019083850185840285018601891015613d0e578687fd5b8694505b83851015613c1557613d24898261396a565b835260019490940193918501918501613d12565b60006020808385031215613d4a578182fd5b82516001600160401b03811115613d5f578283fd5b8301601f81018513613d6f578283fd5b8051613d7d613bca82614bf2565b818152838101908385016040808502860187018a1015613d9b578788fd5b8795505b84861015613dc757613db18a836139b9565b8452600195909501949286019290810190613d9f565b509098975050505050505050565b60006020808385031215613de7578182fd5b82516001600160401b03811115613dfc578283fd5b8301601f81018513613e0c578283fd5b8051613e1a613bca82614bf2565b8181528381019083850185840285018601891015613e36578687fd5b8694505b83851015613c1557613e4c89826139fa565b835260019490940193918501918501613e3a565b600060208284031215613e71578081fd5b815180151581146124dd578182fd5b600060208284031215613e91578081fd5b5035919050565b60008060408385031215613eaa578182fd5b8235613eb581614c11565b91506020830135613b7a81614c11565b600060e08284031215613ed6578081fd5b613ee060e0614bcc565b613eea848461396a565b8152613ef9846020850161396a565b6020820152604083015164ffffffffff81168114613f15578283fd5b6040820152613f278460608501613a27565b6060820152613f398460808501613a27565b6080820152613f4b8460a08501613a1c565b60a082015260c083015160c08201528091505092915050565b600060408284031215613f75578081fd5b6124dd83836139b9565b600060208284031215613f90578081fd5b81516124dd81614c29565b600060208284031215613fac578081fd5b5051919050565b60008060408385031215613fc5578182fd5b823591506020830135613b7a81614c11565b600080600060408486031215613feb578081fd5b8335925060208401356001600160401b03811115614007578182fd5b61401386828701613922565b9497909650939450505050565b60008060408385031215614032578182fd5b50508035926020909101359150565b600080600060608486031215614055578081fd5b8335925060208401359150604084013561406e81614c29565b809150509250925092565b600080600080600080600060a0888a031215614093578485fd5b87359650602088013595506040880135945060608801356001600160401b03808211156140be578384fd5b6140ca8b838c0161397a565b909650945060808a01359150808211156140e2578384fd5b506140ef8a828b0161397a565b989b979a50959850939692959293505050565b600060208284031215614113578081fd5b81356124dd81614c3e565b60008284526020808501945082825b8581101561415b57813561414081614c11565b6001600160a01b03168752958201959082019060010161412d565b509495945050505050565b6000815180845260208085019450808401835b8381101561415b5781516001600160a01b031687529582019590820190600101614179565b81835260006001600160fb1b038311156141b6578081fd5b6020830280836020870137939093016020019283525090919050565b6000815180845260208085019450808401835b8381101561415b578151875295820195908201906001016141e5565b6000815180845260208085019450808401835b8381101561415b5781516001600160601b031687529582019590820190600101614214565b60008284528282602086013780602084860101526020601f19601f85011685010190509392505050565b60609190911b6001600160601b031916815260140190565b60609290921b6001600160601b0319168252601482015260340190565b60609390931b6001600160601b03191683526014830191909152603482015260540190565b6001600160f81b031994909416845260609290921b6001600160601b03191660018401526015830152603582015260550190565b918252602082015260400190565b6001600160a01b0391909116815260200190565b6001600160a01b0392831681529116602082015260400190565b6001600160a01b03948516815292909316602083015261ffff16604082015260ff909116606082015260800190565b6001600160a01b0394851681529290931660208301526040820152606081019190915260800190565b6001600160a01b03841681526060602082018190526000906143a990830185614166565b828103604084015261341981856141d2565b6001600160a01b03861681526060602082018190526000906143e09083018688614239565b82810360408401526143f3818587614239565b98975050505050505050565b6001600160a01b03929092168252602082015260400190565b6001600160a01b03949094168452602084019290925263ffffffff908116604084015216606082015260800190565b6001600160a01b0393909316835263ffffffff918216602084015216604082015260600190565b6001600160a01b0392909216825260ff16602082015260400190565b60006020825261159160208301848661411e565b600060a082526144b260a08301898b61411e565b82810360208401526144c581888a61419e565b905082810360408401526144d98187614201565b6001600160a01b03958616606085015293909416608090920191909152509695505050505050565b60006080825261451560808301888a61411e565b828103602084015261452881878961419e565b91505063ffffffff8085166040840152808416606084015250979650505050505050565b6000602082526124dd6020830184614166565b6000604082526145726040830185614166565b82810360208401526132ec81856141d2565b6000608082526145976080830187614166565b82810360208401526145a981876141d2565b91505063ffffffff808516604084015280841660608401525095945050505050565b6000604082526145de6040830185614166565b82810360208401526132ec8185614201565b6000606082526146036060830186614166565b82810360208401526146158186614201565b9050828103604084015261341981856141d2565b60006060825261463c6060830186614166565b63ffffffff94851660208401529290931660409091015292915050565b6020808252825182820181905260009190848201906040850190845b81811015614693578351151583529284019291840191600101614675565b50909695505050505050565b6020808252825182820181905260009190848201906040850190845b818110156146935783516001600160901b0316835292840192918401916001016146bb565b901515815260200190565b60208082526017908201527f4552525f4d41585f43415445474f52595f544f4b454e53000000000000000000604082015260600190565b6020808252601690820152754552525f43415445474f52595f4e4f545f524541445960501b604082015260600190565b60208082526026908201527f4f776e61626c653a206e6577206f776e657220697320746865207a65726f206160408201526564647265737360d01b606082015260800190565b6020808252601b908201527f536166654d6174683a206164646974696f6e206f766572666c6f770000000000604082015260600190565b6020808252600b908201526a4552525f5052454d49554d60a81b604082015260600190565b6020808252600f908201526e11549497d513d2d15397d093d55391608a1b604082015260600190565b60208082526017908201527f4552525f4e4f545f5052455f4445504c4f595f504f4f4c000000000000000000604082015260600190565b60208082526013908201527211549497d513d2d15397d393d517d093d55391606a1b604082015260600190565b6020808252601290820152714552525f4d41585f494e4445585f53495a4560701b604082015260600190565b6020808252600f908201526e11549497d253925512505312569151608a1b604082015260600190565b60208082526011908201527008aa4a4bea48aae8a928e90be929c888ab607b1b604082015260600190565b6020808252601690820152754552525f504f4f4c5f524557454947485f44454c415960501b604082015260600190565b6020808252600f908201526e11549497d0d0551151d3d49657d251608a1b604082015260600190565b60208082526012908201527111549497d413d3d317d393d517d193d5539160721b604082015260600190565b6020808252818101527f4f776e61626c653a2063616c6c6572206973206e6f7420746865206f776e6572604082015260600190565b6020808252602b908201527f4f776e61626c653a206f776e65722068617320616c7265616479206265656e2060408201526a1a5b9a5d1a585b1a5e995960aa1b606082015260800190565b6020808252600b908201526a22a9292fa0a9292fa622a760a91b604082015260600190565b6020808252601190820152704552525f43415445474f52595f53495a4560781b604082015260600190565b60208082526023908201527f4669786564506f696e743a204d554c5449504c49434154494f4e5f4f564552466040820152624c4f5760e81b606082015260800190565b6020808252600d908201526c11549497d393d517d193d55391609a1b604082015260600190565b6020808252600f908201526e4552525f544f4b454e5f524541445960881b604082015260600190565b6020808252601290820152714552525f454d5054595f43415445474f525960701b604082015260600190565b6020808252601290820152714552525f4d494e5f494e4445585f53495a4560701b604082015260600190565b6020808252600f908201526e11549497d3505617d55253950c4d0d608a1b604082015260600190565b60208082526017908201527f4669786564506f696e743a204449565f42595f5a45524f000000000000000000604082015260600190565b6001600160901b0391909116815260200190565b90815260200190565b60ff91909116815260200190565b6040518181016001600160401b0381118282101715614bea57600080fd5b604052919050565b60006001600160401b03821115614c07578081fd5b5060209081020190565b6001600160a01b0381168114614c2657600080fd5b50565b6001600160901b0381168114614c2657600080fd5b60ff81168114614c2657600080fdfea2646970667358221220ab8a13ca0f8b57c2daa7fde74a3ba18468010c2c73a2602ea98696054258003064736f6c634300060c0033",
  "devdoc": {
    "author": "d1ll0n",
    "details": "This contract implements the market cap square root index management strategy. Index pools have a defined size which is used to select the top tokens from the pool's category. REBALANCING =============== Every 1 weeks, pools are either re-weighed or re-indexed. They are re-indexed once for every three re-weighs. Re-indexing involves selecting the top tokens from the pool's category and weighing them by the square root of their market caps. Re-weighing involves weighing the tokens which are already indexed by the pool by the square root of their market caps. When a pool is re-weighed, only the tokens with a desired weight above 0 are included. ===============",
    "events": {
      "NewPoolInitializer(address,address,uint256,uint256)": {
        "details": "Emitted when a pool and its initializer are deployed. "
      },
      "PoolInitialized(address,address,uint256,uint256)": {
        "details": "Emitted when a pool is initialized and made public. "
      }
    },
    "kind": "dev",
    "methods": {
      "addToken(uint256,address)": {
        "details": "Adds a new token to a category.",
        "params": {
          "categoryID": "Category identifier.",
          "token": "Token to add to the category."
        }
      },
      "addTokens(uint256,address[])": {
        "details": "Add tokens to a category.",
        "params": {
          "categoryID": "Category identifier.",
          "tokens": "Array of tokens to add to the category."
        }
      },
      "computeAverageMarketCap(address)": {
        "details": "Compute the average market cap of a token in weth. Queries the average amount of ether that the total supply is worth using the recent moving average price."
      },
      "computeAverageMarketCaps(address[])": {
        "details": "Returns the average market cap for each token."
      },
      "computeInitializerAddress(address)": {
        "details": "Compute the create2 address for a pool initializer."
      },
      "computePoolAddress(uint256,uint256)": {
        "details": "Compute the create2 address for a pool."
      },
      "computeSellerAddress(address)": {
        "details": "Compute the create2 address for a pool's unbound token seller."
      },
      "constructor": {
        "details": "Deploy the controller and configure the addresses of the related contracts."
      },
      "createCategory(bytes32)": {
        "details": "Creates a new token category.",
        "params": {
          "metadataHash": "Hash of metadata about the token category which can be distributed on IPFS."
        }
      },
      "finishPreparedIndexPool(address,address[],uint256[])": {
        "details": "Initializes a pool which has been deployed but not initialized and transfers the underlying tokens from the initialization pool to the actual pool."
      },
      "getCategoryMarketCaps(uint256)": {
        "details": "Returns the fully diluted market caps for the tokens in a category."
      },
      "getCategoryTokens(uint256)": {
        "details": "Returns the array of tokens in a category."
      },
      "getInitialTokensAndBalances(uint256,uint256,uint144)": {
        "details": "Queries the top `indexSize` tokens in a category from the market oracle, computes their relative weights by market cap square root and determines the weighted balance of each token to meet a specified total value."
      },
      "getLastCategoryUpdate(uint256)": {
        "details": "Returns the timestamp of the last time the category was sorted."
      },
      "getTopCategoryTokens(uint256,uint256)": {
        "details": "Get the top `num` tokens in a category. Note: The category must have been sorted by market cap in the last `MAX_SORT_DELAY` seconds."
      },
      "hasCategory(uint256)": {
        "details": "Returns a boolean stating whether a category exists."
      },
      "initialize()": {
        "details": "Initialize the controller with the owner address and default seller premium. This sets up the controller which is deployed as a singleton proxy."
      },
      "isTokenInCategory(uint256,address)": {
        "details": "Returns boolean stating whether `token` is a member of the category `categoryID`."
      },
      "orderCategoryTokensByMarketCap(uint256)": {
        "details": "Sorts a category's tokens in descending order by market cap. Note: Uses in-memory insertion sort.",
        "params": {
          "categoryID": "Category to sort"
        }
      },
      "owner()": {
        "details": "Returns the address of the current owner."
      },
      "prepareIndexPool(uint256,uint256,uint256,string,string)": {
        "details": "Deploys an index pool and a pool initializer. The initializer contract is a pool with specific token balance targets which gives pool tokens in the finished pool to users who provide the underlying tokens needed to initialize it."
      },
      "reindexPool(address)": {
        "details": "Re-indexes a pool by setting the underlying assets to the top tokens in its category by market cap."
      },
      "removeToken(uint256,address)": {
        "details": "Remove token from a category.",
        "params": {
          "categoryID": "Category identifier.",
          "token": "Token to remove from the category."
        }
      },
      "renounceOwnership()": {
        "details": "Leaves the contract without owner. It will not be possible to call `onlyOwner` functions anymore. Can only be called by the current owner. NOTE: Renouncing ownership will leave the contract without an owner, thereby removing any functionality that is only available to the owner."
      },
      "reweighPool(address)": {
        "details": "Reweighs the assets in a pool by market cap and sets the desired new weights, which will be adjusted over time."
      },
      "setDefaultSellerPremium(uint8)": {
        "details": "Sets the default premium rate for token seller contracts."
      },
      "setMaxPoolTokens(address,uint256)": {
        "details": "Sets the maximum number of pool tokens that can be minted for a particular pool. This value will be used in the alpha to limit the maximum damage that can be caused by a catastrophic error. It can be gradually increased as the pool continues to not be exploited. If it is set to 0, the limit will be removed.",
        "params": {
          "maxPoolTokens": "Maximum LP tokens the pool can mint.",
          "poolAddress": "Address of the pool to set the limit on."
        }
      },
      "setSwapFee(address,uint256)": {
        "details": "Sets the swap fee on an index pool."
      },
      "transferOwnership(address)": {
        "details": "Transfers ownership of the contract to a new account (`newOwner`). Can only be called by the current owner."
      },
      "updateCategoryPrices(uint256)": {
        "details": "Updates the prices on the oracle for all the tokens in a category."
      },
      "updateMinimumBalance(address,address)": {
        "details": "Updates the minimum balance of an uninitialized token, which is useful when the token's price on the pool is too low relative to external prices for people to trade it in."
      },
      "updateSellerPremium(address,uint8)": {
        "details": "Set the premium rate on `sellerAddress` to the given rate."
      }
    },
    "title": "MarketCapSqrtController",
    "version": 1
  },
  "userdoc": {
    "kind": "user",
    "methods": {},
    "version": 1
  },
  "storageLayout": {
    "storage": [
      {
        "astId": 4174,
        "contract": "temp-contracts/MarketCapSqrtController.sol:MarketCapSqrtController",
        "label": "_owner",
        "offset": 0,
        "slot": "0",
        "type": "t_address"
      },
      {
        "astId": 2218,
        "contract": "temp-contracts/MarketCapSqrtController.sol:MarketCapSqrtController",
        "label": "categoryIndex",
        "offset": 0,
        "slot": "1",
        "type": "t_uint256"
      },
      {
        "astId": 2223,
        "contract": "temp-contracts/MarketCapSqrtController.sol:MarketCapSqrtController",
        "label": "_categoryTokens",
        "offset": 0,
        "slot": "2",
        "type": "t_mapping(t_uint256,t_array(t_address)dyn_storage)"
      },
      {
        "astId": 2229,
        "contract": "temp-contracts/MarketCapSqrtController.sol:MarketCapSqrtController",
        "label": "_isCategoryToken",
        "offset": 0,
        "slot": "3",
        "type": "t_mapping(t_uint256,t_mapping(t_address,t_bool))"
      },
      {
        "astId": 2233,
        "contract": "temp-contracts/MarketCapSqrtController.sol:MarketCapSqrtController",
        "label": "_lastCategoryUpdate",
        "offset": 0,
        "slot": "4",
        "type": "t_mapping(t_uint256,t_uint256)"
      },
      {
        "astId": 3082,
        "contract": "temp-contracts/MarketCapSqrtController.sol:MarketCapSqrtController",
        "label": "defaultSellerPremium",
        "offset": 0,
        "slot": "5",
        "type": "t_uint8"
      },
      {
        "astId": 3086,
        "contract": "temp-contracts/MarketCapSqrtController.sol:MarketCapSqrtController",
        "label": "_poolMeta",
        "offset": 0,
        "slot": "6",
        "type": "t_mapping(t_address,t_struct(IndexPoolMeta)3080_storage)"
      }
    ],
    "types": {
      "t_address": {
        "encoding": "inplace",
        "label": "address",
        "numberOfBytes": "20"
      },
      "t_array(t_address)dyn_storage": {
        "base": "t_address",
        "encoding": "dynamic_array",
        "label": "address[]",
        "numberOfBytes": "32"
      },
      "t_bool": {
        "encoding": "inplace",
        "label": "bool",
        "numberOfBytes": "1"
      },
      "t_mapping(t_address,t_bool)": {
        "encoding": "mapping",
        "key": "t_address",
        "label": "mapping(address => bool)",
        "numberOfBytes": "32",
        "value": "t_bool"
      },
      "t_mapping(t_address,t_struct(IndexPoolMeta)3080_storage)": {
        "encoding": "mapping",
        "key": "t_address",
        "label": "mapping(address => struct MarketCapSqrtController.IndexPoolMeta)",
        "numberOfBytes": "32",
        "value": "t_struct(IndexPoolMeta)3080_storage"
      },
      "t_mapping(t_uint256,t_array(t_address)dyn_storage)": {
        "encoding": "mapping",
        "key": "t_uint256",
        "label": "mapping(uint256 => address[])",
        "numberOfBytes": "32",
        "value": "t_array(t_address)dyn_storage"
      },
      "t_mapping(t_uint256,t_mapping(t_address,t_bool))": {
        "encoding": "mapping",
        "key": "t_uint256",
        "label": "mapping(uint256 => mapping(address => bool))",
        "numberOfBytes": "32",
        "value": "t_mapping(t_address,t_bool)"
      },
      "t_mapping(t_uint256,t_uint256)": {
        "encoding": "mapping",
        "key": "t_uint256",
        "label": "mapping(uint256 => uint256)",
        "numberOfBytes": "32",
        "value": "t_uint256"
      },
      "t_struct(IndexPoolMeta)3080_storage": {
        "encoding": "inplace",
        "label": "struct MarketCapSqrtController.IndexPoolMeta",
        "members": [
          {
            "astId": 3071,
            "contract": "temp-contracts/MarketCapSqrtController.sol:MarketCapSqrtController",
            "label": "initialized",
            "offset": 0,
            "slot": "0",
            "type": "t_bool"
          },
          {
            "astId": 3073,
            "contract": "temp-contracts/MarketCapSqrtController.sol:MarketCapSqrtController",
            "label": "categoryID",
            "offset": 1,
            "slot": "0",
            "type": "t_uint16"
          },
          {
            "astId": 3075,
            "contract": "temp-contracts/MarketCapSqrtController.sol:MarketCapSqrtController",
            "label": "indexSize",
            "offset": 3,
            "slot": "0",
            "type": "t_uint8"
          },
          {
            "astId": 3077,
            "contract": "temp-contracts/MarketCapSqrtController.sol:MarketCapSqrtController",
            "label": "reweighIndex",
            "offset": 4,
            "slot": "0",
            "type": "t_uint8"
          },
          {
            "astId": 3079,
            "contract": "temp-contracts/MarketCapSqrtController.sol:MarketCapSqrtController",
            "label": "lastReweigh",
            "offset": 5,
            "slot": "0",
            "type": "t_uint64"
          }
        ],
        "numberOfBytes": "32"
      },
      "t_uint16": {
        "encoding": "inplace",
        "label": "uint16",
        "numberOfBytes": "2"
      },
      "t_uint256": {
        "encoding": "inplace",
        "label": "uint256",
        "numberOfBytes": "32"
      },
      "t_uint64": {
        "encoding": "inplace",
        "label": "uint64",
        "numberOfBytes": "8"
      },
      "t_uint8": {
        "encoding": "inplace",
        "label": "uint8",
        "numberOfBytes": "1"
      }
    }
  },
  "gasEstimates": {
    "creation": {
      "codeDepositCost": "3917400",
      "executionCost": "infinite",
      "totalCost": "infinite"
    },
    "external": {
      "addToken(uint256,address)": "infinite",
      "addTokens(uint256,address[])": "infinite",
      "categoryIndex()": "1139",
      "computeAverageMarketCap(address)": "infinite",
      "computeAverageMarketCaps(address[])": "infinite",
      "computeInitializerAddress(address)": "infinite",
      "computePoolAddress(uint256,uint256)": "infinite",
      "computeSellerAddress(address)": "infinite",
      "createCategory(bytes32)": "23407",
      "defaultSellerPremium()": "1136",
      "finishPreparedIndexPool(address,address[],uint256[])": "infinite",
      "getCategoryMarketCaps(uint256)": "infinite",
      "getCategoryTokens(uint256)": "infinite",
      "getInitialTokensAndBalances(uint256,uint256,uint144)": "infinite",
      "getLastCategoryUpdate(uint256)": "2082",
      "getTopCategoryTokens(uint256,uint256)": "infinite",
      "hasCategory(uint256)": "1256",
      "initialize()": "infinite",
      "isTokenInCategory(uint256,address)": "2365",
      "oracle()": "infinite",
      "orderCategoryTokensByMarketCap(uint256)": "infinite",
      "owner()": "1182",
      "prepareIndexPool(uint256,uint256,uint256,string,string)": "infinite",
      "reindexPool(address)": "infinite",
      "removeToken(uint256,address)": "infinite",
      "renounceOwnership()": "24343",
      "reweighPool(address)": "infinite",
      "setDefaultSellerPremium(uint8)": "22141",
      "setMaxPoolTokens(address,uint256)": "infinite",
      "setSwapFee(address,uint256)": "infinite",
      "transferOwnership(address)": "24499",
      "updateCategoryPrices(uint256)": "infinite",
      "updateMinimumBalance(address,address)": "infinite",
      "updateSellerPremium(address,uint8)": "infinite"
    },
    "internal": {
      "_denormalizeFractionalWeight(struct FixedPoint.uq112x112 memory)": "infinite",
      "_estimatePoolValue(contract IIndexPool)": "infinite"
    }
  }
}