{
  "abi": [
    {
      "anonymous": false,
      "inputs": [
        {
          "indexed": true,
          "internalType": "address",
          "name": "src",
          "type": "address"
        },
        {
          "indexed": true,
          "internalType": "address",
          "name": "dst",
          "type": "address"
        },
        {
          "indexed": false,
          "internalType": "uint256",
          "name": "amt",
          "type": "uint256"
        }
      ],
      "name": "Approval",
      "type": "event"
    },
    {
      "anonymous": false,
      "inputs": [
        {
          "indexed": true,
          "internalType": "address",
          "name": "token",
          "type": "address"
        },
        {
          "indexed": false,
          "internalType": "uint256",
          "name": "newDenorm",
          "type": "uint256"
        }
      ],
      "name": "LOG_DENORM_UPDATED",
      "type": "event"
    },
    {
      "anonymous": false,
      "inputs": [
        {
          "indexed": true,
          "internalType": "address",
          "name": "token",
          "type": "address"
        },
        {
          "indexed": false,
          "internalType": "uint256",
          "name": "desiredDenorm",
          "type": "uint256"
        }
      ],
      "name": "LOG_DESIRED_DENORM_SET",
      "type": "event"
    },
    {
      "anonymous": false,
      "inputs": [
        {
          "indexed": true,
          "internalType": "address",
          "name": "caller",
          "type": "address"
        },
        {
          "indexed": true,
          "internalType": "address",
          "name": "tokenOut",
          "type": "address"
        },
        {
          "indexed": false,
          "internalType": "uint256",
          "name": "tokenAmountOut",
          "type": "uint256"
        }
      ],
      "name": "LOG_EXIT",
      "type": "event"
    },
    {
      "anonymous": false,
      "inputs": [
        {
          "indexed": true,
          "internalType": "address",
          "name": "caller",
          "type": "address"
        },
        {
          "indexed": true,
          "internalType": "address",
          "name": "tokenIn",
          "type": "address"
        },
        {
          "indexed": false,
          "internalType": "uint256",
          "name": "tokenAmountIn",
          "type": "uint256"
        }
      ],
      "name": "LOG_JOIN",
      "type": "event"
    },
    {
      "anonymous": false,
      "inputs": [
        {
          "indexed": false,
          "internalType": "uint256",
          "name": "maxPoolTokens",
          "type": "uint256"
        }
      ],
      "name": "LOG_MAX_TOKENS_UPDATED",
      "type": "event"
    },
    {
      "anonymous": false,
      "inputs": [
        {
          "indexed": false,
          "internalType": "address",
          "name": "token",
          "type": "address"
        },
        {
          "indexed": false,
          "internalType": "uint256",
          "name": "minimumBalance",
          "type": "uint256"
        }
      ],
      "name": "LOG_MINIMUM_BALANCE_UPDATED",
      "type": "event"
    },
    {
      "anonymous": false,
      "inputs": [],
      "name": "LOG_PUBLIC_SWAP_ENABLED",
      "type": "event"
    },
    {
      "anonymous": false,
      "inputs": [
        {
          "indexed": true,
          "internalType": "address",
          "name": "caller",
          "type": "address"
        },
        {
          "indexed": true,
          "internalType": "address",
          "name": "tokenIn",
          "type": "address"
        },
        {
          "indexed": true,
          "internalType": "address",
          "name": "tokenOut",
          "type": "address"
        },
        {
          "indexed": false,
          "internalType": "uint256",
          "name": "tokenAmountIn",
          "type": "uint256"
        },
        {
          "indexed": false,
          "internalType": "uint256",
          "name": "tokenAmountOut",
          "type": "uint256"
        }
      ],
      "name": "LOG_SWAP",
      "type": "event"
    },
    {
      "anonymous": false,
      "inputs": [
        {
          "indexed": false,
          "internalType": "uint256",
          "name": "swapFee",
          "type": "uint256"
        }
      ],
      "name": "LOG_SWAP_FEE_UPDATED",
      "type": "event"
    },
    {
      "anonymous": false,
      "inputs": [
        {
          "indexed": true,
          "internalType": "address",
          "name": "token",
          "type": "address"
        },
        {
          "indexed": false,
          "internalType": "uint256",
          "name": "desiredDenorm",
          "type": "uint256"
        },
        {
          "indexed": false,
          "internalType": "uint256",
          "name": "minimumBalance",
          "type": "uint256"
        }
      ],
      "name": "LOG_TOKEN_ADDED",
      "type": "event"
    },
    {
      "anonymous": false,
      "inputs": [
        {
          "indexed": true,
          "internalType": "address",
          "name": "token",
          "type": "address"
        }
      ],
      "name": "LOG_TOKEN_READY",
      "type": "event"
    },
    {
      "anonymous": false,
      "inputs": [
        {
          "indexed": false,
          "internalType": "address",
          "name": "token",
          "type": "address"
        }
      ],
      "name": "LOG_TOKEN_REMOVED",
      "type": "event"
    },
    {
      "anonymous": false,
      "inputs": [
        {
          "indexed": true,
          "internalType": "address",
          "name": "src",
          "type": "address"
        },
        {
          "indexed": true,
          "internalType": "address",
          "name": "dst",
          "type": "address"
        },
        {
          "indexed": false,
          "internalType": "uint256",
          "name": "amt",
          "type": "uint256"
        }
      ],
      "name": "Transfer",
      "type": "event"
    },
    {
      "inputs": [],
      "name": "VERSION_NUMBER",
      "outputs": [
        {
          "internalType": "uint256",
          "name": "",
          "type": "uint256"
        }
      ],
      "stateMutability": "view",
      "type": "function"
    },
    {
      "inputs": [
        {
          "internalType": "address",
          "name": "src",
          "type": "address"
        },
        {
          "internalType": "address",
          "name": "dst",
          "type": "address"
        }
      ],
      "name": "allowance",
      "outputs": [
        {
          "internalType": "uint256",
          "name": "",
          "type": "uint256"
        }
      ],
      "stateMutability": "view",
      "type": "function"
    },
    {
      "inputs": [
        {
          "internalType": "address",
          "name": "dst",
          "type": "address"
        },
        {
          "internalType": "uint256",
          "name": "amt",
          "type": "uint256"
        }
      ],
      "name": "approve",
      "outputs": [
        {
          "internalType": "bool",
          "name": "",
          "type": "bool"
        }
      ],
      "stateMutability": "nonpayable",
      "type": "function"
    },
    {
      "inputs": [
        {
          "internalType": "address",
          "name": "whom",
          "type": "address"
        }
      ],
      "name": "balanceOf",
      "outputs": [
        {
          "internalType": "uint256",
          "name": "",
          "type": "uint256"
        }
      ],
      "stateMutability": "view",
      "type": "function"
    },
    {
      "inputs": [
        {
          "internalType": "address",
          "name": "controller",
          "type": "address"
        },
        {
          "internalType": "string",
          "name": "name",
          "type": "string"
        },
        {
          "internalType": "string",
          "name": "symbol",
          "type": "string"
        }
      ],
      "name": "configure",
      "outputs": [],
      "stateMutability": "nonpayable",
      "type": "function"
    },
    {
      "inputs": [],
      "name": "decimals",
      "outputs": [
        {
          "internalType": "uint8",
          "name": "",
          "type": "uint8"
        }
      ],
      "stateMutability": "view",
      "type": "function"
    },
    {
      "inputs": [
        {
          "internalType": "address",
          "name": "dst",
          "type": "address"
        },
        {
          "internalType": "uint256",
          "name": "amt",
          "type": "uint256"
        }
      ],
      "name": "decreaseApproval",
      "outputs": [
        {
          "internalType": "bool",
          "name": "",
          "type": "bool"
        }
      ],
      "stateMutability": "nonpayable",
      "type": "function"
    },
    {
      "inputs": [
        {
          "internalType": "uint256",
          "name": "poolAmountIn",
          "type": "uint256"
        },
        {
          "internalType": "uint256[]",
          "name": "minAmountsOut",
          "type": "uint256[]"
        }
      ],
      "name": "exitPool",
      "outputs": [],
      "stateMutability": "nonpayable",
      "type": "function"
    },
    {
      "inputs": [
        {
          "internalType": "address",
          "name": "tokenOut",
          "type": "address"
        },
        {
          "internalType": "uint256",
          "name": "tokenAmountOut",
          "type": "uint256"
        },
        {
          "internalType": "uint256",
          "name": "maxPoolAmountIn",
          "type": "uint256"
        }
      ],
      "name": "exitswapExternAmountOut",
      "outputs": [
        {
          "internalType": "uint256",
          "name": "",
          "type": "uint256"
        }
      ],
      "stateMutability": "nonpayable",
      "type": "function"
    },
    {
      "inputs": [
        {
          "internalType": "address",
          "name": "tokenOut",
          "type": "address"
        },
        {
          "internalType": "uint256",
          "name": "poolAmountIn",
          "type": "uint256"
        },
        {
          "internalType": "uint256",
          "name": "minAmountOut",
          "type": "uint256"
        }
      ],
      "name": "exitswapPoolAmountIn",
      "outputs": [
        {
          "internalType": "uint256",
          "name": "",
          "type": "uint256"
        }
      ],
      "stateMutability": "nonpayable",
      "type": "function"
    },
    {
      "inputs": [],
      "name": "extrapolatePoolValueFromToken",
      "outputs": [
        {
          "internalType": "address",
          "name": "",
          "type": "address"
        },
        {
          "internalType": "uint256",
          "name": "",
          "type": "uint256"
        }
      ],
      "stateMutability": "view",
      "type": "function"
    },
    {
      "inputs": [
        {
          "internalType": "contract IFlashLoanRecipient",
          "name": "recipient",
          "type": "address"
        },
        {
          "internalType": "address",
          "name": "token",
          "type": "address"
        },
        {
          "internalType": "uint256",
          "name": "amount",
          "type": "uint256"
        },
        {
          "internalType": "bytes",
          "name": "data",
          "type": "bytes"
        }
      ],
      "name": "flashBorrow",
      "outputs": [],
      "stateMutability": "nonpayable",
      "type": "function"
    },
    {
      "inputs": [
        {
          "internalType": "address",
          "name": "token",
          "type": "address"
        }
      ],
      "name": "getBalance",
      "outputs": [
        {
          "internalType": "uint256",
          "name": "",
          "type": "uint256"
        }
      ],
      "stateMutability": "view",
      "type": "function"
    },
    {
      "inputs": [],
      "name": "getController",
      "outputs": [
        {
          "internalType": "address",
          "name": "",
          "type": "address"
        }
      ],
      "stateMutability": "view",
      "type": "function"
    },
    {
      "inputs": [],
      "name": "getCurrentDesiredTokens",
      "outputs": [
        {
          "internalType": "address[]",
          "name": "tokens",
          "type": "address[]"
        }
      ],
      "stateMutability": "view",
      "type": "function"
    },
    {
      "inputs": [],
      "name": "getCurrentTokens",
      "outputs": [
        {
          "internalType": "address[]",
          "name": "tokens",
          "type": "address[]"
        }
      ],
      "stateMutability": "view",
      "type": "function"
    },
    {
      "inputs": [
        {
          "internalType": "address",
          "name": "token",
          "type": "address"
        }
      ],
      "name": "getDenormalizedWeight",
      "outputs": [
        {
          "internalType": "uint256",
          "name": "",
          "type": "uint256"
        }
      ],
      "stateMutability": "view",
      "type": "function"
    },
    {
      "inputs": [],
      "name": "getMaxPoolTokens",
      "outputs": [
        {
          "internalType": "uint256",
          "name": "",
          "type": "uint256"
        }
      ],
      "stateMutability": "view",
      "type": "function"
    },
    {
      "inputs": [
        {
          "internalType": "address",
          "name": "token",
          "type": "address"
        }
      ],
      "name": "getMinimumBalance",
      "outputs": [
        {
          "internalType": "uint256",
          "name": "",
          "type": "uint256"
        }
      ],
      "stateMutability": "view",
      "type": "function"
    },
    {
      "inputs": [],
      "name": "getNumTokens",
      "outputs": [
        {
          "internalType": "uint256",
          "name": "",
          "type": "uint256"
        }
      ],
      "stateMutability": "view",
      "type": "function"
    },
    {
      "inputs": [
        {
          "internalType": "address",
          "name": "tokenIn",
          "type": "address"
        },
        {
          "internalType": "address",
          "name": "tokenOut",
          "type": "address"
        }
      ],
      "name": "getSpotPrice",
      "outputs": [
        {
          "internalType": "uint256",
          "name": "",
          "type": "uint256"
        }
      ],
      "stateMutability": "view",
      "type": "function"
    },
    {
      "inputs": [],
      "name": "getSwapFee",
      "outputs": [
        {
          "internalType": "uint256",
          "name": "",
          "type": "uint256"
        }
      ],
      "stateMutability": "view",
      "type": "function"
    },
    {
      "inputs": [
        {
          "internalType": "address",
          "name": "token",
          "type": "address"
        }
      ],
      "name": "getTokenRecord",
      "outputs": [
        {
          "components": [
            {
              "internalType": "bool",
              "name": "bound",
              "type": "bool"
            },
            {
              "internalType": "bool",
              "name": "ready",
              "type": "bool"
            },
            {
              "internalType": "uint40",
              "name": "lastDenormUpdate",
              "type": "uint40"
            },
            {
              "internalType": "uint96",
              "name": "denorm",
              "type": "uint96"
            },
            {
              "internalType": "uint96",
              "name": "desiredDenorm",
              "type": "uint96"
            },
            {
              "internalType": "uint8",
              "name": "index",
              "type": "uint8"
            },
            {
              "internalType": "uint256",
              "name": "balance",
              "type": "uint256"
            }
          ],
          "internalType": "struct IPool.Record",
          "name": "record",
          "type": "tuple"
        }
      ],
      "stateMutability": "view",
      "type": "function"
    },
    {
      "inputs": [],
      "name": "getTotalDenormalizedWeight",
      "outputs": [
        {
          "internalType": "uint256",
          "name": "",
          "type": "uint256"
        }
      ],
      "stateMutability": "view",
      "type": "function"
    },
    {
      "inputs": [
        {
          "internalType": "address",
          "name": "token",
          "type": "address"
        }
      ],
      "name": "getUsedBalance",
      "outputs": [
        {
          "internalType": "uint256",
          "name": "",
          "type": "uint256"
        }
      ],
      "stateMutability": "view",
      "type": "function"
    },
    {
      "inputs": [
        {
          "internalType": "address",
          "name": "token",
          "type": "address"
        }
      ],
      "name": "gulp",
      "outputs": [],
      "stateMutability": "nonpayable",
      "type": "function"
    },
    {
      "inputs": [
        {
          "internalType": "address",
          "name": "dst",
          "type": "address"
        },
        {
          "internalType": "uint256",
          "name": "amt",
          "type": "uint256"
        }
      ],
      "name": "increaseApproval",
      "outputs": [
        {
          "internalType": "bool",
          "name": "",
          "type": "bool"
        }
      ],
      "stateMutability": "nonpayable",
      "type": "function"
    },
    {
      "inputs": [
        {
          "internalType": "address[]",
          "name": "tokens",
          "type": "address[]"
        },
        {
          "internalType": "uint256[]",
          "name": "balances",
          "type": "uint256[]"
        },
        {
          "internalType": "uint96[]",
          "name": "denorms",
          "type": "uint96[]"
        },
        {
          "internalType": "address",
          "name": "tokenProvider",
          "type": "address"
        },
        {
          "internalType": "address",
          "name": "unbindHandler",
          "type": "address"
        }
      ],
      "name": "initialize",
      "outputs": [],
      "stateMutability": "nonpayable",
      "type": "function"
    },
    {
      "inputs": [
        {
          "internalType": "address",
          "name": "t",
          "type": "address"
        }
      ],
      "name": "isBound",
      "outputs": [
        {
          "internalType": "bool",
          "name": "",
          "type": "bool"
        }
      ],
      "stateMutability": "view",
      "type": "function"
    },
    {
      "inputs": [],
      "name": "isPublicSwap",
      "outputs": [
        {
          "internalType": "bool",
          "name": "",
          "type": "bool"
        }
      ],
      "stateMutability": "view",
      "type": "function"
    },
    {
      "inputs": [
        {
          "internalType": "uint256",
          "name": "poolAmountOut",
          "type": "uint256"
        },
        {
          "internalType": "uint256[]",
          "name": "maxAmountsIn",
          "type": "uint256[]"
        }
      ],
      "name": "joinPool",
      "outputs": [],
      "stateMutability": "nonpayable",
      "type": "function"
    },
    {
      "inputs": [
        {
          "internalType": "address",
          "name": "tokenIn",
          "type": "address"
        },
        {
          "internalType": "uint256",
          "name": "tokenAmountIn",
          "type": "uint256"
        },
        {
          "internalType": "uint256",
          "name": "minPoolAmountOut",
          "type": "uint256"
        }
      ],
      "name": "joinswapExternAmountIn",
      "outputs": [
        {
          "internalType": "uint256",
          "name": "",
          "type": "uint256"
        }
      ],
      "stateMutability": "nonpayable",
      "type": "function"
    },
    {
      "inputs": [
        {
          "internalType": "address",
          "name": "tokenIn",
          "type": "address"
        },
        {
          "internalType": "uint256",
          "name": "poolAmountOut",
          "type": "uint256"
        },
        {
          "internalType": "uint256",
          "name": "maxAmountIn",
          "type": "uint256"
        }
      ],
      "name": "joinswapPoolAmountOut",
      "outputs": [
        {
          "internalType": "uint256",
          "name": "",
          "type": "uint256"
        }
      ],
      "stateMutability": "nonpayable",
      "type": "function"
    },
    {
      "inputs": [],
      "name": "name",
      "outputs": [
        {
          "internalType": "string",
          "name": "",
          "type": "string"
        }
      ],
      "stateMutability": "view",
      "type": "function"
    },
    {
      "inputs": [
        {
          "internalType": "address[]",
          "name": "tokens",
          "type": "address[]"
        },
        {
          "internalType": "uint96[]",
          "name": "desiredDenorms",
          "type": "uint96[]"
        },
        {
          "internalType": "uint256[]",
          "name": "minimumBalances",
          "type": "uint256[]"
        }
      ],
      "name": "reindexTokens",
      "outputs": [],
      "stateMutability": "nonpayable",
      "type": "function"
    },
    {
      "inputs": [
        {
          "internalType": "address[]",
          "name": "tokens",
          "type": "address[]"
        },
        {
          "internalType": "uint96[]",
          "name": "desiredDenorms",
          "type": "uint96[]"
        }
      ],
      "name": "reweighTokens",
      "outputs": [],
      "stateMutability": "nonpayable",
      "type": "function"
    },
    {
      "inputs": [
        {
          "internalType": "uint256",
          "name": "maxPoolTokens",
          "type": "uint256"
        }
      ],
      "name": "setMaxPoolTokens",
      "outputs": [],
      "stateMutability": "nonpayable",
      "type": "function"
    },
    {
      "inputs": [
        {
          "internalType": "address",
          "name": "token",
          "type": "address"
        },
        {
          "internalType": "uint256",
          "name": "minimumBalance",
          "type": "uint256"
        }
      ],
      "name": "setMinimumBalance",
      "outputs": [],
      "stateMutability": "nonpayable",
      "type": "function"
    },
    {
      "inputs": [
        {
          "internalType": "uint256",
          "name": "swapFee",
          "type": "uint256"
        }
      ],
      "name": "setSwapFee",
      "outputs": [],
      "stateMutability": "nonpayable",
      "type": "function"
    },
    {
      "inputs": [
        {
          "internalType": "address",
          "name": "tokenIn",
          "type": "address"
        },
        {
          "internalType": "uint256",
          "name": "tokenAmountIn",
          "type": "uint256"
        },
        {
          "internalType": "address",
          "name": "tokenOut",
          "type": "address"
        },
        {
          "internalType": "uint256",
          "name": "minAmountOut",
          "type": "uint256"
        },
        {
          "internalType": "uint256",
          "name": "maxPrice",
          "type": "uint256"
        }
      ],
      "name": "swapExactAmountIn",
      "outputs": [
        {
          "internalType": "uint256",
          "name": "",
          "type": "uint256"
        },
        {
          "internalType": "uint256",
          "name": "",
          "type": "uint256"
        }
      ],
      "stateMutability": "nonpayable",
      "type": "function"
    },
    {
      "inputs": [
        {
          "internalType": "address",
          "name": "tokenIn",
          "type": "address"
        },
        {
          "internalType": "uint256",
          "name": "maxAmountIn",
          "type": "uint256"
        },
        {
          "internalType": "address",
          "name": "tokenOut",
          "type": "address"
        },
        {
          "internalType": "uint256",
          "name": "tokenAmountOut",
          "type": "uint256"
        },
        {
          "internalType": "uint256",
          "name": "maxPrice",
          "type": "uint256"
        }
      ],
      "name": "swapExactAmountOut",
      "outputs": [
        {
          "internalType": "uint256",
          "name": "",
          "type": "uint256"
        },
        {
          "internalType": "uint256",
          "name": "",
          "type": "uint256"
        }
      ],
      "stateMutability": "nonpayable",
      "type": "function"
    },
    {
      "inputs": [],
      "name": "symbol",
      "outputs": [
        {
          "internalType": "string",
          "name": "",
          "type": "string"
        }
      ],
      "stateMutability": "view",
      "type": "function"
    },
    {
      "inputs": [],
      "name": "totalSupply",
      "outputs": [
        {
          "internalType": "uint256",
          "name": "",
          "type": "uint256"
        }
      ],
      "stateMutability": "view",
      "type": "function"
    },
    {
      "inputs": [
        {
          "internalType": "address",
          "name": "dst",
          "type": "address"
        },
        {
          "internalType": "uint256",
          "name": "amt",
          "type": "uint256"
        }
      ],
      "name": "transfer",
      "outputs": [
        {
          "internalType": "bool",
          "name": "",
          "type": "bool"
        }
      ],
      "stateMutability": "nonpayable",
      "type": "function"
    },
    {
      "inputs": [
        {
          "internalType": "address",
          "name": "src",
          "type": "address"
        },
        {
          "internalType": "address",
          "name": "dst",
          "type": "address"
        },
        {
          "internalType": "uint256",
          "name": "amt",
          "type": "uint256"
        }
      ],
      "name": "transferFrom",
      "outputs": [
        {
          "internalType": "bool",
          "name": "",
          "type": "bool"
        }
      ],
      "stateMutability": "nonpayable",
      "type": "function"
    }
  ],
  "address": "0xd40029480C2586891AD26C707ad89e60E1986c51",
  "args": [],
  "solcInputHash": "0xaf8c618a376cbc497299d7a053a95bf87290e7411f280b695e28e1d76929501e",
  "bytecode": "0x608060405234801561001057600080fd5b50615ec980620000216000396000f3fe608060405234801561001057600080fd5b506004361061027f5760003560e01c80636d06dfa01161015c578063a20cfa75116100ce578063cd2ed8fb11610087578063cd2ed8fb14610572578063d4cadf681461057a578063d73dd62314610582578063dd62ed3e14610595578063f8b2cb4f146105a8578063fde924f7146105bb5761027f565b8063a20cfa751461050b578063a49c44d71461051e578063a9059cbb14610531578063b02f0b7314610544578063c3f4681014610557578063cc77828d1461056a5761027f565b80638c28cbe8116101205780638c28cbe8146104ac57806391bfa2bf146104bf578063936c3477146104d2578063948d8ce6146104da57806395d89b41146104ed57806398836f08146104f55761027f565b80636d06dfa01461044a57806370a082311461045d5780637c5e9ea4146104705780638025e303146104915780638201aa3f146104995761027f565b8063313ce567116101f55780634f69c0d4116101b95780634f69c0d4146103cb578063534d4f3d146103de5780635d5e8ce7146103f15780635db342771461040457806364c7d6611461041757806366188463146104375761027f565b8063313ce5671461037557806334e199071461038a57806346ab38f11461039d57806346ecfbd6146103b05780634aa4e0b5146103b85761027f565b806318160ddd1161024757806318160ddd1461030a57806319f0f8491461031257806323b872dd146103275780632f37b6241461033a5780633018205f1461034d5780633043ffc9146103625761027f565b806302c9674814610284578063039209af146102ad57806306fdde03146102c2578063095ea7b3146102d757806315e84af9146102f7575b600080fd5b610297610292366004615247565b6105c3565b6040516102a49190615ddc565b60405180910390f35b6102b561079e565b6040516102a49190615610565b6102ca610905565b6040516102a49190615668565b6102ea6102e53660046151cb565b61099b565b6040516102a4919061565d565b6102976103053660046150d3565b6109f4565b610297610a7b565b61032561032036600461514b565b610a81565b005b6102ea61033536600461510b565b610b7c565b6102ea6103483660046150b7565b610cad565b610355610ccf565b6040516102a49190615573565b610325610370366004615456565b610ce3565b61037d61105f565b6040516102a49190615df3565b6103256103983660046154b6565b611064565b6102976103ab366004615247565b611120565b610297611298565b6102976103c63660046150b7565b61129e565b6103256103d93660046154e6565b6113ab565b6103256103ec3660046154b6565b6115d7565b6103256103ff366004615337565b61163b565b610297610412366004615247565b611718565b61042a6104253660046150b7565b6118f6565b6040516102a49190615d71565b6102ea6104453660046151cb565b6119cd565b610297610458366004615247565b611a96565b61029761046b3660046150b7565b611c69565b61048361047e3660046151f6565b611c84565b6040516102a4929190615de5565b610297611f7b565b6104836104a73660046151f6565b611f80565b6103256104ba3660046150b7565b612253565b6102976104cd3660046150b7565b6124d0565b6102976125e9565b6102976104e83660046150b7565b612616565b6102ca6126a0565b6104fd612701565b6040516102a49291906155ab565b61032561051936600461527b565b612805565b61032561052c3660046151cb565b612c58565b6102ea61053f3660046151cb565b612d40565b6103256105523660046154e6565b612d56565b6103256105653660046153a0565b613020565b6102b56133bb565b610297613440565b610297613446565b6102ea6105903660046151cb565b613473565b6102976105a33660046150d3565b6134e7565b6102976105b63660046150b7565b613512565b6102ea61357b565b60055460009060ff16156105f25760405162461bcd60e51b81526004016105e99061598c565b60405180910390fd5b6005805460ff19166001179055610607614f66565b6106108561358b565b90506106358160c001516003670de0b6b3a76400008161062c57fe5b04600101613660565b8411156106545760405162461bcd60e51b81526004016105e9906159e8565b600061067b8260c0015183606001516001600160601b0316600254600a54896007546136d9565b90508061069a5760405162461bcd60e51b81526004016105e990615792565b838111156106ba5760405162461bcd60e51b81526004016105e990615936565b6106c586338761379d565b6106d38260c001518661388c565b6001600160a01b0387166000908152600960205260409020600101556106f982876138c5565b6000610706826000613660565b9050866001600160a01b0316336001600160a01b03167fe74c91552b64c2e2e7bd255639e004e693bd3e1d01cc33e65610b86afcc1ffed8860405161074b9190615ddc565b60405180910390a361075d3383613a6a565b61076f61076a838361388c565b613a74565b60055461078a9061010090046001600160a01b031682613a80565b506005805460ff1916905595945050505050565b60055460609060ff16156107c45760405162461bcd60e51b81526004016105e99061598c565b6060600880548060200260200160405190810160405280929190818152602001828054801561081c57602002820191906000526020600020905b81546001600160a01b031681526001909101906020018083116107fe575b50505050509050805167ffffffffffffffff8111801561083b57600080fd5b50604051908082528060200260200182016040528015610865578160200160208202803683370190505b5091506000805b83518110156108fe57600083828151811061088357fe5b6020908102919091018101516001600160a01b03811660009081526009909252604090912054909150600160981b90046001600160601b0316156108f557808584806001019550815181106108d457fe5b60200260200101906001600160a01b031690816001600160a01b0316815250505b5060010161086c565b5082525090565b60038054604080516020601f60026000196101006001881615020190951694909404938401819004810282018101909252828152606093909290918301828280156109915780601f1061096657610100808354040283529160200191610991565b820191906000526020600020905b81548152906001019060200180831161097457829003601f168201915b5050505050905090565b3360008181526001602090815260408083206001600160a01b03871680855292528083208590555191929091600080516020615e74833981519152906109e2908690615ddc565b60405180910390a35060015b92915050565b60055460009060ff1615610a1a5760405162461bcd60e51b81526004016105e99061598c565b610a22614f66565b610a2b84613a8a565b509050610a36614f66565b610a3f8461358b565b9050610a728260c0015183606001516001600160601b03168360c0015184606001516001600160601b0316600754613bd8565b95945050505050565b60025490565b60055461010090046001600160a01b031615610aaf5760405162461bcd60e51b81526004016105e990615ba2565b6001600160a01b038516610ad55760405162461bcd60e51b81526004016105e990615c9d565b60058054610100600160a81b0319166101006001600160a01b038816021790556028670de0b6b3a764000004600755604080516020601f8601819004810282018101909252848152610b7591869086908190840183828082843760009201919091525050604080516020601f88018190048102820181019092528681529250869150859081908401838280828437600092019190915250613c3d92505050565b5050505050565b6000336001600160a01b0385161480610bb857506001600160a01b03841660009081526001602090815260408083203384529091529020548211155b610bd45760405162461bcd60e51b81526004016105e990615907565b610bdf848484613cb4565b336001600160a01b03851614801590610c1d57506001600160a01b038416600090815260016020908152604080832033845290915290205460001914155b15610ca3576001600160a01b0384166000908152600160209081526040808320338452909152902054610c50908361388c565b6001600160a01b038581166000908152600160209081526040808320338085529252918290208490559051918616929091600080516020615e7483398151915291610c9a91615ddc565b60405180910390a35b5060019392505050565b6001600160a01b03811660009081526009602052604090205460ff165b919050565b60055461010090046001600160a01b031690565b60055460ff1615610d065760405162461bcd60e51b81526004016105e99061598c565b6005805460ff191660011790556001600160a01b0384166000908152600960205260409020805460ff16610d4c5760405162461bcd60e51b81526004016105e990615a13565b6040516370a0823160e01b81526000906001600160a01b038716906370a0823190610d7b903090600401615573565b60206040518083038186803b158015610d9357600080fd5b505afa158015610da7573d6000803e3d6000fd5b505050506040513d601f19601f82011682018060405250810190610dcb91906154ce565b905084811015610ded5760405162461bcd60e51b81526004016105e990615886565b610df886888761379d565b6000610e0682600754613660565b90506000610e148783613d9d565b604051630ed1000360e31b81529091506001600160a01b038a1690637688001890610e4b908b908b9086908c908c906004016155c4565b600060405180830381600087803b158015610e6557600080fd5b505af1158015610e79573d6000803e3d6000fd5b50506040516370a0823160e01b8152600092506001600160a01b038b1691506370a0823190610eac903090600401615573565b60206040518083038186803b158015610ec457600080fd5b505afa158015610ed8573d6000803e3d6000fd5b505050506040513d601f19601f82011682018060405250810190610efc91906154ce565b90508381118015610f0d5750818110155b610f295760405162461bcd60e51b81526004016105e9906159b1565b600185018190558454610100900460ff16611049576001600160a01b0389166000908152600b6020526040902054808210611047576001600160a01b038a166000818152600b6020526040808220829055885461ff001916610100178955517ff7bb8e57ffdfd9a31e7580ee84f68757f44fb4a8a913f44520d22f2da1c955e59190a26000610fb8838361388c565b90506000610fc68284613dc9565b90506000610ff16004670de0b6b3a76400005b04610fec6703782dace9d9000085613660565b613d9d565b8954600160381b600160981b031916600160381b6001600160601b0383169081029190911766ffffffffff00001916620100004264ffffffffff1602178b55600a549192506110409190613d9d565b600a555050505b505b50506005805460ff191690555050505050505050565b601290565b60055461010090046001600160a01b031633146110935760405162461bcd60e51b81526004016105e99061569b565b64e8d4a510008110156110b85760405162461bcd60e51b81526004016105e9906157bb565b67016345785d8a00008111156110e05760405162461bcd60e51b81526004016105e990615a3a565b60078190556040517fccfe595973efc7c1f6c29e31974d380470b9431d7770290185b7129419c7e63e90611115908390615ddc565b60405180910390a150565b60055460009060ff16156111465760405162461bcd60e51b81526004016105e99061598c565b6005805460ff1916600117905561115b614f66565b6111648561358b565b9050600061118d8260c0015183606001516001600160601b0316600254600a5489600754613e5d565b9050838110156111af5760405162461bcd60e51b81526004016105e990615836565b6111c98260c001516003670de0b6b3a76400008161062c57fe5b8111156111e85760405162461bcd60e51b81526004016105e9906159e8565b6111f386338361379d565b6112018260c001518261388c565b6001600160a01b03871660009081526009602052604090206001015561122782876138c5565b6000611234866000613660565b9050866001600160a01b0316336001600160a01b03167fe74c91552b64c2e2e7bd255639e004e693bd3e1d01cc33e65610b86afcc1ffed846040516112799190615ddc565b60405180910390a361128b3387613a6a565b61076f61076a878361388c565b600c5490565b60055460009060ff16156112c45760405162461bcd60e51b81526004016105e99061598c565b6112cc614f66565b506001600160a01b038216600090815260096020908152604091829020825160e081018452815460ff80821615158084526101008304821615159584019590955264ffffffffff62010000830416958301959095526001600160601b03600160381b820481166060840152600160981b8204166080830152600160f81b900490931660a08401526001015460c08301526113785760405162461bcd60e51b81526004016105e990615a13565b80602001516113a15750506001600160a01b0381166000908152600b6020526040902054610cca565b60c0015192915050565b60055460ff16156113ce5760405162461bcd60e51b81526004016105e99061598c565b6005805460ff19166001179055600654600160a01b900460ff166114045760405162461bcd60e51b81526004016105e990615a8a565b600061140e610a7b565b9050600061141c8583613dc9565b90508061143b5760405162461bcd60e51b81526004016105e990615792565b600854831461145c5760405162461bcd60e51b81526004016105e990615b31565b600c54801561148e57806114708488613d9d565b111561148e5760405162461bcd60e51b81526004016105e990615cc7565b60005b848110156115b1576000600882815481106114a857fe5b6000918252602090912001546001600160a01b031690506114c7614f66565b60006114d283613a8a565b9150915060006114e6878460c00151613660565b9050806115055760405162461bcd60e51b81526004016105e990615792565b89898681811061151157fe5b905060200201358111156115375760405162461bcd60e51b81526004016105e990615936565b61154b84846115468585613d9d565b613f26565b836001600160a01b0316336001600160a01b03167f63982df10efd8dfaaaa0fcc7f50b2d93b7cba26ccc48adee2873220d485dc39a8360405161158e9190615ddc565b60405180910390a36115a18433836140d2565b5050600190920191506114919050565b506115bb866140fd565b6115c53387613a80565b50506005805460ff1916905550505050565b60055461010090046001600160a01b031633146116065760405162461bcd60e51b81526004016105e99061569b565b600c8190556040517f65492266ae9a1f46497efddd24b6946862569680a511c543590d4587ca800d0590611115908390615ddc565b60055460ff161561165e5760405162461bcd60e51b81526004016105e99061598c565b60058054600160ff19909116179081905561010090046001600160a01b0316331461169b5760405162461bcd60e51b81526004016105e99061569b565b828181146116bb5760405162461bcd60e51b81526004016105e990615b31565b60005b818110156115c5576117108686838181106116d557fe5b90506020020160208101906116ea91906150b7565b8585848181106116f657fe5b905060200201602081019061170b9190615530565b614106565b6001016116be565b60055460009060ff161561173e5760405162461bcd60e51b81526004016105e99061598c565b6005805460ff19166001179055600654600160a01b900460ff166117745760405162461bcd60e51b81526004016105e990615a8a565b61177c614f66565b600061178786613a8a565b9150915084600014156117ac5760405162461bcd60e51b81526004016105e990615d4c565b6117cc8260c001516002670de0b6b3a7640000816117c657fe5b04613660565b8511156117eb5760405162461bcd60e51b81526004016105e99061573d565b60006118128360c0015184606001516001600160601b0316600254600a548a600754614223565b600c549091508015611849578061182b60025484613d9d565b11156118495760405162461bcd60e51b81526004016105e990615cc7565b858210156118695760405162461bcd60e51b81526004016105e990615836565b6118788885611546868b613d9d565b876001600160a01b0316336001600160a01b03167f63982df10efd8dfaaaa0fcc7f50b2d93b7cba26ccc48adee2873220d485dc39a896040516118bb9190615ddc565b60405180910390a36118cc826140fd565b6118d63383613a80565b6118e18833896140d2565b506005805460ff191690559695505050505050565b6118fe614f66565b60055460ff16156119215760405162461bcd60e51b81526004016105e99061598c565b506001600160a01b038116600090815260096020908152604091829020825160e081018452815460ff80821615158084526101008304821615159584019590955264ffffffffff62010000830416958301959095526001600160601b03600160381b820481166060840152600160981b8204166080830152600160f81b900490931660a08401526001015460c0830152610cca5760405162461bcd60e51b81526004016105e990615a13565b3360009081526001602090815260408083206001600160a01b038616845290915281205480831115611a22573360009081526001602090815260408083206001600160a01b0388168452909152812055611a51565b611a2c818461388c565b3360009081526001602090815260408083206001600160a01b03891684529091529020555b3360008181526001602090815260408083206001600160a01b038916808552925291829020549151909291600080516020615e7483398151915291610c9a9190615ddc565b60055460009060ff1615611abc5760405162461bcd60e51b81526004016105e99061598c565b6005805460ff19166001179055600654600160a01b900460ff16611af25760405162461bcd60e51b81526004016105e990615a8a565b600c548015611b265780611b0860025486613d9d565b1115611b265760405162461bcd60e51b81526004016105e990615cc7565b611b2e614f66565b6000611b3987613a8a565b915091506000611b648360c0015184606001516001600160601b0316600254600a548b6007546142bf565b905080611b835760405162461bcd60e51b81526004016105e990615792565b85811115611ba35760405162461bcd60e51b81526004016105e990615936565b611bbd8360c001516002670de0b6b3a7640000816117c657fe5b811115611bdc5760405162461bcd60e51b81526004016105e99061573d565b611beb88846115468585613d9d565b876001600160a01b0316336001600160a01b03167f63982df10efd8dfaaaa0fcc7f50b2d93b7cba26ccc48adee2873220d485dc39a83604051611c2e9190615ddc565b60405180910390a3611c3f876140fd565b611c493388613a80565b611c548833836140d2565b6005805460ff19169055979650505050505050565b6001600160a01b031660009081526020819052604090205490565b600554600090819060ff1615611cac5760405162461bcd60e51b81526004016105e99061598c565b6005805460ff19166001179055600654600160a01b900460ff16611ce25760405162461bcd60e51b81526004016105e990615a8a565b611cea614f66565b6000611cf589613a8a565b91509150611d01614f66565b611d0a8861358b565b9050611d268160c001516003670de0b6b3a76400008161062c57fe5b871115611d455760405162461bcd60e51b81526004016105e9906159e8565b6000611d788460c0015185606001516001600160601b03168460c0015185606001516001600160601b0316600754613bd8565b905086811115611d9a5760405162461bcd60e51b81526004016105e990615ab2565b6000611dce8560c0015186606001516001600160601b03168560c0015186606001516001600160601b03168d600754614359565b90508a811115611df05760405162461bcd60e51b81526004016105e990615936565b611dfb8c33836140d2565b611e068a338b61379d565b611e108482613d9d565b9350611e1d8c8686613f26565b846020015115611e2f5760c085018490525b611e3d8360c001518a61388c565b60c084018190526001600160a01b038b16600090815260096020526040902060010155611e6a838b6138c5565b6000611e9d8660c0015187606001516001600160601b03168660c0015187606001516001600160601b0316600754613bd8565b905082811015611ebf5760405162461bcd60e51b81526004016105e990615792565b88811115611edf5760405162461bcd60e51b81526004016105e990615b79565b611ee9828b613dc9565b831115611f085760405162461bcd60e51b81526004016105e990615792565b8a6001600160a01b03168d6001600160a01b0316336001600160a01b03167f908fb5ee8f16c6bc9bc3690973819f32a4d4b10188134543c88706e0e1d43378858e604051611f57929190615de5565b60405180910390a46005805460ff19169055909c909b509950505050505050505050565b600081565b600554600090819060ff1615611fa85760405162461bcd60e51b81526004016105e99061598c565b6005805460ff19166001179055600654600160a01b900460ff16611fde5760405162461bcd60e51b81526004016105e990615a8a565b611fe6614f66565b6000611ff189613a8a565b91509150611ffd614f66565b6120068861358b565b90506120228360c001516002670de0b6b3a7640000816117c657fe5b8911156120415760405162461bcd60e51b81526004016105e99061573d565b60006120748460c0015185606001516001600160601b03168460c0015185606001516001600160601b0316600754613bd8565b9050868111156120965760405162461bcd60e51b81526004016105e990615ab2565b60006120ca8560c0015186606001516001600160601b03168560c0015186606001516001600160601b03168f6007546143dc565b9050888110156120ec5760405162461bcd60e51b81526004016105e990615836565b6120f78c338d6140d2565b6121028a338361379d565b61210c848c613d9d565b93506121198c8686613f26565b84602001511561212b5760c085018490525b6121398360c001518261388c565b60c084018190526001600160a01b038b16600090815260096020526040902060010155612166838b6138c5565b60006121998660c0015187606001516001600160601b03168660c0015187606001516001600160601b0316600754613bd8565b9050828110156121bb5760405162461bcd60e51b81526004016105e990615767565b888111156121db5760405162461bcd60e51b81526004016105e990615b79565b6121e58c83613dc9565b8311156122045760405162461bcd60e51b81526004016105e990615792565b8a6001600160a01b03168d6001600160a01b0316336001600160a01b03167f908fb5ee8f16c6bc9bc3690973819f32a4d4b10188134543c88706e0e1d433788f86604051611f57929190615de5565b60055460ff16156122765760405162461bcd60e51b81526004016105e99061598c565b6005805460ff191660011790556001600160a01b03811660008181526009602052604080822090516370a0823160e01b81529092906370a08231906122bf903090600401615573565b60206040518083038186803b1580156122d757600080fd5b505afa1580156122eb573d6000803e3d6000fd5b505050506040513d601f19601f8201168201806040525081019061230f91906154ce565b825490915060ff1615612444578154610100900460ff16612421576001600160a01b0383166000908152600b602052604090205480821061241f576001600160a01b0384166000818152600b6020526040808220829055855461ff001916610100178655517ff7bb8e57ffdfd9a31e7580ee84f68757f44fb4a8a913f44520d22f2da1c955e59190a260006123a4838361388c565b905060006123b28284613dc9565b905060006123c96004670de0b6b3a7640000610fd9565b8654600160381b600160981b031916600160381b6001600160601b0383169081029190911766ffffffffff00001916620100004264ffffffffff1602178855600a549192506124189190613d9d565b600a555050505b505b6001600160a01b03831660009081526009602052604090206001018190556124c1565b60065461245c9084906001600160a01b03168361379d565b6006546040516360b8257960e11b81526001600160a01b039091169063c1704af29061248e90869085906004016155ab565b600060405180830381600087803b1580156124a857600080fd5b505af11580156124bc573d6000803e3d6000fd5b505050505b50506005805460ff1916905550565b60055460009060ff16156124f65760405162461bcd60e51b81526004016105e99061598c565b6124fe614f66565b506001600160a01b038216600090815260096020908152604091829020825160e081018452815460ff80821615158084526101008304821615159584019590955264ffffffffff62010000830416958301959095526001600160601b03600160381b820481166060840152600160981b8204166080830152600160f81b900490931660a08401526001015460c08301526125aa5760405162461bcd60e51b81526004016105e990615a13565b8060200151156125cc5760405162461bcd60e51b81526004016105e990615b56565b50506001600160a01b03166000908152600b602052604090205490565b60055460009060ff161561260f5760405162461bcd60e51b81526004016105e99061598c565b50600a5490565b60055460009060ff161561263c5760405162461bcd60e51b81526004016105e99061598c565b6001600160a01b03821660009081526009602052604090205460ff166126745760405162461bcd60e51b81526004016105e990615a13565b506001600160a01b0316600090815260096020526040902054600160381b90046001600160601b031690565b60048054604080516020601f60026000196101006001881615020190951694909404938401819004810282018101909252828152606093909290918301828280156109915780601f1061096657610100808354040283529160200191610991565b600554600090819060ff16156127295760405162461bcd60e51b81526004016105e99061598c565b6008546000908190815b818110156127da576008818154811061274857fe5b60009182526020808320909101546001600160a01b03168083526009909152604090912080549195509060ff61010090910416801561279757508054600160981b90046001600160601b031615155b156127d1576001810154600a5482546127c992916127c491600160381b90046001600160601b0316613dc9565b613660565b9350506127da565b50600101612733565b50600082116127fb5760405162461bcd60e51b81526004016105e9906156c7565b5090925090509091565b60055461010090046001600160a01b031633146128345760405162461bcd60e51b81526004016105e99061569b565b600854156128545760405162461bcd60e51b81526004016105e9906158b4565b8660028110156128765760405162461bcd60e51b81526004016105e990615cf4565b60088111156128975760405162461bcd60e51b81526004016105e990615715565b85811480156128a557508381145b6128c15760405162461bcd60e51b81526004016105e990615b31565b6000805b82811015612b9d5760008b8b838181106128db57fe5b90506020020160208101906128f091906150b7565b9050600088888481811061290057fe5b90506020020160208101906129159190615530565b905060008b8b8581811061292557fe5b9050602002013590506004670de0b6b3a76400008161294057fe5b04826001600160601b031610156129695760405162461bcd60e51b81526004016105e990615adf565b6802b5e3af16b18800006001600160601b038316111561299b5760405162461bcd60e51b81526004016105e9906157e0565b620f42408110156129be5760405162461bcd60e51b81526004016105e99061585d565b6040518060e001604052806001151581526020016001151581526020014264ffffffffff168152602001836001600160601b03168152602001836001600160601b031681526020018560ff1681526020018281525060096000856001600160a01b03166001600160a01b0316815260200190815260200160002060008201518160000160006101000a81548160ff02191690831515021790555060208201518160000160016101000a81548160ff02191690831515021790555060408201518160000160026101000a81548164ffffffffff021916908364ffffffffff16021790555060608201518160000160076101000a8154816001600160601b0302191690836001600160601b0316021790555060808201518160000160136101000a8154816001600160601b0302191690836001600160601b0316021790555060a082015181600001601f6101000a81548160ff021916908360ff16021790555060c082015181600101559050506008839080600181540180825580915050600190039060005260206000200160009091909190916101000a8154816001600160a01b0302191690836001600160a01b03160217905550612b8585836001600160601b0316613d9d565b9450612b928389836140d2565b5050506001016128c5565b50680168d28e3f00280000811115612bc75760405162461bcd60e51b81526004016105e990615808565b600a8190556006805460ff60a01b1916600160a01b1790556040517f183bed17d33ee5be9a47bb997aee6a152d84a34309cdb66f76301de0a40a138990600090a1612c1a68056bc75e2d631000006140fd565b612c2d8468056bc75e2d63100000613a80565b5050600680546001600160a01b0319166001600160a01b039290921691909117905550505050505050565b60055461010090046001600160a01b03163314612c875760405162461bcd60e51b81526004016105e99061569b565b6001600160a01b0382166000908152600960205260409020805460ff16612cc05760405162461bcd60e51b81526004016105e990615a13565b8054610100900460ff1615612ce75760405162461bcd60e51b81526004016105e990615b56565b6001600160a01b0383166000908152600b602052604090819020839055517e0c7a55677231b335e6dea005fa240ac2aeafbd62f188372a7d66892b722c5290612d3390859085906155ab565b60405180910390a1505050565b6000612d4d338484613cb4565b50600192915050565b60055460ff1615612d795760405162461bcd60e51b81526004016105e99061598c565b6005805460ff191660011790556008548114612da75760405162461bcd60e51b81526004016105e990615b31565b6000612db1610a7b565b90506000612dc0856000613660565b90506000612dce868361388c565b90506000612ddc8285613dc9565b905080612dfb5760405162461bcd60e51b81526004016105e990615792565b612e053388613a6a565b600554612e209061010090046001600160a01b031684613a80565b612e2982613a74565b60005b8581101561300c57600060088281548110612e4357fe5b6000918252602090912001546001600160a01b03169050612e62614f66565b506001600160a01b038116600090815260096020908152604091829020825160e081018452815460ff80821615158352610100820481161580159584019590955264ffffffffff62010000830416958301959095526001600160601b03600160381b820481166060840152600160981b8204166080830152600160f81b900490931660a08401526001015460c0830152612fd0576000612f06858360c00151613660565b905080612f255760405162461bcd60e51b81526004016105e990615792565b898985818110612f3157fe5b90506020020135811015612f575760405162461bcd60e51b81526004016105e990615836565b612f658260c001518261388c565b6001600160a01b0384166000818152600960205260409081902060010192909255905133907fe74c91552b64c2e2e7bd255639e004e693bd3e1d01cc33e65610b86afcc1ffed90612fb7908590615ddc565b60405180910390a3612fca83338361379d565b50613002565b888884818110612fdc57fe5b905060200201356000146130025760405162461bcd60e51b81526004016105e990615a5f565b5050600101612e2c565b50506005805460ff19169055505050505050565b60055460ff16156130435760405162461bcd60e51b81526004016105e99061598c565b60058054600160ff19909116179081905561010090046001600160a01b031633146130805760405162461bcd60e51b81526004016105e99061569b565b84838114801561308f57508181145b6130ab5760405162461bcd60e51b81526004016105e990615b31565b60085460608167ffffffffffffffff811180156130c757600080fd5b506040519080825280602002602001820160405280156130f1578160200160208202803683370190505b50905060608367ffffffffffffffff8111801561310d57600080fd5b5060405190808252806020026020018201604052801561314757816020015b613134614f66565b81526020019060019003908161312c5790505b50905060005b8481101561328257600960008c8c8481811061316557fe5b905060200201602081019061317a91906150b7565b6001600160a01b031681526020808201929092526040908101600020815160e081018352815460ff808216151583526101008204811615159583019590955264ffffffffff62010000820416938201939093526001600160601b03600160381b840481166060830152600160981b8404166080820152600160f81b90920490921660a082015260019091015460c0820152825183908390811061321957fe5b602002602001018190525081818151811061323057fe5b6020026020010151600001511561327a5760018383838151811061325057fe5b602002602001015160a0015160ff168151811061326957fe5b911515602092830291909101909101525b60010161314d565b5060005b838110156132d85782818151811061329a57fe5b60200260200101516132d0576132d0600882815481106132b657fe5b60009182526020822001546001600160a01b031690614106565b600101613286565b5060005b848110156133a45760008b8b838181106132f257fe5b905060200201602081019061330791906150b7565b905060008a8a8481811061331757fe5b905060200201602081019061332c9190615530565b90506703782dace9d900006001600160601b038216101561335257506703782dace9d900005b83838151811061335e57fe5b6020026020010151600001516133905761338b828a8a8681811061337e57fe5b905060200201358361445d565b61339a565b61339a8282614106565b50506001016132dc565b50506005805460ff19169055505050505050505050565b60055460609060ff16156133e15760405162461bcd60e51b81526004016105e99061598c565b600880548060200260200160405190810160405280929190818152602001828054801561099157602002820191906000526020600020905b81546001600160a01b03168152600190910190602001808311613419575050505050905090565b60085490565b60055460009060ff161561346c5760405162461bcd60e51b81526004016105e99061598c565b5060075490565b3360009081526001602090815260408083206001600160a01b03861684529091528120546134a19083613d9d565b3360008181526001602090815260408083206001600160a01b03891680855292529182902084905590519092600080516020615e74833981519152916109e29190615ddc565b6001600160a01b03918216600090815260016020908152604080832093909416825291909152205490565b60055460009060ff16156135385760405162461bcd60e51b81526004016105e99061598c565b6001600160a01b0382166000908152600960205260409020805460ff166135715760405162461bcd60e51b81526004016105e990615a13565b6001015492915050565b600654600160a01b900460ff1690565b613593614f66565b506001600160a01b038116600090815260096020908152604091829020825160e081018452815460ff80821615158084526101008304821615159584019590955264ffffffffff62010000830416958301959095526001600160601b03600160381b820481166060840152600160981b8204166080830152600160f81b900490931660a08401526001015460c083015261363f5760405162461bcd60e51b81526004016105e990615a13565b8060200151610cca5760405162461bcd60e51b81526004016105e990615a5f565b600082820283158061367a57508284828161367757fe5b04145b6136965760405162461bcd60e51b81526004016105e990615b07565b6706f05b59d3b200008101818110156136c15760405162461bcd60e51b81526004016105e990615b07565b6000670de0b6b3a7640000825b049695505050505050565b6000806136e68786613dc9565b905060006136fc670de0b6b3a76400008361388c565b9050600061370a8286613660565b9050600061372987613724670de0b6b3a76400008561388c565b613dc9565b905060006137378c8361388c565b90506000613745828e613dc9565b90506000613753828861473d565b90506000613761828e613660565b9050600061376f8e8361388c565b905061378881613724670de0b6b3a7640000600061388c565b99505050505050505050509695505050505050565b60006060846001600160a01b031663a9059cbb60e01b85856040516024016137c69291906155ab565b60408051601f198184030181529181526020820180516001600160e01b03166001600160e01b03199094169390931790925290516138049190615557565b6000604051808303816000865af19150503d8060008114613841576040519150601f19603f3d011682016040523d82523d6000602084013e613846565b606091505b50915091508180156138705750805115806138705750808060200190518101906138709190615436565b610b755760405162461bcd60e51b81526004016105e990615c1f565b600080600061389b85856147f0565b9150915080156138bd5760405162461bcd60e51b81526004016105e990615c48565b509392505050565b81608001516001600160601b031682606001516001600160601b03161115806138f057508160200151155b806139095750610e10826040015164ffffffffff164203105b1561391357613a66565b60608201516080830151600061393c6001600160601b0384166064670de0b6b3a76400006117c6565b9050600061395c846001600160601b0316846001600160601b031661388c565b90508181111561397f57613979846001600160601b03168361388c565b92508190505b6703782dace9d900006001600160601b038416116139b957600a54600093506139a8908461388c565b600a556139b485614815565b613a61565b6139c5600a548261388c565b600a556001600160601b038316606087018190526001600160a01b038616600081815260096020526040908190208054600160381b600160981b031916600160381b9094029390931766ffffffffff00001916620100004264ffffffffff16021790925590517f21b12aed5d425f5675450ffeeae01039085e5323974c3099e1828155d9b51e7790613a58908690615e01565b60405180910390a25b505050505b5050565b613a668282614b57565b613a7d81614b62565b50565b613a668282614c0b565b613a92614f66565b506001600160a01b0381166000908152600960209081526040808320815160e081018352815460ff80821615158084526101008304821615159684019690965264ffffffffff62010000830416948301949094526001600160601b03600160381b820481166060840152600160981b8204166080830152600160f81b900490921660a08301526001015460c08201529190613b3f5760405162461bcd60e51b81526004016105e990615a13565b5060c08101516020820151613bd3576001600160a01b0383166000908152600b602052604081205460c08401819052613b8690613b7c908461388c565b8460c00151613dc9565b90506000613baa600a6004670de0b6b3a76400005b0481613ba357fe5b0483613660565b9050613bc26004670de0b6b3a76400005b0482613d9d565b6001600160601b0316606085015250505b915091565b600080613be58787613dc9565b90506000613bf38686613dc9565b90506000613c018383613dc9565b90506000613c23670de0b6b3a7640000613724670de0b6b3a76400008961388c565b9050613c2f8282613660565b9a9950505050505050505050565b60035460026000196101006001841615020190911604158015613c605750815115155b8015613c6c5750805115155b613c885760405162461bcd60e51b81526004016105e99061595c565b8151613c9b906003906020850190614fa2565b508051613caf906004906020840190614fa2565b505050565b6001600160a01b038316600090815260208190526040902054811115613cec5760405162461bcd60e51b81526004016105e990615886565b6001600160a01b038316600090815260208190526040902054613d0f908261388c565b6001600160a01b038085166000908152602081905260408082209390935590841681522054613d3e9082613d9d565b6001600160a01b0380841660008181526020819052604090819020939093559151908516907fddf252ad1be2c89b69c2b068fc378daa952ba7f163c4a11628f55a4df523b3ef90613d90908590615ddc565b60405180910390a3505050565b600082820183811015613dc25760405162461bcd60e51b81526004016105e990615c73565b9392505050565b600081613de85760405162461bcd60e51b81526004016105e990615bca565b670de0b6b3a76400008302831580613e105750670de0b6b3a7640000848281613e0d57fe5b04145b613e2c5760405162461bcd60e51b81526004016105e9906158dd565b60028304810181811015613e525760405162461bcd60e51b81526004016105e9906158dd565b60008482816136ce57fe5b600080613e6a8786613dc9565b90506000613e85856127c4670de0b6b3a7640000600061388c565b90506000613e93888361388c565b90506000613ea1828a613dc9565b90506000613ec082613ebb670de0b6b3a764000088613dc9565b61473d565b90506000613ece828e613660565b90506000613edc8e8361388c565b90506000613efb613ef5670de0b6b3a76400008a61388c565b8b613660565b9050613f13826127c4670de0b6b3a76400008461388c565b9f9e505050505050505050505050505050565b81602001516140a5578160c00151811061404e576001600160a01b0383166000818152600b6020908152604080832083905560098252808320805461ff001916610100179055600191860191909152517ff7bb8e57ffdfd9a31e7580ee84f68757f44fb4a8a913f44520d22f2da1c955e59190a26000613faa828460c0015161388c565b90506000613fbc828560c00151613dc9565b9050613fd46703782dace9d90000610fec8184613660565b6001600160601b03908116606086018181526001600160a01b03881660009081526009602052604090208054600160381b600160981b031916600160381b9093029290921766ffffffffff00001916620100004264ffffffffff160217909155600a5490516140439216613d9d565b600a55506140a09050565b6000614061613b7c8460c001518461388c565b9050600061407a600a6004670de0b6b3a7640000613b9b565b905061408f6004670de0b6b3a7640000613bbb565b6001600160601b0316606085015250505b6140af565b6140af8284614c16565b6001600160a01b0390921660009081526009602052604090206001019190915550565b60006060846001600160a01b03166323b872dd60e01b8530866040516024016137c693929190615587565b613a7d81614d99565b6001600160a01b0382166000908152600960205260409020805460ff1661413f5760405162461bcd60e51b81526004016105e990615a13565b6703782dace9d900006001600160601b03831610158061416657506001600160601b038216155b6141825760405162461bcd60e51b81526004016105e990615adf565b6802b5e3af16b18800006001600160601b03831611156141b45760405162461bcd60e51b81526004016105e9906157e0565b80546bffffffffffffffffffffffff60981b1916600160981b6001600160601b038416021781556040516001600160a01b038416907fc7ea88f3376e27ce6ebc2025310023327f743a8377d438258c36b166dd8b298390614216908590615e01565b60405180910390a2505050565b6000806142308786613dc9565b9050600061424f614249670de0b6b3a76400008461388c565b85613660565b90506000614269866127c4670de0b6b3a76400008561388c565b905060006142778b83613d9d565b90506000614285828d613dc9565b90506000614293828761473d565b905060006142a1828d613660565b90506142ad818d61388c565b9e9d5050505050505050505050505050565b6000806142cc8786613dc9565b905060006142da8786613d9d565b905060006142e88289613dc9565b905060006142fe670de0b6b3a764000085613dc9565b9050600061430c838361473d565b9050600061431a828e613660565b90506000614328828f61388c565b90506000614341613ef5670de0b6b3a76400008a61388c565b9050613f1382613724670de0b6b3a76400008461388c565b6000806143668588613dc9565b90506000614374878661388c565b905060006143828883613dc9565b90506000614390828561473d565b90506143a481670de0b6b3a764000061388c565b90506143b8670de0b6b3a76400008761388c565b94506143cd6143c78c83613660565b86613dc9565b9b9a5050505050505050505050565b6000806143e98786613dc9565b905060006143ff670de0b6b3a76400008561388c565b905061440b8582613660565b9050600061441d8a6137248c85613d9d565b9050600061442b828561473d565b90506000614441670de0b6b3a76400008361388c565b905061444d8a82613660565b9c9b505050505050505050505050565b6001600160a01b03831660009081526009602052604090205460ff16156144965760405162461bcd60e51b81526004016105e9906156ef565b6703782dace9d900006001600160601b03821610156144c75760405162461bcd60e51b81526004016105e990615adf565b6802b5e3af16b18800006001600160601b03821611156144f95760405162461bcd60e51b81526004016105e9906157e0565b620f424082101561451c5760405162461bcd60e51b81526004016105e99061585d565b6040518060e00160405280600115158152602001600015158152602001600064ffffffffff16815260200160006001600160601b03168152602001826001600160601b0316815260200160088054905060ff168152602001600081525060096000856001600160a01b03166001600160a01b0316815260200190815260200160002060008201518160000160006101000a81548160ff02191690831515021790555060208201518160000160016101000a81548160ff02191690831515021790555060408201518160000160026101000a81548164ffffffffff021916908364ffffffffff16021790555060608201518160000160076101000a8154816001600160601b0302191690836001600160601b0316021790555060808201518160000160136101000a8154816001600160601b0302191690836001600160601b0316021790555060a082015181600001601f6101000a81548160ff021916908360ff16021790555060c082015181600101559050506008839080600181540180825580915050600190039060005260206000200160009091909190916101000a8154816001600160a01b0302191690836001600160a01b0316021790555081600b6000856001600160a01b03166001600160a01b0316815260200190815260200160002081905550826001600160a01b03167fb2daf560899f6307b318aecfb57eb2812c488da4a4c1cad2019b482fa63294ed8284604051614216929190615e15565b600060018310156147605760405162461bcd60e51b81526004016105e990615bf0565b671bc16d674ec7ffff8311156147885760405162461bcd60e51b81526004016105e990615d1c565b600061479383614e08565b905060006147a1848361388c565b905060006147b7866147b285614e23565b614e31565b9050816147c85792506109ee915050565b60006147d987846305f5e100614e88565b90506147e58282613660565b979650505050505050565b600080828410614806575050808203600061480e565b505081810360015b9250929050565b61481d614f66565b506001600160a01b038116600090815260096020908152604091829020825160e081018452815460ff808216151583526101008204811615159483019490945264ffffffffff62010000820416948201949094526001600160601b03600160381b850481166060830152600160981b8504166080820152600160f81b90930490911660a0830181905260019091015460c083018190526008549091906000190180821461497b57600881815481106148d157fe5b600091825260209091200154600880546001600160a01b0390921691849081106148f757fe5b9060005260206000200160006101000a8154816001600160a01b0302191690836001600160a01b0316021790555081600960006008858154811061493757fe5b60009182526020808320909101546001600160a01b031683528201929092526040019020805460ff92909216600160f81b026001600160f81b039092169190911790555b600880548061498657fe5b60008281526020808220600019908401810180546001600160a01b03191690559092019092556040805160e081018252838152808301848152818301858152606083018681526080840187815260a0850188815260c086018981526001600160a01b038f81168b52600990995296909820945185549451935192519151985160ff199095169015151761ff001916610100931515939093029290921766ffffffffff000019166201000064ffffffffff9092169190910217600160381b600160981b031916600160381b6001600160601b0392831602176bffffffffffffffffffffffff60981b1916600160981b9190961602949094176001600160f81b0316600160f81b60ff909516949094029390931783555160019290920191909155600654614ab5918791168561379d565b6006546040516360b8257960e11b81526001600160a01b039091169063c1704af290614ae790889087906004016155ab565b600060405180830381600087803b158015614b0157600080fd5b505af1158015614b15573d6000803e3d6000fd5b505050507f12a8262eb28ee8a8c11e6cf411b3af6ce5bea42abb36e051bf0a65ae602d52ec85604051614b489190615573565b60405180910390a15050505050565b613a66823083613cb4565b30600090815260208190526040902054811115614b915760405162461bcd60e51b81526004016105e990615886565b30600090815260208190526040902054614bab908261388c565b30600090815260208190526040902055600254614bc8908261388c565b60025560405160009030907fddf252ad1be2c89b69c2b068fc378daa952ba7f163c4a11628f55a4df523b3ef90614c00908590615ddc565b60405180910390a350565b613a66308383613cb4565b81608001516001600160601b031682606001516001600160601b0316101580614c4157508160200151155b80614c5a5750610e10826040015164ffffffffff164203105b15614c6457613a66565b606082015160808301516000614c8d6001600160601b0384166064670de0b6b3a76400006117c6565b90506000614cad836001600160601b0316856001600160601b031661388c565b905081811115614cd057614cca846001600160601b031683613d9d565b92508190505b614cdc600a5482613d9d565b600a819055680168d28e3f002800001015614d095760405162461bcd60e51b81526004016105e990615808565b6001600160601b038316606087018190526001600160a01b038616600081815260096020526040908190208054600160381b600160981b031916600160381b9094029390931766ffffffffff00001916620100004264ffffffffff16021790925590517f21b12aed5d425f5675450ffeeae01039085e5323974c3099e1828155d9b51e7790613a58908690615e01565b30600090815260208190526040902054614db39082613d9d565b30600090815260208190526040902055600254614dd09082613d9d565b60025560405130906000907fddf252ad1be2c89b69c2b068fc378daa952ba7f163c4a11628f55a4df523b3ef90614c00908590615ddc565b6000670de0b6b3a7640000614e1c83614e23565b0292915050565b670de0b6b3a7640000900490565b60008060028306614e4a57670de0b6b3a7640000614e4c565b835b90506002830492505b8215613dc257614e658485613660565b93506002830615614e7d57614e7a8185613660565b90505b600283049250614e55565b6000828180614e9f87670de0b6b3a76400006147f0565b9092509050670de0b6b3a764000080600060015b888410614f57576000670de0b6b3a764000082029050600080614ee78a614ee285670de0b6b3a764000061388c565b6147f0565b91509150614ef9876127c4848c613660565b9650614f058784613dc9565b965086614f1457505050614f57565b8715614f1e579315935b8015614f28579315935b8415614f3f57614f38868861388c565b9550614f4c565b614f498688613d9d565b95505b505050600101614eb3565b50909998505050505050505050565b6040805160e081018252600080825260208201819052918101829052606081018290526080810182905260a0810182905260c081019190915290565b828054600181600116156101000203166002900490600052602060002090601f016020900481019282601f10614fe357805160ff1916838001178555615010565b82800160010185558215615010579182015b82811115615010578251825591602001919060010190614ff5565b5061501c929150615020565b5090565b5b8082111561501c5760008155600101615021565b60008083601f840112615046578182fd5b50813567ffffffffffffffff81111561505d578182fd5b602083019150836020808302850101111561480e57600080fd5b60008083601f840112615088578182fd5b50813567ffffffffffffffff81111561509f578182fd5b60208301915083602082850101111561480e57600080fd5b6000602082840312156150c8578081fd5b8135613dc281615e5e565b600080604083850312156150e5578081fd5b82356150f081615e5e565b9150602083013561510081615e5e565b809150509250929050565b60008060006060848603121561511f578081fd5b833561512a81615e5e565b9250602084013561513a81615e5e565b929592945050506040919091013590565b600080600080600060608688031215615162578081fd5b853561516d81615e5e565b9450602086013567ffffffffffffffff80821115615189578283fd5b61519589838a01615077565b909650945060408801359150808211156151ad578283fd5b506151ba88828901615077565b969995985093965092949392505050565b600080604083850312156151dd578182fd5b82356151e881615e5e565b946020939093013593505050565b600080600080600060a0868803121561520d578081fd5b853561521881615e5e565b945060208601359350604086013561522f81615e5e565b94979396509394606081013594506080013592915050565b60008060006060848603121561525b578283fd5b833561526681615e5e565b95602085013595506040909401359392505050565b60008060008060008060008060a0898b031215615296578283fd5b883567ffffffffffffffff808211156152ad578485fd5b6152b98c838d01615035565b909a50985060208b01359150808211156152d1578485fd5b6152dd8c838d01615035565b909850965060408b01359150808211156152f5578485fd5b506153028b828c01615035565b909550935050606089013561531681615e5e565b9150608089013561532681615e5e565b809150509295985092959890939650565b6000806000806040858703121561534c578384fd5b843567ffffffffffffffff80821115615363578586fd5b61536f88838901615035565b90965094506020870135915080821115615387578384fd5b5061539487828801615035565b95989497509550505050565b600080600080600080606087890312156153b8578384fd5b863567ffffffffffffffff808211156153cf578586fd5b6153db8a838b01615035565b909850965060208901359150808211156153f3578586fd5b6153ff8a838b01615035565b90965094506040890135915080821115615417578384fd5b5061542489828a01615035565b979a9699509497509295939492505050565b600060208284031215615447578081fd5b81518015158114613dc2578182fd5b60008060008060006080868803121561546d578283fd5b853561547881615e5e565b9450602086013561548881615e5e565b935060408601359250606086013567ffffffffffffffff8111156154aa578182fd5b6151ba88828901615077565b6000602082840312156154c7578081fd5b5035919050565b6000602082840312156154df578081fd5b5051919050565b6000806000604084860312156154fa578081fd5b83359250602084013567ffffffffffffffff811115615517578182fd5b61552386828701615035565b9497909650939450505050565b600060208284031215615541578081fd5b81356001600160601b0381168114613dc2578182fd5b60008251615569818460208701615e2e565b9190910192915050565b6001600160a01b0391909116815260200190565b6001600160a01b039384168152919092166020820152604081019190915260600190565b6001600160a01b03929092168252602082015260400190565b600060018060a01b038716825285602083015284604083015260806060830152826080830152828460a084013781830160a090810191909152601f909201601f19160101949350505050565b6020808252825182820181905260009190848201906040850190845b818110156156515783516001600160a01b03168352928401929184019160010161562c565b50909695505050505050565b901515815260200190565b6000602082528251806020840152615687816040850160208701615e2e565b601f01601f19169190910160400192915050565b60208082526012908201527122a9292fa727aa2fa1a7a72a2927a62622a960711b604082015260600190565b6020808252600e908201526d4552525f4e4f4e455f524541445960901b604082015260600190565b6020808252600c908201526b11549497d254d7d093d5539160a21b604082015260600190565b6020808252600e908201526d4552525f4d41585f544f4b454e5360901b604082015260600190565b60208082526010908201526f4552525f4d41585f494e5f524154494f60801b604082015260600190565b60208082526011908201527022a9292fa6a0aa242fa0a8282927ac2f9960791b604082015260600190565b6020808252600f908201526e08aa4a4be9a82a890be82a0a0a49eb608b1b604082015260600190565b6020808252600b908201526a4552525f4d494e5f46454560a81b604082015260600190565b6020808252600e908201526d11549497d3505617d5d15251d21560921b604082015260600190565b60208082526014908201527311549497d3505617d513d5105317d5d15251d21560621b604082015260600190565b6020808252600d908201526c11549497d31253525517d3d555609a1b604082015260600190565b6020808252600f908201526e4552525f4d494e5f42414c414e434560881b604082015260600190565b60208082526014908201527311549497d25394d551919250d251539517d0905360621b604082015260600190565b6020808252600f908201526e11549497d253925512505312569151608a1b604082015260600190565b60208082526010908201526f11549497d1125597d25395115493905360821b604082015260600190565b60208082526015908201527422a9292fa12a27a5a2a72fa120a22fa1a0a62622a960591b604082015260600190565b6020808252600c908201526b22a9292fa624a6a4aa2fa4a760a11b604082015260600190565b60208082526016908201527511549497d09513d2d15397d25392551250531256915160521b604082015260600190565b6020808252600b908201526a4552525f5245454e54525960a81b604082015260600190565b60208082526018908201527f4552525f494e53554646494349454e545f5041594d454e540000000000000000604082015260600190565b6020808252601190820152704552525f4d41585f4f55545f524154494f60781b604082015260600190565b6020808252600d908201526c11549497d393d517d093d55391609a1b604082015260600190565b6020808252600b908201526a4552525f4d41585f46454560a81b604082015260600190565b6020808252601190820152704552525f4f55545f4e4f545f524541445960781b604082015260600190565b6020808252600e908201526d4552525f4e4f545f5055424c494360901b604082015260600190565b6020808252601390820152724552525f4241445f4c494d49545f505249434560681b604082015260600190565b6020808252600e908201526d11549497d3525397d5d15251d21560921b604082015260600190565b60208082526010908201526f4552525f4d554c5f4f564552464c4f5760801b604082015260600190565b6020808252600b908201526a22a9292fa0a9292fa622a760a91b604082015260600190565b6020808252600990820152684552525f524541445960b81b604082015260600190565b6020808252600f908201526e4552525f4c494d49545f505249434560881b604082015260600190565b6020808252600e908201526d11549497d0d3d3919251d554915160921b604082015260600190565b6020808252600c908201526b4552525f4449565f5a45524f60a01b604082015260600190565b6020808252601590820152744552525f42504f575f424153455f544f4f5f4c4f5760581b604082015260600190565b6020808252600f908201526e4552525f45524332305f46414c534560881b604082015260600190565b6020808252601190820152704552525f5355425f554e444552464c4f5760781b604082015260600190565b60208082526010908201526f4552525f4144445f4f564552464c4f5760801b604082015260600190565b60208082526010908201526f4552525f4e554c4c5f4144445245535360801b604082015260600190565b6020808252601390820152724552525f4d41585f504f4f4c5f544f4b454e5360681b604082015260600190565b6020808252600e908201526d4552525f4d494e5f544f4b454e5360901b604082015260600190565b60208082526016908201527508aa4a4be84a09eaebe8482a68abea89e9ebe90928e960531b604082015260600190565b6020808252600b908201526a22a9292fad22a927afa4a760a91b604082015260600190565b600060e08201905082511515825260208301511515602083015264ffffffffff604084015116604083015260608301516001600160601b038082166060850152806080860151166080850152505060ff60a08401511660a083015260c083015160c083015292915050565b90815260200190565b918252602082015260400190565b60ff91909116815260200190565b6001600160601b0391909116815260200190565b6001600160601b03929092168252602082015260400190565b60005b83811015615e49578181015183820152602001615e31565b83811115615e58576000848401525b50505050565b6001600160a01b0381168114613a7d57600080fdfe8c5be1e5ebec7d5bd14f71427d1e84f3dd0314c0f7b2291e5b200ac8c7c3b925a26469706673582212200d347201e2888d8b9351c9fc140b880d281c71d37a1131351080414803952a2964736f6c634300060c0033",
  "devdoc": {
    "events": {
      "LOG_DENORM_UPDATED(address,uint256)": {
        "details": "Emitted when a token's weight updates. "
      },
      "LOG_DESIRED_DENORM_SET(address,uint256)": {
        "details": "Emitted when a token's desired weight is set. "
      },
      "LOG_EXIT(address,address,uint256)": {
        "details": "Emitted when pool tokens are burned for underlying. "
      },
      "LOG_JOIN(address,address,uint256)": {
        "details": "Emitted when underlying tokens are deposited for pool tokens. "
      },
      "LOG_MAX_TOKENS_UPDATED(uint256)": {
        "details": "Emitted when the maximum tokens value is updated. "
      },
      "LOG_MINIMUM_BALANCE_UPDATED(address,uint256)": {
        "details": "Emitted when a token's minimum balance is updated. "
      },
      "LOG_PUBLIC_SWAP_ENABLED()": {
        "details": "Emitted when public trades are enabled. "
      },
      "LOG_SWAP(address,address,address,uint256,uint256)": {
        "details": "Emitted when tokens are swapped. "
      },
      "LOG_SWAP_FEE_UPDATED(uint256)": {
        "details": "Emitted when the swap fee is updated. "
      },
      "LOG_TOKEN_ADDED(address,uint256,uint256)": {
        "details": "Emitted when a token is unbound from the pool. "
      },
      "LOG_TOKEN_READY(address)": {
        "details": "Emitted when a token reaches its minimum balance. "
      },
      "LOG_TOKEN_REMOVED(address)": {
        "details": "Emitted when a token is unbound from the pool. "
      }
    },
    "kind": "dev",
    "methods": {
      "configure(address,string,string)": {
        "details": "Sets the controller address and the token name & symbol. Note: This saves on storage costs for multi-step pool deployment.",
        "params": {
          "controller": "Controller of the pool",
          "name": "Name of the pool token",
          "symbol": "Symbol of the pool token"
        }
      },
      "exitPool(uint256,uint256[])": {
        "details": "Burns `poolAmountIn` pool tokens in exchange for the amounts of each underlying token's balance proportional to the ratio of tokens burned to total pool supply. The amount of each token transferred to the caller must be greater than or equal to the associated minimum output amount from the `minAmountsOut` array.",
        "params": {
          "minAmountsOut": "Minimum amount of each token to receive, in the same order as the pool's _tokens list.",
          "poolAmountIn": "Exact amount of pool tokens to burn"
        }
      },
      "exitswapExternAmountOut(address,uint256,uint256)": {
        "details": "Burn up to `maxPoolAmountIn` for exactly `tokenAmountOut` of `tokenOut`. Returns the number of pool tokens burned. The pool implicitly burns the tokens for all underlying tokens and swaps them to the desired output token. A swap fee is charged against the output tokens.",
        "params": {
          "maxPoolAmountIn": "Maximum amount of pool tokens to burn",
          "tokenAmountOut": "Exact amount of `tokenOut` to receive",
          "tokenOut": "Token to receive"
        },
        "returns": {
          "_0": "poolAmountIn - Amount of pool tokens burned"
        }
      },
      "exitswapPoolAmountIn(address,uint256,uint256)": {
        "details": "Burns `poolAmountIn` pool tokens in exchange for at least `minAmountOut` of `tokenOut`. Returns the number of tokens sent to the caller. The pool implicitly burns the tokens for all underlying tokens and swaps them to the desired output token. A swap fee is charged against the output tokens.",
        "params": {
          "minAmountOut": "Minimum amount of `tokenOut` to receive",
          "poolAmountIn": "Exact amount of pool tokens to burn",
          "tokenOut": "Token to receive"
        },
        "returns": {
          "_0": "tokenAmountOut - Amount of `tokenOut` received"
        }
      },
      "extrapolatePoolValueFromToken()": {
        "details": "Finds the first token which is both initialized and has a desired weight above 0, then returns the address of that token and the extrapolated value of the pool in terms of that token. The value is extrapolated by multiplying the token's balance by the reciprocal of its normalized weight.",
        "returns": {
          "_0": "(token, extrapolatedValue)"
        }
      },
      "flashBorrow(address,address,uint256,bytes)": {
        "details": "Execute a flash loan, transferring `amount` of `token` to `recipient`. `amount` must be repaid with `swapFee` interest by the end of the transaction.",
        "params": {
          "amount": "Amount to borrow",
          "data": "Data to send to the recipient in `receiveFlashLoan` call",
          "recipient": "Must implement the IFlashLoanRecipient interface",
          "token": "Token to borrow"
        }
      },
      "getBalance(address)": {
        "details": "Returns the stored balance of a bound token."
      },
      "getController()": {
        "details": "Returns the controller address."
      },
      "getCurrentDesiredTokens()": {
        "details": "Returns the list of tokens which have a desired weight above 0. Tokens with a desired weight of 0 are set to be phased out of the pool."
      },
      "getCurrentTokens()": {
        "details": "Get all bound tokens."
      },
      "getDenormalizedWeight(address)": {
        "details": "Returns the denormalized weight of a bound token."
      },
      "getMinimumBalance(address)": {
        "details": "Get the minimum balance of an uninitialized token. Note: Throws if the token is initialized."
      },
      "getNumTokens()": {
        "details": "Get the number of tokens bound to the pool."
      },
      "getSpotPrice(address,address)": {
        "details": "Returns the spot price for `tokenOut` in terms of `tokenIn`."
      },
      "getTokenRecord(address)": {
        "details": "Returns the record for a token bound to the pool."
      },
      "getTotalDenormalizedWeight()": {
        "details": "Get the total denormalized weight of the pool."
      },
      "getUsedBalance(address)": {
        "details": "Returns the balance of a token which is used in price calculations. If the token is initialized, this is the stored balance; if not, this is the minimum balance."
      },
      "gulp(address)": {
        "details": "Absorb any tokens that have been sent to the pool. If the token is not bound, it will be sent to the unbound token handler."
      },
      "initialize(address[],uint256[],uint96[],address,address)": {
        "details": "Sets up the initial assets for the pool. Note: `tokenProvider` must have approved the pool to transfer the corresponding `balances` of `tokens`.",
        "params": {
          "balances": "Initial balances to transfer",
          "denorms": "Initial denormalized weights for the tokens",
          "tokenProvider": "Address to transfer the balances from",
          "tokens": "Underlying tokens to initialize the pool with"
        }
      },
      "isBound(address)": {
        "details": "Check if a token is bound to the pool."
      },
      "isPublicSwap()": {
        "details": "Check if swapping tokens and joining the pool is allowed."
      },
      "joinPool(uint256,uint256[])": {
        "details": "Mint new pool tokens by providing the proportional amount of each underlying token's balance relative to the proportion of pool tokens minted. For any underlying tokens which are not initialized, the caller must provide the proportional share of the minimum balance for the token rather than the actual balance.",
        "params": {
          "maxAmountsIn": "Maximum amount of each token to pay in the same order as the pool's _tokens list.",
          "poolAmountOut": "Amount of pool tokens to mint"
        }
      },
      "joinswapExternAmountIn(address,uint256,uint256)": {
        "details": "Pay `tokenAmountIn` of `tokenIn` to mint at least `minPoolAmountOut` pool tokens. The pool implicitly swaps `(1- weightTokenIn) * tokenAmountIn` to the other underlying tokens. Thus a swap fee is charged against the input tokens.",
        "params": {
          "minPoolAmountOut": "Minimum amount of pool tokens to mint",
          "tokenAmountIn": "Exact amount of `tokenIn` to pay",
          "tokenIn": "Token to send the pool"
        },
        "returns": {
          "_0": "poolAmountOut - Amount of pool tokens minted"
        }
      },
      "joinswapPoolAmountOut(address,uint256,uint256)": {
        "details": "Pay up to `maxAmountIn` of `tokenIn` to mint exactly `poolAmountOut`. The pool implicitly swaps `(1- weightTokenIn) * tokenAmountIn` to the other underlying tokens. Thus a swap fee is charged against the input tokens.",
        "params": {
          "maxAmountIn": "Maximum amount of `tokenIn` to pay",
          "poolAmountOut": "Exact amount of pool tokens to mint",
          "tokenIn": "Token to send the pool"
        },
        "returns": {
          "_0": "tokenAmountIn - Amount of `tokenIn` paid"
        }
      },
      "reindexTokens(address[],uint96[],uint256[])": {
        "details": "Update the underlying assets held by the pool and their associated weights. Tokens which are not currently bound will be gradually added as they are swapped in to reach the provided minimum balances, which must be an amount of tokens worth the minimum weight of the total pool value. If a currently bound token is not received in this call, the token's desired weight will be set to 0."
      },
      "reweighTokens(address[],uint96[])": {
        "details": "Sets the desired weights for the pool tokens, which will be adjusted over time as they are swapped. Note: This does not check for duplicate tokens or that the total of the desired weights is equal to the target total weight (25). Those assumptions should be met in the controller. Further, the provided tokens should only include the tokens which are not set for removal."
      },
      "setMaxPoolTokens(uint256)": {
        "details": "Sets the maximum number of pool tokens that can be minted. This value will be used in the alpha to limit the maximum damage that can be caused by a catastrophic error. It can be gradually increased as the pool continues to not be exploited. If it is set to 0, the limit will be removed."
      },
      "setMinimumBalance(address,uint256)": {
        "details": "Updates the minimum balance for an uninitialized token. This becomes useful if a token's external price significantly rises after being bound, since the pool can not send a token out until it reaches the minimum balance."
      },
      "setSwapFee(uint256)": {
        "details": "Set the swap fee. Note: Swap fee must be between 0.0001% and 10%"
      },
      "swapExactAmountIn(address,uint256,address,uint256,uint256)": {
        "details": "Execute a token swap with a specified amount of input tokens and a minimum amount of output tokens. Note: Will revert if `tokenOut` is uninitialized.",
        "params": {
          "maxPrice": "Maximum ratio of input to output tokens",
          "minAmountOut": "Minimum amount of `tokenOut` to receive",
          "tokenAmountIn": "Exact amount of `tokenIn` to swap in",
          "tokenIn": "Token to swap in",
          "tokenOut": "Token to swap out"
        },
        "returns": {
          "_0": "(tokenAmountOut, spotPriceAfter)"
        }
      },
      "swapExactAmountOut(address,uint256,address,uint256,uint256)": {
        "details": "Trades at most `maxAmountIn` of `tokenIn` for exactly `tokenAmountOut` of `tokenOut`. Returns the actual input amount and the new spot price after the swap, which can not exceed `maxPrice`.",
        "params": {
          "maxAmountIn": "Maximum amount of `tokenIn` to pay",
          "maxPrice": "Maximum ratio of input to output tokens",
          "tokenAmountOut": "Exact amount of `tokenOut` to receive",
          "tokenIn": "Token to swap in",
          "tokenOut": "Token to swap out"
        },
        "returns": {
          "_0": "(tokenAmountIn, spotPriceAfter)"
        }
      }
    },
    "version": 1
  },
  "userdoc": {
    "kind": "user",
    "methods": {},
    "version": 1
  },
  "storageLayout": {
    "storage": [
      {
        "astId": 8651,
        "contract": "contracts/balancer/IPool.sol:IPool",
        "label": "_balance",
        "offset": 0,
        "slot": "0",
        "type": "t_mapping(t_address,t_uint256)"
      },
      {
        "astId": 8657,
        "contract": "contracts/balancer/IPool.sol:IPool",
        "label": "_allowance",
        "offset": 0,
        "slot": "1",
        "type": "t_mapping(t_address,t_mapping(t_address,t_uint256))"
      },
      {
        "astId": 8659,
        "contract": "contracts/balancer/IPool.sol:IPool",
        "label": "_totalSupply",
        "offset": 0,
        "slot": "2",
        "type": "t_uint256"
      },
      {
        "astId": 8862,
        "contract": "contracts/balancer/IPool.sol:IPool",
        "label": "_name",
        "offset": 0,
        "slot": "3",
        "type": "t_string_storage"
      },
      {
        "astId": 8864,
        "contract": "contracts/balancer/IPool.sol:IPool",
        "label": "_symbol",
        "offset": 0,
        "slot": "4",
        "type": "t_string_storage"
      },
      {
        "astId": 9370,
        "contract": "contracts/balancer/IPool.sol:IPool",
        "label": "_mutex",
        "offset": 0,
        "slot": "5",
        "type": "t_bool"
      },
      {
        "astId": 9372,
        "contract": "contracts/balancer/IPool.sol:IPool",
        "label": "_controller",
        "offset": 1,
        "slot": "5",
        "type": "t_address"
      },
      {
        "astId": 9374,
        "contract": "contracts/balancer/IPool.sol:IPool",
        "label": "_unbindHandler",
        "offset": 0,
        "slot": "6",
        "type": "t_contract(TokenUnbindHandler)12694"
      },
      {
        "astId": 9376,
        "contract": "contracts/balancer/IPool.sol:IPool",
        "label": "_publicSwap",
        "offset": 20,
        "slot": "6",
        "type": "t_bool"
      },
      {
        "astId": 9378,
        "contract": "contracts/balancer/IPool.sol:IPool",
        "label": "_swapFee",
        "offset": 0,
        "slot": "7",
        "type": "t_uint256"
      },
      {
        "astId": 9381,
        "contract": "contracts/balancer/IPool.sol:IPool",
        "label": "_tokens",
        "offset": 0,
        "slot": "8",
        "type": "t_array(t_address)dyn_storage"
      },
      {
        "astId": 9385,
        "contract": "contracts/balancer/IPool.sol:IPool",
        "label": "_records",
        "offset": 0,
        "slot": "9",
        "type": "t_mapping(t_address,t_struct(Record)9235_storage)"
      },
      {
        "astId": 9387,
        "contract": "contracts/balancer/IPool.sol:IPool",
        "label": "_totalWeight",
        "offset": 0,
        "slot": "10",
        "type": "t_uint256"
      },
      {
        "astId": 9391,
        "contract": "contracts/balancer/IPool.sol:IPool",
        "label": "_minimumBalances",
        "offset": 0,
        "slot": "11",
        "type": "t_mapping(t_address,t_uint256)"
      },
      {
        "astId": 9393,
        "contract": "contracts/balancer/IPool.sol:IPool",
        "label": "_maxPoolTokens",
        "offset": 0,
        "slot": "12",
        "type": "t_uint256"
      }
    ],
    "types": {
      "t_address": {
        "encoding": "inplace",
        "label": "address",
        "numberOfBytes": "20"
      },
      "t_array(t_address)dyn_storage": {
        "base": "t_address",
        "encoding": "dynamic_array",
        "label": "address[]",
        "numberOfBytes": "32"
      },
      "t_bool": {
        "encoding": "inplace",
        "label": "bool",
        "numberOfBytes": "1"
      },
      "t_contract(TokenUnbindHandler)12694": {
        "encoding": "inplace",
        "label": "contract TokenUnbindHandler",
        "numberOfBytes": "20"
      },
      "t_mapping(t_address,t_mapping(t_address,t_uint256))": {
        "encoding": "mapping",
        "key": "t_address",
        "label": "mapping(address => mapping(address => uint256))",
        "numberOfBytes": "32",
        "value": "t_mapping(t_address,t_uint256)"
      },
      "t_mapping(t_address,t_struct(Record)9235_storage)": {
        "encoding": "mapping",
        "key": "t_address",
        "label": "mapping(address => struct IPool.Record)",
        "numberOfBytes": "32",
        "value": "t_struct(Record)9235_storage"
      },
      "t_mapping(t_address,t_uint256)": {
        "encoding": "mapping",
        "key": "t_address",
        "label": "mapping(address => uint256)",
        "numberOfBytes": "32",
        "value": "t_uint256"
      },
      "t_string_storage": {
        "encoding": "bytes",
        "label": "string",
        "numberOfBytes": "32"
      },
      "t_struct(Record)9235_storage": {
        "encoding": "inplace",
        "label": "struct IPool.Record",
        "members": [
          {
            "astId": 9222,
            "contract": "contracts/balancer/IPool.sol:IPool",
            "label": "bound",
            "offset": 0,
            "slot": "0",
            "type": "t_bool"
          },
          {
            "astId": 9224,
            "contract": "contracts/balancer/IPool.sol:IPool",
            "label": "ready",
            "offset": 1,
            "slot": "0",
            "type": "t_bool"
          },
          {
            "astId": 9226,
            "contract": "contracts/balancer/IPool.sol:IPool",
            "label": "lastDenormUpdate",
            "offset": 2,
            "slot": "0",
            "type": "t_uint40"
          },
          {
            "astId": 9228,
            "contract": "contracts/balancer/IPool.sol:IPool",
            "label": "denorm",
            "offset": 7,
            "slot": "0",
            "type": "t_uint96"
          },
          {
            "astId": 9230,
            "contract": "contracts/balancer/IPool.sol:IPool",
            "label": "desiredDenorm",
            "offset": 19,
            "slot": "0",
            "type": "t_uint96"
          },
          {
            "astId": 9232,
            "contract": "contracts/balancer/IPool.sol:IPool",
            "label": "index",
            "offset": 31,
            "slot": "0",
            "type": "t_uint8"
          },
          {
            "astId": 9234,
            "contract": "contracts/balancer/IPool.sol:IPool",
            "label": "balance",
            "offset": 0,
            "slot": "1",
            "type": "t_uint256"
          }
        ],
        "numberOfBytes": "64"
      },
      "t_uint256": {
        "encoding": "inplace",
        "label": "uint256",
        "numberOfBytes": "32"
      },
      "t_uint40": {
        "encoding": "inplace",
        "label": "uint40",
        "numberOfBytes": "5"
      },
      "t_uint8": {
        "encoding": "inplace",
        "label": "uint8",
        "numberOfBytes": "1"
      },
      "t_uint96": {
        "encoding": "inplace",
        "label": "uint96",
        "numberOfBytes": "12"
      }
    }
  },
  "gasEstimates": {
    "creation": {
      "codeDepositCost": "4853000",
      "executionCost": "5730",
      "totalCost": "4858730"
    },
    "external": {
      "VERSION_NUMBER()": "340",
      "allowance(address,address)": "infinite",
      "approve(address,uint256)": "infinite",
      "balanceOf(address)": "1335",
      "configure(address,string,string)": "infinite",
      "decimals()": "286",
      "decreaseApproval(address,uint256)": "infinite",
      "exitPool(uint256,uint256[])": "infinite",
      "exitswapExternAmountOut(address,uint256,uint256)": "infinite",
      "exitswapPoolAmountIn(address,uint256,uint256)": "infinite",
      "extrapolatePoolValueFromToken()": "infinite",
      "flashBorrow(address,address,uint256,bytes)": "infinite",
      "getBalance(address)": "3067",
      "getController()": "1215",
      "getCurrentDesiredTokens()": "infinite",
      "getCurrentTokens()": "infinite",
      "getDenormalizedWeight(address)": "3154",
      "getMaxPoolTokens()": "1140",
      "getMinimumBalance(address)": "4401",
      "getNumTokens()": "1072",
      "getSpotPrice(address,address)": "infinite",
      "getSwapFee()": "1928",
      "getTokenRecord(address)": "3788",
      "getTotalDenormalizedWeight()": "1951",
      "getUsedBalance(address)": "4484",
      "gulp(address)": "infinite",
      "increaseApproval(address,uint256)": "infinite",
      "initialize(address[],uint256[],uint96[],address,address)": "infinite",
      "isBound(address)": "1397",
      "isPublicSwap()": "1211",
      "joinPool(uint256,uint256[])": "infinite",
      "joinswapExternAmountIn(address,uint256,uint256)": "infinite",
      "joinswapPoolAmountOut(address,uint256,uint256)": "infinite",
      "name()": "infinite",
      "reindexTokens(address[],uint96[],uint256[])": "infinite",
      "reweighTokens(address[],uint96[])": "infinite",
      "setMaxPoolTokens(uint256)": "22243",
      "setMinimumBalance(address,uint256)": "24484",
      "setSwapFee(uint256)": "22296",
      "swapExactAmountIn(address,uint256,address,uint256,uint256)": "infinite",
      "swapExactAmountOut(address,uint256,address,uint256,uint256)": "infinite",
      "symbol()": "infinite",
      "totalSupply()": "1074",
      "transfer(address,uint256)": "45542",
      "transferFrom(address,address,uint256)": "infinite"
    },
    "internal": {
      "_bind(address,uint256,uint96)": "infinite",
      "_burnPoolShare(uint256)": "infinite",
      "_decreaseDenorm(struct IPool.Record memory,address)": "infinite",
      "_getInputToken(address)": "infinite",
      "_getOutputToken(address)": "infinite",
      "_increaseDenorm(struct IPool.Record memory,address)": "infinite",
      "_mintPoolShare(uint256)": "infinite",
      "_pullPoolShare(address,uint256)": "infinite",
      "_pullUnderlying(address,address,uint256)": "infinite",
      "_pushPoolShare(address,uint256)": "infinite",
      "_pushUnderlying(address,address,uint256)": "infinite",
      "_setDesiredDenorm(address,uint96)": "infinite",
      "_unbind(address)": "infinite",
      "_updateInputToken(address,struct IPool.Record memory,uint256)": "infinite"
    }
  }
}