{
  "abi": [
    {
      "inputs": [
        {
          "internalType": "address",
          "name": "weth_",
          "type": "address"
        },
        {
          "internalType": "address",
          "name": "factory_",
          "type": "address"
        },
        {
          "internalType": "address",
          "name": "router_",
          "type": "address"
        }
      ],
      "stateMutability": "nonpayable",
      "type": "constructor"
    },
    {
      "inputs": [
        {
          "components": [
            {
              "internalType": "address",
              "name": "token",
              "type": "address"
            },
            {
              "internalType": "uint256",
              "name": "amountToken",
              "type": "uint256"
            },
            {
              "internalType": "uint256",
              "name": "amountWeth",
              "type": "uint256"
            }
          ],
          "internalType": "struct LiquidityAdder.LiquidityToAdd[]",
          "name": "inputs",
          "type": "tuple[]"
        }
      ],
      "name": "addLiquidityMulti",
      "outputs": [],
      "stateMutability": "nonpayable",
      "type": "function"
    },
    {
      "inputs": [
        {
          "internalType": "contract MockERC20",
          "name": "token",
          "type": "address"
        },
        {
          "internalType": "uint256",
          "name": "amountToken",
          "type": "uint256"
        },
        {
          "internalType": "uint256",
          "name": "amountWeth",
          "type": "uint256"
        }
      ],
      "name": "addLiquiditySingle",
      "outputs": [
        {
          "internalType": "uint256",
          "name": "amountTokenActual",
          "type": "uint256"
        },
        {
          "internalType": "uint256",
          "name": "amountWethActual",
          "type": "uint256"
        }
      ],
      "stateMutability": "nonpayable",
      "type": "function"
    },
    {
      "inputs": [],
      "name": "factory",
      "outputs": [
        {
          "internalType": "contract IUniswapV2Factory",
          "name": "",
          "type": "address"
        }
      ],
      "stateMutability": "view",
      "type": "function"
    },
    {
      "inputs": [],
      "name": "router",
      "outputs": [
        {
          "internalType": "contract IUniswapV2Router02",
          "name": "",
          "type": "address"
        }
      ],
      "stateMutability": "view",
      "type": "function"
    },
    {
      "inputs": [
        {
          "internalType": "contract MockERC20",
          "name": "token",
          "type": "address"
        }
      ],
      "name": "swapDecreasePrice",
      "outputs": [
        {
          "internalType": "uint256[]",
          "name": "amounts",
          "type": "uint256[]"
        }
      ],
      "stateMutability": "nonpayable",
      "type": "function"
    },
    {
      "inputs": [
        {
          "internalType": "contract MockERC20",
          "name": "token",
          "type": "address"
        }
      ],
      "name": "swapIncreasePrice",
      "outputs": [
        {
          "internalType": "uint256[]",
          "name": "amounts",
          "type": "uint256[]"
        }
      ],
      "stateMutability": "nonpayable",
      "type": "function"
    },
    {
      "inputs": [],
      "name": "weth",
      "outputs": [
        {
          "internalType": "contract MockERC20",
          "name": "",
          "type": "address"
        }
      ],
      "stateMutability": "view",
      "type": "function"
    }
  ],
  "address": "0x224794Ba83E02B868Eb9A5E00029CC757836e1AE",
  "args": [
    "0x72710B0b93c8F86aEf4ec8bd832868A15df50375",
    "0x5C69bEe701ef814a2B6a3EDD4B1652CB9cc5aA6f",
    "0x7a250d5630B4cF539739dF2C5dAcb4c659F2488D"
  ],
  "solcInputHash": "0x0206cb7a87c80adbad4952ba454a1b6669375f7f3ae7a91ae645a2928bdeb634",
  "bytecode": "0x60e060405234801561001057600080fd5b50604051620013ec380380620013ec83398101604081905261003191610058565b6001600160601b0319606093841b811660805291831b821660a05290911b1660c0526100bc565b60008060006060848603121561006c578283fd5b8351610077816100a4565b6020850151909350610088816100a4565b6040850151909250610099816100a4565b809150509250925092565b6001600160a01b03811681146100b957600080fd5b50565b60805160601c60a05160601c60c05160601c6112966200015660003980610307528061039b52806106fb5280610765528061091e52806109df5280610a6a52508061012252806104b5528061072752806107ba5250806101445280610248528061048a52806104d7528061050352806105cd528061064c52806106cc52806107dc528061088f52806109b25280610aa152506112966000f3fe608060405234801561001057600080fd5b506004361061007d5760003560e01c806352a5264f1161005b57806352a5264f146100d5578063c45a0155146100e8578063decc008a146100f0578063f887ea40146101115761007d565b80631a47bce3146100825780633964dba5146100ab5780633fc8cef3146100c0575b600080fd5b610095610090366004610ed2565b610119565b6040516100a291906110ae565b60405180910390f35b6100be6100b9366004610d78565b610438565b005b6100c8610488565b6040516100a29190611038565b6100956100e3366004610ed2565b6104ac565b6100c8610725565b6101036100fe366004610eee565b610749565b6040516100a29291906111de565b6100c8610763565b606060006101687f0000000000000000000000000000000000000000000000000000000000000000847f0000000000000000000000000000000000000000000000000000000000000000610787565b905060006005846001600160a01b03166370a08231846040518263ffffffff1660e01b815260040161019a9190611038565b60206040518083038186803b1580156101b257600080fd5b505afa1580156101c6573d6000803e3d6000fd5b505050506040513d601f19601f820116820180604052508101906101ea9190610f76565b816101f157fe5b604080516002808252606080830184529490930494509190602083019080368337019050509050848160008151811061022657fe5b60200260200101906001600160a01b031690816001600160a01b0316815250507f00000000000000000000000000000000000000000000000000000000000000008160018151811061027457fe5b6001600160a01b03928316602091820292909201015260405163ccddff4760e01b81529086169063ccddff47906102b19030908690600401611095565b600060405180830381600087803b1580156102cb57600080fd5b505af11580156102df573d6000803e3d6000fd5b505060405163095ea7b360e01b81526001600160a01b038816925063095ea7b39150610331907f0000000000000000000000000000000000000000000000000000000000000000908690600401611095565b602060405180830381600087803b15801561034b57600080fd5b505af115801561035f573d6000803e3d6000fd5b505050506040513d601f19601f820116820180604052508101906103839190610eab565b506040516338ed173960e01b81526001600160a01b037f000000000000000000000000000000000000000000000000000000000000000016906338ed1739906103d990859060009086903090429060040161116e565b600060405180830381600087803b1580156103f357600080fd5b505af1158015610407573d6000803e3d6000fd5b505050506040513d6000823e601f3d908101601f1916820160405261042f9190810190610e1b565b95945050505050565b60005b81518110156104845761044c610d08565b82828151811061045857fe5b602002602001015190506104798160000151826020015183604001516107af565b50505060010161043b565b5050565b7f000000000000000000000000000000000000000000000000000000000000000081565b606060006104fb7f0000000000000000000000000000000000000000000000000000000000000000847f0000000000000000000000000000000000000000000000000000000000000000610787565b9050600060057f00000000000000000000000000000000000000000000000000000000000000006001600160a01b03166370a08231846040518263ffffffff1660e01b815260040161054d9190611038565b60206040518083038186803b15801561056557600080fd5b505afa158015610579573d6000803e3d6000fd5b505050506040513d601f19601f8201168201806040525081019061059d9190610f76565b816105a457fe5b6040805160028082526060808301845294909304945091906020830190803683370190505090507f0000000000000000000000000000000000000000000000000000000000000000816000815181106105f957fe5b60200260200101906001600160a01b031690816001600160a01b031681525050848160018151811061062757fe5b6001600160a01b03928316602091820292909201015260405163ccddff4760e01b81527f00000000000000000000000000000000000000000000000000000000000000009091169063ccddff47906106859030908690600401611095565b600060405180830381600087803b15801561069f57600080fd5b505af11580156106b3573d6000803e3d6000fd5b505060405163095ea7b360e01b81526001600160a01b037f000000000000000000000000000000000000000000000000000000000000000016925063095ea7b39150610331907f0000000000000000000000000000000000000000000000000000000000000000908690600401611095565b7f000000000000000000000000000000000000000000000000000000000000000081565b6000806107578585856107af565b91509150935093915050565b7f000000000000000000000000000000000000000000000000000000000000000081565b60008060006107968585610b3f565b915091506107a5868383610bd2565b9695505050505050565b6000806000806108007f0000000000000000000000000000000000000000000000000000000000000000887f0000000000000000000000000000000000000000000000000000000000000000610c2f565b9092509050801561081a57818187028161081657fe5b0494505b60405163ccddff4760e01b81526001600160a01b0388169063ccddff47906108489030908a90600401611095565b600060405180830381600087803b15801561086257600080fd5b505af1158015610876573d6000803e3d6000fd5b505060405163ccddff4760e01b81526001600160a01b037f000000000000000000000000000000000000000000000000000000000000000016925063ccddff4791506108c89030908990600401611095565b600060405180830381600087803b1580156108e257600080fd5b505af11580156108f6573d6000803e3d6000fd5b505060405163095ea7b360e01b81526001600160a01b038a16925063095ea7b39150610948907f0000000000000000000000000000000000000000000000000000000000000000908a90600401611095565b602060405180830381600087803b15801561096257600080fd5b505af1158015610976573d6000803e3d6000fd5b505050506040513d601f19601f8201168201806040525081019061099a9190610eab565b5060405163095ea7b360e01b81526001600160a01b037f0000000000000000000000000000000000000000000000000000000000000000169063095ea7b390610a09907f0000000000000000000000000000000000000000000000000000000000000000908990600401611095565b602060405180830381600087803b158015610a2357600080fd5b505af1158015610a37573d6000803e3d6000fd5b505050506040513d601f19601f82011682018060405250810190610a5b9190610eab565b5060405162e8e33760e81b81527f00000000000000000000000000000000000000000000000000000000000000006001600160a01b03169063e8e3370090610ade908a907f0000000000000000000000000000000000000000000000000000000000000000908b908b90600280840491908304903090600142019060040161104c565b606060405180830381600087803b158015610af857600080fd5b505af1158015610b0c573d6000803e3d6000fd5b505050506040513d601f19601f82011682018060405250810190610b309190610f8e565b50909890975095505050505050565b600080826001600160a01b0316846001600160a01b03161415610b7d5760405162461bcd60e51b8152600401610b74906110f2565b60405180910390fd5b826001600160a01b0316846001600160a01b031610610b9d578284610ba0565b83835b90925090506001600160a01b038216610bcb5760405162461bcd60e51b8152600401610b7490611137565b9250929050565b6000838383604051602001610be8929190610fbb565b60405160208183030381529060405280519060200120604051602001610c0f929190610fe2565b60408051601f198184030181529190528051602090910120949350505050565b6000806000610c3e8585610b3f565b509050600080610c4f888888610787565b6001600160a01b0316630902f1ac6040518163ffffffff1660e01b815260040160606040518083038186803b158015610c8757600080fd5b505afa158015610c9b573d6000803e3d6000fd5b505050506040513d601f19601f82011682018060405250810190610cbf9190610f22565b506001600160701b031691506001600160701b03169150826001600160a01b0316876001600160a01b031614610cf6578082610cf9565b81815b90999098509650505050505050565b604051806060016040528060006001600160a01b0316815260200160008152602001600081525090565b600060608284031215610d43578081fd5b610d4d60606111ec565b90508135610d5a81611233565b80825250602082013560208201526040820135604082015292915050565b60006020808385031215610d8a578182fd5b823567ffffffffffffffff811115610da0578283fd5b8301601f81018513610db0578283fd5b8035610dc3610dbe82611213565b6111ec565b818152838101908385016060808502860187018a1015610de1578788fd5b8795505b84861015610e0d57610df78a83610d32565b8452600195909501949286019290810190610de5565b509098975050505050505050565b60006020808385031215610e2d578182fd5b825167ffffffffffffffff811115610e43578283fd5b8301601f81018513610e53578283fd5b8051610e61610dbe82611213565b8181528381019083850185840285018601891015610e7d578687fd5b8694505b83851015610e9f578051835260019490940193918501918501610e81565b50979650505050505050565b600060208284031215610ebc578081fd5b81518015158114610ecb578182fd5b9392505050565b600060208284031215610ee3578081fd5b8135610ecb81611233565b600080600060608486031215610f02578182fd5b8335610f0d81611233565b95602085013595506040909401359392505050565b600080600060608486031215610f36578283fd5b8351610f418161124b565b6020850151909350610f528161124b565b604085015190925063ffffffff81168114610f6b578182fd5b809150509250925092565b600060208284031215610f87578081fd5b5051919050565b600080600060608486031215610fa2578283fd5b8351925060208401519150604084015190509250925092565b6bffffffffffffffffffffffff19606093841b811682529190921b16601482015260280190565b6001600160f81b0319815260609290921b6bffffffffffffffffffffffff1916600183015260158201527f96e8ac4277198ff8b6f785478aa9a39f403cb768dd02cbee326c3e7da348845f603582015260550190565b6001600160a01b0391909116815260200190565b6001600160a01b039889168152968816602088015260408701959095526060860193909352608085019190915260a084015290921660c082015260e08101919091526101000190565b6001600160a01b03929092168252602082015260400190565b6020808252825182820181905260009190848201906040850190845b818110156110e6578351835292840192918401916001016110ca565b50909695505050505050565b60208082526025908201527f556e697377617056324c6962726172793a204944454e544943414c5f41444452604082015264455353455360d81b606082015260800190565b6020808252601e908201527f556e697377617056324c6962726172793a205a45524f5f414444524553530000604082015260600190565b600060a082018783526020878185015260a0604085015281875180845260c0860191508289019350845b818110156111bd5784516001600160a01b031683529383019391830191600101611198565b50506001600160a01b03969096166060850152505050608001529392505050565b918252602082015260400190565b60405181810167ffffffffffffffff8111828210171561120b57600080fd5b604052919050565b600067ffffffffffffffff821115611229578081fd5b5060209081020190565b6001600160a01b038116811461124857600080fd5b50565b6001600160701b038116811461124857600080fdfea26469706673582212203dab3c6e2d54cbaf1981ba0787b8f8b22b0506b7443ae34a6ffbb69f329af75464736f6c634300060c0033",
  "devdoc": {
    "kind": "dev",
    "methods": {},
    "version": 1
  },
  "userdoc": {
    "kind": "user",
    "methods": {},
    "version": 1
  },
  "storageLayout": {
    "storage": [],
    "types": null
  },
  "gasEstimates": {
    "creation": {
      "codeDepositCost": "951600",
      "executionCost": "infinite",
      "totalCost": "infinite"
    },
    "external": {
      "addLiquidityMulti((address,uint256,uint256)[])": "infinite",
      "addLiquiditySingle(address,uint256,uint256)": "infinite",
      "factory()": "infinite",
      "router()": "infinite",
      "swapDecreasePrice(address)": "infinite",
      "swapIncreasePrice(address)": "infinite",
      "weth()": "infinite"
    },
    "internal": {
      "_addLiquidity(contract MockERC20,uint256,uint256)": "infinite"
    }
  }
}