{
  "abi": [
    {
      "inputs": [
        {
          "internalType": "address",
          "name": "oracle_",
          "type": "address"
        }
      ],
      "stateMutability": "nonpayable",
      "type": "constructor"
    },
    {
      "inputs": [
        {
          "internalType": "address[]",
          "name": "tokens",
          "type": "address[]"
        },
        {
          "internalType": "uint256[]",
          "name": "tokenAmounts",
          "type": "uint256[]"
        },
        {
          "internalType": "uint256",
          "name": "",
          "type": "uint256"
        },
        {
          "internalType": "uint256",
          "name": "",
          "type": "uint256"
        }
      ],
      "name": "computeAverageEthForTokens",
      "outputs": [
        {
          "internalType": "uint144[]",
          "name": "",
          "type": "uint144[]"
        }
      ],
      "stateMutability": "view",
      "type": "function"
    },
    {
      "inputs": [
        {
          "internalType": "address",
          "name": "token",
          "type": "address"
        },
        {
          "internalType": "uint256",
          "name": "tokenAmount",
          "type": "uint256"
        },
        {
          "internalType": "uint256",
          "name": "",
          "type": "uint256"
        },
        {
          "internalType": "uint256",
          "name": "",
          "type": "uint256"
        }
      ],
      "name": "computeAverageEthForTokens",
      "outputs": [
        {
          "internalType": "uint144",
          "name": "",
          "type": "uint144"
        }
      ],
      "stateMutability": "view",
      "type": "function"
    },
    {
      "inputs": [
        {
          "internalType": "address",
          "name": "token",
          "type": "address"
        },
        {
          "internalType": "uint256",
          "name": "",
          "type": "uint256"
        },
        {
          "internalType": "uint256",
          "name": "",
          "type": "uint256"
        }
      ],
      "name": "computeAverageEthPrice",
      "outputs": [
        {
          "components": [
            {
              "internalType": "uint224",
              "name": "_x",
              "type": "uint224"
            }
          ],
          "internalType": "struct FixedPoint.uq112x112",
          "name": "",
          "type": "tuple"
        }
      ],
      "stateMutability": "view",
      "type": "function"
    },
    {
      "inputs": [
        {
          "internalType": "address[]",
          "name": "tokens",
          "type": "address[]"
        },
        {
          "internalType": "uint256",
          "name": "",
          "type": "uint256"
        },
        {
          "internalType": "uint256",
          "name": "",
          "type": "uint256"
        }
      ],
      "name": "computeAverageEthPrices",
      "outputs": [
        {
          "components": [
            {
              "internalType": "uint224",
              "name": "_x",
              "type": "uint224"
            }
          ],
          "internalType": "struct FixedPoint.uq112x112[]",
          "name": "",
          "type": "tuple[]"
        }
      ],
      "stateMutability": "view",
      "type": "function"
    },
    {
      "inputs": [
        {
          "internalType": "address",
          "name": "token",
          "type": "address"
        },
        {
          "internalType": "uint256",
          "name": "",
          "type": "uint256"
        },
        {
          "internalType": "uint256",
          "name": "",
          "type": "uint256"
        }
      ],
      "name": "computeAverageTokenPrice",
      "outputs": [
        {
          "components": [
            {
              "internalType": "uint224",
              "name": "_x",
              "type": "uint224"
            }
          ],
          "internalType": "struct FixedPoint.uq112x112",
          "name": "",
          "type": "tuple"
        }
      ],
      "stateMutability": "view",
      "type": "function"
    },
    {
      "inputs": [
        {
          "internalType": "address[]",
          "name": "tokens",
          "type": "address[]"
        },
        {
          "internalType": "uint256",
          "name": "",
          "type": "uint256"
        },
        {
          "internalType": "uint256",
          "name": "",
          "type": "uint256"
        }
      ],
      "name": "computeAverageTokenPrices",
      "outputs": [
        {
          "components": [
            {
              "internalType": "uint224",
              "name": "_x",
              "type": "uint224"
            }
          ],
          "internalType": "struct FixedPoint.uq112x112[]",
          "name": "",
          "type": "tuple[]"
        }
      ],
      "stateMutability": "view",
      "type": "function"
    },
    {
      "inputs": [
        {
          "internalType": "address[]",
          "name": "tokens",
          "type": "address[]"
        },
        {
          "internalType": "uint256[]",
          "name": "wethAmounts",
          "type": "uint256[]"
        },
        {
          "internalType": "uint256",
          "name": "",
          "type": "uint256"
        },
        {
          "internalType": "uint256",
          "name": "",
          "type": "uint256"
        }
      ],
      "name": "computeAverageTokensForEth",
      "outputs": [
        {
          "internalType": "uint144[]",
          "name": "",
          "type": "uint144[]"
        }
      ],
      "stateMutability": "view",
      "type": "function"
    },
    {
      "inputs": [
        {
          "internalType": "address",
          "name": "token",
          "type": "address"
        },
        {
          "internalType": "uint256",
          "name": "wethAmount",
          "type": "uint256"
        },
        {
          "internalType": "uint256",
          "name": "",
          "type": "uint256"
        },
        {
          "internalType": "uint256",
          "name": "",
          "type": "uint256"
        }
      ],
      "name": "computeAverageTokensForEth",
      "outputs": [
        {
          "internalType": "uint144",
          "name": "",
          "type": "uint144"
        }
      ],
      "stateMutability": "view",
      "type": "function"
    },
    {
      "inputs": [
        {
          "internalType": "address",
          "name": "token",
          "type": "address"
        },
        {
          "internalType": "uint256",
          "name": "",
          "type": "uint256"
        },
        {
          "internalType": "uint256",
          "name": "",
          "type": "uint256"
        }
      ],
      "name": "computeTwoWayAveragePrice",
      "outputs": [
        {
          "components": [
            {
              "internalType": "uint224",
              "name": "priceAverage",
              "type": "uint224"
            },
            {
              "internalType": "uint224",
              "name": "ethPriceAverage",
              "type": "uint224"
            }
          ],
          "internalType": "struct PriceLibrary.TwoWayAveragePrice",
          "name": "",
          "type": "tuple"
        }
      ],
      "stateMutability": "view",
      "type": "function"
    },
    {
      "inputs": [
        {
          "internalType": "address[]",
          "name": "tokens",
          "type": "address[]"
        },
        {
          "internalType": "uint256",
          "name": "",
          "type": "uint256"
        },
        {
          "internalType": "uint256",
          "name": "",
          "type": "uint256"
        }
      ],
      "name": "computeTwoWayAveragePrices",
      "outputs": [
        {
          "components": [
            {
              "internalType": "uint224",
              "name": "priceAverage",
              "type": "uint224"
            },
            {
              "internalType": "uint224",
              "name": "ethPriceAverage",
              "type": "uint224"
            }
          ],
          "internalType": "struct PriceLibrary.TwoWayAveragePrice[]",
          "name": "",
          "type": "tuple[]"
        }
      ],
      "stateMutability": "view",
      "type": "function"
    },
    {
      "inputs": [],
      "name": "oracle",
      "outputs": [
        {
          "internalType": "contract IIndexedUniswapV2Oracle",
          "name": "",
          "type": "address"
        }
      ],
      "stateMutability": "view",
      "type": "function"
    },
    {
      "inputs": [
        {
          "internalType": "address",
          "name": "oracle_",
          "type": "address"
        }
      ],
      "name": "setOracle",
      "outputs": [],
      "stateMutability": "nonpayable",
      "type": "function"
    },
    {
      "inputs": [
        {
          "internalType": "address",
          "name": "token",
          "type": "address"
        }
      ],
      "name": "updatePrice",
      "outputs": [
        {
          "internalType": "bool",
          "name": "",
          "type": "bool"
        }
      ],
      "stateMutability": "nonpayable",
      "type": "function"
    },
    {
      "inputs": [
        {
          "internalType": "address[]",
          "name": "tokens",
          "type": "address[]"
        }
      ],
      "name": "updatePrices",
      "outputs": [
        {
          "internalType": "bool[]",
          "name": "",
          "type": "bool[]"
        }
      ],
      "stateMutability": "nonpayable",
      "type": "function"
    }
  ],
  "address": "0x8C5bAe4c044b8CaD35F36adb62D22cFaF97bC79b",
  "args": [
    "0x235F273f05Bb2129aD32377AA3E8257a55B1A3b9"
  ],
  "solcInputHash": "0xaf8c618a376cbc497299d7a053a95bf87290e7411f280b695e28e1d76929501e",
  "bytecode": "0x60a060405234801561001057600080fd5b5060405161119038038061119083398101604081905261002f9161005b565b600080546001600160a01b0319166001600160a01b03929092169190911790553360601b608052610089565b60006020828403121561006c578081fd5b81516001600160a01b0381168114610082578182fd5b9392505050565b60805160601c6110ef6100a1600039506110ef6000f3fe608060405234801561001057600080fd5b50600436106100ea5760003560e01c80637c906a2a1161008c5780639691b116116100665780639691b1161461021557806396e85ced14610228578063bf6dd82e14610248578063cdee7f6e1461025b576100ea565b80637c906a2a146101cd5780637dc0d1d0146101e05780637e5296e0146101f5576100ea565b80634f2acedf116100c85780634f2acedf146101585780635765361514610178578063768d2c19146101985780637adbf973146101b8576100ea565b80632d726197146100ef5780633a9d6535146101185780634506006014610138575b600080fd5b6101026100fd366004610aa5565b61026e565b60405161010f9190610faf565b60405180910390f35b61012b610126366004610972565b610306565b60405161010f919061104b565b61014b610146366004610a2a565b61039e565b60405161010f9190610ff1565b61016b6101663660046109a5565b61043c565b60405161010f919061105e565b61018b610186366004610972565b6104c7565b60405161010f919061103d565b6101ab6101a6366004610aa5565b610556565b60405161010f9190610f62565b6101cb6101c6366004610957565b6105e5565b005b61014b6101db366004610a2a565b610607565b6101e8610646565b60405161010f9190610e2e565b6102086102033660046109ea565b610655565b60405161010f9190610f1c565b61012b610223366004610972565b6106e7565b61023b610236366004610957565b610727565b60405161010f9190611032565b61016b6102563660046109a5565b6107aa565b610102610269366004610aa5565b6107e5565b600054604051632d72619760e01b81526060916001600160a01b031690632d726197906102a99088908890603c906212750090600401610ef5565b60006040518083038186803b1580156102c157600080fd5b505afa1580156102d5573d6000803e3d6000fd5b505050506040513d6000823e601f3d908101601f191682016040526102fd9190810190610c2f565b95945050505050565b61030e610820565b600054604051633a9d653560e01b81526001600160a01b0390911690633a9d653590610346908790603c906212750090600401610e42565b60206040518083038186803b15801561035e57600080fd5b505afa158015610372573d6000803e3d6000fd5b505050506040513d601f19601f820116820180604052508101906103969190610d89565b949350505050565b600054604051630228300360e51b81526060916001600160a01b0316906345060060906103dd908a908a908a908a90603c906212750090600401610e9d565b60006040518083038186803b1580156103f557600080fd5b505afa158015610409573d6000803e3d6000fd5b505050506040513d6000823e601f3d908101601f191682016040526104319190810190610cbb565b979650505050505050565b60008054604051634f2acedf60e01b81526001600160a01b0390911690634f2acedf906104779088908890603c906212750090600401610e63565b60206040518083038186803b15801561048f57600080fd5b505afa1580156104a3573d6000803e3d6000fd5b505050506040513d601f19601f820116820180604052508101906102fd9190610da4565b6104cf610832565b600054604051635765361560e01b81526001600160a01b0390911690635765361590610507908790603c906212750090600401610e42565b604080518083038186803b15801561051e57600080fd5b505afa158015610532573d6000803e3d6000fd5b505050506040513d601f19601f820116820180604052508101906103969190610d6e565b60005460405163768d2c1960e01b81526060916001600160a01b03169063768d2c19906105919088908890603c906212750090600401610ef5565b60006040518083038186803b1580156105a957600080fd5b505afa1580156105bd573d6000803e3d6000fd5b505050506040513d6000823e601f3d908101601f191682016040526102fd9190810190610b91565b600080546001600160a01b0319166001600160a01b0392909216919091179055565b600054604051633e48351560e11b81526060916001600160a01b031690637c906a2a906103dd908a908a908a908a90603c906212750090600401610e9d565b6000546001600160a01b031681565b6000546040516303f294b760e51b81526060916001600160a01b031690637e5296e0906106889086908690600401610e89565b600060405180830381600087803b1580156106a257600080fd5b505af11580156106b6573d6000803e3d6000fd5b505050506040513d6000823e601f3d908101601f191682016040526106de9190810190610af4565b90505b92915050565b6106ef610820565b600054604051634b48d88b60e11b81526001600160a01b0390911690639691b11690610346908790603c906212750090600401610e42565b600080546040516396e85ced60e01b81526001600160a01b03909116906396e85ced90610758908590600401610e2e565b602060405180830381600087803b15801561077257600080fd5b505af1158015610786573d6000803e3d6000fd5b505050506040513d601f19601f820116820180604052508101906106e19190610d47565b60008054604051635fb6ec1760e11b81526001600160a01b039091169063bf6dd82e906104779088908890603c906212750090600401610e63565b6000546040516366f73fb760e11b81526060916001600160a01b03169063cdee7f6e906102a99088908890603c906212750090600401610ef5565b60408051602081019091526000815290565b604080518082019091526000808252602082015290565b80356001600160a01b03811681146106e157600080fd5b60008083601f840112610871578182fd5b50813567ffffffffffffffff811115610888578182fd5b60208301915083602080830285010111156108a257600080fd5b9250929050565b805180151581146106e157600080fd5b6000604082840312156108ca578081fd5b6108d46040611072565b90506108e08383610940565b81526108ef8360208401610940565b602082015292915050565b60006020828403121561090b578081fd5b6109156020611072565b90506109218383610940565b815292915050565b80516001600160901b03811681146106e157600080fd5b80516001600160e01b03811681146106e157600080fd5b600060208284031215610968578081fd5b6106de8383610849565b600080600060608486031215610986578182fd5b6109908585610849565b95602085013595506040909401359392505050565b600080600080608085870312156109ba578081fd5b84356001600160a01b03811681146109d0578182fd5b966020860135965060408601359560600135945092505050565b600080602083850312156109fc578182fd5b823567ffffffffffffffff811115610a12578283fd5b610a1e85828601610860565b90969095509350505050565b60008060008060008060808789031215610a42578182fd5b863567ffffffffffffffff80821115610a59578384fd5b610a658a838b01610860565b90985096506020890135915080821115610a7d578384fd5b50610a8a89828a01610860565b979a9699509760408101359660609091013595509350505050565b60008060008060608587031215610aba578384fd5b843567ffffffffffffffff811115610ad0578485fd5b610adc87828801610860565b90989097506020870135966040013595509350505050565b60006020808385031215610b06578182fd5b825167ffffffffffffffff811115610b1c578283fd5b8301601f81018513610b2c578283fd5b8051610b3f610b3a82611099565b611072565b8181528381019083850185840285018601891015610b5b578687fd5b8694505b83851015610b8557610b7189826108a9565b835260019490940193918501918501610b5f565b50979650505050505050565b60006020808385031215610ba3578182fd5b825167ffffffffffffffff811115610bb9578283fd5b8301601f81018513610bc9578283fd5b8051610bd7610b3a82611099565b818152838101908385016040808502860187018a1015610bf5578788fd5b8795505b84861015610c2157610c0b8a836108b9565b8452600195909501949286019290810190610bf9565b509098975050505050505050565b60006020808385031215610c41578182fd5b825167ffffffffffffffff811115610c57578283fd5b8301601f81018513610c67578283fd5b8051610c75610b3a82611099565b8181528381019083850185840285018601891015610c91578687fd5b8694505b83851015610b8557610ca789826108fa565b835260019490940193918501918501610c95565b60006020808385031215610ccd578182fd5b825167ffffffffffffffff811115610ce3578283fd5b8301601f81018513610cf3578283fd5b8051610d01610b3a82611099565b8181528381019083850185840285018601891015610d1d578687fd5b8694505b83851015610b8557610d338982610929565b835260019490940193918501918501610d21565b600060208284031215610d58578081fd5b81518015158114610d67578182fd5b9392505050565b600060408284031215610d7f578081fd5b6106de83836108b9565b600060208284031215610d9a578081fd5b6106de83836108fa565b600060208284031215610db5578081fd5b81516001600160901b0381168114610d67578182fd5b60008284526020808501945082825b85811015610e08578183016001600160a01b03610df78285610849565b168852968301969150600101610dda565b509495945050505050565b80516001600160e01b03908116835260209182015116910152565b6001600160a01b0391909116815260200190565b6001600160a01b039390931683526020830191909152604082015260600190565b6001600160a01b0394909416845260208401929092526040830152606082015260800190565b600060208252610396602083018486610dcb565b600060808252610eb160808301888a610dcb565b82810360208401528581526001600160fb1b03861115610ecf578182fd5b602086028088602084013701602001908152604082019390935260600152949350505050565b600060608252610f09606083018688610dcb565b6020830194909452506040015292915050565b6020808252825182820181905260009190848201906040850190845b81811015610f56578351151583529284019291840191600101610f38565b50909695505050505050565b602080825282518282018190526000919060409081850190868401855b82811015610fa257610f92848351610e13565b9284019290850190600101610f7f565b5091979650505050505050565b6020808252825182820181905260009190848201906040850190845b81811015610f56578351516001600160e01b031683529284019291840191600101610fcb565b6020808252825182820181905260009190848201906040850190845b81811015610f565783516001600160901b03168352928401929184019160010161100d565b901515815260200190565b604081016106e18284610e13565b90516001600160e01b0316815260200190565b6001600160901b0391909116815260200190565b60405181810167ffffffffffffffff8111828210171561109157600080fd5b604052919050565b600067ffffffffffffffff8211156110af578081fd5b506020908102019056fea26469706673582212208e638deafad461e3dd0cbba72e1ebdd6e159d78e3df7f6e362e2a718059e63ae64736f6c634300060c0033",
  "devdoc": {
    "kind": "dev",
    "methods": {},
    "version": 1
  },
  "userdoc": {
    "kind": "user",
    "methods": {},
    "notice": "Proxy contract to reduce the TWAP period on testnets.",
    "version": 1
  },
  "storageLayout": {
    "storage": [
      {
        "astId": 14930,
        "contract": "contracts/mocks/OracleFallthrough.sol:OracleFallthrough",
        "label": "oracle",
        "offset": 0,
        "slot": "0",
        "type": "t_contract(IIndexedUniswapV2Oracle)515"
      }
    ],
    "types": {
      "t_contract(IIndexedUniswapV2Oracle)515": {
        "encoding": "inplace",
        "label": "contract IIndexedUniswapV2Oracle",
        "numberOfBytes": "20"
      }
    }
  },
  "gasEstimates": {
    "creation": {
      "codeDepositCost": "867000",
      "executionCost": "infinite",
      "totalCost": "infinite"
    },
    "external": {
      "computeAverageEthForTokens(address,uint256,uint256,uint256)": "infinite",
      "computeAverageEthForTokens(address[],uint256[],uint256,uint256)": "infinite",
      "computeAverageEthPrice(address,uint256,uint256)": "infinite",
      "computeAverageEthPrices(address[],uint256,uint256)": "infinite",
      "computeAverageTokenPrice(address,uint256,uint256)": "infinite",
      "computeAverageTokenPrices(address[],uint256,uint256)": "infinite",
      "computeAverageTokensForEth(address,uint256,uint256,uint256)": "infinite",
      "computeAverageTokensForEth(address[],uint256[],uint256,uint256)": "infinite",
      "computeTwoWayAveragePrice(address,uint256,uint256)": "infinite",
      "computeTwoWayAveragePrices(address[],uint256,uint256)": "infinite",
      "oracle()": "1115",
      "setOracle(address)": "infinite",
      "updatePrice(address)": "infinite",
      "updatePrices(address[])": "infinite"
    }
  }
}