{
  "abi": [
    {
      "inputs": [
        {
          "internalType": "address",
          "name": "oracle_",
          "type": "address"
        }
      ],
      "stateMutability": "nonpayable",
      "type": "constructor"
    },
    {
      "inputs": [
        {
          "internalType": "address[]",
          "name": "tokens",
          "type": "address[]"
        },
        {
          "internalType": "uint256[]",
          "name": "tokenAmounts",
          "type": "uint256[]"
        },
        {
          "internalType": "uint256",
          "name": "minTimeElapsed",
          "type": "uint256"
        },
        {
          "internalType": "uint256",
          "name": "maxTimeElapsed",
          "type": "uint256"
        }
      ],
      "name": "computeAverageEthForTokens",
      "outputs": [
        {
          "internalType": "uint144[]",
          "name": "",
          "type": "uint144[]"
        }
      ],
      "stateMutability": "view",
      "type": "function"
    },
    {
      "inputs": [
        {
          "internalType": "address",
          "name": "token",
          "type": "address"
        },
        {
          "internalType": "uint256",
          "name": "tokenAmount",
          "type": "uint256"
        },
        {
          "internalType": "uint256",
          "name": "minTimeElapsed",
          "type": "uint256"
        },
        {
          "internalType": "uint256",
          "name": "maxTimeElapsed",
          "type": "uint256"
        }
      ],
      "name": "computeAverageEthForTokens",
      "outputs": [
        {
          "internalType": "uint144",
          "name": "",
          "type": "uint144"
        }
      ],
      "stateMutability": "view",
      "type": "function"
    },
    {
      "inputs": [
        {
          "internalType": "address",
          "name": "token",
          "type": "address"
        },
        {
          "internalType": "uint256",
          "name": "minTimeElapsed",
          "type": "uint256"
        },
        {
          "internalType": "uint256",
          "name": "maxTimeElapsed",
          "type": "uint256"
        }
      ],
      "name": "computeAverageEthPrice",
      "outputs": [
        {
          "components": [
            {
              "internalType": "uint224",
              "name": "_x",
              "type": "uint224"
            }
          ],
          "internalType": "struct FixedPoint.uq112x112",
          "name": "",
          "type": "tuple"
        }
      ],
      "stateMutability": "view",
      "type": "function"
    },
    {
      "inputs": [
        {
          "internalType": "address[]",
          "name": "tokens",
          "type": "address[]"
        },
        {
          "internalType": "uint256",
          "name": "minTimeElapsed",
          "type": "uint256"
        },
        {
          "internalType": "uint256",
          "name": "maxTimeElapsed",
          "type": "uint256"
        }
      ],
      "name": "computeAverageEthPrices",
      "outputs": [
        {
          "components": [
            {
              "internalType": "uint224",
              "name": "_x",
              "type": "uint224"
            }
          ],
          "internalType": "struct FixedPoint.uq112x112[]",
          "name": "",
          "type": "tuple[]"
        }
      ],
      "stateMutability": "view",
      "type": "function"
    },
    {
      "inputs": [
        {
          "internalType": "address",
          "name": "token",
          "type": "address"
        },
        {
          "internalType": "uint256",
          "name": "minTimeElapsed",
          "type": "uint256"
        },
        {
          "internalType": "uint256",
          "name": "maxTimeElapsed",
          "type": "uint256"
        }
      ],
      "name": "computeAverageTokenPrice",
      "outputs": [
        {
          "components": [
            {
              "internalType": "uint224",
              "name": "_x",
              "type": "uint224"
            }
          ],
          "internalType": "struct FixedPoint.uq112x112",
          "name": "",
          "type": "tuple"
        }
      ],
      "stateMutability": "view",
      "type": "function"
    },
    {
      "inputs": [
        {
          "internalType": "address[]",
          "name": "tokens",
          "type": "address[]"
        },
        {
          "internalType": "uint256",
          "name": "minTimeElapsed",
          "type": "uint256"
        },
        {
          "internalType": "uint256",
          "name": "maxTimeElapsed",
          "type": "uint256"
        }
      ],
      "name": "computeAverageTokenPrices",
      "outputs": [
        {
          "components": [
            {
              "internalType": "uint224",
              "name": "_x",
              "type": "uint224"
            }
          ],
          "internalType": "struct FixedPoint.uq112x112[]",
          "name": "",
          "type": "tuple[]"
        }
      ],
      "stateMutability": "view",
      "type": "function"
    },
    {
      "inputs": [
        {
          "internalType": "address[]",
          "name": "tokens",
          "type": "address[]"
        },
        {
          "internalType": "uint256[]",
          "name": "wethAmounts",
          "type": "uint256[]"
        },
        {
          "internalType": "uint256",
          "name": "minTimeElapsed",
          "type": "uint256"
        },
        {
          "internalType": "uint256",
          "name": "maxTimeElapsed",
          "type": "uint256"
        }
      ],
      "name": "computeAverageTokensForEth",
      "outputs": [
        {
          "internalType": "uint144[]",
          "name": "",
          "type": "uint144[]"
        }
      ],
      "stateMutability": "view",
      "type": "function"
    },
    {
      "inputs": [
        {
          "internalType": "address",
          "name": "token",
          "type": "address"
        },
        {
          "internalType": "uint256",
          "name": "wethAmount",
          "type": "uint256"
        },
        {
          "internalType": "uint256",
          "name": "minTimeElapsed",
          "type": "uint256"
        },
        {
          "internalType": "uint256",
          "name": "maxTimeElapsed",
          "type": "uint256"
        }
      ],
      "name": "computeAverageTokensForEth",
      "outputs": [
        {
          "internalType": "uint144",
          "name": "",
          "type": "uint144"
        }
      ],
      "stateMutability": "view",
      "type": "function"
    },
    {
      "inputs": [
        {
          "internalType": "address",
          "name": "token",
          "type": "address"
        },
        {
          "internalType": "uint256",
          "name": "minTimeElapsed",
          "type": "uint256"
        },
        {
          "internalType": "uint256",
          "name": "maxTimeElapsed",
          "type": "uint256"
        }
      ],
      "name": "computeTwoWayAveragePrice",
      "outputs": [
        {
          "components": [
            {
              "internalType": "uint224",
              "name": "priceAverage",
              "type": "uint224"
            },
            {
              "internalType": "uint224",
              "name": "ethPriceAverage",
              "type": "uint224"
            }
          ],
          "internalType": "struct PriceLibrary.TwoWayAveragePrice",
          "name": "",
          "type": "tuple"
        }
      ],
      "stateMutability": "view",
      "type": "function"
    },
    {
      "inputs": [
        {
          "internalType": "address[]",
          "name": "tokens",
          "type": "address[]"
        },
        {
          "internalType": "uint256",
          "name": "minTimeElapsed",
          "type": "uint256"
        },
        {
          "internalType": "uint256",
          "name": "maxTimeElapsed",
          "type": "uint256"
        }
      ],
      "name": "computeTwoWayAveragePrices",
      "outputs": [
        {
          "components": [
            {
              "internalType": "uint224",
              "name": "priceAverage",
              "type": "uint224"
            },
            {
              "internalType": "uint224",
              "name": "ethPriceAverage",
              "type": "uint224"
            }
          ],
          "internalType": "struct PriceLibrary.TwoWayAveragePrice[]",
          "name": "",
          "type": "tuple[]"
        }
      ],
      "stateMutability": "view",
      "type": "function"
    },
    {
      "inputs": [],
      "name": "oracle",
      "outputs": [
        {
          "internalType": "contract IIndexedUniswapV2Oracle",
          "name": "",
          "type": "address"
        }
      ],
      "stateMutability": "view",
      "type": "function"
    },
    {
      "inputs": [
        {
          "internalType": "address",
          "name": "oracle_",
          "type": "address"
        }
      ],
      "name": "setOracle",
      "outputs": [],
      "stateMutability": "nonpayable",
      "type": "function"
    }
  ],
  "address": "0x344254CAc0C591AeD45e35CDac23b11Ed3623d25",
  "args": [
    "0x235F273f05Bb2129aD32377AA3E8257a55B1A3b9"
  ],
  "solcInputHash": "0x641bc5824798e3c8ac25268afac02bdabe7ff644a9a77b0b8151171fb34b1cae",
  "bytecode": "0x60a060405234801561001057600080fd5b50604051610eb6380380610eb683398101604081905261002f9161005b565b600080546001600160a01b0319166001600160a01b03929092169190911790553360601b608052610089565b60006020828403121561006c578081fd5b81516001600160a01b0381168114610082578182fd5b9392505050565b60805160601c610e156100a160003950610e156000f3fe608060405234801561001057600080fd5b50600436106100b45760003560e01c80637adbf973116100715780637adbf973146101825780637c906a2a146101975780637dc0d1d0146101aa5780639691b116146101bf578063bf6dd82e146101d2578063cdee7f6e146101e5576100b4565b80632d726197146100b95780633a9d6535146100e257806345060060146101025780634f2acedf146101225780635765361514610142578063768d2c1914610162575b600080fd5b6100cc6100c73660046108d7565b6101f8565b6040516100d99190610cc0565b60405180910390f35b6100f56100f03660046107e4565b610290565b6040516100d99190610d71565b61011561011036600461085c565b610328565b6040516100d99190610d0e565b610135610130366004610817565b6103c6565b6040516100d99190610d84565b6101556101503660046107e4565b610451565b6040516100d99190610d63565b6101756101703660046108d7565b6104e0565b6040516100d99190610c73565b6101956101903660046107c2565b61056f565b005b6101156101a536600461085c565b610591565b6101b26105d0565b6040516100d99190610d4f565b6100f56101cd3660046107e4565b6105df565b6101356101e0366004610817565b61061f565b6100cc6101f33660046108d7565b61065a565b600054604051632d72619760e01b81526060916001600160a01b031690632d726197906102339088908890603c906201518090600401610c4c565b60006040518083038186803b15801561024b57600080fd5b505afa15801561025f573d6000803e3d6000fd5b505050506040513d6000823e601f3d908101601f1916820160405261028791908101906109c9565b95945050505050565b610298610695565b600054604051633a9d653560e01b81526001600160a01b0390911690633a9d6535906102d0908790603c906201518090600401610bad565b60206040518083038186803b1580156102e857600080fd5b505afa1580156102fc573d6000803e3d6000fd5b505050506040513d601f19601f820116820180604052508101906103209190610b08565b949350505050565b600054604051630228300360e51b81526060916001600160a01b031690634506006090610367908a908a908a908a90603c906201518090600401610bf4565b60006040518083038186803b15801561037f57600080fd5b505afa158015610393573d6000803e3d6000fd5b505050506040513d6000823e601f3d908101601f191682016040526103bb9190810190610a61565b979650505050505050565b60008054604051634f2acedf60e01b81526001600160a01b0390911690634f2acedf906104019088908890603c906201518090600401610bce565b60206040518083038186803b15801561041957600080fd5b505afa15801561042d573d6000803e3d6000fd5b505050506040513d601f19601f820116820180604052508101906102879190610b23565b6104596106a7565b600054604051635765361560e01b81526001600160a01b0390911690635765361590610491908790603c906201518090600401610bad565b604080518083038186803b1580156104a857600080fd5b505afa1580156104bc573d6000803e3d6000fd5b505050506040513d601f19601f820116820180604052508101906103209190610aed565b60005460405163768d2c1960e01b81526060916001600160a01b03169063768d2c199061051b9088908890603c906201518090600401610c4c565b60006040518083038186803b15801561053357600080fd5b505afa158015610547573d6000803e3d6000fd5b505050506040513d6000823e601f3d908101601f191682016040526102879190810190610926565b600080546001600160a01b0319166001600160a01b0392909216919091179055565b600054604051633e48351560e11b81526060916001600160a01b031690637c906a2a90610367908a908a908a908a90603c906201518090600401610bf4565b6000546001600160a01b031681565b6105e7610695565b600054604051634b48d88b60e11b81526001600160a01b0390911690639691b116906102d0908790603c906201518090600401610bad565b60008054604051635fb6ec1760e11b81526001600160a01b039091169063bf6dd82e906104019088908890603c906201518090600401610bce565b6000546040516366f73fb760e11b81526060916001600160a01b03169063cdee7f6e906102339088908890603c906201518090600401610c4c565b60408051602081019091526000815290565b604080518082019091526000808252602082015290565b80356001600160a01b03811681146106d557600080fd5b92915050565b60008083601f8401126106ec578182fd5b50813567ffffffffffffffff811115610703578182fd5b602083019150836020808302850101111561071d57600080fd5b9250929050565b600060408284031215610735578081fd5b61073f6040610d98565b905061074b83836107ab565b815261075a83602084016107ab565b602082015292915050565b600060208284031215610776578081fd5b6107806020610d98565b905061078c83836107ab565b815292915050565b80516001600160901b03811681146106d557600080fd5b80516001600160e01b03811681146106d557600080fd5b6000602082840312156107d3578081fd5b6107dd83836106be565b9392505050565b6000806000606084860312156107f8578182fd5b61080285856106be565b95602085013595506040909401359392505050565b6000806000806080858703121561082c578081fd5b84356001600160a01b0381168114610842578182fd5b966020860135965060408601359560600135945092505050565b60008060008060008060808789031215610874578182fd5b863567ffffffffffffffff8082111561088b578384fd5b6108978a838b016106db565b909850965060208901359150808211156108af578384fd5b506108bc89828a016106db565b979a9699509760408101359660609091013595509350505050565b600080600080606085870312156108ec578384fd5b843567ffffffffffffffff811115610902578485fd5b61090e878288016106db565b90989097506020870135966040013595509350505050565b60006020808385031215610938578182fd5b825167ffffffffffffffff81111561094e578283fd5b8301601f8101851361095e578283fd5b805161097161096c82610dbf565b610d98565b818152838101908385016040808502860187018a101561098f578788fd5b8795505b848610156109bb576109a58a83610724565b8452600195909501949286019290810190610993565b509098975050505050505050565b600060208083850312156109db578182fd5b825167ffffffffffffffff8111156109f1578283fd5b8301601f81018513610a01578283fd5b8051610a0f61096c82610dbf565b8181528381019083850185840285018601891015610a2b578687fd5b8694505b83851015610a5557610a418982610765565b835260019490940193918501918501610a2f565b50979650505050505050565b60006020808385031215610a73578182fd5b825167ffffffffffffffff811115610a89578283fd5b8301601f81018513610a99578283fd5b8051610aa761096c82610dbf565b8181528381019083850185840285018601891015610ac3578687fd5b8694505b83851015610a5557610ad98982610794565b835260019490940193918501918501610ac7565b600060408284031215610afe578081fd5b6107dd8383610724565b600060208284031215610b19578081fd5b6107dd8383610765565b600060208284031215610b34578081fd5b81516001600160901b03811681146107dd578182fd5b60008284526020808501945082825b85811015610b87578183016001600160a01b03610b7682856106be565b168852968301969150600101610b59565b509495945050505050565b80516001600160e01b03908116835260209182015116910152565b6001600160a01b039390931683526020830191909152604082015260600190565b6001600160a01b0394909416845260208401929092526040830152606082015260800190565b600060808252610c0860808301888a610b4a565b82810360208401528581526001600160fb1b03861115610c26578182fd5b602086028088602084013701602001908152604082019390935260600152949350505050565b600060608252610c60606083018688610b4a565b6020830194909452506040015292915050565b602080825282518282018190526000919060409081850190868401855b82811015610cb357610ca3848351610b92565b9284019290850190600101610c90565b5091979650505050505050565b6020808252825182820181905260009190848201906040850190845b81811015610d02578351516001600160e01b031683529284019291840191600101610cdc565b50909695505050505050565b6020808252825182820181905260009190848201906040850190845b81811015610d025783516001600160901b031683529284019291840191600101610d2a565b6001600160a01b0391909116815260200190565b604081016106d58284610b92565b90516001600160e01b0316815260200190565b6001600160901b0391909116815260200190565b60405181810167ffffffffffffffff81118282101715610db757600080fd5b604052919050565b600067ffffffffffffffff821115610dd5578081fd5b506020908102019056fea26469706673582212208417a6695d1e4756c494cdf9a228310ad11d402028335fb532e5b5b63f9a6aa464736f6c634300060c0033",
  "devdoc": {
    "kind": "dev",
    "methods": {},
    "version": 1
  },
  "userdoc": {
    "kind": "user",
    "methods": {},
    "notice": "Proxy contract to reduce the TWAP period on testnets.",
    "version": 1
  },
  "storageLayout": {
    "storage": [
      {
        "astId": 15604,
        "contract": "contracts/mocks/OracleFallthrough.sol:OracleFallthrough",
        "label": "oracle",
        "offset": 0,
        "slot": "0",
        "type": "t_contract(IIndexedUniswapV2Oracle)515"
      }
    ],
    "types": {
      "t_contract(IIndexedUniswapV2Oracle)515": {
        "encoding": "inplace",
        "label": "contract IIndexedUniswapV2Oracle",
        "numberOfBytes": "20"
      }
    }
  },
  "gasEstimates": {
    "creation": {
      "codeDepositCost": "721000",
      "executionCost": "infinite",
      "totalCost": "infinite"
    },
    "external": {
      "computeAverageEthForTokens(address,uint256,uint256,uint256)": "infinite",
      "computeAverageEthForTokens(address[],uint256[],uint256,uint256)": "infinite",
      "computeAverageEthPrice(address,uint256,uint256)": "infinite",
      "computeAverageEthPrices(address[],uint256,uint256)": "infinite",
      "computeAverageTokenPrice(address,uint256,uint256)": "infinite",
      "computeAverageTokenPrices(address[],uint256,uint256)": "infinite",
      "computeAverageTokensForEth(address,uint256,uint256,uint256)": "infinite",
      "computeAverageTokensForEth(address[],uint256[],uint256,uint256)": "infinite",
      "computeTwoWayAveragePrice(address,uint256,uint256)": "infinite",
      "computeTwoWayAveragePrices(address[],uint256,uint256)": "infinite",
      "oracle()": "1114",
      "setOracle(address)": "21176"
    }
  }
}