{
  "abi": [
    {
      "inputs": [
        {
          "internalType": "contract IIndexedUniswapV2Oracle",
          "name": "oracle",
          "type": "address"
        },
        {
          "internalType": "address",
          "name": "controller",
          "type": "address"
        }
      ],
      "stateMutability": "nonpayable",
      "type": "constructor"
    },
    {
      "anonymous": false,
      "inputs": [
        {
          "indexed": false,
          "internalType": "address",
          "name": "from",
          "type": "address"
        },
        {
          "indexed": false,
          "internalType": "address",
          "name": "token",
          "type": "address"
        },
        {
          "indexed": false,
          "internalType": "uint256",
          "name": "amount",
          "type": "uint256"
        },
        {
          "indexed": false,
          "internalType": "uint256",
          "name": "credit",
          "type": "uint256"
        }
      ],
      "name": "TokensContributed",
      "type": "event"
    },
    {
      "inputs": [],
      "name": "claimTokens",
      "outputs": [],
      "stateMutability": "nonpayable",
      "type": "function"
    },
    {
      "inputs": [
        {
          "internalType": "address",
          "name": "account",
          "type": "address"
        }
      ],
      "name": "claimTokens",
      "outputs": [],
      "stateMutability": "nonpayable",
      "type": "function"
    },
    {
      "inputs": [
        {
          "internalType": "address[]",
          "name": "accounts",
          "type": "address[]"
        }
      ],
      "name": "claimTokens",
      "outputs": [],
      "stateMutability": "nonpayable",
      "type": "function"
    },
    {
      "inputs": [
        {
          "internalType": "address",
          "name": "token",
          "type": "address"
        },
        {
          "internalType": "uint256",
          "name": "amountIn",
          "type": "uint256"
        },
        {
          "internalType": "uint256",
          "name": "minimumCredit",
          "type": "uint256"
        }
      ],
      "name": "contributeTokens",
      "outputs": [
        {
          "internalType": "uint256",
          "name": "credit",
          "type": "uint256"
        }
      ],
      "stateMutability": "nonpayable",
      "type": "function"
    },
    {
      "inputs": [
        {
          "internalType": "address[]",
          "name": "tokens",
          "type": "address[]"
        },
        {
          "internalType": "uint256[]",
          "name": "amountsIn",
          "type": "uint256[]"
        },
        {
          "internalType": "uint256",
          "name": "minimumCredit",
          "type": "uint256"
        }
      ],
      "name": "contributeTokens",
      "outputs": [
        {
          "internalType": "uint256",
          "name": "credit",
          "type": "uint256"
        }
      ],
      "stateMutability": "nonpayable",
      "type": "function"
    },
    {
      "inputs": [],
      "name": "finish",
      "outputs": [],
      "stateMutability": "nonpayable",
      "type": "function"
    },
    {
      "inputs": [
        {
          "internalType": "address",
          "name": "token",
          "type": "address"
        },
        {
          "internalType": "uint256",
          "name": "amountIn",
          "type": "uint256"
        }
      ],
      "name": "getCreditForTokens",
      "outputs": [
        {
          "internalType": "uint144",
          "name": "amountOut",
          "type": "uint144"
        }
      ],
      "stateMutability": "view",
      "type": "function"
    },
    {
      "inputs": [
        {
          "internalType": "address",
          "name": "account",
          "type": "address"
        }
      ],
      "name": "getCreditOf",
      "outputs": [
        {
          "internalType": "uint256",
          "name": "",
          "type": "uint256"
        }
      ],
      "stateMutability": "view",
      "type": "function"
    },
    {
      "inputs": [
        {
          "internalType": "address",
          "name": "token",
          "type": "address"
        }
      ],
      "name": "getDesiredAmount",
      "outputs": [
        {
          "internalType": "uint256",
          "name": "",
          "type": "uint256"
        }
      ],
      "stateMutability": "view",
      "type": "function"
    },
    {
      "inputs": [
        {
          "internalType": "address[]",
          "name": "tokens",
          "type": "address[]"
        }
      ],
      "name": "getDesiredAmounts",
      "outputs": [
        {
          "internalType": "uint256[]",
          "name": "amounts",
          "type": "uint256[]"
        }
      ],
      "stateMutability": "view",
      "type": "function"
    },
    {
      "inputs": [],
      "name": "getDesiredTokens",
      "outputs": [
        {
          "internalType": "address[]",
          "name": "tokens",
          "type": "address[]"
        }
      ],
      "stateMutability": "view",
      "type": "function"
    },
    {
      "inputs": [],
      "name": "getTotalCredit",
      "outputs": [
        {
          "internalType": "uint256",
          "name": "",
          "type": "uint256"
        }
      ],
      "stateMutability": "view",
      "type": "function"
    },
    {
      "inputs": [
        {
          "internalType": "address",
          "name": "poolAddress",
          "type": "address"
        },
        {
          "internalType": "address[]",
          "name": "tokens",
          "type": "address[]"
        },
        {
          "internalType": "uint256[]",
          "name": "amounts",
          "type": "uint256[]"
        }
      ],
      "name": "initialize",
      "outputs": [],
      "stateMutability": "nonpayable",
      "type": "function"
    },
    {
      "inputs": [],
      "name": "isFinished",
      "outputs": [
        {
          "internalType": "bool",
          "name": "",
          "type": "bool"
        }
      ],
      "stateMutability": "view",
      "type": "function"
    },
    {
      "inputs": [],
      "name": "updatePrices",
      "outputs": [],
      "stateMutability": "nonpayable",
      "type": "function"
    }
  ],
  "address": "0x718DE556dE3e095ee04C5ea42918B9786aA5dA22",
  "args": [
    "0x344254CAc0C591AeD45e35CDac23b11Ed3623d25",
    "0xFFa90CDd61e6B68d95a4A4658cFb54B9BC23a26e"
  ],
  "solcInputHash": "0x641bc5824798e3c8ac25268afac02bdabe7ff644a9a77b0b8151171fb34b1cae",
  "bytecode": "0x60c06040523480156200001157600080fd5b5060405162001f3538038062001f35833981016040819052620000349162000053565b6001600160601b0319606092831b811660a052911b16608052620000aa565b6000806040838503121562000066578182fd5b8251620000738162000091565b6020840151909250620000868162000091565b809150509250929050565b6001600160a01b0381168114620000a757600080fd5b50565b60805160601c60a05160601c611e4d620000e860003980610347528061057c52806106675280610845525080610b525280610f085250611e4d6000f3fe608060405234801561001057600080fd5b50600436106100f55760003560e01c80637b35296211610097578063df8de3e711610066578063df8de3e7146101e0578063eef72a3c146101f3578063f305760814610206578063ff1d57521461020e576100f5565b80637b35296214610190578063b40bd3c2146101a5578063c97ab30c146101c5578063d56b2889146101d8576100f5565b806349dd1262116100d357806349dd1262146101425780634a1bc5471461014a5780634a7f360c1461016a578063636a21591461017d576100f5565b80631074fafb146100fa57806327b978231461011857806348c54b9d14610138575b600080fd5b610102610221565b60405161010f91906119e7565b60405180910390f35b61012b610126366004611671565b610283565b60405161010f9190611dbb565b6101406104ef565b005b610140610565565b61015d610158366004611647565b61060b565b60405161010f9190611da7565b61012b6101783660046115ad565b6106ff565b61012b61018b3660046116e4565b61071a565b610198610a0e565b60405161010f9190611a5d565b6101b86101b33660046116a4565b610a17565b60405161010f9190611a4a565b61012b6101d33660046115ad565b610ad3565b610140610aee565b6101406101ee3660046115ad565b610dd4565b6101406102013660046116a4565b610e4b565b61012b610ef7565b61014061021c3660046115c8565b610efd565b6060600280548060200260200160405190810160405280929190818152602001828054801561027957602002820191906000526020600020905b81546001600160a01b0316815260019091019060200180831161025b575b5050505050905090565b600454600090600160a81b900460ff16156102b95760405162461bcd60e51b81526004016102b090611ba2565b60405180910390fd5b6004805460ff60a81b1916600160a81b179081905560ff16156102ee5760405162461bcd60e51b81526004016102b090611ce1565b6001600160a01b038416600090815260208190526040902054806103245760405162461bcd60e51b81526004016102b090611b7a565b80841115610330578093505b604051635fb6ec1760e11b81526001600160a01b037f0000000000000000000000000000000000000000000000000000000000000000169063bf6dd82e9061038690889088906107089061a8c0906004016119c1565b60206040518083038186803b15801561039e57600080fd5b505afa1580156103b2573d6000803e3d6000fd5b505050506040513d601f19601f820116820180604052508101906103d69190611820565b6001600160901b031691506000821180156103f15750600084115b61040d5760405162461bcd60e51b81526004016102b090611b51565b8282101561042d5760405162461bcd60e51b81526004016102b090611c59565b6104426001600160a01b03861633308761102d565b61044c818561108b565b6001600160a01b0386166000908152602081815260408083209390935533825260019052205461047c90836110d6565b3360009081526001602052604090205560035461049990836110d6565b6003556040517fcb3c3418fea7cf628767ce27ce6984aca3ce5e4f5f5c892e856e3cb4c52c8163906104d2903390889088908790611901565b60405180910390a1506004805460ff60a81b191690559392505050565b600454600160a81b900460ff16156105195760405162461bcd60e51b81526004016102b090611ba2565b6004805460ff60a81b1916600160a81b179081905560ff1661054d5760405162461bcd60e51b81526004016102b090611ac7565b610556336110fb565b6004805460ff60a81b19169055565b6040516303f294b760e51b81526001600160a01b037f00000000000000000000000000000000000000000000000000000000000000001690637e5296e0906105b2906002906004016119fa565b600060405180830381600087803b1580156105cc57600080fd5b505af11580156105e0573d6000803e3d6000fd5b505050506040513d6000823e601f3d908101601f191682016040526106089190810190611755565b50565b6001600160a01b038216600090815260208190526040812054806106415760405162461bcd60e51b81526004016102b090611b7a565b8083111561064d578092505b604051635fb6ec1760e11b81526000906001600160a01b037f0000000000000000000000000000000000000000000000000000000000000000169063bf6dd82e906106a690889088906107089061a8c0906004016119c1565b60206040518083038186803b1580156106be57600080fd5b505afa1580156106d2573d6000803e3d6000fd5b505050506040513d601f19601f820116820180604052508101906106f69190611820565b95945050505050565b6001600160a01b031660009081526020819052604090205490565b600454600090600160a81b900460ff16156107475760405162461bcd60e51b81526004016102b090611ba2565b6004805460ff60a81b1916600160a81b179081905560ff161561077c5760405162461bcd60e51b81526004016102b090611ce1565b8483811461079c5760405162461bcd60e51b81526004016102b090611c34565b6000915060005b8181101561099c5760008888838181106107b957fe5b90506020020160208101906107ce91906115ad565b905060008787848181106107de57fe5b6001600160a01b03851660009081526020818152604090912054910292909201359250508061081f5760405162461bcd60e51b81526004016102b090611b7a565b8082111561082b578091505b604051635fb6ec1760e11b81526000906001600160a01b037f0000000000000000000000000000000000000000000000000000000000000000169063bf6dd82e9061088490879087906107089061a8c0906004016119c1565b60206040518083038186803b15801561089c57600080fd5b505afa1580156108b0573d6000803e3d6000fd5b505050506040513d601f19601f820116820180604052508101906108d49190611820565b6001600160901b031690506000811180156108ef5750600083115b61090b5760405162461bcd60e51b81526004016102b090611b51565b6109206001600160a01b03851633308661102d565b61092a828461108b565b6001600160a01b03851660009081526020819052604090205561094d87826110d6565b96507fcb3c3418fea7cf628767ce27ce6984aca3ce5e4f5f5c892e856e3cb4c52c8163338585846040516109849493929190611901565b60405180910390a15050600190920191506107a39050565b50828210156109bd5760405162461bcd60e51b81526004016102b090611c59565b336000908152600160205260409020546109d790836110d6565b336000908152600160205260409020556003546109f490836110d6565b600355506004805460ff60a81b1916905595945050505050565b60045460ff1690565b60608167ffffffffffffffff81118015610a3057600080fd5b50604051908082528060200260200182016040528015610a5a578160200160208202803683370190505b50905060005b82811015610acc57600080858584818110610a7757fe5b9050602002016020810190610a8c91906115ad565b6001600160a01b03166001600160a01b0316815260200190815260200160002054828281518110610ab957fe5b6020908102919091010152600101610a60565b5092915050565b6001600160a01b031660009081526001602052604090205490565b600454600160a81b900460ff1615610b185760405162461bcd60e51b81526004016102b090611ba2565b6004805460ff60a81b1916600160a81b179081905560ff1615610b4d5760405162461bcd60e51b81526004016102b090611ce1565b6002547f000000000000000000000000000000000000000000000000000000000000000060608267ffffffffffffffff81118015610b8a57600080fd5b50604051908082528060200260200182016040528015610bb4578160200160208202803683370190505b50905060608367ffffffffffffffff81118015610bd057600080fd5b50604051908082528060200260200182016040528015610bfa578160200160208202803683370190505b50905060005b84811015610d4a57600060028281548110610c1757fe5b9060005260206000200160009054906101000a90046001600160a01b0316905080848381518110610c4457fe5b6001600160a01b0392831660209182029290920101526040516370a0823160e01b81526000918316906370a0823190610c819030906004016118ed565b60206040518083038186803b158015610c9957600080fd5b505afa158015610cad573d6000803e3d6000fd5b505050506040513d601f19601f82011682018060405250810190610cd19190611847565b905080848481518110610ce057fe5b6020908102919091010152600454610d0a906001600160a01b03848116916101009004168361118a565b6001600160a01b03821660009081526020819052604090205415610d405760405162461bcd60e51b81526004016102b090611c08565b5050600101610c00565b5060048054604051636a7a93ed60e01b81526001600160a01b0380871693636a7a93ed93610d8693610100909104909216918791879101611968565b600060405180830381600087803b158015610da057600080fd5b505af1158015610db4573d6000803e3d6000fd5b50506004805460ff60a81b1960ff19909116600117169055505050505050565b600454600160a81b900460ff1615610dfe5760405162461bcd60e51b81526004016102b090611ba2565b6004805460ff60a81b1916600160a81b179081905560ff16610e325760405162461bcd60e51b81526004016102b090611ac7565b610e3b816110fb565b506004805460ff60a81b19169055565b600454600160a81b900460ff1615610e755760405162461bcd60e51b81526004016102b090611ba2565b6004805460ff60a81b1916600160a81b179081905560ff16610ea95760405162461bcd60e51b81526004016102b090611ac7565b60005b81811015610ee557610edd838383818110610ec357fe5b9050602002016020810190610ed891906115ad565b6110fb565b600101610eac565b50506004805460ff60a81b1916905550565b60035490565b336001600160a01b037f00000000000000000000000000000000000000000000000000000000000000001614610f455760405162461bcd60e51b81526004016102b090611a9b565b60045461010090046001600160a01b031615610f735760405162461bcd60e51b81526004016102b090611b28565b60048054610100600160a81b0319166101006001600160a01b0388160217905582818114610fb35760405162461bcd60e51b81526004016102b090611c34565b610fbf600286866114bb565b5060005b8181101561102457838382818110610fd757fe5b90506020020135600080888885818110610fed57fe5b905060200201602081019061100291906115ad565b6001600160a01b03168152602081019190915260400160002055600101610fc3565b50505050505050565b611085846323b872dd60e01b85858560405160240161104e93929190611944565b60408051601f198184030181529190526020810180516001600160e01b03166001600160e01b03199093169290921790915261124d565b50505050565b60006110cd83836040518060400160405280601e81526020017f536166654d6174683a207375627472616374696f6e206f766572666c6f7700008152506112dc565b90505b92915050565b6000828201838110156110cd5760405162461bcd60e51b81526004016102b090611af1565b6001600160a01b038116600090815260016020526040902054806111315760405162461bcd60e51b81526004016102b090611c81565b6003546000906111549061114e68056bc75e2d6310000085611308565b90611342565b6001600160a01b03808516600090815260016020526040812055600454919250611185916101009004168483611384565b505050565b8015806112125750604051636eb1769f60e11b81526001600160a01b0384169063dd62ed3e906111c0903090869060040161192a565b60206040518083038186803b1580156111d857600080fd5b505afa1580156111ec573d6000803e3d6000fd5b505050506040513d601f19601f820116820180604052508101906112109190611847565b155b61122e5760405162461bcd60e51b81526004016102b090611d51565b6111858363095ea7b360e01b848460405160240161104e9291906119a8565b60606112a2826040518060400160405280602081526020017f5361666545524332303a206c6f772d6c6576656c2063616c6c206661696c6564815250856001600160a01b03166113a39092919063ffffffff16565b80519091501561118557808060200190518101906112c09190611800565b6111855760405162461bcd60e51b81526004016102b090611d07565b600081848411156113005760405162461bcd60e51b81526004016102b09190611a68565b505050900390565b600082611317575060006110d0565b8282028284828161132457fe5b04146110cd5760405162461bcd60e51b81526004016102b090611bc7565b60006110cd83836040518060400160405280601a81526020017f536166654d6174683a206469766973696f6e206279207a65726f0000000000008152506113ba565b6111858363a9059cbb60e01b848460405160240161104e9291906119a8565b60606113b284846000856113f1565b949350505050565b600081836113db5760405162461bcd60e51b81526004016102b09190611a68565b5060008385816113e757fe5b0495945050505050565b60606113fc856114b5565b6114185760405162461bcd60e51b81526004016102b090611caa565b60006060866001600160a01b0316858760405161143591906118d1565b60006040518083038185875af1925050503d8060008114611472576040519150601f19603f3d011682016040523d82523d6000602084013e611477565b606091505b5091509150811561148b5791506113b29050565b80511561149b5780518082602001fd5b8360405162461bcd60e51b81526004016102b09190611a68565b3b151590565b82805482825590600052602060002090810192821561150e579160200282015b8281111561150e5781546001600160a01b0319166001600160a01b038435161782556020909201916001909101906114db565b5061151a92915061151e565b5090565b5b8082111561151a5780546001600160a01b031916815560010161151f565b80356001600160a01b03811681146110d057600080fd5b60008083601f840112611565578182fd5b50813567ffffffffffffffff81111561157c578182fd5b602083019150836020808302850101111561159657600080fd5b9250929050565b805180151581146110d057600080fd5b6000602082840312156115be578081fd5b6110cd838361153d565b6000806000806000606086880312156115df578081fd5b6115e9878761153d565b9450602086013567ffffffffffffffff80821115611605578283fd5b61161189838a01611554565b90965094506040880135915080821115611629578283fd5b5061163688828901611554565b969995985093965092949392505050565b60008060408385031215611659578182fd5b611663848461153d565b946020939093013593505050565b600080600060608486031215611685578283fd5b61168f858561153d565b95602085013595506040909401359392505050565b600080602083850312156116b6578182fd5b823567ffffffffffffffff8111156116cc578283fd5b6116d885828601611554565b90969095509350505050565b6000806000806000606086880312156116fb578081fd5b853567ffffffffffffffff80821115611712578283fd5b61171e89838a01611554565b90975095506020880135915080821115611736578283fd5b5061174388828901611554565b96999598509660400135949350505050565b60006020808385031215611767578182fd5b825167ffffffffffffffff8082111561177e578384fd5b818501915085601f830112611791578384fd5b81518181111561179f578485fd5b83810291506117af848301611dc4565b8181528481019084860184860187018a10156117c9578788fd5b8795505b838610156117f3576117df8a8261159d565b8352600195909501949186019186016117cd565b5098975050505050505050565b600060208284031215611811578081fd5b815180151581146110cd578182fd5b600060208284031215611831578081fd5b81516001600160901b03811681146110cd578182fd5b600060208284031215611858578081fd5b5051919050565b6000815180845260208085019450808401835b838110156118975781516001600160a01b031687529582019590820190600101611872565b509495945050505050565b6000815180845260208085019450808401835b83811015611897578151875295820195908201906001016118b5565b600082516118e3818460208701611deb565b9190910192915050565b6001600160a01b0391909116815260200190565b6001600160a01b0394851681529290931660208301526040820152606081019190915260800190565b6001600160a01b0392831681529116602082015260400190565b6001600160a01b039384168152919092166020820152604081019190915260600190565b6001600160a01b038416815260606020820181905260009061198c9083018561185f565b828103604084015261199e81856118a2565b9695505050505050565b6001600160a01b03929092168252602082015260400190565b6001600160a01b0394909416845260208401929092526040830152606082015260800190565b6000602082526110cd602083018461185f565b6020808252825482820181905260008481528281209092916040850190845b81811015611a3e5783546001600160a01b031683526001938401939285019201611a19565b50909695505050505050565b6000602082526110cd60208301846118a2565b901515815260200190565b6000602082528251806020840152611a87816040850160208701611deb565b601f01601f19169190910160400192915050565b60208082526012908201527122a9292fa727aa2fa1a7a72a2927a62622a960711b604082015260600190565b60208082526010908201526f11549497d393d517d192539254d2115160821b604082015260600190565b6020808252601b908201527f536166654d6174683a206164646974696f6e206f766572666c6f770000000000604082015260600190565b6020808252600f908201526e11549497d253925512505312569151608a1b604082015260600190565b6020808252600f908201526e11549497d6915493d7d05353d55395608a1b604082015260600190565b6020808252600e908201526d11549497d393d517d3915151115160921b604082015260600190565b6020808252600b908201526a4552525f5245454e54525960a81b604082015260600190565b60208082526021908201527f536166654d6174683a206d756c7469706c69636174696f6e206f766572666c6f6040820152607760f81b606082015260800190565b6020808252601290820152714552525f50454e44494e475f544f4b454e5360701b604082015260600190565b6020808252600b908201526a22a9292fa0a9292fa622a760a91b604082015260600190565b6020808252600e908201526d11549497d3525397d0d49151125560921b604082015260600190565b6020808252600f908201526e11549497d395531317d0d491511255608a1b604082015260600190565b6020808252601d908201527f416464726573733a2063616c6c20746f206e6f6e2d636f6e7472616374000000604082015260600190565b6020808252600c908201526b11549497d192539254d2115160a21b604082015260600190565b6020808252602a908201527f5361666545524332303a204552433230206f7065726174696f6e20646964206e6040820152691bdd081cdd58d8d9595960b21b606082015260800190565b60208082526036908201527f5361666545524332303a20617070726f76652066726f6d206e6f6e2d7a65726f60408201527520746f206e6f6e2d7a65726f20616c6c6f77616e636560501b606082015260800190565b6001600160901b0391909116815260200190565b90815260200190565b60405181810167ffffffffffffffff81118282101715611de357600080fd5b604052919050565b60005b83811015611e06578181015183820152602001611dee565b83811115611085575050600091015256fea2646970667358221220006297fa8e2c229848f22e2262a439e1202b7b975b6515455507f71135c244b864736f6c634300060c0033",
  "devdoc": {
    "author": "d1ll0n",
    "details": "Contract that acquires the initial balances for an index pool. This uses a short-term UniSwap price oracle to determine the ether value of tokens sent to the contract. When users contribute tokens, they are credited for the moving average ether value of said tokens. When all the tokens needed are acquired, the index pool will be initialized and this contract will receive the initial token supply (100). Once the contract receives the index pool tokens, users can claim their share of the tokens proportional to their credited contribution value.",
    "kind": "dev",
    "methods": {
      "claimTokens()": {
        "details": "Claims the tokens owed to `msg.sender` based on their proportion of the total credits."
      },
      "claimTokens(address)": {
        "details": "Claims the tokens owed to `account` based on their proportion of the total credits."
      },
      "claimTokens(address[])": {
        "details": "Claims the tokens owed to `account` based on their proportion of the total credits."
      },
      "contributeTokens(address,uint256,uint256)": {
        "details": "Contribute up to `amountIn` of `token` to the pool for credit. The caller will be credited for the average weth value of the provided tokens. Caller must receive at least `minimumCredit` to not revert. If `amountIn` is greater than the desired amount of `token`, the desired amount will be used instead. "
      },
      "contributeTokens(address[],uint256[],uint256)": {
        "details": "Contribute maximum values from `amountsIn` of the corresponding tokens in `tokens` to the pool for credit. The caller will be credited for the average weth value of the provided tokens. Caller must receive at least `minimumCredit` to not revert. If any input amount is greater than the desired amount of the corresponding token, the desired amount will be used instead."
      },
      "finish()": {
        "details": "Finishes the pre-deployment pool and triggers pool initialization. Note: The desired amounts of all tokens must be 0."
      },
      "getCreditForTokens(address,uint256)": {
        "details": "Get the amount of WETH the contract will credit a user for providing `amountIn` of `token`. Note: If `amountIn` is greater than the desired amount of `token`, this will calculate the output using the desired amount instead of `amountIn`."
      },
      "getCreditOf(address)": {
        "details": "Returns the amount of credit owed to `account`."
      },
      "getTotalCredit()": {
        "details": "Returns the total value credited for token contributions."
      },
      "initialize(address,address[],uint256[])": {
        "details": "Sets up the pre-deployment pool.",
        "params": {
          "amounts": "Desired amounts of the corresponding `tokens`",
          "poolAddress": "Address of the pool this pre-deployment pool is for",
          "tokens": "Array of desired tokens"
        }
      },
      "isFinished()": {
        "details": "Returns whether the pool has been initialized."
      },
      "updatePrices()": {
        "details": "Updates the prices of all tokens."
      }
    },
    "title": "PoolInitializer",
    "version": 1
  },
  "userdoc": {
    "kind": "user",
    "methods": {},
    "version": 1
  },
  "storageLayout": {
    "storage": [
      {
        "astId": 5744,
        "contract": "contracts/PoolInitializer.sol:PoolInitializer",
        "label": "_remainingDesiredAmounts",
        "offset": 0,
        "slot": "0",
        "type": "t_mapping(t_address,t_uint256)"
      },
      {
        "astId": 5748,
        "contract": "contracts/PoolInitializer.sol:PoolInitializer",
        "label": "_credits",
        "offset": 0,
        "slot": "1",
        "type": "t_mapping(t_address,t_uint256)"
      },
      {
        "astId": 5751,
        "contract": "contracts/PoolInitializer.sol:PoolInitializer",
        "label": "_tokens",
        "offset": 0,
        "slot": "2",
        "type": "t_array(t_address)dyn_storage"
      },
      {
        "astId": 5753,
        "contract": "contracts/PoolInitializer.sol:PoolInitializer",
        "label": "_totalCredit",
        "offset": 0,
        "slot": "3",
        "type": "t_uint256"
      },
      {
        "astId": 5755,
        "contract": "contracts/PoolInitializer.sol:PoolInitializer",
        "label": "_finished",
        "offset": 0,
        "slot": "4",
        "type": "t_bool"
      },
      {
        "astId": 5757,
        "contract": "contracts/PoolInitializer.sol:PoolInitializer",
        "label": "_poolAddress",
        "offset": 1,
        "slot": "4",
        "type": "t_address"
      },
      {
        "astId": 5759,
        "contract": "contracts/PoolInitializer.sol:PoolInitializer",
        "label": "_mutex",
        "offset": 21,
        "slot": "4",
        "type": "t_bool"
      }
    ],
    "types": {
      "t_address": {
        "encoding": "inplace",
        "label": "address",
        "numberOfBytes": "20"
      },
      "t_array(t_address)dyn_storage": {
        "base": "t_address",
        "encoding": "dynamic_array",
        "label": "address[]",
        "numberOfBytes": "32"
      },
      "t_bool": {
        "encoding": "inplace",
        "label": "bool",
        "numberOfBytes": "1"
      },
      "t_mapping(t_address,t_uint256)": {
        "encoding": "mapping",
        "key": "t_address",
        "label": "mapping(address => uint256)",
        "numberOfBytes": "32",
        "value": "t_uint256"
      },
      "t_uint256": {
        "encoding": "inplace",
        "label": "uint256",
        "numberOfBytes": "32"
      }
    }
  },
  "gasEstimates": {
    "creation": {
      "codeDepositCost": "1551400",
      "executionCost": "infinite",
      "totalCost": "infinite"
    },
    "external": {
      "claimTokens()": "infinite",
      "claimTokens(address)": "infinite",
      "claimTokens(address[])": "infinite",
      "contributeTokens(address,uint256,uint256)": "infinite",
      "contributeTokens(address[],uint256[],uint256)": "infinite",
      "finish()": "infinite",
      "getCreditForTokens(address,uint256)": "infinite",
      "getCreditOf(address)": "infinite",
      "getDesiredAmount(address)": "infinite",
      "getDesiredAmounts(address[])": "infinite",
      "getDesiredTokens()": "infinite",
      "getTotalCredit()": "1094",
      "initialize(address,address[],uint256[])": "infinite",
      "isFinished()": "1063",
      "updatePrices()": "infinite"
    },
    "internal": {
      "_claimTokens(address)": "infinite"
    }
  }
}