{
  "abi": [
    {
      "inputs": [
        {
          "internalType": "contract IIndexedUniswapV2Oracle",
          "name": "oracle_",
          "type": "address"
        },
        {
          "internalType": "address",
          "name": "controller_",
          "type": "address"
        }
      ],
      "stateMutability": "nonpayable",
      "type": "constructor"
    },
    {
      "anonymous": false,
      "inputs": [
        {
          "indexed": false,
          "internalType": "address",
          "name": "account",
          "type": "address"
        },
        {
          "indexed": false,
          "internalType": "uint256",
          "name": "tokens",
          "type": "uint256"
        }
      ],
      "name": "TokensClaimed",
      "type": "event"
    },
    {
      "anonymous": false,
      "inputs": [
        {
          "indexed": false,
          "internalType": "address",
          "name": "from",
          "type": "address"
        },
        {
          "indexed": false,
          "internalType": "address",
          "name": "token",
          "type": "address"
        },
        {
          "indexed": false,
          "internalType": "uint256",
          "name": "amount",
          "type": "uint256"
        },
        {
          "indexed": false,
          "internalType": "uint256",
          "name": "credit",
          "type": "uint256"
        }
      ],
      "name": "TokensContributed",
      "type": "event"
    },
    {
      "inputs": [],
      "name": "claimTokens",
      "outputs": [],
      "stateMutability": "nonpayable",
      "type": "function"
    },
    {
      "inputs": [
        {
          "internalType": "address",
          "name": "account",
          "type": "address"
        }
      ],
      "name": "claimTokens",
      "outputs": [],
      "stateMutability": "nonpayable",
      "type": "function"
    },
    {
      "inputs": [
        {
          "internalType": "address[]",
          "name": "accounts",
          "type": "address[]"
        }
      ],
      "name": "claimTokens",
      "outputs": [],
      "stateMutability": "nonpayable",
      "type": "function"
    },
    {
      "inputs": [
        {
          "internalType": "address",
          "name": "token",
          "type": "address"
        },
        {
          "internalType": "uint256",
          "name": "amountIn",
          "type": "uint256"
        },
        {
          "internalType": "uint256",
          "name": "minimumCredit",
          "type": "uint256"
        }
      ],
      "name": "contributeTokens",
      "outputs": [
        {
          "internalType": "uint256",
          "name": "credit",
          "type": "uint256"
        }
      ],
      "stateMutability": "nonpayable",
      "type": "function"
    },
    {
      "inputs": [
        {
          "internalType": "address[]",
          "name": "tokens",
          "type": "address[]"
        },
        {
          "internalType": "uint256[]",
          "name": "amountsIn",
          "type": "uint256[]"
        },
        {
          "internalType": "uint256",
          "name": "minimumCredit",
          "type": "uint256"
        }
      ],
      "name": "contributeTokens",
      "outputs": [
        {
          "internalType": "uint256",
          "name": "credit",
          "type": "uint256"
        }
      ],
      "stateMutability": "nonpayable",
      "type": "function"
    },
    {
      "inputs": [],
      "name": "controller",
      "outputs": [
        {
          "internalType": "address",
          "name": "",
          "type": "address"
        }
      ],
      "stateMutability": "view",
      "type": "function"
    },
    {
      "inputs": [],
      "name": "finish",
      "outputs": [],
      "stateMutability": "nonpayable",
      "type": "function"
    },
    {
      "inputs": [
        {
          "internalType": "address",
          "name": "token",
          "type": "address"
        },
        {
          "internalType": "uint256",
          "name": "amountIn",
          "type": "uint256"
        }
      ],
      "name": "getCreditForTokens",
      "outputs": [
        {
          "internalType": "uint144",
          "name": "amountOut",
          "type": "uint144"
        }
      ],
      "stateMutability": "view",
      "type": "function"
    },
    {
      "inputs": [
        {
          "internalType": "address",
          "name": "account",
          "type": "address"
        }
      ],
      "name": "getCreditOf",
      "outputs": [
        {
          "internalType": "uint256",
          "name": "",
          "type": "uint256"
        }
      ],
      "stateMutability": "view",
      "type": "function"
    },
    {
      "inputs": [
        {
          "internalType": "address",
          "name": "token",
          "type": "address"
        }
      ],
      "name": "getDesiredAmount",
      "outputs": [
        {
          "internalType": "uint256",
          "name": "",
          "type": "uint256"
        }
      ],
      "stateMutability": "view",
      "type": "function"
    },
    {
      "inputs": [
        {
          "internalType": "address[]",
          "name": "tokens",
          "type": "address[]"
        }
      ],
      "name": "getDesiredAmounts",
      "outputs": [
        {
          "internalType": "uint256[]",
          "name": "amounts",
          "type": "uint256[]"
        }
      ],
      "stateMutability": "view",
      "type": "function"
    },
    {
      "inputs": [],
      "name": "getDesiredTokens",
      "outputs": [
        {
          "internalType": "address[]",
          "name": "tokens",
          "type": "address[]"
        }
      ],
      "stateMutability": "view",
      "type": "function"
    },
    {
      "inputs": [],
      "name": "getTotalCredit",
      "outputs": [
        {
          "internalType": "uint256",
          "name": "",
          "type": "uint256"
        }
      ],
      "stateMutability": "view",
      "type": "function"
    },
    {
      "inputs": [
        {
          "internalType": "address",
          "name": "poolAddress",
          "type": "address"
        },
        {
          "internalType": "address[]",
          "name": "tokens",
          "type": "address[]"
        },
        {
          "internalType": "uint256[]",
          "name": "amounts",
          "type": "uint256[]"
        }
      ],
      "name": "initialize",
      "outputs": [],
      "stateMutability": "nonpayable",
      "type": "function"
    },
    {
      "inputs": [],
      "name": "isFinished",
      "outputs": [
        {
          "internalType": "bool",
          "name": "",
          "type": "bool"
        }
      ],
      "stateMutability": "view",
      "type": "function"
    },
    {
      "inputs": [],
      "name": "oracle",
      "outputs": [
        {
          "internalType": "contract IIndexedUniswapV2Oracle",
          "name": "",
          "type": "address"
        }
      ],
      "stateMutability": "view",
      "type": "function"
    },
    {
      "inputs": [],
      "name": "updatePrices",
      "outputs": [],
      "stateMutability": "nonpayable",
      "type": "function"
    }
  ],
  "address": "0xaa807090f87451C7a947C740D6e5c982818aFB4c",
  "args": [
    "0xe351Dc5542C9aD053c75C4e712ee6Bc5EA92AE31",
    "0xc4eF5556786fa4a2cDc10fc75e8CEFd7E0056cB5"
  ],
  "solcInputHash": "0x2b1ad74f27af9582ae937ee76462521ccafe3f9e4e0614f93ff179db88da0c5a",
  "bytecode": "0x60c06040523480156200001157600080fd5b5060405162001fff38038062001fff833981016040819052620000349162000053565b6001600160601b0319606092831b811660a052911b16608052620000aa565b6000806040838503121562000066578182fd5b8251620000738162000091565b6020840151909250620000868162000091565b809150509250929050565b6001600160a01b0381168114620000a757600080fd5b50565b60805160601c60a05160601c611f0d620000f26000398061037a52806105af528061069a52806108775280610a4a525080610ba75280610f545280610f815250611f0d6000f3fe608060405234801561001057600080fd5b506004361061010b5760003560e01c80637dc0d1d0116100a2578063df8de3e711610071578063df8de3e71461020b578063eef72a3c1461021e578063f305760814610231578063f77c479114610239578063ff1d5752146102415761010b565b80637dc0d1d0146101bb578063b40bd3c2146101d0578063c97ab30c146101f0578063d56b2889146102035761010b565b80634a1bc547116100de5780634a1bc547146101605780634a7f360c14610180578063636a2159146101935780637b352962146101a65761010b565b80631074fafb1461011057806327b978231461012e57806348c54b9d1461014e57806349dd126214610158575b600080fd5b610118610254565b6040516101259190611aa7565b60405180910390f35b61014161013c366004611728565b6102b6565b6040516101259190611e7b565b610156610522565b005b610156610598565b61017361016e3660046116fe565b61063e565b6040516101259190611e67565b61014161018e366004611664565b610731565b6101416101a136600461179b565b61074c565b6101ae610a3f565b6040516101259190611b1d565b6101c3610a48565b60405161012591906119a4565b6101e36101de36600461175b565b610a6c565b6040516101259190611b0a565b6101416101fe366004611664565b610b28565b610156610b43565b610156610219366004611664565b610e29565b61015661022c36600461175b565b610ea0565b610141610f4c565b6101c3610f52565b61015661024f36600461167f565b610f76565b606060028054806020026020016040519081016040528092919081815260200182805480156102ac57602002820191906000526020600020905b81546001600160a01b0316815260019091019060200180831161028e575b5050505050905090565b600454600090600160a81b900460ff16156102ec5760405162461bcd60e51b81526004016102e390611c62565b60405180910390fd5b6004805460ff60a81b1916600160a81b179081905560ff16156103215760405162461bcd60e51b81526004016102e390611da1565b6001600160a01b038416600090815260208190526040902054806103575760405162461bcd60e51b81526004016102e390611c3a565b80841115610363578093505b604051635fb6ec1760e11b81526001600160a01b037f0000000000000000000000000000000000000000000000000000000000000000169063bf6dd82e906103b9908890889060009062093a8090600401611a78565b60206040518083038186803b1580156103d157600080fd5b505afa1580156103e5573d6000803e3d6000fd5b505050506040513d601f19601f8201168201806040525081019061040991906118d7565b6001600160901b031691506000821180156104245750600084115b6104405760405162461bcd60e51b81526004016102e390611c11565b828210156104605760405162461bcd60e51b81526004016102e390611d19565b6104756001600160a01b0386163330876110a6565b61047f8185611104565b6001600160a01b038616600090815260208181526040808320939093553382526001905220546104af908361114f565b336000908152600160205260409020556003546104cc908361114f565b6003556040517fcb3c3418fea7cf628767ce27ce6984aca3ce5e4f5f5c892e856e3cb4c52c8163906105059033908890889087906119b8565b60405180910390a1506004805460ff60a81b191690559392505050565b600454600160a81b900460ff161561054c5760405162461bcd60e51b81526004016102e390611c62565b6004805460ff60a81b1916600160a81b179081905560ff166105805760405162461bcd60e51b81526004016102e390611b87565b61058933611174565b6004805460ff60a81b19169055565b6040516303f294b760e51b81526001600160a01b037f00000000000000000000000000000000000000000000000000000000000000001690637e5296e0906105e590600290600401611aba565b600060405180830381600087803b1580156105ff57600080fd5b505af1158015610613573d6000803e3d6000fd5b505050506040513d6000823e601f3d908101601f1916820160405261063b919081019061180c565b50565b6001600160a01b038216600090815260208190526040812054806106745760405162461bcd60e51b81526004016102e390611c3a565b80831115610680578092505b604051635fb6ec1760e11b81526000906001600160a01b037f0000000000000000000000000000000000000000000000000000000000000000169063bf6dd82e906106d89088908890869062093a8090600401611a78565b60206040518083038186803b1580156106f057600080fd5b505afa158015610704573d6000803e3d6000fd5b505050506040513d601f19601f8201168201806040525081019061072891906118d7565b95945050505050565b6001600160a01b031660009081526020819052604090205490565b600454600090600160a81b900460ff16156107795760405162461bcd60e51b81526004016102e390611c62565b6004805460ff60a81b1916600160a81b179081905560ff16156107ae5760405162461bcd60e51b81526004016102e390611da1565b848381146107ce5760405162461bcd60e51b81526004016102e390611cf4565b6000915060005b818110156109cd5760008888838181106107eb57fe5b90506020020160208101906108009190611664565b9050600087878481811061081057fe5b6001600160a01b0385166000908152602081815260409091205491029290920135925050806108515760405162461bcd60e51b81526004016102e390611c3a565b8082111561085d578091505b604051635fb6ec1760e11b81526000906001600160a01b037f0000000000000000000000000000000000000000000000000000000000000000169063bf6dd82e906108b59087908790869062093a8090600401611a78565b60206040518083038186803b1580156108cd57600080fd5b505afa1580156108e1573d6000803e3d6000fd5b505050506040513d601f19601f8201168201806040525081019061090591906118d7565b6001600160901b031690506000811180156109205750600083115b61093c5760405162461bcd60e51b81526004016102e390611c11565b6109516001600160a01b0385163330866110a6565b61095b8284611104565b6001600160a01b03851660009081526020819052604090205561097e878261114f565b96507fcb3c3418fea7cf628767ce27ce6984aca3ce5e4f5f5c892e856e3cb4c52c8163338585846040516109b594939291906119b8565b60405180910390a15050600190920191506107d59050565b50828210156109ee5760405162461bcd60e51b81526004016102e390611d19565b33600090815260016020526040902054610a08908361114f565b33600090815260016020526040902055600354610a25908361114f565b600355506004805460ff60a81b1916905595945050505050565b60045460ff1690565b7f000000000000000000000000000000000000000000000000000000000000000081565b60608167ffffffffffffffff81118015610a8557600080fd5b50604051908082528060200260200182016040528015610aaf578160200160208202803683370190505b50905060005b82811015610b2157600080858584818110610acc57fe5b9050602002016020810190610ae19190611664565b6001600160a01b03166001600160a01b0316815260200190815260200160002054828281518110610b0e57fe5b6020908102919091010152600101610ab5565b5092915050565b6001600160a01b031660009081526001602052604090205490565b600454600160a81b900460ff1615610b6d5760405162461bcd60e51b81526004016102e390611c62565b6004805460ff60a81b1916600160a81b179081905560ff1615610ba25760405162461bcd60e51b81526004016102e390611da1565b6002547f000000000000000000000000000000000000000000000000000000000000000060608267ffffffffffffffff81118015610bdf57600080fd5b50604051908082528060200260200182016040528015610c09578160200160208202803683370190505b50905060608367ffffffffffffffff81118015610c2557600080fd5b50604051908082528060200260200182016040528015610c4f578160200160208202803683370190505b50905060005b84811015610d9f57600060028281548110610c6c57fe5b9060005260206000200160009054906101000a90046001600160a01b0316905080848381518110610c9957fe5b6001600160a01b0392831660209182029290920101526040516370a0823160e01b81526000918316906370a0823190610cd69030906004016119a4565b60206040518083038186803b158015610cee57600080fd5b505afa158015610d02573d6000803e3d6000fd5b505050506040513d601f19601f82011682018060405250810190610d2691906118fe565b905080848481518110610d3557fe5b6020908102919091010152600454610d5f906001600160a01b03848116916101009004168361123c565b6001600160a01b03821660009081526020819052604090205415610d955760405162461bcd60e51b81526004016102e390611cc8565b5050600101610c55565b5060048054604051636a7a93ed60e01b81526001600160a01b0380871693636a7a93ed93610ddb93610100909104909216918791879101611a1f565b600060405180830381600087803b158015610df557600080fd5b505af1158015610e09573d6000803e3d6000fd5b50506004805460ff60a81b1960ff19909116600117169055505050505050565b600454600160a81b900460ff1615610e535760405162461bcd60e51b81526004016102e390611c62565b6004805460ff60a81b1916600160a81b179081905560ff16610e875760405162461bcd60e51b81526004016102e390611b87565b610e9081611174565b506004805460ff60a81b19169055565b600454600160a81b900460ff1615610eca5760405162461bcd60e51b81526004016102e390611c62565b6004805460ff60a81b1916600160a81b179081905560ff16610efe5760405162461bcd60e51b81526004016102e390611b87565b60005b81811015610f3a57610f32838383818110610f1857fe5b9050602002016020810190610f2d9190611664565b611174565b600101610f01565b50506004805460ff60a81b1916905550565b60035490565b7f000000000000000000000000000000000000000000000000000000000000000081565b336001600160a01b037f00000000000000000000000000000000000000000000000000000000000000001614610fbe5760405162461bcd60e51b81526004016102e390611b5b565b60045461010090046001600160a01b031615610fec5760405162461bcd60e51b81526004016102e390611be8565b60048054610100600160a81b0319166101006001600160a01b038816021790558281811461102c5760405162461bcd60e51b81526004016102e390611cf4565b61103860028686611572565b5060005b8181101561109d5783838281811061105057fe5b9050602002013560008088888581811061106657fe5b905060200201602081019061107b9190611664565b6001600160a01b0316815260208101919091526040016000205560010161103c565b50505050505050565b6110fe846323b872dd60e01b8585856040516024016110c7939291906119fb565b60408051601f198184030181529190526020810180516001600160e01b03166001600160e01b031990931692909217909152611304565b50505050565b600061114683836040518060400160405280601e81526020017f536166654d6174683a207375627472616374696f6e206f766572666c6f770000815250611393565b90505b92915050565b6000828201838110156111465760405162461bcd60e51b81526004016102e390611bb1565b6001600160a01b038116600090815260016020526040902054806111aa5760405162461bcd60e51b81526004016102e390611d41565b6003546000906111cd906111c768056bc75e2d63100000856113bf565b906113f9565b6001600160a01b038085166000908152600160205260408120556004549192506111fe91610100900416848361143b565b7f896e034966eaaf1adc54acc0f257056febbd300c9e47182cf761982cf1f5e430838260405161122f929190611a5f565b60405180910390a1505050565b8015806112c45750604051636eb1769f60e11b81526001600160a01b0384169063dd62ed3e9061127290309086906004016119e1565b60206040518083038186803b15801561128a57600080fd5b505afa15801561129e573d6000803e3d6000fd5b505050506040513d601f19601f820116820180604052508101906112c291906118fe565b155b6112e05760405162461bcd60e51b81526004016102e390611e11565b6112ff8363095ea7b360e01b84846040516024016110c7929190611a5f565b505050565b6060611359826040518060400160405280602081526020017f5361666545524332303a206c6f772d6c6576656c2063616c6c206661696c6564815250856001600160a01b031661145a9092919063ffffffff16565b8051909150156112ff578080602001905181019061137791906118b7565b6112ff5760405162461bcd60e51b81526004016102e390611dc7565b600081848411156113b75760405162461bcd60e51b81526004016102e39190611b28565b505050900390565b6000826113ce57506000611149565b828202828482816113db57fe5b04146111465760405162461bcd60e51b81526004016102e390611c87565b600061114683836040518060400160405280601a81526020017f536166654d6174683a206469766973696f6e206279207a65726f000000000000815250611471565b6112ff8363a9059cbb60e01b84846040516024016110c7929190611a5f565b606061146984846000856114a8565b949350505050565b600081836114925760405162461bcd60e51b81526004016102e39190611b28565b50600083858161149e57fe5b0495945050505050565b60606114b38561156c565b6114cf5760405162461bcd60e51b81526004016102e390611d6a565b60006060866001600160a01b031685876040516114ec9190611988565b60006040518083038185875af1925050503d8060008114611529576040519150601f19603f3d011682016040523d82523d6000602084013e61152e565b606091505b509150915081156115425791506114699050565b8051156115525780518082602001fd5b8360405162461bcd60e51b81526004016102e39190611b28565b3b151590565b8280548282559060005260206000209081019282156115c5579160200282015b828111156115c55781546001600160a01b0319166001600160a01b03843516178255602090920191600190910190611592565b506115d19291506115d5565b5090565b5b808211156115d15780546001600160a01b03191681556001016115d6565b80356001600160a01b038116811461114957600080fd5b60008083601f84011261161c578182fd5b50813567ffffffffffffffff811115611633578182fd5b602083019150836020808302850101111561164d57600080fd5b9250929050565b8051801515811461114957600080fd5b600060208284031215611675578081fd5b61114683836115f4565b600080600080600060608688031215611696578081fd5b6116a087876115f4565b9450602086013567ffffffffffffffff808211156116bc578283fd5b6116c889838a0161160b565b909650945060408801359150808211156116e0578283fd5b506116ed8882890161160b565b969995985093965092949392505050565b60008060408385031215611710578182fd5b61171a84846115f4565b946020939093013593505050565b60008060006060848603121561173c578283fd5b61174685856115f4565b95602085013595506040909401359392505050565b6000806020838503121561176d578182fd5b823567ffffffffffffffff811115611783578283fd5b61178f8582860161160b565b90969095509350505050565b6000806000806000606086880312156117b2578081fd5b853567ffffffffffffffff808211156117c9578283fd5b6117d589838a0161160b565b909750955060208801359150808211156117ed578283fd5b506117fa8882890161160b565b96999598509660400135949350505050565b6000602080838503121561181e578182fd5b825167ffffffffffffffff80821115611835578384fd5b818501915085601f830112611848578384fd5b815181811115611856578485fd5b8381029150611866848301611e84565b8181528481019084860184860187018a1015611880578788fd5b8795505b838610156118aa576118968a82611654565b835260019590950194918601918601611884565b5098975050505050505050565b6000602082840312156118c8578081fd5b81518015158114611146578182fd5b6000602082840312156118e8578081fd5b81516001600160901b0381168114611146578182fd5b60006020828403121561190f578081fd5b5051919050565b6000815180845260208085019450808401835b8381101561194e5781516001600160a01b031687529582019590820190600101611929565b509495945050505050565b6000815180845260208085019450808401835b8381101561194e5781518752958201959082019060010161196c565b6000825161199a818460208701611eab565b9190910192915050565b6001600160a01b0391909116815260200190565b6001600160a01b0394851681529290931660208301526040820152606081019190915260800190565b6001600160a01b0392831681529116602082015260400190565b6001600160a01b039384168152919092166020820152604081019190915260600190565b6001600160a01b0384168152606060208201819052600090611a4390830185611916565b8281036040840152611a558185611959565b9695505050505050565b6001600160a01b03929092168252602082015260400190565b6001600160a01b03949094168452602084019290925263ffffffff908116604084015216606082015260800190565b6000602082526111466020830184611916565b6020808252825482820181905260008481528281209092916040850190845b81811015611afe5783546001600160a01b031683526001938401939285019201611ad9565b50909695505050505050565b6000602082526111466020830184611959565b901515815260200190565b6000602082528251806020840152611b47816040850160208701611eab565b601f01601f19169190910160400192915050565b60208082526012908201527122a9292fa727aa2fa1a7a72a2927a62622a960711b604082015260600190565b60208082526010908201526f11549497d393d517d192539254d2115160821b604082015260600190565b6020808252601b908201527f536166654d6174683a206164646974696f6e206f766572666c6f770000000000604082015260600190565b6020808252600f908201526e11549497d253925512505312569151608a1b604082015260600190565b6020808252600f908201526e11549497d6915493d7d05353d55395608a1b604082015260600190565b6020808252600e908201526d11549497d393d517d3915151115160921b604082015260600190565b6020808252600b908201526a4552525f5245454e54525960a81b604082015260600190565b60208082526021908201527f536166654d6174683a206d756c7469706c69636174696f6e206f766572666c6f6040820152607760f81b606082015260800190565b6020808252601290820152714552525f50454e44494e475f544f4b454e5360701b604082015260600190565b6020808252600b908201526a22a9292fa0a9292fa622a760a91b604082015260600190565b6020808252600e908201526d11549497d3525397d0d49151125560921b604082015260600190565b6020808252600f908201526e11549497d395531317d0d491511255608a1b604082015260600190565b6020808252601d908201527f416464726573733a2063616c6c20746f206e6f6e2d636f6e7472616374000000604082015260600190565b6020808252600c908201526b11549497d192539254d2115160a21b604082015260600190565b6020808252602a908201527f5361666545524332303a204552433230206f7065726174696f6e20646964206e6040820152691bdd081cdd58d8d9595960b21b606082015260800190565b60208082526036908201527f5361666545524332303a20617070726f76652066726f6d206e6f6e2d7a65726f60408201527520746f206e6f6e2d7a65726f20616c6c6f77616e636560501b606082015260800190565b6001600160901b0391909116815260200190565b90815260200190565b60405181810167ffffffffffffffff81118282101715611ea357600080fd5b604052919050565b60005b83811015611ec6578181015183820152602001611eae565b838111156110fe575050600091015256fea264697066735822122032363f1fc10e422f7754346e95b045f5be324978a2eb2f264504201991e9caaf64736f6c634300060c0033",
  "devdoc": {
    "author": "d1ll0n",
    "details": "Contract that acquires the initial balances for an index pool. This uses a short-term UniSwap price oracle to determine the ether value of tokens sent to the contract. When users contribute tokens, they are credited for the moving average ether value of said tokens. When all the tokens needed are acquired, the index pool will be initialized and this contract will receive the initial token supply (100). Once the contract receives the index pool tokens, users can claim their share of the tokens proportional to their credited contribution value.",
    "kind": "dev",
    "methods": {
      "claimTokens()": {
        "details": "Claims the tokens owed to `msg.sender` based on their proportion of the total credits."
      },
      "claimTokens(address)": {
        "details": "Claims the tokens owed to `account` based on their proportion of the total credits."
      },
      "claimTokens(address[])": {
        "details": "Claims the tokens owed to `account` based on their proportion of the total credits."
      },
      "contributeTokens(address,uint256,uint256)": {
        "details": "Contribute up to `amountIn` of `token` to the pool for credit. The caller will be credited for the average weth value of the provided tokens. Caller must receive at least `minimumCredit` to not revert. If `amountIn` is greater than the desired amount of `token`, the desired amount will be used instead. "
      },
      "contributeTokens(address[],uint256[],uint256)": {
        "details": "Contribute maximum values from `amountsIn` of the corresponding tokens in `tokens` to the pool for credit. The caller will be credited for the average weth value of the provided tokens. Caller must receive at least `minimumCredit` to not revert. If any input amount is greater than the desired amount of the corresponding token, the desired amount will be used instead."
      },
      "finish()": {
        "details": "Finishes the pre-deployment pool and triggers pool initialization. Note: The desired amounts of all tokens must be 0."
      },
      "getCreditForTokens(address,uint256)": {
        "details": "Get the amount of WETH the contract will credit a user for providing `amountIn` of `token`. Note: If `amountIn` is greater than the desired amount of `token`, this will calculate the output using the desired amount instead of `amountIn`."
      },
      "getCreditOf(address)": {
        "details": "Returns the amount of credit owed to `account`."
      },
      "getTotalCredit()": {
        "details": "Returns the total value credited for token contributions."
      },
      "initialize(address,address[],uint256[])": {
        "details": "Sets up the pre-deployment pool.",
        "params": {
          "amounts": "Desired amounts of the corresponding `tokens`",
          "poolAddress": "Address of the pool this pre-deployment pool is for",
          "tokens": "Array of desired tokens"
        }
      },
      "isFinished()": {
        "details": "Returns whether the pool has been initialized."
      },
      "updatePrices()": {
        "details": "Updates the prices of all tokens."
      }
    },
    "title": "PoolInitializer",
    "version": 1
  },
  "userdoc": {
    "kind": "user",
    "methods": {},
    "version": 1
  },
  "storageLayout": {
    "storage": [
      {
        "astId": 2178,
        "contract": "temp-contracts/PoolInitializer.sol:PoolInitializer",
        "label": "_remainingDesiredAmounts",
        "offset": 0,
        "slot": "0",
        "type": "t_mapping(t_address,t_uint256)"
      },
      {
        "astId": 2182,
        "contract": "temp-contracts/PoolInitializer.sol:PoolInitializer",
        "label": "_credits",
        "offset": 0,
        "slot": "1",
        "type": "t_mapping(t_address,t_uint256)"
      },
      {
        "astId": 2185,
        "contract": "temp-contracts/PoolInitializer.sol:PoolInitializer",
        "label": "_tokens",
        "offset": 0,
        "slot": "2",
        "type": "t_array(t_address)dyn_storage"
      },
      {
        "astId": 2187,
        "contract": "temp-contracts/PoolInitializer.sol:PoolInitializer",
        "label": "_totalCredit",
        "offset": 0,
        "slot": "3",
        "type": "t_uint256"
      },
      {
        "astId": 2189,
        "contract": "temp-contracts/PoolInitializer.sol:PoolInitializer",
        "label": "_finished",
        "offset": 0,
        "slot": "4",
        "type": "t_bool"
      },
      {
        "astId": 2191,
        "contract": "temp-contracts/PoolInitializer.sol:PoolInitializer",
        "label": "_poolAddress",
        "offset": 1,
        "slot": "4",
        "type": "t_address"
      },
      {
        "astId": 2193,
        "contract": "temp-contracts/PoolInitializer.sol:PoolInitializer",
        "label": "_mutex",
        "offset": 21,
        "slot": "4",
        "type": "t_bool"
      }
    ],
    "types": {
      "t_address": {
        "encoding": "inplace",
        "label": "address",
        "numberOfBytes": "20"
      },
      "t_array(t_address)dyn_storage": {
        "base": "t_address",
        "encoding": "dynamic_array",
        "label": "address[]",
        "numberOfBytes": "32"
      },
      "t_bool": {
        "encoding": "inplace",
        "label": "bool",
        "numberOfBytes": "1"
      },
      "t_mapping(t_address,t_uint256)": {
        "encoding": "mapping",
        "key": "t_address",
        "label": "mapping(address => uint256)",
        "numberOfBytes": "32",
        "value": "t_uint256"
      },
      "t_uint256": {
        "encoding": "inplace",
        "label": "uint256",
        "numberOfBytes": "32"
      }
    }
  },
  "gasEstimates": {
    "creation": {
      "codeDepositCost": "1589800",
      "executionCost": "infinite",
      "totalCost": "infinite"
    },
    "external": {
      "claimTokens()": "infinite",
      "claimTokens(address)": "infinite",
      "claimTokens(address[])": "infinite",
      "contributeTokens(address,uint256,uint256)": "infinite",
      "contributeTokens(address[],uint256[],uint256)": "infinite",
      "controller()": "infinite",
      "finish()": "infinite",
      "getCreditForTokens(address,uint256)": "infinite",
      "getCreditOf(address)": "infinite",
      "getDesiredAmount(address)": "infinite",
      "getDesiredAmounts(address[])": "infinite",
      "getDesiredTokens()": "infinite",
      "getTotalCredit()": "1094",
      "initialize(address,address[],uint256[])": "infinite",
      "isFinished()": "1129",
      "oracle()": "infinite",
      "updatePrices()": "infinite"
    },
    "internal": {
      "_claimTokens(address)": "infinite"
    }
  }
}