{
  "abi": [
    {
      "inputs": [
        {
          "internalType": "contract IDelegateCallProxyManager",
          "name": "proxyManager_",
          "type": "address"
        }
      ],
      "stateMutability": "nonpayable",
      "type": "constructor"
    },
    {
      "anonymous": false,
      "inputs": [
        {
          "indexed": false,
          "internalType": "address",
          "name": "pool",
          "type": "address"
        },
        {
          "indexed": false,
          "internalType": "address",
          "name": "controller",
          "type": "address"
        },
        {
          "indexed": false,
          "internalType": "bytes32",
          "name": "implementationID",
          "type": "bytes32"
        }
      ],
      "name": "NewPool",
      "type": "event"
    },
    {
      "anonymous": false,
      "inputs": [
        {
          "indexed": true,
          "internalType": "address",
          "name": "previousOwner",
          "type": "address"
        },
        {
          "indexed": true,
          "internalType": "address",
          "name": "newOwner",
          "type": "address"
        }
      ],
      "name": "OwnershipTransferred",
      "type": "event"
    },
    {
      "inputs": [
        {
          "internalType": "address",
          "name": "controller",
          "type": "address"
        }
      ],
      "name": "approvePoolController",
      "outputs": [],
      "stateMutability": "nonpayable",
      "type": "function"
    },
    {
      "inputs": [
        {
          "internalType": "bytes32",
          "name": "implementationID",
          "type": "bytes32"
        },
        {
          "internalType": "address",
          "name": "controller",
          "type": "address"
        },
        {
          "internalType": "bytes32",
          "name": "controllerSalt",
          "type": "bytes32"
        }
      ],
      "name": "computePoolAddress",
      "outputs": [
        {
          "internalType": "address",
          "name": "",
          "type": "address"
        }
      ],
      "stateMutability": "view",
      "type": "function"
    },
    {
      "inputs": [
        {
          "internalType": "bytes32",
          "name": "implementationID",
          "type": "bytes32"
        },
        {
          "internalType": "bytes32",
          "name": "controllerSalt",
          "type": "bytes32"
        }
      ],
      "name": "deployPool",
      "outputs": [
        {
          "internalType": "address",
          "name": "poolAddress",
          "type": "address"
        }
      ],
      "stateMutability": "nonpayable",
      "type": "function"
    },
    {
      "inputs": [
        {
          "internalType": "address",
          "name": "controller",
          "type": "address"
        }
      ],
      "name": "disapprovePoolController",
      "outputs": [],
      "stateMutability": "nonpayable",
      "type": "function"
    },
    {
      "inputs": [
        {
          "internalType": "address",
          "name": "",
          "type": "address"
        }
      ],
      "name": "getPoolImplementationID",
      "outputs": [
        {
          "internalType": "bytes32",
          "name": "",
          "type": "bytes32"
        }
      ],
      "stateMutability": "view",
      "type": "function"
    },
    {
      "inputs": [
        {
          "internalType": "address",
          "name": "",
          "type": "address"
        }
      ],
      "name": "isApprovedController",
      "outputs": [
        {
          "internalType": "bool",
          "name": "",
          "type": "bool"
        }
      ],
      "stateMutability": "view",
      "type": "function"
    },
    {
      "inputs": [
        {
          "internalType": "address",
          "name": "pool",
          "type": "address"
        }
      ],
      "name": "isRecognizedPool",
      "outputs": [
        {
          "internalType": "bool",
          "name": "",
          "type": "bool"
        }
      ],
      "stateMutability": "view",
      "type": "function"
    },
    {
      "inputs": [],
      "name": "owner",
      "outputs": [
        {
          "internalType": "address",
          "name": "",
          "type": "address"
        }
      ],
      "stateMutability": "view",
      "type": "function"
    },
    {
      "inputs": [],
      "name": "proxyManager",
      "outputs": [
        {
          "internalType": "contract IDelegateCallProxyManager",
          "name": "",
          "type": "address"
        }
      ],
      "stateMutability": "view",
      "type": "function"
    },
    {
      "inputs": [],
      "name": "renounceOwnership",
      "outputs": [],
      "stateMutability": "nonpayable",
      "type": "function"
    },
    {
      "inputs": [
        {
          "internalType": "address",
          "name": "newOwner",
          "type": "address"
        }
      ],
      "name": "transferOwnership",
      "outputs": [],
      "stateMutability": "nonpayable",
      "type": "function"
    }
  ],
  "address": "0x0FC8F71f0751eC0900b54aca7E7cCAE373EddceA",
  "args": [
    "0x2fD9B976b7B4310F3d57A19fB011e1E2FEE93251"
  ],
  "solcInputHash": "0x2a78399aafccb0dfc40b988a7fcc0f45505a2ab70e01dc7f295fc39724d7ee76",
  "bytecode": "0x60a060405234801561001057600080fd5b506040516109c03803806109c083398101604081905261002f9161009c565b6000610039610098565b600080546001600160a01b0319166001600160a01b0383169081178255604051929350917f8be0079c531659141344cd1fd0a4f28419497f9722a3daafe3b4186f6b6457e0908290a35060601b6001600160601b0319166080526100ca565b3390565b6000602082840312156100ad578081fd5b81516001600160a01b03811681146100c3578182fd5b9392505050565b60805160601c6108cf6100f16000398061020c5280610414528061046952506108cf6000f3fe608060405234801561001057600080fd5b50600436106100a95760003560e01c80638da5cb5b116100715780638da5cb5b1461012757806396b4ca701461012f578063a92b2f9114610137578063dad8542d1461014a578063f2fde38b1461015d578063fc2736d414610170576100a9565b8063187775f9146100ae57806347080612146100d75780636a58f07b146100f7578063715018a61461010c578063767dff4014610114575b600080fd5b6100c16100bc3660046106eb565b610190565b6040516100ce9190610782565b60405180910390f35b6100ea6100e5366004610675565b6102f6565b6040516100ce91906107ba565b61010a610105366004610675565b610313565b005b61010a61036f565b6100ea610122366004610675565b6103ee565b6100c1610403565b6100c1610412565b6100c16101453660046106b4565b610436565b61010a610158366004610675565b610499565b61010a61016b366004610675565b6104ef565b61018361017e366004610675565b6105a5565b6040516100ce91906107c5565b3360009081526001602052604081205460ff166101c85760405162461bcd60e51b81526004016101bf906107dc565b60405180910390fd5b600033836040516020016101dd92919061070c565b60408051601f19818403018152908290528051602090910120631a5e5bc560e01b825291506001600160a01b037f00000000000000000000000000000000000000000000000000000000000000001690631a5e5bc59061024390879085906004016107ce565b602060405180830381600087803b15801561025d57600080fd5b505af1158015610271573d6000803e3d6000fd5b505050506040513d601f19601f820116820180604052508101906102959190610698565b6001600160a01b03811660009081526002602052604090819020869055519092507f3c9399222fcd8c810cad2570e37d7b31aed4013fbfb296e5de17c0935d4159e7906102e790849033908890610796565b60405180910390a15092915050565b6001600160a01b0316600090815260026020526040902054151590565b61031b6105b7565b6000546001600160a01b039081169116146103485760405162461bcd60e51b81526004016101bf9061084c565b6001600160a01b03166000908152600160208190526040909120805460ff19169091179055565b6103776105b7565b6000546001600160a01b039081169116146103a45760405162461bcd60e51b81526004016101bf9061084c565b600080546040516001600160a01b03909116907f8be0079c531659141344cd1fd0a4f28419497f9722a3daafe3b4186f6b6457e0908390a3600080546001600160a01b0319169055565b60016020526000908152604090205460ff1681565b6000546001600160a01b031690565b7f000000000000000000000000000000000000000000000000000000000000000081565b600080838360405160200161044c92919061070c565b6040516020818303038152906040528051906020012090506104907f00000000000000000000000000000000000000000000000000000000000000003087846105bb565b95945050505050565b6104a16105b7565b6000546001600160a01b039081169116146104ce5760405162461bcd60e51b81526004016101bf9061084c565b6001600160a01b03166000908152600160205260409020805460ff19169055565b6104f76105b7565b6000546001600160a01b039081169116146105245760405162461bcd60e51b81526004016101bf9061084c565b6001600160a01b03811661054a5760405162461bcd60e51b81526004016101bf90610806565b600080546040516001600160a01b03808516939216917f8be0079c531659141344cd1fd0a4f28419497f9722a3daafe3b4186f6b6457e091a3600080546001600160a01b0319166001600160a01b0392909216919091179055565b60026020526000908152604090205481565b3390565b6000806105c9858585610600565b90506105f6817fa035ad05a1663db5bfd455b99cd7c6ac6bd49269738458eda140e0b78ed53f7988610636565b9695505050505050565b600083838360405160200161061793929190610729565b6040516020818303038152906040528051906020012090509392505050565b60008060ff60f81b838686604051602001610654949392919061074e565b60408051808303601f19018152919052805160209091012095945050505050565b600060208284031215610686578081fd5b813561069181610881565b9392505050565b6000602082840312156106a9578081fd5b815161069181610881565b6000806000606084860312156106c8578182fd5b8335925060208401356106da81610881565b929592945050506040919091013590565b600080604083850312156106fd578182fd5b50508035926020909101359150565b60609290921b6001600160601b0319168252601482015260340190565b60609390931b6001600160601b03191683526014830191909152603482015260540190565b6001600160f81b031994909416845260609290921b6001600160601b03191660018401526015830152603582015260550190565b6001600160a01b0391909116815260200190565b6001600160a01b039384168152919092166020820152604081019190915260600190565b901515815260200190565b90815260200190565b918252602082015260400190565b60208082526010908201526f11549497d393d517d054141493d5915160821b604082015260600190565b60208082526026908201527f4f776e61626c653a206e6577206f776e657220697320746865207a65726f206160408201526564647265737360d01b606082015260800190565b6020808252818101527f4f776e61626c653a2063616c6c6572206973206e6f7420746865206f776e6572604082015260600190565b6001600160a01b038116811461089657600080fd5b5056fea264697066735822122044deb1f1409c84e4905c6aa60e1ae98941eb488643c4fdd97f25d07ca7cfb42064736f6c634300060c0033",
  "devdoc": {
    "author": "d1ll0n",
    "events": {
      "NewPool(address,address,bytes32)": {
        "details": "Emitted when a pool is deployed. "
      }
    },
    "kind": "dev",
    "methods": {
      "approvePoolController(address)": {
        "details": "Approves `controller` to deploy pools. "
      },
      "computePoolAddress(bytes32,address,bytes32)": {
        "details": "Compute the create2 address for a pool deployed by an approved controller."
      },
      "deployPool(bytes32,bytes32)": {
        "details": "Deploys a pool using an implementation ID provided by the controller. Note: To support future interfaces, this does not initialize or configure the pool, this must be executed by the controller. Note: Must be called by an approved controller.",
        "params": {
          "controllerSalt": "Create2 salt provided by the deployer",
          "implementationID": "Implementation ID for the pool"
        }
      },
      "disapprovePoolController(address)": {
        "details": "Removes the ability of `controller` to deploy pools. "
      },
      "isRecognizedPool(address)": {
        "details": "Checks if an address is a pool that was deployed by the factory."
      },
      "owner()": {
        "details": "Returns the address of the current owner."
      },
      "renounceOwnership()": {
        "details": "Leaves the contract without owner. It will not be possible to call `onlyOwner` functions anymore. Can only be called by the current owner. NOTE: Renouncing ownership will leave the contract without an owner, thereby removing any functionality that is only available to the owner."
      },
      "transferOwnership(address)": {
        "details": "Transfers ownership of the contract to a new account (`newOwner`). Can only be called by the current owner."
      }
    },
    "title": "PoolFactory",
    "version": 1
  },
  "userdoc": {
    "kind": "user",
    "methods": {},
    "version": 1
  },
  "storageLayout": {
    "storage": [
      {
        "astId": 348,
        "contract": "temp-contracts/PoolFactory.sol:PoolFactory",
        "label": "_owner",
        "offset": 0,
        "slot": "0",
        "type": "t_address"
      },
      {
        "astId": 586,
        "contract": "temp-contracts/PoolFactory.sol:PoolFactory",
        "label": "isApprovedController",
        "offset": 0,
        "slot": "1",
        "type": "t_mapping(t_address,t_bool)"
      },
      {
        "astId": 591,
        "contract": "temp-contracts/PoolFactory.sol:PoolFactory",
        "label": "getPoolImplementationID",
        "offset": 0,
        "slot": "2",
        "type": "t_mapping(t_address,t_bytes32)"
      }
    ],
    "types": {
      "t_address": {
        "encoding": "inplace",
        "label": "address",
        "numberOfBytes": "20"
      },
      "t_bool": {
        "encoding": "inplace",
        "label": "bool",
        "numberOfBytes": "1"
      },
      "t_bytes32": {
        "encoding": "inplace",
        "label": "bytes32",
        "numberOfBytes": "32"
      },
      "t_mapping(t_address,t_bool)": {
        "encoding": "mapping",
        "key": "t_address",
        "label": "mapping(address => bool)",
        "numberOfBytes": "32",
        "value": "t_bool"
      },
      "t_mapping(t_address,t_bytes32)": {
        "encoding": "mapping",
        "key": "t_address",
        "label": "mapping(address => bytes32)",
        "numberOfBytes": "32",
        "value": "t_bytes32"
      }
    }
  },
  "gasEstimates": {
    "creation": {
      "codeDepositCost": "451000",
      "executionCost": "infinite",
      "totalCost": "infinite"
    },
    "external": {
      "approvePoolController(address)": "22140",
      "computePoolAddress(bytes32,address,bytes32)": "infinite",
      "deployPool(bytes32,bytes32)": "infinite",
      "disapprovePoolController(address)": "22143",
      "getPoolImplementationID(address)": "1356",
      "isApprovedController(address)": "1347",
      "isRecognizedPool(address)": "1299",
      "owner()": "1070",
      "proxyManager()": "infinite",
      "renounceOwnership()": "24271",
      "transferOwnership(address)": "24521"
    }
  }
}