{
  "abi": [
    {
      "inputs": [
        {
          "internalType": "contract IIndexedUniswapV2Oracle",
          "name": "oracle_",
          "type": "address"
        },
        {
          "internalType": "address",
          "name": "controller_",
          "type": "address"
        }
      ],
      "stateMutability": "nonpayable",
      "type": "constructor"
    },
    {
      "anonymous": false,
      "inputs": [
        {
          "indexed": false,
          "internalType": "address",
          "name": "from",
          "type": "address"
        },
        {
          "indexed": false,
          "internalType": "address",
          "name": "token",
          "type": "address"
        },
        {
          "indexed": false,
          "internalType": "uint256",
          "name": "amount",
          "type": "uint256"
        },
        {
          "indexed": false,
          "internalType": "uint256",
          "name": "credit",
          "type": "uint256"
        }
      ],
      "name": "TokensContributed",
      "type": "event"
    },
    {
      "inputs": [],
      "name": "claimTokens",
      "outputs": [],
      "stateMutability": "nonpayable",
      "type": "function"
    },
    {
      "inputs": [
        {
          "internalType": "address",
          "name": "account",
          "type": "address"
        }
      ],
      "name": "claimTokens",
      "outputs": [],
      "stateMutability": "nonpayable",
      "type": "function"
    },
    {
      "inputs": [
        {
          "internalType": "address[]",
          "name": "accounts",
          "type": "address[]"
        }
      ],
      "name": "claimTokens",
      "outputs": [],
      "stateMutability": "nonpayable",
      "type": "function"
    },
    {
      "inputs": [
        {
          "internalType": "address",
          "name": "token",
          "type": "address"
        },
        {
          "internalType": "uint256",
          "name": "amountIn",
          "type": "uint256"
        },
        {
          "internalType": "uint256",
          "name": "minimumCredit",
          "type": "uint256"
        }
      ],
      "name": "contributeTokens",
      "outputs": [
        {
          "internalType": "uint256",
          "name": "credit",
          "type": "uint256"
        }
      ],
      "stateMutability": "nonpayable",
      "type": "function"
    },
    {
      "inputs": [
        {
          "internalType": "address[]",
          "name": "tokens",
          "type": "address[]"
        },
        {
          "internalType": "uint256[]",
          "name": "amountsIn",
          "type": "uint256[]"
        },
        {
          "internalType": "uint256",
          "name": "minimumCredit",
          "type": "uint256"
        }
      ],
      "name": "contributeTokens",
      "outputs": [
        {
          "internalType": "uint256",
          "name": "credit",
          "type": "uint256"
        }
      ],
      "stateMutability": "nonpayable",
      "type": "function"
    },
    {
      "inputs": [],
      "name": "controller",
      "outputs": [
        {
          "internalType": "address",
          "name": "",
          "type": "address"
        }
      ],
      "stateMutability": "view",
      "type": "function"
    },
    {
      "inputs": [],
      "name": "finish",
      "outputs": [],
      "stateMutability": "nonpayable",
      "type": "function"
    },
    {
      "inputs": [
        {
          "internalType": "address",
          "name": "token",
          "type": "address"
        },
        {
          "internalType": "uint256",
          "name": "amountIn",
          "type": "uint256"
        }
      ],
      "name": "getCreditForTokens",
      "outputs": [
        {
          "internalType": "uint144",
          "name": "amountOut",
          "type": "uint144"
        }
      ],
      "stateMutability": "view",
      "type": "function"
    },
    {
      "inputs": [
        {
          "internalType": "address",
          "name": "account",
          "type": "address"
        }
      ],
      "name": "getCreditOf",
      "outputs": [
        {
          "internalType": "uint256",
          "name": "",
          "type": "uint256"
        }
      ],
      "stateMutability": "view",
      "type": "function"
    },
    {
      "inputs": [
        {
          "internalType": "address",
          "name": "token",
          "type": "address"
        }
      ],
      "name": "getDesiredAmount",
      "outputs": [
        {
          "internalType": "uint256",
          "name": "",
          "type": "uint256"
        }
      ],
      "stateMutability": "view",
      "type": "function"
    },
    {
      "inputs": [
        {
          "internalType": "address[]",
          "name": "tokens",
          "type": "address[]"
        }
      ],
      "name": "getDesiredAmounts",
      "outputs": [
        {
          "internalType": "uint256[]",
          "name": "amounts",
          "type": "uint256[]"
        }
      ],
      "stateMutability": "view",
      "type": "function"
    },
    {
      "inputs": [],
      "name": "getDesiredTokens",
      "outputs": [
        {
          "internalType": "address[]",
          "name": "tokens",
          "type": "address[]"
        }
      ],
      "stateMutability": "view",
      "type": "function"
    },
    {
      "inputs": [],
      "name": "getTotalCredit",
      "outputs": [
        {
          "internalType": "uint256",
          "name": "",
          "type": "uint256"
        }
      ],
      "stateMutability": "view",
      "type": "function"
    },
    {
      "inputs": [
        {
          "internalType": "address",
          "name": "poolAddress",
          "type": "address"
        },
        {
          "internalType": "address[]",
          "name": "tokens",
          "type": "address[]"
        },
        {
          "internalType": "uint256[]",
          "name": "amounts",
          "type": "uint256[]"
        }
      ],
      "name": "initialize",
      "outputs": [],
      "stateMutability": "nonpayable",
      "type": "function"
    },
    {
      "inputs": [],
      "name": "isFinished",
      "outputs": [
        {
          "internalType": "bool",
          "name": "",
          "type": "bool"
        }
      ],
      "stateMutability": "view",
      "type": "function"
    },
    {
      "inputs": [],
      "name": "oracle",
      "outputs": [
        {
          "internalType": "contract IIndexedUniswapV2Oracle",
          "name": "",
          "type": "address"
        }
      ],
      "stateMutability": "view",
      "type": "function"
    },
    {
      "inputs": [],
      "name": "updatePrices",
      "outputs": [],
      "stateMutability": "nonpayable",
      "type": "function"
    }
  ],
  "address": "0xf9aeed97fEee0C62529b6b8f77B552434434aD20",
  "args": [
    "0x8C5bAe4c044b8CaD35F36adb62D22cFaF97bC79b",
    "0xABCc7CE99c961cA06D1Cd714228765b9526a669d"
  ],
  "solcInputHash": "0xaf8c618a376cbc497299d7a053a95bf87290e7411f280b695e28e1d76929501e",
  "bytecode": "0x60c06040523480156200001157600080fd5b5060405162001fc638038062001fc6833981016040819052620000349162000053565b6001600160601b0319606092831b811660a052911b16608052620000aa565b6000806040838503121562000066578182fd5b8251620000738162000091565b6020840151909250620000868162000091565b809150509250929050565b6001600160a01b0381168114620000a757600080fd5b50565b60805160601c60a05160601c611ed4620000f26000398061037a52806105b0528061069b528061087a5280610a4f525080610bac5280610f595280610f865250611ed46000f3fe608060405234801561001057600080fd5b506004361061010b5760003560e01c80637dc0d1d0116100a2578063df8de3e711610071578063df8de3e71461020b578063eef72a3c1461021e578063f305760814610231578063f77c479114610239578063ff1d5752146102415761010b565b80637dc0d1d0146101bb578063b40bd3c2146101d0578063c97ab30c146101f0578063d56b2889146102035761010b565b80634a1bc547116100de5780634a1bc547146101605780634a7f360c14610180578063636a2159146101935780637b352962146101a65761010b565b80631074fafb1461011057806327b978231461012e57806348c54b9d1461014e57806349dd126214610158575b600080fd5b610118610254565b6040516101259190611a6e565b60405180910390f35b61014161013c3660046116ef565b6102b6565b6040516101259190611e42565b610156610523565b005b610156610599565b61017361016e3660046116c5565b61063f565b6040516101259190611e2e565b61014161018e36600461162b565b610734565b6101416101a1366004611762565b61074f565b6101ae610a44565b6040516101259190611ae4565b6101c3610a4d565b604051610125919061196b565b6101e36101de366004611722565b610a71565b6040516101259190611ad1565b6101416101fe36600461162b565b610b2d565b610156610b48565b61015661021936600461162b565b610e2e565b61015661022c366004611722565b610ea5565b610141610f51565b6101c3610f57565b61015661024f366004611646565b610f7b565b606060028054806020026020016040519081016040528092919081815260200182805480156102ac57602002820191906000526020600020905b81546001600160a01b0316815260019091019060200180831161028e575b5050505050905090565b600454600090600160a81b900460ff16156102ec5760405162461bcd60e51b81526004016102e390611c29565b60405180910390fd5b6004805460ff60a81b1916600160a81b179081905560ff16156103215760405162461bcd60e51b81526004016102e390611d68565b6001600160a01b038416600090815260208190526040902054806103575760405162461bcd60e51b81526004016102e390611c01565b80841115610363578093505b604051635fb6ec1760e11b81526001600160a01b037f0000000000000000000000000000000000000000000000000000000000000000169063bf6dd82e906103ba90889088906104b0906202a30090600401611a3f565b60206040518083038186803b1580156103d257600080fd5b505afa1580156103e6573d6000803e3d6000fd5b505050506040513d601f19601f8201168201806040525081019061040a919061189e565b6001600160901b031691506000821180156104255750600084115b6104415760405162461bcd60e51b81526004016102e390611bd8565b828210156104615760405162461bcd60e51b81526004016102e390611ce0565b6104766001600160a01b0386163330876110ab565b6104808185611109565b6001600160a01b038616600090815260208181526040808320939093553382526001905220546104b09083611154565b336000908152600160205260409020556003546104cd9083611154565b6003556040517fcb3c3418fea7cf628767ce27ce6984aca3ce5e4f5f5c892e856e3cb4c52c81639061050690339088908890879061197f565b60405180910390a1506004805460ff60a81b191690559392505050565b600454600160a81b900460ff161561054d5760405162461bcd60e51b81526004016102e390611c29565b6004805460ff60a81b1916600160a81b179081905560ff166105815760405162461bcd60e51b81526004016102e390611b4e565b61058a33611179565b6004805460ff60a81b19169055565b6040516303f294b760e51b81526001600160a01b037f00000000000000000000000000000000000000000000000000000000000000001690637e5296e0906105e690600290600401611a81565b600060405180830381600087803b15801561060057600080fd5b505af1158015610614573d6000803e3d6000fd5b505050506040513d6000823e601f3d908101601f1916820160405261063c91908101906117d3565b50565b6001600160a01b038216600090815260208190526040812054806106755760405162461bcd60e51b81526004016102e390611c01565b80831115610681578092505b604051635fb6ec1760e11b81526000906001600160a01b037f0000000000000000000000000000000000000000000000000000000000000000169063bf6dd82e906106db90889088906104b0906202a30090600401611a3f565b60206040518083038186803b1580156106f357600080fd5b505afa158015610707573d6000803e3d6000fd5b505050506040513d601f19601f8201168201806040525081019061072b919061189e565b95945050505050565b6001600160a01b031660009081526020819052604090205490565b600454600090600160a81b900460ff161561077c5760405162461bcd60e51b81526004016102e390611c29565b6004805460ff60a81b1916600160a81b179081905560ff16156107b15760405162461bcd60e51b81526004016102e390611d68565b848381146107d15760405162461bcd60e51b81526004016102e390611cbb565b6000915060005b818110156109d25760008888838181106107ee57fe5b9050602002016020810190610803919061162b565b9050600087878481811061081357fe5b6001600160a01b0385166000908152602081815260409091205491029290920135925050806108545760405162461bcd60e51b81526004016102e390611c01565b80821115610860578091505b604051635fb6ec1760e11b81526000906001600160a01b037f0000000000000000000000000000000000000000000000000000000000000000169063bf6dd82e906108ba90879087906104b0906202a30090600401611a3f565b60206040518083038186803b1580156108d257600080fd5b505afa1580156108e6573d6000803e3d6000fd5b505050506040513d601f19601f8201168201806040525081019061090a919061189e565b6001600160901b031690506000811180156109255750600083115b6109415760405162461bcd60e51b81526004016102e390611bd8565b6109566001600160a01b0385163330866110ab565b6109608284611109565b6001600160a01b0385166000908152602081905260409020556109838782611154565b96507fcb3c3418fea7cf628767ce27ce6984aca3ce5e4f5f5c892e856e3cb4c52c8163338585846040516109ba949392919061197f565b60405180910390a15050600190920191506107d89050565b50828210156109f35760405162461bcd60e51b81526004016102e390611ce0565b33600090815260016020526040902054610a0d9083611154565b33600090815260016020526040902055600354610a2a9083611154565b600355506004805460ff60a81b1916905595945050505050565b60045460ff1690565b7f000000000000000000000000000000000000000000000000000000000000000081565b60608167ffffffffffffffff81118015610a8a57600080fd5b50604051908082528060200260200182016040528015610ab4578160200160208202803683370190505b50905060005b82811015610b2657600080858584818110610ad157fe5b9050602002016020810190610ae6919061162b565b6001600160a01b03166001600160a01b0316815260200190815260200160002054828281518110610b1357fe5b6020908102919091010152600101610aba565b5092915050565b6001600160a01b031660009081526001602052604090205490565b600454600160a81b900460ff1615610b725760405162461bcd60e51b81526004016102e390611c29565b6004805460ff60a81b1916600160a81b179081905560ff1615610ba75760405162461bcd60e51b81526004016102e390611d68565b6002547f000000000000000000000000000000000000000000000000000000000000000060608267ffffffffffffffff81118015610be457600080fd5b50604051908082528060200260200182016040528015610c0e578160200160208202803683370190505b50905060608367ffffffffffffffff81118015610c2a57600080fd5b50604051908082528060200260200182016040528015610c54578160200160208202803683370190505b50905060005b84811015610da457600060028281548110610c7157fe5b9060005260206000200160009054906101000a90046001600160a01b0316905080848381518110610c9e57fe5b6001600160a01b0392831660209182029290920101526040516370a0823160e01b81526000918316906370a0823190610cdb90309060040161196b565b60206040518083038186803b158015610cf357600080fd5b505afa158015610d07573d6000803e3d6000fd5b505050506040513d601f19601f82011682018060405250810190610d2b91906118c5565b905080848481518110610d3a57fe5b6020908102919091010152600454610d64906001600160a01b038481169161010090041683611208565b6001600160a01b03821660009081526020819052604090205415610d9a5760405162461bcd60e51b81526004016102e390611c8f565b5050600101610c5a565b5060048054604051636a7a93ed60e01b81526001600160a01b0380871693636a7a93ed93610de0936101009091049092169187918791016119e6565b600060405180830381600087803b158015610dfa57600080fd5b505af1158015610e0e573d6000803e3d6000fd5b50506004805460ff60a81b1960ff19909116600117169055505050505050565b600454600160a81b900460ff1615610e585760405162461bcd60e51b81526004016102e390611c29565b6004805460ff60a81b1916600160a81b179081905560ff16610e8c5760405162461bcd60e51b81526004016102e390611b4e565b610e9581611179565b506004805460ff60a81b19169055565b600454600160a81b900460ff1615610ecf5760405162461bcd60e51b81526004016102e390611c29565b6004805460ff60a81b1916600160a81b179081905560ff16610f035760405162461bcd60e51b81526004016102e390611b4e565b60005b81811015610f3f57610f37838383818110610f1d57fe5b9050602002016020810190610f32919061162b565b611179565b600101610f06565b50506004805460ff60a81b1916905550565b60035490565b7f000000000000000000000000000000000000000000000000000000000000000081565b336001600160a01b037f00000000000000000000000000000000000000000000000000000000000000001614610fc35760405162461bcd60e51b81526004016102e390611b22565b60045461010090046001600160a01b031615610ff15760405162461bcd60e51b81526004016102e390611baf565b60048054610100600160a81b0319166101006001600160a01b03881602179055828181146110315760405162461bcd60e51b81526004016102e390611cbb565b61103d60028686611539565b5060005b818110156110a25783838281811061105557fe5b9050602002013560008088888581811061106b57fe5b9050602002016020810190611080919061162b565b6001600160a01b03168152602081019190915260400160002055600101611041565b50505050505050565b611103846323b872dd60e01b8585856040516024016110cc939291906119c2565b60408051601f198184030181529190526020810180516001600160e01b03166001600160e01b0319909316929092179091526112cb565b50505050565b600061114b83836040518060400160405280601e81526020017f536166654d6174683a207375627472616374696f6e206f766572666c6f77000081525061135a565b90505b92915050565b60008282018381101561114b5760405162461bcd60e51b81526004016102e390611b78565b6001600160a01b038116600090815260016020526040902054806111af5760405162461bcd60e51b81526004016102e390611d08565b6003546000906111d2906111cc68056bc75e2d6310000085611386565b906113c0565b6001600160a01b03808516600090815260016020526040812055600454919250611203916101009004168483611402565b505050565b8015806112905750604051636eb1769f60e11b81526001600160a01b0384169063dd62ed3e9061123e90309086906004016119a8565b60206040518083038186803b15801561125657600080fd5b505afa15801561126a573d6000803e3d6000fd5b505050506040513d601f19601f8201168201806040525081019061128e91906118c5565b155b6112ac5760405162461bcd60e51b81526004016102e390611dd8565b6112038363095ea7b360e01b84846040516024016110cc929190611a26565b6060611320826040518060400160405280602081526020017f5361666545524332303a206c6f772d6c6576656c2063616c6c206661696c6564815250856001600160a01b03166114219092919063ffffffff16565b805190915015611203578080602001905181019061133e919061187e565b6112035760405162461bcd60e51b81526004016102e390611d8e565b6000818484111561137e5760405162461bcd60e51b81526004016102e39190611aef565b505050900390565b6000826113955750600061114e565b828202828482816113a257fe5b041461114b5760405162461bcd60e51b81526004016102e390611c4e565b600061114b83836040518060400160405280601a81526020017f536166654d6174683a206469766973696f6e206279207a65726f000000000000815250611438565b6112038363a9059cbb60e01b84846040516024016110cc929190611a26565b6060611430848460008561146f565b949350505050565b600081836114595760405162461bcd60e51b81526004016102e39190611aef565b50600083858161146557fe5b0495945050505050565b606061147a85611533565b6114965760405162461bcd60e51b81526004016102e390611d31565b60006060866001600160a01b031685876040516114b3919061194f565b60006040518083038185875af1925050503d80600081146114f0576040519150601f19603f3d011682016040523d82523d6000602084013e6114f5565b606091505b509150915081156115095791506114309050565b8051156115195780518082602001fd5b8360405162461bcd60e51b81526004016102e39190611aef565b3b151590565b82805482825590600052602060002090810192821561158c579160200282015b8281111561158c5781546001600160a01b0319166001600160a01b03843516178255602090920191600190910190611559565b5061159892915061159c565b5090565b5b808211156115985780546001600160a01b031916815560010161159d565b80356001600160a01b038116811461114e57600080fd5b60008083601f8401126115e3578182fd5b50813567ffffffffffffffff8111156115fa578182fd5b602083019150836020808302850101111561161457600080fd5b9250929050565b8051801515811461114e57600080fd5b60006020828403121561163c578081fd5b61114b83836115bb565b60008060008060006060868803121561165d578081fd5b61166787876115bb565b9450602086013567ffffffffffffffff80821115611683578283fd5b61168f89838a016115d2565b909650945060408801359150808211156116a7578283fd5b506116b4888289016115d2565b969995985093965092949392505050565b600080604083850312156116d7578182fd5b6116e184846115bb565b946020939093013593505050565b600080600060608486031215611703578283fd5b61170d85856115bb565b95602085013595506040909401359392505050565b60008060208385031215611734578182fd5b823567ffffffffffffffff81111561174a578283fd5b611756858286016115d2565b90969095509350505050565b600080600080600060608688031215611779578081fd5b853567ffffffffffffffff80821115611790578283fd5b61179c89838a016115d2565b909750955060208801359150808211156117b4578283fd5b506117c1888289016115d2565b96999598509660400135949350505050565b600060208083850312156117e5578182fd5b825167ffffffffffffffff808211156117fc578384fd5b818501915085601f83011261180f578384fd5b81518181111561181d578485fd5b838102915061182d848301611e4b565b8181528481019084860184860187018a1015611847578788fd5b8795505b838610156118715761185d8a8261161b565b83526001959095019491860191860161184b565b5098975050505050505050565b60006020828403121561188f578081fd5b8151801515811461114b578182fd5b6000602082840312156118af578081fd5b81516001600160901b038116811461114b578182fd5b6000602082840312156118d6578081fd5b5051919050565b6000815180845260208085019450808401835b838110156119155781516001600160a01b0316875295820195908201906001016118f0565b509495945050505050565b6000815180845260208085019450808401835b8381101561191557815187529582019590820190600101611933565b60008251611961818460208701611e72565b9190910192915050565b6001600160a01b0391909116815260200190565b6001600160a01b0394851681529290931660208301526040820152606081019190915260800190565b6001600160a01b0392831681529116602082015260400190565b6001600160a01b039384168152919092166020820152604081019190915260600190565b6001600160a01b0384168152606060208201819052600090611a0a908301856118dd565b8281036040840152611a1c8185611920565b9695505050505050565b6001600160a01b03929092168252602082015260400190565b6001600160a01b03949094168452602084019290925263ffffffff908116604084015216606082015260800190565b60006020825261114b60208301846118dd565b6020808252825482820181905260008481528281209092916040850190845b81811015611ac55783546001600160a01b031683526001938401939285019201611aa0565b50909695505050505050565b60006020825261114b6020830184611920565b901515815260200190565b6000602082528251806020840152611b0e816040850160208701611e72565b601f01601f19169190910160400192915050565b60208082526012908201527122a9292fa727aa2fa1a7a72a2927a62622a960711b604082015260600190565b60208082526010908201526f11549497d393d517d192539254d2115160821b604082015260600190565b6020808252601b908201527f536166654d6174683a206164646974696f6e206f766572666c6f770000000000604082015260600190565b6020808252600f908201526e11549497d253925512505312569151608a1b604082015260600190565b6020808252600f908201526e11549497d6915493d7d05353d55395608a1b604082015260600190565b6020808252600e908201526d11549497d393d517d3915151115160921b604082015260600190565b6020808252600b908201526a4552525f5245454e54525960a81b604082015260600190565b60208082526021908201527f536166654d6174683a206d756c7469706c69636174696f6e206f766572666c6f6040820152607760f81b606082015260800190565b6020808252601290820152714552525f50454e44494e475f544f4b454e5360701b604082015260600190565b6020808252600b908201526a22a9292fa0a9292fa622a760a91b604082015260600190565b6020808252600e908201526d11549497d3525397d0d49151125560921b604082015260600190565b6020808252600f908201526e11549497d395531317d0d491511255608a1b604082015260600190565b6020808252601d908201527f416464726573733a2063616c6c20746f206e6f6e2d636f6e7472616374000000604082015260600190565b6020808252600c908201526b11549497d192539254d2115160a21b604082015260600190565b6020808252602a908201527f5361666545524332303a204552433230206f7065726174696f6e20646964206e6040820152691bdd081cdd58d8d9595960b21b606082015260800190565b60208082526036908201527f5361666545524332303a20617070726f76652066726f6d206e6f6e2d7a65726f60408201527520746f206e6f6e2d7a65726f20616c6c6f77616e636560501b606082015260800190565b6001600160901b0391909116815260200190565b90815260200190565b60405181810167ffffffffffffffff81118282101715611e6a57600080fd5b604052919050565b60005b83811015611e8d578181015183820152602001611e75565b83811115611103575050600091015256fea26469706673582212203abdd6b4dfb521c04b003023b0efe28af225266d3d28a63876beee96bd76443664736f6c634300060c0033",
  "devdoc": {
    "author": "d1ll0n",
    "details": "Contract that acquires the initial balances for an index pool. This uses a short-term UniSwap price oracle to determine the ether value of tokens sent to the contract. When users contribute tokens, they are credited for the moving average ether value of said tokens. When all the tokens needed are acquired, the index pool will be initialized and this contract will receive the initial token supply (100). Once the contract receives the index pool tokens, users can claim their share of the tokens proportional to their credited contribution value.",
    "kind": "dev",
    "methods": {
      "claimTokens()": {
        "details": "Claims the tokens owed to `msg.sender` based on their proportion of the total credits."
      },
      "claimTokens(address)": {
        "details": "Claims the tokens owed to `account` based on their proportion of the total credits."
      },
      "claimTokens(address[])": {
        "details": "Claims the tokens owed to `account` based on their proportion of the total credits."
      },
      "contributeTokens(address,uint256,uint256)": {
        "details": "Contribute up to `amountIn` of `token` to the pool for credit. The caller will be credited for the average weth value of the provided tokens. Caller must receive at least `minimumCredit` to not revert. If `amountIn` is greater than the desired amount of `token`, the desired amount will be used instead. "
      },
      "contributeTokens(address[],uint256[],uint256)": {
        "details": "Contribute maximum values from `amountsIn` of the corresponding tokens in `tokens` to the pool for credit. The caller will be credited for the average weth value of the provided tokens. Caller must receive at least `minimumCredit` to not revert. If any input amount is greater than the desired amount of the corresponding token, the desired amount will be used instead."
      },
      "finish()": {
        "details": "Finishes the pre-deployment pool and triggers pool initialization. Note: The desired amounts of all tokens must be 0."
      },
      "getCreditForTokens(address,uint256)": {
        "details": "Get the amount of WETH the contract will credit a user for providing `amountIn` of `token`. Note: If `amountIn` is greater than the desired amount of `token`, this will calculate the output using the desired amount instead of `amountIn`."
      },
      "getCreditOf(address)": {
        "details": "Returns the amount of credit owed to `account`."
      },
      "getTotalCredit()": {
        "details": "Returns the total value credited for token contributions."
      },
      "initialize(address,address[],uint256[])": {
        "details": "Sets up the pre-deployment pool.",
        "params": {
          "amounts": "Desired amounts of the corresponding `tokens`",
          "poolAddress": "Address of the pool this pre-deployment pool is for",
          "tokens": "Array of desired tokens"
        }
      },
      "isFinished()": {
        "details": "Returns whether the pool has been initialized."
      },
      "updatePrices()": {
        "details": "Updates the prices of all tokens."
      }
    },
    "title": "PoolInitializer",
    "version": 1
  },
  "userdoc": {
    "kind": "user",
    "methods": {},
    "version": 1
  },
  "storageLayout": {
    "storage": [
      {
        "astId": 5743,
        "contract": "contracts/PoolInitializer.sol:PoolInitializer",
        "label": "_remainingDesiredAmounts",
        "offset": 0,
        "slot": "0",
        "type": "t_mapping(t_address,t_uint256)"
      },
      {
        "astId": 5747,
        "contract": "contracts/PoolInitializer.sol:PoolInitializer",
        "label": "_credits",
        "offset": 0,
        "slot": "1",
        "type": "t_mapping(t_address,t_uint256)"
      },
      {
        "astId": 5750,
        "contract": "contracts/PoolInitializer.sol:PoolInitializer",
        "label": "_tokens",
        "offset": 0,
        "slot": "2",
        "type": "t_array(t_address)dyn_storage"
      },
      {
        "astId": 5752,
        "contract": "contracts/PoolInitializer.sol:PoolInitializer",
        "label": "_totalCredit",
        "offset": 0,
        "slot": "3",
        "type": "t_uint256"
      },
      {
        "astId": 5754,
        "contract": "contracts/PoolInitializer.sol:PoolInitializer",
        "label": "_finished",
        "offset": 0,
        "slot": "4",
        "type": "t_bool"
      },
      {
        "astId": 5756,
        "contract": "contracts/PoolInitializer.sol:PoolInitializer",
        "label": "_poolAddress",
        "offset": 1,
        "slot": "4",
        "type": "t_address"
      },
      {
        "astId": 5758,
        "contract": "contracts/PoolInitializer.sol:PoolInitializer",
        "label": "_mutex",
        "offset": 21,
        "slot": "4",
        "type": "t_bool"
      }
    ],
    "types": {
      "t_address": {
        "encoding": "inplace",
        "label": "address",
        "numberOfBytes": "20"
      },
      "t_array(t_address)dyn_storage": {
        "base": "t_address",
        "encoding": "dynamic_array",
        "label": "address[]",
        "numberOfBytes": "32"
      },
      "t_bool": {
        "encoding": "inplace",
        "label": "bool",
        "numberOfBytes": "1"
      },
      "t_mapping(t_address,t_uint256)": {
        "encoding": "mapping",
        "key": "t_address",
        "label": "mapping(address => uint256)",
        "numberOfBytes": "32",
        "value": "t_uint256"
      },
      "t_uint256": {
        "encoding": "inplace",
        "label": "uint256",
        "numberOfBytes": "32"
      }
    }
  },
  "gasEstimates": {
    "creation": {
      "codeDepositCost": "1578400",
      "executionCost": "infinite",
      "totalCost": "infinite"
    },
    "external": {
      "claimTokens()": "infinite",
      "claimTokens(address)": "infinite",
      "claimTokens(address[])": "infinite",
      "contributeTokens(address,uint256,uint256)": "infinite",
      "contributeTokens(address[],uint256[],uint256)": "infinite",
      "controller()": "infinite",
      "finish()": "infinite",
      "getCreditForTokens(address,uint256)": "infinite",
      "getCreditOf(address)": "infinite",
      "getDesiredAmount(address)": "infinite",
      "getDesiredAmounts(address[])": "infinite",
      "getDesiredTokens()": "infinite",
      "getTotalCredit()": "1094",
      "initialize(address,address[],uint256[])": "infinite",
      "isFinished()": "1129",
      "oracle()": "infinite",
      "updatePrices()": "infinite"
    },
    "internal": {
      "_claimTokens(address)": "infinite"
    }
  }
}