{
  "abi": [
    {
      "inputs": [
        {
          "internalType": "contract IUniswapV2Router02",
          "name": "uniswapRouter",
          "type": "address"
        },
        {
          "internalType": "contract IIndexedUniswapV2Oracle",
          "name": "oracle",
          "type": "address"
        },
        {
          "internalType": "address",
          "name": "controller",
          "type": "address"
        }
      ],
      "stateMutability": "nonpayable",
      "type": "constructor"
    },
    {
      "anonymous": false,
      "inputs": [
        {
          "indexed": true,
          "internalType": "address",
          "name": "token",
          "type": "address"
        },
        {
          "indexed": false,
          "internalType": "uint256",
          "name": "amountReceived",
          "type": "uint256"
        }
      ],
      "name": "NewTokensToSell",
      "type": "event"
    },
    {
      "anonymous": false,
      "inputs": [
        {
          "indexed": false,
          "internalType": "uint8",
          "name": "premium",
          "type": "uint8"
        }
      ],
      "name": "PremiumPercentSet",
      "type": "event"
    },
    {
      "anonymous": false,
      "inputs": [
        {
          "indexed": true,
          "internalType": "address",
          "name": "tokenSold",
          "type": "address"
        },
        {
          "indexed": true,
          "internalType": "address",
          "name": "tokenBought",
          "type": "address"
        },
        {
          "indexed": false,
          "internalType": "uint256",
          "name": "soldAmount",
          "type": "uint256"
        },
        {
          "indexed": false,
          "internalType": "uint256",
          "name": "boughtAmount",
          "type": "uint256"
        }
      ],
      "name": "SwappedTokens",
      "type": "event"
    },
    {
      "inputs": [
        {
          "internalType": "address",
          "name": "tokenIn",
          "type": "address"
        },
        {
          "internalType": "address",
          "name": "tokenOut",
          "type": "address"
        },
        {
          "internalType": "uint256",
          "name": "amountOut",
          "type": "uint256"
        }
      ],
      "name": "calcInGivenOut",
      "outputs": [
        {
          "internalType": "uint256",
          "name": "amountIn",
          "type": "uint256"
        }
      ],
      "stateMutability": "view",
      "type": "function"
    },
    {
      "inputs": [
        {
          "internalType": "address",
          "name": "tokenIn",
          "type": "address"
        },
        {
          "internalType": "address",
          "name": "tokenOut",
          "type": "address"
        },
        {
          "internalType": "uint256",
          "name": "amountIn",
          "type": "uint256"
        }
      ],
      "name": "calcOutGivenIn",
      "outputs": [
        {
          "internalType": "uint256",
          "name": "amountOut",
          "type": "uint256"
        }
      ],
      "stateMutability": "view",
      "type": "function"
    },
    {
      "inputs": [
        {
          "internalType": "address",
          "name": "tokenIn",
          "type": "address"
        },
        {
          "internalType": "address",
          "name": "tokenOut",
          "type": "address"
        },
        {
          "internalType": "uint256",
          "name": "amountIn",
          "type": "uint256"
        },
        {
          "internalType": "address[]",
          "name": "path",
          "type": "address[]"
        }
      ],
      "name": "executeSwapExactTokensForTokens",
      "outputs": [
        {
          "internalType": "uint256",
          "name": "premiumPaidToCaller",
          "type": "uint256"
        }
      ],
      "stateMutability": "nonpayable",
      "type": "function"
    },
    {
      "inputs": [
        {
          "internalType": "address",
          "name": "tokenIn",
          "type": "address"
        },
        {
          "internalType": "address",
          "name": "tokenOut",
          "type": "address"
        },
        {
          "internalType": "uint256",
          "name": "amountOut",
          "type": "uint256"
        },
        {
          "internalType": "address[]",
          "name": "path",
          "type": "address[]"
        }
      ],
      "name": "executeSwapTokensForExactTokens",
      "outputs": [
        {
          "internalType": "uint256",
          "name": "premiumPaidToCaller",
          "type": "uint256"
        }
      ],
      "stateMutability": "nonpayable",
      "type": "function"
    },
    {
      "inputs": [],
      "name": "getPremiumPercent",
      "outputs": [
        {
          "internalType": "uint8",
          "name": "",
          "type": "uint8"
        }
      ],
      "stateMutability": "view",
      "type": "function"
    },
    {
      "inputs": [
        {
          "internalType": "address",
          "name": "token",
          "type": "address"
        },
        {
          "internalType": "uint256",
          "name": "amount",
          "type": "uint256"
        }
      ],
      "name": "handleUnbindToken",
      "outputs": [],
      "stateMutability": "nonpayable",
      "type": "function"
    },
    {
      "inputs": [
        {
          "internalType": "contract IPool",
          "name": "pool",
          "type": "address"
        },
        {
          "internalType": "uint8",
          "name": "premiumPercent",
          "type": "uint8"
        }
      ],
      "name": "initialize",
      "outputs": [],
      "stateMutability": "nonpayable",
      "type": "function"
    },
    {
      "inputs": [
        {
          "internalType": "uint8",
          "name": "premiumPercent",
          "type": "uint8"
        }
      ],
      "name": "setPremiumPercent",
      "outputs": [],
      "stateMutability": "nonpayable",
      "type": "function"
    },
    {
      "inputs": [
        {
          "internalType": "address",
          "name": "tokenIn",
          "type": "address"
        },
        {
          "internalType": "address",
          "name": "tokenOut",
          "type": "address"
        },
        {
          "internalType": "uint256",
          "name": "amountIn",
          "type": "uint256"
        },
        {
          "internalType": "uint256",
          "name": "minAmountOut",
          "type": "uint256"
        }
      ],
      "name": "swapExactTokensForTokens",
      "outputs": [
        {
          "internalType": "uint256",
          "name": "amountOut",
          "type": "uint256"
        }
      ],
      "stateMutability": "nonpayable",
      "type": "function"
    },
    {
      "inputs": [
        {
          "internalType": "address",
          "name": "tokenIn",
          "type": "address"
        },
        {
          "internalType": "address",
          "name": "tokenOut",
          "type": "address"
        },
        {
          "internalType": "uint256",
          "name": "amountOut",
          "type": "uint256"
        },
        {
          "internalType": "uint256",
          "name": "maxAmountIn",
          "type": "uint256"
        }
      ],
      "name": "swapTokensForExactTokens",
      "outputs": [
        {
          "internalType": "uint256",
          "name": "amountIn",
          "type": "uint256"
        }
      ],
      "stateMutability": "nonpayable",
      "type": "function"
    }
  ],
  "address": "0x57896b67a95aB13FB1718C9C72D1BcDc939dAfC5",
  "args": [
    "0x7a250d5630B4cF539739dF2C5dAcb4c659F2488D",
    "0x344254CAc0C591AeD45e35CDac23b11Ed3623d25",
    "0xFFa90CDd61e6B68d95a4A4658cFb54B9BC23a26e"
  ],
  "solcInputHash": "0x641bc5824798e3c8ac25268afac02bdabe7ff644a9a77b0b8151171fb34b1cae",
  "bytecode": "0x60e06040523480156200001157600080fd5b5060405162001fd438038062001fd483398101604081905262000034916200005c565b6001600160601b0319606093841b811660805291831b821660c05290911b1660a052620000c8565b60008060006060848603121562000071578283fd5b83516200007e81620000af565b60208501519093506200009181620000af565b6040850151909250620000a481620000af565b809150509250925092565b6001600160a01b0381168114620000c557600080fd5b50565b60805160601c60a05160601c60c05160601c611ebd620001176000398061107a5250806104a752806106a5525080610a225280610af75280610bc05280610d0f5280610de15250611ebd6000f3fe608060405234801561001057600080fd5b506004361061009e5760003560e01c8063943b24b211610066578063943b24b21461011c578063b25ccf2c1461012f578063c1704af214610142578063e11986d114610155578063fdf520bb146101685761009e565b80633bc5ebe7146100a35780634f33937f146100cc5780635ea27538146100df57806363317710146100f457806389fe039b14610109575b600080fd5b6100b66100b136600461165d565b61017b565b6040516100c39190611d27565b60405180910390f35b6100b66100da366004611581565b6102d2565b6100e761048c565b6040516100c39190611db1565b61010761010236600461190d565b61049c565b005b6100b661011736600461165d565b610569565b61010761012a36600461181c565b61069a565b6100b661013d366004611581565b61079f565b6101076101503660046116a2565b610959565b6100b66101633660046115c1565b6109c8565b6100b66101763660046115c1565b610cb5565b60008054600160a81b900460ff16156101af5760405162461bcd60e51b81526004016101a690611b32565b60405180910390fd5b6000805460ff60a81b1916600160a81b1790556101cd8585856102d2565b9050818111156101ef5760405162461bcd60e51b81526004016101a690611ade565b60005461020b906001600160a01b038781169133911684610f64565b600054604051631185197d60e31b81526001600160a01b0390911690638c28cbe89061023b908890600401611945565b600060405180830381600087803b15801561025557600080fd5b505af1158015610269573d6000803e3d6000fd5b50610282925050506001600160a01b0385163385610fc2565b846001600160a01b0316846001600160a01b0316600080516020611e6883398151915285846040516102b5929190611d30565b60405180910390a36000805460ff60a81b19169055949350505050565b6000836102dd611489565b6000546040516364c7d66160e01b81526001600160a01b03909116906364c7d6619061030d908590600401611945565b60e06040518083038186803b15801561032557600080fd5b505afa158015610339573d6000803e3d6000fd5b505050506040513d601f19601f8201168201806040525081019061035d9190611854565b9050600081608001516001600160601b03161161038c5760405162461bcd60e51b81526004016101a690611ab1565b6040516370a0823160e01b815284906001600160a01b038716906370a08231906103ba903090600401611945565b60206040518083038186803b1580156103d257600080fd5b505afa1580156103e6573d6000803e3d6000fd5b505050506040513d601f19601f8201168201806040525081019061040a91906118f5565b10156104285760405162461bcd60e51b81526004016101a690611c9a565b6104306114c5565b6104386114c5565b6104428888610fe6565b909250905060006104538288611144565b90506000610469826001600160901b031661117b565b9050610475848261119b565b6001600160901b03169a9950505050505050505050565b600054600160a01b900460ff1690565b336001600160a01b037f000000000000000000000000000000000000000000000000000000000000000016146104e45760405162461bcd60e51b81526004016101a690611a39565b60008160ff161180156104fa575060148160ff16105b6105165760405162461bcd60e51b81526004016101a690611a8c565b6000805460ff60a01b1916600160a01b60ff8416021790556040517fc53b2421172f8be019daf92988365a3072876f2747c0a3d4b28cd13fcc6f005e9061055e908390611db1565b60405180910390a150565b60008054600160a81b900460ff16156105945760405162461bcd60e51b81526004016101a690611b32565b6000805460ff60a81b1916600160a81b1790556105b285858561079f565b9050818110156105d45760405162461bcd60e51b81526004016101a690611b80565b6000546105f0906001600160a01b038781169133911686610f64565b600054604051631185197d60e31b81526001600160a01b0390911690638c28cbe890610620908890600401611945565b600060405180830381600087803b15801561063a57600080fd5b505af115801561064e573d6000803e3d6000fd5b50610667925050506001600160a01b0385163383610fc2565b846001600160a01b0316846001600160a01b0316600080516020611e6883398151915283866040516102b5929190611d30565b336001600160a01b037f000000000000000000000000000000000000000000000000000000000000000016146106e25760405162461bcd60e51b81526004016101a690611a39565b6000546001600160a01b03161561070b5760405162461bcd60e51b81526004016101a690611b09565b6001600160a01b0382166107315760405162461bcd60e51b81526004016101a690611c26565b60008160ff16118015610747575060148160ff16105b6107635760405162461bcd60e51b81526004016101a690611a8c565b600080546001600160a01b039093166001600160a01b031960ff909316600160a01b0260ff60a01b199094169390931791909116919091179055565b6000836107aa611489565b6000546040516364c7d66160e01b81526001600160a01b03909116906364c7d661906107da908590600401611945565b60e06040518083038186803b1580156107f257600080fd5b505afa158015610806573d6000803e3d6000fd5b505050506040513d601f19601f8201168201806040525081019061082a9190611854565b9050600081608001516001600160601b0316116108595760405162461bcd60e51b81526004016101a690611ab1565b6108616114c5565b6108696114c5565b6108738888610fe6565b909250905060006108848388611144565b9050600061089a826001600160901b03166111ce565b90506108a6838261119b565b6001600160901b0316965086896001600160a01b03166370a08231306040518263ffffffff1660e01b81526004016108de9190611945565b60206040518083038186803b1580156108f657600080fd5b505afa15801561090a573d6000803e3d6000fd5b505050506040513d601f19601f8201168201806040525081019061092e91906118f5565b101561094c5760405162461bcd60e51b81526004016101a690611c9a565b5050505050509392505050565b6000546001600160a01b031633146109835760405162461bcd60e51b81526004016101a690611a65565b816001600160a01b03167ff93f11706ef5199cb4b091ba127aefd4e260584c810114c438e1ac3ecddecd52826040516109bc9190611d27565b60405180910390a25050565b60008054600160a81b900460ff16156109f35760405162461bcd60e51b81526004016101a690611b32565b6000805460ff60a81b1916600160a81b178155610a1186888761079f565b9050610a476001600160a01b0388167f0000000000000000000000000000000000000000000000000000000000000000836111f0565b866001600160a01b031684846000818110610a5e57fe5b9050602002016020810190610a73919061155e565b6001600160a01b0316148015610abe57506001600160a01b03861684846000198101818110610a9e57fe5b9050602002016020810190610ab3919061155e565b6001600160a01b0316145b610ada5760405162461bcd60e51b81526004016101a690611b57565b600054604051634401edf760e11b81526060916001600160a01b037f0000000000000000000000000000000000000000000000000000000000000000811692638803dbee92610b38928b9288928c928c929116904290600401611d3e565b600060405180830381600087803b158015610b5257600080fd5b505af1158015610b66573d6000803e3d6000fd5b505050506040513d6000823e601f3d908101601f19168201604052610b8e9190810190611770565b9050600081600081518110610b9f57fe5b6020026020010151905082811015610bff57610be66001600160a01b038a167f000000000000000000000000000000000000000000000000000000000000000060006111f0565b8083039350610bff6001600160a01b038a163386610fc2565b600054604051631185197d60e31b81526001600160a01b0390911690638c28cbe890610c2f908b90600401611945565b600060405180830381600087803b158015610c4957600080fd5b505af1158015610c5d573d6000803e3d6000fd5b50505050876001600160a01b0316896001600160a01b0316600080516020611e68833981519152838a604051610c94929190611d30565b60405180910390a350506000805460ff60a81b191690555095945050505050565b60008054600160a81b900460ff1615610ce05760405162461bcd60e51b81526004016101a690611b32565b6000805460ff60a81b1916600160a81b178155610cfe8688876102d2565b9050610d346001600160a01b0388167f0000000000000000000000000000000000000000000000000000000000000000876111f0565b866001600160a01b031684846000818110610d4b57fe5b9050602002016020810190610d60919061155e565b6001600160a01b0316148015610dab57506001600160a01b03861684846000198101818110610d8b57fe5b9050602002016020810190610da0919061155e565b6001600160a01b0316145b610dc75760405162461bcd60e51b81526004016101a690611b57565b6040516338ed173960e01b81526060906001600160a01b037f000000000000000000000000000000000000000000000000000000000000000016906338ed173990610e2090899086908a908a9030904290600401611d3e565b600060405180830381600087803b158015610e3a57600080fd5b505af1158015610e4e573d6000803e3d6000fd5b505050506040513d6000823e601f3d908101601f19168201604052610e769190810190611770565b9050600081600183510381518110610e8a57fe5b6020026020010151905082811115610eb5578281039350610eb56001600160a01b0389163386610fc2565b600054610ecf906001600160a01b038a8116911685610fc2565b600054604051631185197d60e31b81526001600160a01b0390911690638c28cbe890610eff908b90600401611945565b600060405180830381600087803b158015610f1957600080fd5b505af1158015610f2d573d6000803e3d6000fd5b50505050876001600160a01b0316896001600160a01b0316600080516020611e688339815191528984604051610c94929190611d30565b610fbc846323b872dd60e01b858585604051602401610f8593929190611973565b60408051601f198184030181529190526020810180516001600160e01b03166001600160e01b0319909316929092179091526112b3565b50505050565b610fe18363a9059cbb60e01b8484604051602401610f85929190611997565b505050565b610fee6114c5565b610ff66114c5565b6040805160028082526060808301845292602083019080368337019050509050848160008151811061102457fe5b60200260200101906001600160a01b031690816001600160a01b031681525050838160018151811061105257fe5b6001600160a01b03928316602091820292909201015260405163768d2c1960e01b81526060917f0000000000000000000000000000000000000000000000000000000000000000169063768d2c19906110b79085906102589061a8c0906004016119b0565b60006040518083038186803b1580156110cf57600080fd5b505afa1580156110e3573d6000803e3d6000fd5b505050506040513d6000823e601f3d908101601f1916820160405261110b91908101906116cd565b90508060008151811061111a57fe5b602002602001015193508060018151811061113157fe5b6020026020010151925050509250929050565b604080516020810190915282516001600160e01b031681526000906111729061116d9084611342565b6113a1565b90505b92915050565b6000805460649060ff600160a01b909104811682031683025b0492915050565b600061117261116d83604051806020016040528087602001516001600160e01b031681525061134290919063ffffffff16565b60008060149054906101000a900460ff1660640360ff16826064028161119457fe5b8015806112785750604051636eb1769f60e11b81526001600160a01b0384169063dd62ed3e906112269030908690600401611959565b60206040518083038186803b15801561123e57600080fd5b505afa158015611252573d6000803e3d6000fd5b505050506040513d601f19601f8201168201806040525081019061127691906118f5565b155b6112945760405162461bcd60e51b81526004016101a690611cd1565b610fe18363095ea7b360e01b8484604051602401610f85929190611997565b6060611308826040518060400160405280602081526020017f5361666545524332303a206c6f772d6c6576656c2063616c6c206661696c6564815250856001600160a01b03166113a89092919063ffffffff16565b805190915015610fe157808060200190518101906113269190611800565b610fe15760405162461bcd60e51b81526004016101a690611c50565b61134a6114dc565b600082158061137057505082516001600160e01b03168281029083828161136d57fe5b04145b61138c5760405162461bcd60e51b81526004016101a690611bac565b60408051602081019091529081529392505050565b5160701c90565b60606113b784846000856113bf565b949350505050565b60606113ca85611483565b6113e65760405162461bcd60e51b81526004016101a690611bef565b60006060866001600160a01b031685876040516114039190611929565b60006040518083038185875af1925050503d8060008114611440576040519150601f19603f3d011682016040523d82523d6000602084013e611445565b606091505b509150915081156114595791506113b79050565b8051156114695780518082602001fd5b8360405162461bcd60e51b81526004016101a69190611a06565b3b151590565b6040805160e081018252600080825260208201819052918101829052606081018290526080810182905260a0810182905260c081019190915290565b604080518082019091526000808252602082015290565b6040518060200160405280600081525090565b600060408284031215611500578081fd5b61150a6040611dbf565b90506115168383611530565b81526115258360208401611530565b602082015292915050565b80516001600160e01b038116811461117557600080fd5b80516001600160601b038116811461117557600080fd5b60006020828403121561156f578081fd5b813561157a81611e32565b9392505050565b600080600060608486031215611595578182fd5b83356115a081611e32565b925060208401356115b081611e32565b929592945050506040919091013590565b6000806000806000608086880312156115d8578081fd5b85356115e381611e32565b945060208601356115f381611e32565b935060408601359250606086013567ffffffffffffffff80821115611616578283fd5b818801915088601f830112611629578283fd5b813581811115611637578384fd5b896020808302850101111561164a578384fd5b9699959850939650602001949392505050565b60008060008060808587031215611672578384fd5b843561167d81611e32565b9350602085013561168d81611e32565b93969395505050506040820135916060013590565b600080604083850312156116b4578182fd5b82356116bf81611e32565b946020939093013593505050565b600060208083850312156116df578182fd5b825167ffffffffffffffff8111156116f5578283fd5b8301601f81018513611705578283fd5b805161171861171382611de6565b611dbf565b818152838101908385016040808502860187018a1015611736578788fd5b8795505b848610156117625761174c8a836114ef565b845260019590950194928601929081019061173a565b509098975050505050505050565b60006020808385031215611782578182fd5b825167ffffffffffffffff811115611798578283fd5b8301601f810185136117a8578283fd5b80516117b661171382611de6565b81815283810190838501858402850186018910156117d2578687fd5b8694505b838510156117f45780518352600194909401939185019185016117d6565b50979650505050505050565b600060208284031215611811578081fd5b815161157a81611e4a565b6000806040838503121561182e578182fd5b823561183981611e32565b9150602083013561184981611e58565b809150509250929050565b600060e08284031215611865578081fd5b61186f60e0611dbf565b825161187a81611e4a565b8152602083015161188a81611e4a565b6020820152604083015164ffffffffff811681146118a6578283fd5b60408201526118b88460608501611547565b60608201526118ca8460808501611547565b608082015260a08301516118dd81611e58565b60a082015260c0928301519281019290925250919050565b600060208284031215611906578081fd5b5051919050565b60006020828403121561191e578081fd5b813561157a81611e58565b6000825161193b818460208701611e06565b9190910192915050565b6001600160a01b0391909116815260200190565b6001600160a01b0392831681529116602082015260400190565b6001600160a01b039384168152919092166020820152604081019190915260600190565b6001600160a01b03929092168252602082015260400190565b606080825284519082018190526000906020906080840190828801845b828110156119f25781516001600160a01b0316845292840192908401906001016119cd565b505050908301949094525060400152919050565b6000602082528251806020840152611a25816040850160208701611e06565b601f01601f19169190910160400192915050565b60208082526012908201527122a9292fa727aa2fa1a7a72a2927a62622a960711b604082015260600190565b6020808252600d908201526c11549497d3d3931657d413d3d3609a1b604082015260600190565b6020808252600b908201526a4552525f5052454d49554d60a81b604082015260600190565b60208082526013908201527222a9292faaa72222a9a4a922a22faa27a5a2a760691b604082015260600190565b60208082526011908201527022a9292fa6a0ac2fa0a6a7aaa72a2fa4a760791b604082015260600190565b6020808252600f908201526e11549497d253925512505312569151608a1b604082015260600190565b6020808252600b908201526a4552525f5245454e54525960a81b604082015260600190565b6020808252600f908201526e4552525f504154485f544f4b454e5360881b604082015260600190565b60208082526012908201527111549497d3525397d05353d5539517d3d55560721b604082015260600190565b60208082526023908201527f4669786564506f696e743a204d554c5449504c49434154494f4e5f4f564552466040820152624c4f5760e81b606082015260800190565b6020808252601d908201527f416464726573733a2063616c6c20746f206e6f6e2d636f6e7472616374000000604082015260600190565b60208082526010908201526f4552525f4e554c4c5f4144445245535360801b604082015260600190565b6020808252602a908201527f5361666545524332303a204552433230206f7065726174696f6e20646964206e6040820152691bdd081cdd58d8d9595960b21b606082015260800190565b60208082526018908201527f4552525f494e53554646494349454e545f42414c414e43450000000000000000604082015260600190565b60208082526036908201527f5361666545524332303a20617070726f76652066726f6d206e6f6e2d7a65726f60408201527520746f206e6f6e2d7a65726f20616c6c6f77616e636560501b606082015260800190565b90815260200190565b918252602082015260400190565b868152602080820187905260a0604083018190528201859052600090869060c08401835b88811015611d90578335611d7581611e32565b6001600160a01b031682529282019290820190600101611d62565b506001600160a01b0396909616606085015250505060800152949350505050565b60ff91909116815260200190565b60405181810167ffffffffffffffff81118282101715611dde57600080fd5b604052919050565b600067ffffffffffffffff821115611dfc578081fd5b5060209081020190565b60005b83811015611e21578181015183820152602001611e09565b83811115610fbc5750506000910152565b6001600160a01b0381168114611e4757600080fd5b50565b8015158114611e4757600080fd5b60ff81168114611e4757600080fdfe43a6165165685ef04ce68fd0b620a88554df7464167d1fd61ff8b3802a4146f5a2646970667358221220a0409bdd13935820ee81e15dd1108f09c6335d97ed0829d87aff4972a7ea9e7864736f6c634300060c0033",
  "devdoc": {
    "author": "d1ll0n",
    "details": "Contract for swapping undesired tokens to desired tokens for an index pool. This contract is deployed as a proxy for each index pool. When tokens are unbound from a pool, they are transferred to this contract and sold on UniSwap or to anyone who calls the contract in exchange for any token which is currently bound to its index pool and which has a desired weight about zero. It uses a short-term uniswap price oracle to price swaps and has a configurable premium rate which is used to decrease the expected output from a swap and to reward callers for triggering a sale. The contract does not track the tokens it has received in order to reduce gas spent by the pool contract. Tokens must be tracked via events, meaning this is not well suited for trades with other smart contracts.",
    "events": {
      "SwappedTokens(address,address,uint256,uint256)": {
        "params": {
          "boughtAmount": "Amount of `tokenBought` sent to pool",
          "soldAmount": "Amount of `tokenSold` paid to caller",
          "tokenBought": "Token received from caller and sent to pool",
          "tokenSold": "Token sent to caller"
        }
      }
    },
    "kind": "dev",
    "methods": {
      "calcInGivenOut(address,address,uint256)": {
        "details": "Calculate the amount of `tokenIn` the pool will accept for `amountOut` of `tokenOut`."
      },
      "calcOutGivenIn(address,address,uint256)": {
        "details": "Calculate the amount of `tokenOut` the pool will give for `amountIn` of `tokenIn`."
      },
      "executeSwapExactTokensForTokens(address,address,uint256,address[])": {
        "details": "Executes a trade with UniSwap to sell some tokens held by the contract for some tokens desired by the pool and pays the caller any tokens received above the minimum acceptable output.",
        "params": {
          "amountIn": "Exact amount of `tokenIn` to give UniSwap",
          "path": "Swap path to execute",
          "tokenIn": "Token to sell to UniSwap",
          "tokenOut": "Token to receive from UniSwap"
        }
      },
      "executeSwapTokensForExactTokens(address,address,uint256,address[])": {
        "details": "Execute a trade with UniSwap to sell some tokens held by the contract for some tokens desired by the pool and pays the caller the difference between the maximum input value and the actual paid amount.",
        "params": {
          "amountOut": "Exact amount of `tokenOut` to receive from UniSwap",
          "path": "Swap path to execute",
          "tokenIn": "Token to sell to UniSwap",
          "tokenOut": "Token to receive from UniSwapx"
        }
      },
      "handleUnbindToken(address,uint256)": {
        "details": "Receive `amount` of `token` from the pool."
      },
      "initialize(address,uint8)": {
        "details": "Initialize the proxy contract with the acceptable premium rate and the address of the pool it is for."
      },
      "setPremiumPercent(uint8)": {
        "details": "Set the premium rate as a percent."
      },
      "swapExactTokensForTokens(address,address,uint256,uint256)": {
        "details": "Swap exactly `amountIn` of `tokenIn` for at least `minAmountOut` of `tokenOut`.",
        "params": {
          "amountIn": "Amount of `tokenIn` to sell to pool",
          "minAmountOut": "Minimum amount of `tokenOut` to buy from pool",
          "tokenIn": "Token to sell to pool",
          "tokenOut": "Token to buy from pool"
        }
      },
      "swapTokensForExactTokens(address,address,uint256,uint256)": {
        "details": "Swap up to `maxAmountIn` of `tokenIn` for exactly `amountOut` of `tokenOut`.",
        "params": {
          "amountOut": "Amount of `tokenOut` to buy from pool",
          "maxAmountIn": "Maximum amount of `tokenIn` to sell to pool",
          "tokenIn": "Token to sell to pool",
          "tokenOut": "Token to buy from pool"
        }
      }
    },
    "title": "UnboundTokenSeller",
    "version": 1
  },
  "userdoc": {
    "kind": "user",
    "methods": {},
    "version": 1
  },
  "storageLayout": {
    "storage": [
      {
        "astId": 6614,
        "contract": "contracts/UnboundTokenSeller.sol:UnboundTokenSeller",
        "label": "_pool",
        "offset": 0,
        "slot": "0",
        "type": "t_contract(IPool)12688"
      },
      {
        "astId": 6616,
        "contract": "contracts/UnboundTokenSeller.sol:UnboundTokenSeller",
        "label": "_premiumPercent",
        "offset": 20,
        "slot": "0",
        "type": "t_uint8"
      },
      {
        "astId": 6618,
        "contract": "contracts/UnboundTokenSeller.sol:UnboundTokenSeller",
        "label": "_mutex",
        "offset": 21,
        "slot": "0",
        "type": "t_bool"
      }
    ],
    "types": {
      "t_bool": {
        "encoding": "inplace",
        "label": "bool",
        "numberOfBytes": "1"
      },
      "t_contract(IPool)12688": {
        "encoding": "inplace",
        "label": "contract IPool",
        "numberOfBytes": "20"
      },
      "t_uint8": {
        "encoding": "inplace",
        "label": "uint8",
        "numberOfBytes": "1"
      }
    }
  },
  "gasEstimates": {
    "creation": {
      "codeDepositCost": "1573800",
      "executionCost": "infinite",
      "totalCost": "infinite"
    },
    "external": {
      "calcInGivenOut(address,address,uint256)": "infinite",
      "calcOutGivenIn(address,address,uint256)": "infinite",
      "executeSwapExactTokensForTokens(address,address,uint256,address[])": "infinite",
      "executeSwapTokensForExactTokens(address,address,uint256,address[])": "infinite",
      "getPremiumPercent()": "1108",
      "handleUnbindToken(address,uint256)": "2697",
      "initialize(address,uint8)": "infinite",
      "setPremiumPercent(uint8)": "infinite",
      "swapExactTokensForTokens(address,address,uint256,uint256)": "infinite",
      "swapTokensForExactTokens(address,address,uint256,uint256)": "infinite"
    },
    "internal": {
      "_getAveragePrices(address,address)": "infinite",
      "_maximumPaidValue(uint256)": "956",
      "_minimumReceivedValue(uint256)": "883"
    }
  }
}