{
  "abi": [
    {
      "inputs": [
        {
          "internalType": "contract IUniswapV2Router02",
          "name": "uniswapRouter",
          "type": "address"
        },
        {
          "internalType": "contract IIndexedUniswapV2Oracle",
          "name": "oracle_",
          "type": "address"
        },
        {
          "internalType": "address",
          "name": "controller_",
          "type": "address"
        }
      ],
      "stateMutability": "nonpayable",
      "type": "constructor"
    },
    {
      "anonymous": false,
      "inputs": [
        {
          "indexed": true,
          "internalType": "address",
          "name": "token",
          "type": "address"
        },
        {
          "indexed": false,
          "internalType": "uint256",
          "name": "amountReceived",
          "type": "uint256"
        }
      ],
      "name": "NewTokensToSell",
      "type": "event"
    },
    {
      "anonymous": false,
      "inputs": [
        {
          "indexed": false,
          "internalType": "uint8",
          "name": "premium",
          "type": "uint8"
        }
      ],
      "name": "PremiumPercentSet",
      "type": "event"
    },
    {
      "anonymous": false,
      "inputs": [
        {
          "indexed": true,
          "internalType": "address",
          "name": "tokenSold",
          "type": "address"
        },
        {
          "indexed": true,
          "internalType": "address",
          "name": "tokenBought",
          "type": "address"
        },
        {
          "indexed": false,
          "internalType": "uint256",
          "name": "soldAmount",
          "type": "uint256"
        },
        {
          "indexed": false,
          "internalType": "uint256",
          "name": "boughtAmount",
          "type": "uint256"
        }
      ],
      "name": "SwappedTokens",
      "type": "event"
    },
    {
      "inputs": [
        {
          "internalType": "address",
          "name": "tokenIn",
          "type": "address"
        },
        {
          "internalType": "address",
          "name": "tokenOut",
          "type": "address"
        },
        {
          "internalType": "uint256",
          "name": "amountOut",
          "type": "uint256"
        }
      ],
      "name": "calcInGivenOut",
      "outputs": [
        {
          "internalType": "uint256",
          "name": "amountIn",
          "type": "uint256"
        }
      ],
      "stateMutability": "view",
      "type": "function"
    },
    {
      "inputs": [
        {
          "internalType": "address",
          "name": "tokenIn",
          "type": "address"
        },
        {
          "internalType": "address",
          "name": "tokenOut",
          "type": "address"
        },
        {
          "internalType": "uint256",
          "name": "amountIn",
          "type": "uint256"
        }
      ],
      "name": "calcOutGivenIn",
      "outputs": [
        {
          "internalType": "uint256",
          "name": "amountOut",
          "type": "uint256"
        }
      ],
      "stateMutability": "view",
      "type": "function"
    },
    {
      "inputs": [],
      "name": "controller",
      "outputs": [
        {
          "internalType": "address",
          "name": "",
          "type": "address"
        }
      ],
      "stateMutability": "view",
      "type": "function"
    },
    {
      "inputs": [
        {
          "internalType": "address",
          "name": "tokenIn",
          "type": "address"
        },
        {
          "internalType": "address",
          "name": "tokenOut",
          "type": "address"
        },
        {
          "internalType": "uint256",
          "name": "amountIn",
          "type": "uint256"
        },
        {
          "internalType": "address[]",
          "name": "path",
          "type": "address[]"
        }
      ],
      "name": "executeSwapExactTokensForTokens",
      "outputs": [
        {
          "internalType": "uint256",
          "name": "premiumPaidToCaller",
          "type": "uint256"
        }
      ],
      "stateMutability": "nonpayable",
      "type": "function"
    },
    {
      "inputs": [
        {
          "internalType": "address",
          "name": "tokenIn",
          "type": "address"
        },
        {
          "internalType": "address",
          "name": "tokenOut",
          "type": "address"
        },
        {
          "internalType": "uint256",
          "name": "amountOut",
          "type": "uint256"
        },
        {
          "internalType": "address[]",
          "name": "path",
          "type": "address[]"
        }
      ],
      "name": "executeSwapTokensForExactTokens",
      "outputs": [
        {
          "internalType": "uint256",
          "name": "premiumPaidToCaller",
          "type": "uint256"
        }
      ],
      "stateMutability": "nonpayable",
      "type": "function"
    },
    {
      "inputs": [],
      "name": "getPremiumPercent",
      "outputs": [
        {
          "internalType": "uint8",
          "name": "",
          "type": "uint8"
        }
      ],
      "stateMutability": "view",
      "type": "function"
    },
    {
      "inputs": [
        {
          "internalType": "address",
          "name": "token",
          "type": "address"
        },
        {
          "internalType": "uint256",
          "name": "amount",
          "type": "uint256"
        }
      ],
      "name": "handleUnbindToken",
      "outputs": [],
      "stateMutability": "nonpayable",
      "type": "function"
    },
    {
      "inputs": [
        {
          "internalType": "contract IPool",
          "name": "pool",
          "type": "address"
        },
        {
          "internalType": "uint8",
          "name": "premiumPercent",
          "type": "uint8"
        }
      ],
      "name": "initialize",
      "outputs": [],
      "stateMutability": "nonpayable",
      "type": "function"
    },
    {
      "inputs": [],
      "name": "oracle",
      "outputs": [
        {
          "internalType": "contract IIndexedUniswapV2Oracle",
          "name": "",
          "type": "address"
        }
      ],
      "stateMutability": "view",
      "type": "function"
    },
    {
      "inputs": [
        {
          "internalType": "uint8",
          "name": "premiumPercent",
          "type": "uint8"
        }
      ],
      "name": "setPremiumPercent",
      "outputs": [],
      "stateMutability": "nonpayable",
      "type": "function"
    },
    {
      "inputs": [
        {
          "internalType": "address",
          "name": "tokenIn",
          "type": "address"
        },
        {
          "internalType": "address",
          "name": "tokenOut",
          "type": "address"
        },
        {
          "internalType": "uint256",
          "name": "amountIn",
          "type": "uint256"
        },
        {
          "internalType": "uint256",
          "name": "minAmountOut",
          "type": "uint256"
        }
      ],
      "name": "swapExactTokensForTokens",
      "outputs": [
        {
          "internalType": "uint256",
          "name": "amountOut",
          "type": "uint256"
        }
      ],
      "stateMutability": "nonpayable",
      "type": "function"
    },
    {
      "inputs": [
        {
          "internalType": "address",
          "name": "tokenIn",
          "type": "address"
        },
        {
          "internalType": "address",
          "name": "tokenOut",
          "type": "address"
        },
        {
          "internalType": "uint256",
          "name": "amountOut",
          "type": "uint256"
        },
        {
          "internalType": "uint256",
          "name": "maxAmountIn",
          "type": "uint256"
        }
      ],
      "name": "swapTokensForExactTokens",
      "outputs": [
        {
          "internalType": "uint256",
          "name": "amountIn",
          "type": "uint256"
        }
      ],
      "stateMutability": "nonpayable",
      "type": "function"
    }
  ],
  "address": "0xE3B0599AC160E9cF7D66913281D0f2597Fe43208",
  "args": [
    "0x7a250d5630B4cF539739dF2C5dAcb4c659F2488D",
    "0x8C5bAe4c044b8CaD35F36adb62D22cFaF97bC79b",
    "0xABCc7CE99c961cA06D1Cd714228765b9526a669d"
  ],
  "solcInputHash": "0xaf8c618a376cbc497299d7a053a95bf87290e7411f280b695e28e1d76929501e",
  "bytecode": "0x60e06040523480156200001157600080fd5b50604051620020773803806200207783398101604081905262000034916200005c565b6001600160601b0319606093841b811660805291831b821660c05290911b1660a052620000c8565b60008060006060848603121562000071578283fd5b83516200007e81620000af565b60208501519093506200009181620000af565b6040850151909250620000a481620000af565b809150509250925092565b6001600160a01b0381168114620000c557600080fd5b50565b60805160601c60a05160601c60c05160601c611f56620001216000398061059e52806110f55250806104da52806106fc5280610d0e525080610a795280610b4e5280610c175280610d8a5280610e5c5250611f566000f3fe608060405234801561001057600080fd5b50600436106100b45760003560e01c8063943b24b211610071578063943b24b214610147578063b25ccf2c1461015a578063c1704af21461016d578063e11986d114610180578063f77c479114610193578063fdf520bb1461019b576100b4565b80633bc5ebe7146100b95780634f33937f146100e25780635ea27538146100f5578063633177101461010a5780637dc0d1d01461011f57806389fe039b14610134575b600080fd5b6100cc6100c73660046116f4565b6101ae565b6040516100d99190611dce565b60405180910390f35b6100cc6100f0366004611618565b610305565b6100fd6104bf565b6040516100d99190611e58565b61011d6101183660046119a6565b6104cf565b005b61012761059c565b6040516100d991906119de565b6100cc6101423660046116f4565b6105c0565b61011d6101553660046118b7565b6106f1565b6100cc610168366004611618565b6107f6565b61011d61017b366004611739565b6109b0565b6100cc61018e366004611658565b610a1f565b610127610d0c565b6100cc6101a9366004611658565b610d30565b60008054600160a81b900460ff16156101e25760405162461bcd60e51b81526004016101d990611bd9565b60405180910390fd5b6000805460ff60a81b1916600160a81b179055610200858585610305565b9050818111156102225760405162461bcd60e51b81526004016101d990611b85565b60005461023e906001600160a01b038781169133911684610fdf565b600054604051631185197d60e31b81526001600160a01b0390911690638c28cbe89061026e9088906004016119de565b600060405180830381600087803b15801561028857600080fd5b505af115801561029c573d6000803e3d6000fd5b506102b5925050506001600160a01b038516338561103d565b846001600160a01b0316846001600160a01b0316600080516020611f0183398151915285846040516102e8929190611dd7565b60405180910390a36000805460ff60a81b19169055949350505050565b600083610310611505565b6000546040516364c7d66160e01b81526001600160a01b03909116906364c7d661906103409085906004016119de565b60e06040518083038186803b15801561035857600080fd5b505afa15801561036c573d6000803e3d6000fd5b505050506040513d601f19601f8201168201806040525081019061039091906118ef565b9050600081608001516001600160601b0316116103bf5760405162461bcd60e51b81526004016101d990611b58565b6040516370a0823160e01b815284906001600160a01b038716906370a08231906103ed9030906004016119de565b60206040518083038186803b15801561040557600080fd5b505afa158015610419573d6000803e3d6000fd5b505050506040513d601f19601f8201168201806040525081019061043d919061198e565b101561045b5760405162461bcd60e51b81526004016101d990611d41565b610463611541565b61046b611541565b6104758888611061565b9092509050600061048682886111c0565b9050600061049c826001600160901b03166111f7565b90506104a88482611217565b6001600160901b03169a9950505050505050505050565b600054600160a01b900460ff1690565b336001600160a01b037f000000000000000000000000000000000000000000000000000000000000000016146105175760405162461bcd60e51b81526004016101d990611ae0565b60008160ff1611801561052d575060148160ff16105b6105495760405162461bcd60e51b81526004016101d990611b33565b6000805460ff60a01b1916600160a01b60ff8416021790556040517fc53b2421172f8be019daf92988365a3072876f2747c0a3d4b28cd13fcc6f005e90610591908390611e58565b60405180910390a150565b7f000000000000000000000000000000000000000000000000000000000000000081565b60008054600160a81b900460ff16156105eb5760405162461bcd60e51b81526004016101d990611bd9565b6000805460ff60a81b1916600160a81b1790556106098585856107f6565b90508181101561062b5760405162461bcd60e51b81526004016101d990611c27565b600054610647906001600160a01b038781169133911686610fdf565b600054604051631185197d60e31b81526001600160a01b0390911690638c28cbe8906106779088906004016119de565b600060405180830381600087803b15801561069157600080fd5b505af11580156106a5573d6000803e3d6000fd5b506106be925050506001600160a01b038516338361103d565b846001600160a01b0316846001600160a01b0316600080516020611f0183398151915283866040516102e8929190611dd7565b336001600160a01b037f000000000000000000000000000000000000000000000000000000000000000016146107395760405162461bcd60e51b81526004016101d990611ae0565b6000546001600160a01b0316156107625760405162461bcd60e51b81526004016101d990611bb0565b6001600160a01b0382166107885760405162461bcd60e51b81526004016101d990611ccd565b60008160ff1611801561079e575060148160ff16105b6107ba5760405162461bcd60e51b81526004016101d990611b33565b600080546001600160a01b039093166001600160a01b031960ff909316600160a01b0260ff60a01b199094169390931791909116919091179055565b600083610801611505565b6000546040516364c7d66160e01b81526001600160a01b03909116906364c7d661906108319085906004016119de565b60e06040518083038186803b15801561084957600080fd5b505afa15801561085d573d6000803e3d6000fd5b505050506040513d601f19601f8201168201806040525081019061088191906118ef565b9050600081608001516001600160601b0316116108b05760405162461bcd60e51b81526004016101d990611b58565b6108b8611541565b6108c0611541565b6108ca8888611061565b909250905060006108db83886111c0565b905060006108f1826001600160901b031661124a565b90506108fd8382611217565b6001600160901b0316965086896001600160a01b03166370a08231306040518263ffffffff1660e01b815260040161093591906119de565b60206040518083038186803b15801561094d57600080fd5b505afa158015610961573d6000803e3d6000fd5b505050506040513d601f19601f82011682018060405250810190610985919061198e565b10156109a35760405162461bcd60e51b81526004016101d990611d41565b5050505050509392505050565b6000546001600160a01b031633146109da5760405162461bcd60e51b81526004016101d990611b0c565b816001600160a01b03167ff93f11706ef5199cb4b091ba127aefd4e260584c810114c438e1ac3ecddecd5282604051610a139190611dce565b60405180910390a25050565b60008054600160a81b900460ff1615610a4a5760405162461bcd60e51b81526004016101d990611bd9565b6000805460ff60a81b1916600160a81b178155610a688688876107f6565b9050610a9e6001600160a01b0388167f00000000000000000000000000000000000000000000000000000000000000008361126c565b866001600160a01b031684846000818110610ab557fe5b9050602002016020810190610aca91906115f5565b6001600160a01b0316148015610b1557506001600160a01b03861684846000198101818110610af557fe5b9050602002016020810190610b0a91906115f5565b6001600160a01b0316145b610b315760405162461bcd60e51b81526004016101d990611bfe565b600054604051634401edf760e11b81526060916001600160a01b037f0000000000000000000000000000000000000000000000000000000000000000811692638803dbee92610b8f928b9288928c928c929116904290600401611de5565b600060405180830381600087803b158015610ba957600080fd5b505af1158015610bbd573d6000803e3d6000fd5b505050506040513d6000823e601f3d908101601f19168201604052610be59190810190611807565b9050600081600081518110610bf657fe5b6020026020010151905082811015610c5657610c3d6001600160a01b038a167f0000000000000000000000000000000000000000000000000000000000000000600061126c565b8083039350610c566001600160a01b038a16338661103d565b600054604051631185197d60e31b81526001600160a01b0390911690638c28cbe890610c86908b906004016119de565b600060405180830381600087803b158015610ca057600080fd5b505af1158015610cb4573d6000803e3d6000fd5b50505050876001600160a01b0316896001600160a01b0316600080516020611f01833981519152838a604051610ceb929190611dd7565b60405180910390a350506000805460ff60a81b191690555095945050505050565b7f000000000000000000000000000000000000000000000000000000000000000081565b60008054600160a81b900460ff1615610d5b5760405162461bcd60e51b81526004016101d990611bd9565b6000805460ff60a81b1916600160a81b178155610d79868887610305565b9050610daf6001600160a01b0388167f00000000000000000000000000000000000000000000000000000000000000008761126c565b866001600160a01b031684846000818110610dc657fe5b9050602002016020810190610ddb91906115f5565b6001600160a01b0316148015610e2657506001600160a01b03861684846000198101818110610e0657fe5b9050602002016020810190610e1b91906115f5565b6001600160a01b0316145b610e425760405162461bcd60e51b81526004016101d990611bfe565b6040516338ed173960e01b81526060906001600160a01b037f000000000000000000000000000000000000000000000000000000000000000016906338ed173990610e9b90899086908a908a9030904290600401611de5565b600060405180830381600087803b158015610eb557600080fd5b505af1158015610ec9573d6000803e3d6000fd5b505050506040513d6000823e601f3d908101601f19168201604052610ef19190810190611807565b9050600081600183510381518110610f0557fe5b6020026020010151905082811115610f30578281039350610f306001600160a01b038916338661103d565b600054610f4a906001600160a01b038a811691168561103d565b600054604051631185197d60e31b81526001600160a01b0390911690638c28cbe890610f7a908b906004016119de565b600060405180830381600087803b158015610f9457600080fd5b505af1158015610fa8573d6000803e3d6000fd5b50505050876001600160a01b0316896001600160a01b0316600080516020611f018339815191528984604051610ceb929190611dd7565b611037846323b872dd60e01b85858560405160240161100093929190611a0c565b60408051601f198184030181529190526020810180516001600160e01b03166001600160e01b03199093169290921790915261132f565b50505050565b61105c8363a9059cbb60e01b8484604051602401611000929190611a30565b505050565b611069611541565b611071611541565b6040805160028082526060808301845292602083019080368337019050509050848160008151811061109f57fe5b60200260200101906001600160a01b031690816001600160a01b03168152505083816001815181106110cd57fe5b6001600160a01b03928316602091820292909201015260405163768d2c1960e01b81526060917f0000000000000000000000000000000000000000000000000000000000000000169063768d2c19906111339085906104b0906202a30090600401611a49565b60006040518083038186803b15801561114b57600080fd5b505afa15801561115f573d6000803e3d6000fd5b505050506040513d6000823e601f3d908101601f191682016040526111879190810190611764565b90508060008151811061119657fe5b60200260200101519350806001815181106111ad57fe5b6020026020010151925050509250929050565b604080516020810190915282516001600160e01b031681526000906111ee906111e990846113be565b61141d565b90505b92915050565b6000805460649060ff600160a01b909104811682031683025b0492915050565b60006111ee6111e983604051806020016040528087602001516001600160e01b03168152506113be90919063ffffffff16565b60008060149054906101000a900460ff1660640360ff16826064028161121057fe5b8015806112f45750604051636eb1769f60e11b81526001600160a01b0384169063dd62ed3e906112a290309086906004016119f2565b60206040518083038186803b1580156112ba57600080fd5b505afa1580156112ce573d6000803e3d6000fd5b505050506040513d601f19601f820116820180604052508101906112f2919061198e565b155b6113105760405162461bcd60e51b81526004016101d990611d78565b61105c8363095ea7b360e01b8484604051602401611000929190611a30565b6060611384826040518060400160405280602081526020017f5361666545524332303a206c6f772d6c6576656c2063616c6c206661696c6564815250856001600160a01b03166114249092919063ffffffff16565b80519091501561105c57808060200190518101906113a29190611897565b61105c5760405162461bcd60e51b81526004016101d990611cf7565b6113c6611558565b60008215806113ec57505082516001600160e01b0316828102908382816113e957fe5b04145b6114085760405162461bcd60e51b81526004016101d990611c53565b60408051602081019091529081529392505050565b5160701c90565b6060611433848460008561143b565b949350505050565b6060611446856114ff565b6114625760405162461bcd60e51b81526004016101d990611c96565b60006060866001600160a01b0316858760405161147f91906119c2565b60006040518083038185875af1925050503d80600081146114bc576040519150601f19603f3d011682016040523d82523d6000602084013e6114c1565b606091505b509150915081156114d55791506114339050565b8051156114e55780518082602001fd5b8360405162461bcd60e51b81526004016101d99190611aad565b3b151590565b6040805160e081018252600080825260208201819052918101829052606081018290526080810182905260a0810182905260c081019190915290565b604080518082019091526000808252602082015290565b6040518060200160405280600081525090565b805180151581146111f157600080fd5b60006040828403121561158c578081fd5b6115966040611e66565b90506115a283836115bc565b81526115b183602084016115bc565b602082015292915050565b80516001600160e01b03811681146111f157600080fd5b80516111f181611ef1565b80516001600160601b03811681146111f157600080fd5b600060208284031215611606578081fd5b813561161181611ed9565b9392505050565b60008060006060848603121561162c578182fd5b833561163781611ed9565b9250602084013561164781611ed9565b929592945050506040919091013590565b60008060008060006080868803121561166f578081fd5b853561167a81611ed9565b9450602086013561168a81611ed9565b935060408601359250606086013567ffffffffffffffff808211156116ad578283fd5b818801915088601f8301126116c0578283fd5b8135818111156116ce578384fd5b89602080830285010111156116e1578384fd5b9699959850939650602001949392505050565b60008060008060808587031215611709578384fd5b843561171481611ed9565b9350602085013561172481611ed9565b93969395505050506040820135916060013590565b6000806040838503121561174b578182fd5b823561175681611ed9565b946020939093013593505050565b60006020808385031215611776578182fd5b825167ffffffffffffffff81111561178c578283fd5b8301601f8101851361179c578283fd5b80516117af6117aa82611e8d565b611e66565b818152838101908385016040808502860187018a10156117cd578788fd5b8795505b848610156117f9576117e38a8361157b565b84526001959095019492860192908101906117d1565b509098975050505050505050565b60006020808385031215611819578182fd5b825167ffffffffffffffff81111561182f578283fd5b8301601f8101851361183f578283fd5b805161184d6117aa82611e8d565b8181528381019083850185840285018601891015611869578687fd5b8694505b8385101561188b57805183526001949094019391850191850161186d565b50979650505050505050565b6000602082840312156118a8578081fd5b81518015158114611611578182fd5b600080604083850312156118c9578182fd5b82356118d481611ed9565b915060208301356118e481611ef1565b809150509250929050565b600060e08284031215611900578081fd5b61190a60e0611e66565b611914848461156b565b8152611923846020850161156b565b6020820152604083015164ffffffffff8116811461193f578283fd5b604082015261195184606085016115de565b606082015261196384608085016115de565b60808201526119758460a085016115d3565b60a082015260c083015160c08201528091505092915050565b60006020828403121561199f578081fd5b5051919050565b6000602082840312156119b7578081fd5b813561161181611ef1565b600082516119d4818460208701611ead565b9190910192915050565b6001600160a01b0391909116815260200190565b6001600160a01b0392831681529116602082015260400190565b6001600160a01b039384168152919092166020820152604081019190915260600190565b6001600160a01b03929092168252602082015260400190565b606080825284519082018190526000906020906080840190828801845b82811015611a8b5781516001600160a01b031684529284019290840190600101611a66565b50505063ffffffff958616918401919091529290931660409091015292915050565b6000602082528251806020840152611acc816040850160208701611ead565b601f01601f19169190910160400192915050565b60208082526012908201527122a9292fa727aa2fa1a7a72a2927a62622a960711b604082015260600190565b6020808252600d908201526c11549497d3d3931657d413d3d3609a1b604082015260600190565b6020808252600b908201526a4552525f5052454d49554d60a81b604082015260600190565b60208082526013908201527222a9292faaa72222a9a4a922a22faa27a5a2a760691b604082015260600190565b60208082526011908201527022a9292fa6a0ac2fa0a6a7aaa72a2fa4a760791b604082015260600190565b6020808252600f908201526e11549497d253925512505312569151608a1b604082015260600190565b6020808252600b908201526a4552525f5245454e54525960a81b604082015260600190565b6020808252600f908201526e4552525f504154485f544f4b454e5360881b604082015260600190565b60208082526012908201527111549497d3525397d05353d5539517d3d55560721b604082015260600190565b60208082526023908201527f4669786564506f696e743a204d554c5449504c49434154494f4e5f4f564552466040820152624c4f5760e81b606082015260800190565b6020808252601d908201527f416464726573733a2063616c6c20746f206e6f6e2d636f6e7472616374000000604082015260600190565b60208082526010908201526f4552525f4e554c4c5f4144445245535360801b604082015260600190565b6020808252602a908201527f5361666545524332303a204552433230206f7065726174696f6e20646964206e6040820152691bdd081cdd58d8d9595960b21b606082015260800190565b60208082526018908201527f4552525f494e53554646494349454e545f42414c414e43450000000000000000604082015260600190565b60208082526036908201527f5361666545524332303a20617070726f76652066726f6d206e6f6e2d7a65726f60408201527520746f206e6f6e2d7a65726f20616c6c6f77616e636560501b606082015260800190565b90815260200190565b918252602082015260400190565b868152602080820187905260a0604083018190528201859052600090869060c08401835b88811015611e37578335611e1c81611ed9565b6001600160a01b031682529282019290820190600101611e09565b506001600160a01b0396909616606085015250505060800152949350505050565b60ff91909116815260200190565b60405181810167ffffffffffffffff81118282101715611e8557600080fd5b604052919050565b600067ffffffffffffffff821115611ea3578081fd5b5060209081020190565b60005b83811015611ec8578181015183820152602001611eb0565b838111156110375750506000910152565b6001600160a01b0381168114611eee57600080fd5b50565b60ff81168114611eee57600080fdfe43a6165165685ef04ce68fd0b620a88554df7464167d1fd61ff8b3802a4146f5a264697066735822122079ef03dc8369f963d44e8b590730a5b411a937253bb75dc15ad948591c53eced64736f6c634300060c0033",
  "devdoc": {
    "author": "d1ll0n",
    "details": "Contract for swapping undesired tokens to desired tokens for an index pool. This contract is deployed as a proxy for each index pool. When tokens are unbound from a pool, they are transferred to this contract and sold on UniSwap or to anyone who calls the contract in exchange for any token which is currently bound to its index pool and which has a desired weight about zero. It uses a short-term uniswap price oracle to price swaps and has a configurable premium rate which is used to decrease the expected output from a swap and to reward callers for triggering a sale. The contract does not track the tokens it has received in order to reduce gas spent by the pool contract. Tokens must be tracked via events, meaning this is not well suited for trades with other smart contracts.",
    "events": {
      "SwappedTokens(address,address,uint256,uint256)": {
        "params": {
          "boughtAmount": "Amount of `tokenBought` sent to pool",
          "soldAmount": "Amount of `tokenSold` paid to caller",
          "tokenBought": "Token received from caller and sent to pool",
          "tokenSold": "Token sent to caller"
        }
      }
    },
    "kind": "dev",
    "methods": {
      "calcInGivenOut(address,address,uint256)": {
        "details": "Calculate the amount of `tokenIn` the pool will accept for `amountOut` of `tokenOut`."
      },
      "calcOutGivenIn(address,address,uint256)": {
        "details": "Calculate the amount of `tokenOut` the pool will give for `amountIn` of `tokenIn`."
      },
      "executeSwapExactTokensForTokens(address,address,uint256,address[])": {
        "details": "Executes a trade with UniSwap to sell some tokens held by the contract for some tokens desired by the pool and pays the caller any tokens received above the minimum acceptable output.",
        "params": {
          "amountIn": "Exact amount of `tokenIn` to give UniSwap",
          "path": "Swap path to execute",
          "tokenIn": "Token to sell to UniSwap",
          "tokenOut": "Token to receive from UniSwap"
        }
      },
      "executeSwapTokensForExactTokens(address,address,uint256,address[])": {
        "details": "Execute a trade with UniSwap to sell some tokens held by the contract for some tokens desired by the pool and pays the caller the difference between the maximum input value and the actual paid amount.",
        "params": {
          "amountOut": "Exact amount of `tokenOut` to receive from UniSwap",
          "path": "Swap path to execute",
          "tokenIn": "Token to sell to UniSwap",
          "tokenOut": "Token to receive from UniSwapx"
        }
      },
      "handleUnbindToken(address,uint256)": {
        "details": "Receive `amount` of `token` from the pool."
      },
      "initialize(address,uint8)": {
        "details": "Initialize the proxy contract with the acceptable premium rate and the address of the pool it is for."
      },
      "setPremiumPercent(uint8)": {
        "details": "Set the premium rate as a percent."
      },
      "swapExactTokensForTokens(address,address,uint256,uint256)": {
        "details": "Swap exactly `amountIn` of `tokenIn` for at least `minAmountOut` of `tokenOut`.",
        "params": {
          "amountIn": "Amount of `tokenIn` to sell to pool",
          "minAmountOut": "Minimum amount of `tokenOut` to buy from pool",
          "tokenIn": "Token to sell to pool",
          "tokenOut": "Token to buy from pool"
        }
      },
      "swapTokensForExactTokens(address,address,uint256,uint256)": {
        "details": "Swap up to `maxAmountIn` of `tokenIn` for exactly `amountOut` of `tokenOut`.",
        "params": {
          "amountOut": "Amount of `tokenOut` to buy from pool",
          "maxAmountIn": "Maximum amount of `tokenIn` to sell to pool",
          "tokenIn": "Token to sell to pool",
          "tokenOut": "Token to buy from pool"
        }
      }
    },
    "title": "UnboundTokenSeller",
    "version": 1
  },
  "userdoc": {
    "kind": "user",
    "methods": {},
    "version": 1
  },
  "storageLayout": {
    "storage": [
      {
        "astId": 6611,
        "contract": "contracts/UnboundTokenSeller.sol:UnboundTokenSeller",
        "label": "_pool",
        "offset": 0,
        "slot": "0",
        "type": "t_contract(IPool)12685"
      },
      {
        "astId": 6613,
        "contract": "contracts/UnboundTokenSeller.sol:UnboundTokenSeller",
        "label": "_premiumPercent",
        "offset": 20,
        "slot": "0",
        "type": "t_uint8"
      },
      {
        "astId": 6615,
        "contract": "contracts/UnboundTokenSeller.sol:UnboundTokenSeller",
        "label": "_mutex",
        "offset": 21,
        "slot": "0",
        "type": "t_bool"
      }
    ],
    "types": {
      "t_bool": {
        "encoding": "inplace",
        "label": "bool",
        "numberOfBytes": "1"
      },
      "t_contract(IPool)12685": {
        "encoding": "inplace",
        "label": "contract IPool",
        "numberOfBytes": "20"
      },
      "t_uint8": {
        "encoding": "inplace",
        "label": "uint8",
        "numberOfBytes": "1"
      }
    }
  },
  "gasEstimates": {
    "creation": {
      "codeDepositCost": "1604400",
      "executionCost": "infinite",
      "totalCost": "infinite"
    },
    "external": {
      "calcInGivenOut(address,address,uint256)": "infinite",
      "calcOutGivenIn(address,address,uint256)": "infinite",
      "controller()": "infinite",
      "executeSwapExactTokensForTokens(address,address,uint256,address[])": "infinite",
      "executeSwapTokensForExactTokens(address,address,uint256,address[])": "infinite",
      "getPremiumPercent()": "1108",
      "handleUnbindToken(address,uint256)": "2697",
      "initialize(address,uint8)": "infinite",
      "oracle()": "infinite",
      "setPremiumPercent(uint8)": "infinite",
      "swapExactTokensForTokens(address,address,uint256,uint256)": "infinite",
      "swapTokensForExactTokens(address,address,uint256,uint256)": "infinite"
    },
    "internal": {
      "_getAveragePrices(address,address)": "infinite",
      "_maximumPaidValue(uint256)": "956",
      "_minimumReceivedValue(uint256)": "883"
    }
  }
}