{
  "abi": [
    {
      "anonymous": false,
      "inputs": [
        {
          "indexed": true,
          "internalType": "address",
          "name": "src",
          "type": "address"
        },
        {
          "indexed": true,
          "internalType": "address",
          "name": "dst",
          "type": "address"
        },
        {
          "indexed": false,
          "internalType": "uint256",
          "name": "amt",
          "type": "uint256"
        }
      ],
      "name": "Approval",
      "type": "event"
    },
    {
      "anonymous": false,
      "inputs": [
        {
          "indexed": false,
          "internalType": "address",
          "name": "exitFeeRecipient",
          "type": "address"
        }
      ],
      "name": "LOG_CONTROLLER_UPDATED",
      "type": "event"
    },
    {
      "anonymous": false,
      "inputs": [
        {
          "indexed": true,
          "internalType": "address",
          "name": "token",
          "type": "address"
        },
        {
          "indexed": false,
          "internalType": "uint256",
          "name": "newDenorm",
          "type": "uint256"
        }
      ],
      "name": "LOG_DENORM_UPDATED",
      "type": "event"
    },
    {
      "anonymous": false,
      "inputs": [
        {
          "indexed": true,
          "internalType": "address",
          "name": "token",
          "type": "address"
        },
        {
          "indexed": false,
          "internalType": "uint256",
          "name": "desiredDenorm",
          "type": "uint256"
        }
      ],
      "name": "LOG_DESIRED_DENORM_SET",
      "type": "event"
    },
    {
      "anonymous": false,
      "inputs": [
        {
          "indexed": true,
          "internalType": "address",
          "name": "caller",
          "type": "address"
        },
        {
          "indexed": true,
          "internalType": "address",
          "name": "tokenOut",
          "type": "address"
        },
        {
          "indexed": false,
          "internalType": "uint256",
          "name": "tokenAmountOut",
          "type": "uint256"
        }
      ],
      "name": "LOG_EXIT",
      "type": "event"
    },
    {
      "anonymous": false,
      "inputs": [
        {
          "indexed": false,
          "internalType": "address",
          "name": "exitFeeRecipient",
          "type": "address"
        }
      ],
      "name": "LOG_EXIT_FEE_RECIPIENT_UPDATED",
      "type": "event"
    },
    {
      "anonymous": false,
      "inputs": [
        {
          "indexed": true,
          "internalType": "address",
          "name": "caller",
          "type": "address"
        },
        {
          "indexed": true,
          "internalType": "address",
          "name": "tokenIn",
          "type": "address"
        },
        {
          "indexed": false,
          "internalType": "uint256",
          "name": "tokenAmountIn",
          "type": "uint256"
        }
      ],
      "name": "LOG_JOIN",
      "type": "event"
    },
    {
      "anonymous": false,
      "inputs": [
        {
          "indexed": false,
          "internalType": "address",
          "name": "token",
          "type": "address"
        },
        {
          "indexed": false,
          "internalType": "uint256",
          "name": "minimumBalance",
          "type": "uint256"
        }
      ],
      "name": "LOG_MINIMUM_BALANCE_UPDATED",
      "type": "event"
    },
    {
      "anonymous": false,
      "inputs": [],
      "name": "LOG_PUBLIC_SWAP_ENABLED",
      "type": "event"
    },
    {
      "anonymous": false,
      "inputs": [
        {
          "indexed": true,
          "internalType": "address",
          "name": "caller",
          "type": "address"
        },
        {
          "indexed": true,
          "internalType": "address",
          "name": "tokenIn",
          "type": "address"
        },
        {
          "indexed": true,
          "internalType": "address",
          "name": "tokenOut",
          "type": "address"
        },
        {
          "indexed": false,
          "internalType": "uint256",
          "name": "tokenAmountIn",
          "type": "uint256"
        },
        {
          "indexed": false,
          "internalType": "uint256",
          "name": "tokenAmountOut",
          "type": "uint256"
        }
      ],
      "name": "LOG_SWAP",
      "type": "event"
    },
    {
      "anonymous": false,
      "inputs": [
        {
          "indexed": false,
          "internalType": "uint256",
          "name": "swapFee",
          "type": "uint256"
        }
      ],
      "name": "LOG_SWAP_FEE_UPDATED",
      "type": "event"
    },
    {
      "anonymous": false,
      "inputs": [
        {
          "indexed": true,
          "internalType": "address",
          "name": "token",
          "type": "address"
        },
        {
          "indexed": false,
          "internalType": "uint256",
          "name": "desiredDenorm",
          "type": "uint256"
        },
        {
          "indexed": false,
          "internalType": "uint256",
          "name": "minimumBalance",
          "type": "uint256"
        }
      ],
      "name": "LOG_TOKEN_ADDED",
      "type": "event"
    },
    {
      "anonymous": false,
      "inputs": [
        {
          "indexed": true,
          "internalType": "address",
          "name": "token",
          "type": "address"
        }
      ],
      "name": "LOG_TOKEN_READY",
      "type": "event"
    },
    {
      "anonymous": false,
      "inputs": [
        {
          "indexed": false,
          "internalType": "address",
          "name": "token",
          "type": "address"
        }
      ],
      "name": "LOG_TOKEN_REMOVED",
      "type": "event"
    },
    {
      "anonymous": false,
      "inputs": [
        {
          "indexed": true,
          "internalType": "address",
          "name": "src",
          "type": "address"
        },
        {
          "indexed": true,
          "internalType": "address",
          "name": "dst",
          "type": "address"
        },
        {
          "indexed": false,
          "internalType": "uint256",
          "name": "amt",
          "type": "uint256"
        }
      ],
      "name": "Transfer",
      "type": "event"
    },
    {
      "inputs": [],
      "name": "VERSION_NUMBER",
      "outputs": [
        {
          "internalType": "uint256",
          "name": "",
          "type": "uint256"
        }
      ],
      "stateMutability": "view",
      "type": "function"
    },
    {
      "inputs": [
        {
          "internalType": "address",
          "name": "src",
          "type": "address"
        },
        {
          "internalType": "address",
          "name": "dst",
          "type": "address"
        }
      ],
      "name": "allowance",
      "outputs": [
        {
          "internalType": "uint256",
          "name": "",
          "type": "uint256"
        }
      ],
      "stateMutability": "view",
      "type": "function"
    },
    {
      "inputs": [
        {
          "internalType": "address",
          "name": "dst",
          "type": "address"
        },
        {
          "internalType": "uint256",
          "name": "amt",
          "type": "uint256"
        }
      ],
      "name": "approve",
      "outputs": [
        {
          "internalType": "bool",
          "name": "",
          "type": "bool"
        }
      ],
      "stateMutability": "nonpayable",
      "type": "function"
    },
    {
      "inputs": [
        {
          "internalType": "address",
          "name": "whom",
          "type": "address"
        }
      ],
      "name": "balanceOf",
      "outputs": [
        {
          "internalType": "uint256",
          "name": "",
          "type": "uint256"
        }
      ],
      "stateMutability": "view",
      "type": "function"
    },
    {
      "inputs": [
        {
          "internalType": "address",
          "name": "controller",
          "type": "address"
        },
        {
          "internalType": "string",
          "name": "name",
          "type": "string"
        },
        {
          "internalType": "string",
          "name": "symbol",
          "type": "string"
        },
        {
          "internalType": "address",
          "name": "exitFeeRecipient",
          "type": "address"
        }
      ],
      "name": "configure",
      "outputs": [],
      "stateMutability": "nonpayable",
      "type": "function"
    },
    {
      "inputs": [],
      "name": "decimals",
      "outputs": [
        {
          "internalType": "uint8",
          "name": "",
          "type": "uint8"
        }
      ],
      "stateMutability": "view",
      "type": "function"
    },
    {
      "inputs": [
        {
          "internalType": "address",
          "name": "dst",
          "type": "address"
        },
        {
          "internalType": "uint256",
          "name": "amt",
          "type": "uint256"
        }
      ],
      "name": "decreaseApproval",
      "outputs": [
        {
          "internalType": "bool",
          "name": "",
          "type": "bool"
        }
      ],
      "stateMutability": "nonpayable",
      "type": "function"
    },
    {
      "inputs": [
        {
          "internalType": "address",
          "name": "token",
          "type": "address"
        },
        {
          "internalType": "address",
          "name": "delegatee",
          "type": "address"
        }
      ],
      "name": "delegateCompLikeToken",
      "outputs": [],
      "stateMutability": "nonpayable",
      "type": "function"
    },
    {
      "inputs": [
        {
          "internalType": "uint256",
          "name": "poolAmountIn",
          "type": "uint256"
        },
        {
          "internalType": "uint256[]",
          "name": "minAmountsOut",
          "type": "uint256[]"
        }
      ],
      "name": "exitPool",
      "outputs": [],
      "stateMutability": "nonpayable",
      "type": "function"
    },
    {
      "inputs": [
        {
          "internalType": "address",
          "name": "tokenOut",
          "type": "address"
        },
        {
          "internalType": "uint256",
          "name": "tokenAmountOut",
          "type": "uint256"
        },
        {
          "internalType": "uint256",
          "name": "maxPoolAmountIn",
          "type": "uint256"
        }
      ],
      "name": "exitswapExternAmountOut",
      "outputs": [
        {
          "internalType": "uint256",
          "name": "",
          "type": "uint256"
        }
      ],
      "stateMutability": "nonpayable",
      "type": "function"
    },
    {
      "inputs": [
        {
          "internalType": "address",
          "name": "tokenOut",
          "type": "address"
        },
        {
          "internalType": "uint256",
          "name": "poolAmountIn",
          "type": "uint256"
        },
        {
          "internalType": "uint256",
          "name": "minAmountOut",
          "type": "uint256"
        }
      ],
      "name": "exitswapPoolAmountIn",
      "outputs": [
        {
          "internalType": "uint256",
          "name": "",
          "type": "uint256"
        }
      ],
      "stateMutability": "nonpayable",
      "type": "function"
    },
    {
      "inputs": [],
      "name": "extrapolatePoolValueFromToken",
      "outputs": [
        {
          "internalType": "address",
          "name": "",
          "type": "address"
        },
        {
          "internalType": "uint256",
          "name": "",
          "type": "uint256"
        }
      ],
      "stateMutability": "view",
      "type": "function"
    },
    {
      "inputs": [
        {
          "internalType": "address",
          "name": "token",
          "type": "address"
        }
      ],
      "name": "getBalance",
      "outputs": [
        {
          "internalType": "uint256",
          "name": "",
          "type": "uint256"
        }
      ],
      "stateMutability": "view",
      "type": "function"
    },
    {
      "inputs": [],
      "name": "getController",
      "outputs": [
        {
          "internalType": "address",
          "name": "",
          "type": "address"
        }
      ],
      "stateMutability": "view",
      "type": "function"
    },
    {
      "inputs": [],
      "name": "getCurrentDesiredTokens",
      "outputs": [
        {
          "internalType": "address[]",
          "name": "tokens",
          "type": "address[]"
        }
      ],
      "stateMutability": "view",
      "type": "function"
    },
    {
      "inputs": [],
      "name": "getCurrentTokens",
      "outputs": [
        {
          "internalType": "address[]",
          "name": "tokens",
          "type": "address[]"
        }
      ],
      "stateMutability": "view",
      "type": "function"
    },
    {
      "inputs": [
        {
          "internalType": "address",
          "name": "token",
          "type": "address"
        }
      ],
      "name": "getDenormalizedWeight",
      "outputs": [
        {
          "internalType": "uint256",
          "name": "",
          "type": "uint256"
        }
      ],
      "stateMutability": "view",
      "type": "function"
    },
    {
      "inputs": [],
      "name": "getExitFee",
      "outputs": [
        {
          "internalType": "uint256",
          "name": "",
          "type": "uint256"
        }
      ],
      "stateMutability": "view",
      "type": "function"
    },
    {
      "inputs": [],
      "name": "getExitFeeRecipient",
      "outputs": [
        {
          "internalType": "address",
          "name": "",
          "type": "address"
        }
      ],
      "stateMutability": "view",
      "type": "function"
    },
    {
      "inputs": [
        {
          "internalType": "address",
          "name": "token",
          "type": "address"
        }
      ],
      "name": "getMinimumBalance",
      "outputs": [
        {
          "internalType": "uint256",
          "name": "",
          "type": "uint256"
        }
      ],
      "stateMutability": "view",
      "type": "function"
    },
    {
      "inputs": [],
      "name": "getNumTokens",
      "outputs": [
        {
          "internalType": "uint256",
          "name": "",
          "type": "uint256"
        }
      ],
      "stateMutability": "view",
      "type": "function"
    },
    {
      "inputs": [
        {
          "internalType": "address",
          "name": "tokenIn",
          "type": "address"
        },
        {
          "internalType": "address",
          "name": "tokenOut",
          "type": "address"
        }
      ],
      "name": "getSpotPrice",
      "outputs": [
        {
          "internalType": "uint256",
          "name": "",
          "type": "uint256"
        }
      ],
      "stateMutability": "view",
      "type": "function"
    },
    {
      "inputs": [],
      "name": "getSwapFee",
      "outputs": [
        {
          "internalType": "uint256",
          "name": "",
          "type": "uint256"
        }
      ],
      "stateMutability": "view",
      "type": "function"
    },
    {
      "inputs": [
        {
          "internalType": "address",
          "name": "token",
          "type": "address"
        }
      ],
      "name": "getTokenRecord",
      "outputs": [
        {
          "components": [
            {
              "internalType": "bool",
              "name": "bound",
              "type": "bool"
            },
            {
              "internalType": "bool",
              "name": "ready",
              "type": "bool"
            },
            {
              "internalType": "uint40",
              "name": "lastDenormUpdate",
              "type": "uint40"
            },
            {
              "internalType": "uint96",
              "name": "denorm",
              "type": "uint96"
            },
            {
              "internalType": "uint96",
              "name": "desiredDenorm",
              "type": "uint96"
            },
            {
              "internalType": "uint8",
              "name": "index",
              "type": "uint8"
            },
            {
              "internalType": "uint256",
              "name": "balance",
              "type": "uint256"
            }
          ],
          "internalType": "struct IIndexPool.Record",
          "name": "record",
          "type": "tuple"
        }
      ],
      "stateMutability": "view",
      "type": "function"
    },
    {
      "inputs": [],
      "name": "getTotalDenormalizedWeight",
      "outputs": [
        {
          "internalType": "uint256",
          "name": "",
          "type": "uint256"
        }
      ],
      "stateMutability": "view",
      "type": "function"
    },
    {
      "inputs": [
        {
          "internalType": "address",
          "name": "token",
          "type": "address"
        }
      ],
      "name": "getUsedBalance",
      "outputs": [
        {
          "internalType": "uint256",
          "name": "",
          "type": "uint256"
        }
      ],
      "stateMutability": "view",
      "type": "function"
    },
    {
      "inputs": [
        {
          "internalType": "address",
          "name": "token",
          "type": "address"
        }
      ],
      "name": "gulp",
      "outputs": [],
      "stateMutability": "nonpayable",
      "type": "function"
    },
    {
      "inputs": [
        {
          "internalType": "address",
          "name": "dst",
          "type": "address"
        },
        {
          "internalType": "uint256",
          "name": "amt",
          "type": "uint256"
        }
      ],
      "name": "increaseApproval",
      "outputs": [
        {
          "internalType": "bool",
          "name": "",
          "type": "bool"
        }
      ],
      "stateMutability": "nonpayable",
      "type": "function"
    },
    {
      "inputs": [
        {
          "internalType": "address[]",
          "name": "tokens",
          "type": "address[]"
        },
        {
          "internalType": "uint256[]",
          "name": "balances",
          "type": "uint256[]"
        },
        {
          "internalType": "uint96[]",
          "name": "denorms",
          "type": "uint96[]"
        },
        {
          "internalType": "address",
          "name": "tokenProvider",
          "type": "address"
        },
        {
          "internalType": "address",
          "name": "unbindHandler",
          "type": "address"
        }
      ],
      "name": "initialize",
      "outputs": [],
      "stateMutability": "nonpayable",
      "type": "function"
    },
    {
      "inputs": [
        {
          "internalType": "address",
          "name": "t",
          "type": "address"
        }
      ],
      "name": "isBound",
      "outputs": [
        {
          "internalType": "bool",
          "name": "",
          "type": "bool"
        }
      ],
      "stateMutability": "view",
      "type": "function"
    },
    {
      "inputs": [],
      "name": "isPublicSwap",
      "outputs": [
        {
          "internalType": "bool",
          "name": "",
          "type": "bool"
        }
      ],
      "stateMutability": "view",
      "type": "function"
    },
    {
      "inputs": [
        {
          "internalType": "uint256",
          "name": "poolAmountOut",
          "type": "uint256"
        },
        {
          "internalType": "uint256[]",
          "name": "maxAmountsIn",
          "type": "uint256[]"
        }
      ],
      "name": "joinPool",
      "outputs": [],
      "stateMutability": "nonpayable",
      "type": "function"
    },
    {
      "inputs": [
        {
          "internalType": "address",
          "name": "tokenIn",
          "type": "address"
        },
        {
          "internalType": "uint256",
          "name": "tokenAmountIn",
          "type": "uint256"
        },
        {
          "internalType": "uint256",
          "name": "minPoolAmountOut",
          "type": "uint256"
        }
      ],
      "name": "joinswapExternAmountIn",
      "outputs": [
        {
          "internalType": "uint256",
          "name": "",
          "type": "uint256"
        }
      ],
      "stateMutability": "nonpayable",
      "type": "function"
    },
    {
      "inputs": [
        {
          "internalType": "address",
          "name": "tokenIn",
          "type": "address"
        },
        {
          "internalType": "uint256",
          "name": "poolAmountOut",
          "type": "uint256"
        },
        {
          "internalType": "uint256",
          "name": "maxAmountIn",
          "type": "uint256"
        }
      ],
      "name": "joinswapPoolAmountOut",
      "outputs": [
        {
          "internalType": "uint256",
          "name": "",
          "type": "uint256"
        }
      ],
      "stateMutability": "nonpayable",
      "type": "function"
    },
    {
      "inputs": [],
      "name": "name",
      "outputs": [
        {
          "internalType": "string",
          "name": "",
          "type": "string"
        }
      ],
      "stateMutability": "view",
      "type": "function"
    },
    {
      "inputs": [
        {
          "internalType": "address[]",
          "name": "tokens",
          "type": "address[]"
        },
        {
          "internalType": "uint96[]",
          "name": "desiredDenorms",
          "type": "uint96[]"
        },
        {
          "internalType": "uint256[]",
          "name": "minimumBalances",
          "type": "uint256[]"
        }
      ],
      "name": "reindexTokens",
      "outputs": [],
      "stateMutability": "nonpayable",
      "type": "function"
    },
    {
      "inputs": [
        {
          "internalType": "address[]",
          "name": "tokens",
          "type": "address[]"
        },
        {
          "internalType": "uint96[]",
          "name": "desiredDenorms",
          "type": "uint96[]"
        }
      ],
      "name": "reweighTokens",
      "outputs": [],
      "stateMutability": "nonpayable",
      "type": "function"
    },
    {
      "inputs": [
        {
          "internalType": "address",
          "name": "controller",
          "type": "address"
        }
      ],
      "name": "setController",
      "outputs": [],
      "stateMutability": "nonpayable",
      "type": "function"
    },
    {
      "inputs": [
        {
          "internalType": "address",
          "name": "exitFeeRecipient",
          "type": "address"
        }
      ],
      "name": "setExitFeeRecipient",
      "outputs": [],
      "stateMutability": "nonpayable",
      "type": "function"
    },
    {
      "inputs": [
        {
          "internalType": "address",
          "name": "token",
          "type": "address"
        },
        {
          "internalType": "uint256",
          "name": "minimumBalance",
          "type": "uint256"
        }
      ],
      "name": "setMinimumBalance",
      "outputs": [],
      "stateMutability": "nonpayable",
      "type": "function"
    },
    {
      "inputs": [
        {
          "internalType": "uint256",
          "name": "swapFee",
          "type": "uint256"
        }
      ],
      "name": "setSwapFee",
      "outputs": [],
      "stateMutability": "nonpayable",
      "type": "function"
    },
    {
      "inputs": [
        {
          "internalType": "address",
          "name": "tokenIn",
          "type": "address"
        },
        {
          "internalType": "uint256",
          "name": "tokenAmountIn",
          "type": "uint256"
        },
        {
          "internalType": "address",
          "name": "tokenOut",
          "type": "address"
        },
        {
          "internalType": "uint256",
          "name": "minAmountOut",
          "type": "uint256"
        },
        {
          "internalType": "uint256",
          "name": "maxPrice",
          "type": "uint256"
        }
      ],
      "name": "swapExactAmountIn",
      "outputs": [
        {
          "internalType": "uint256",
          "name": "",
          "type": "uint256"
        },
        {
          "internalType": "uint256",
          "name": "",
          "type": "uint256"
        }
      ],
      "stateMutability": "nonpayable",
      "type": "function"
    },
    {
      "inputs": [
        {
          "internalType": "address",
          "name": "tokenIn",
          "type": "address"
        },
        {
          "internalType": "uint256",
          "name": "maxAmountIn",
          "type": "uint256"
        },
        {
          "internalType": "address",
          "name": "tokenOut",
          "type": "address"
        },
        {
          "internalType": "uint256",
          "name": "tokenAmountOut",
          "type": "uint256"
        },
        {
          "internalType": "uint256",
          "name": "maxPrice",
          "type": "uint256"
        }
      ],
      "name": "swapExactAmountOut",
      "outputs": [
        {
          "internalType": "uint256",
          "name": "",
          "type": "uint256"
        },
        {
          "internalType": "uint256",
          "name": "",
          "type": "uint256"
        }
      ],
      "stateMutability": "nonpayable",
      "type": "function"
    },
    {
      "inputs": [],
      "name": "symbol",
      "outputs": [
        {
          "internalType": "string",
          "name": "",
          "type": "string"
        }
      ],
      "stateMutability": "view",
      "type": "function"
    },
    {
      "inputs": [],
      "name": "totalSupply",
      "outputs": [
        {
          "internalType": "uint256",
          "name": "",
          "type": "uint256"
        }
      ],
      "stateMutability": "view",
      "type": "function"
    },
    {
      "inputs": [
        {
          "internalType": "address",
          "name": "dst",
          "type": "address"
        },
        {
          "internalType": "uint256",
          "name": "amt",
          "type": "uint256"
        }
      ],
      "name": "transfer",
      "outputs": [
        {
          "internalType": "bool",
          "name": "",
          "type": "bool"
        }
      ],
      "stateMutability": "nonpayable",
      "type": "function"
    },
    {
      "inputs": [
        {
          "internalType": "address",
          "name": "src",
          "type": "address"
        },
        {
          "internalType": "address",
          "name": "dst",
          "type": "address"
        },
        {
          "internalType": "uint256",
          "name": "amt",
          "type": "uint256"
        }
      ],
      "name": "transferFrom",
      "outputs": [
        {
          "internalType": "bool",
          "name": "",
          "type": "bool"
        }
      ],
      "stateMutability": "nonpayable",
      "type": "function"
    }
  ],
  "address": "0x5bD628141c62a901E0a83E630ce5FaFa95bBdeE4",
  "args": [],
  "solcInputHash": "0x608c5cc0982a8272ea8ea8ecc738c3a39cdb69d406050655a8837653153b00dd",
  "bytecode": "0x608060405234801561001057600080fd5b50615c1480620000216000396000f3fe608060405234801561001057600080fd5b50600436106102955760003560e01c80638201aa3f11610167578063b02f0b73116100ce578063dd62ed3e11610087578063dd62ed3e14610598578063ecb0116a146105ab578063f8b2cb4f146105b3578063f8b5db09146105c6578063f9f97c98146105d9578063fde924f7146105ec57610295565b8063b02f0b7314610547578063c3f468101461055a578063cc77828d1461056d578063cd2ed8fb14610575578063d4cadf681461057d578063d73dd6231461058557610295565b8063948d8ce611610120578063948d8ce6146104dd57806395d89b41146104f057806398836f08146104f8578063a20cfa751461050e578063a49c44d714610521578063a9059cbb1461053457610295565b80638201aa3f14610481578063865bcccb146104945780638c28cbe81461049c57806391bfa2bf146104af57806392eefe9b146104c2578063936c3477146104d557610295565b806334e199071161020b57806364c7d661116101c457806364c7d661146103ff578063661884631461041f5780636d06dfa01461043257806370a08231146104455780637c5e9ea4146104585780638025e3031461047957610295565b806334e199071461038d57806346ab38f1146103a05780634aa4e0b5146103b35780634f69c0d4146103c65780635d5e8ce7146103d95780635db34277146103ec57610295565b806315e84af91161025d57806315e84af91461032257806318160ddd1461033557806323b872dd1461033d5780632f37b624146103505780633018205f14610363578063313ce5671461037857610295565b806302c967481461029a578063039209af146102c357806306fdde03146102d8578063095ea7b3146102ed57806314cd807d1461030d575b600080fd5b6102ad6102a83660046150a4565b6105f4565b6040516102ba9190615b07565b60405180910390f35b6102cb6107d0565b6040516102ba91906153c0565b6102e0610937565b6040516102ba9190615418565b6103006102fb36600461502b565b6109cd565b6040516102ba919061540d565b61032061031b366004614f9c565b610a26565b005b6102ad610330366004614f28565b610b53565b6102ad610bda565b61030061034b366004614f5c565b610be0565b61030061035e366004614f0d565b610d11565b61036b610d33565b6040516102ba919061536f565b610380610d47565b6040516102ba9190615b1e565b61032061039b3660046152b2565b610d4c565b6102ad6103ae3660046150a4565b610df4565b6102ad6103c1366004614f0d565b610f72565b6103206103d43660046152e2565b61107f565b6103206103e7366004615193565b611278565b6102ad6103fa3660046150a4565b611354565b61041261040d366004614f0d565b6114fc565b6040516102ba9190615a9c565b61030061042d36600461502b565b6115d3565b6102ad6104403660046150a4565b61169c565b6102ad610453366004614f0d565b611826565b61046b610466366004615055565b611841565b6040516102ba929190615b10565b6102ad611b38565b61046b61048f366004615055565b611b3d565b61036b611e10565b6103206104aa366004614f0d565b611e1f565b6102ad6104bd366004614f0d565b6120e6565b6103206104d0366004614f0d565b6121ff565b6102ad6122a4565b6102ad6104eb366004614f0d565b6122d1565b6102e061235b565b6105006123bc565b6040516102ba9291906153a7565b61032061051c3660046150d7565b6124c0565b61032061052f36600461502b565b612913565b61030061054236600461502b565b6129fb565b6103206105553660046152e2565b612a11565b6103206105683660046151fc565b612cdc565b6102cb613075565b6102ad6130fa565b6102ad613100565b61030061059336600461502b565b61312d565b6102ad6105a6366004614f28565b6131a1565b6102ad6131cc565b6102ad6105c1366004614f0d565b6131fe565b6103206105d4366004614f28565b613267565b6103206105e7366004614f0d565b6132f0565b610300613390565b60055460009060ff16156106235760405162461bcd60e51b815260040161061a90615717565b60405180910390fd5b6005805460ff19166001179055610638614da5565b610641856133a0565b90506106668160c001516003670de0b6b3a76400008161065d57fe5b04600101613475565b8411156106855760405162461bcd60e51b815260040161061a9061573c565b60006106ac8260c0015183606001516001600160601b0316600254600a54896007546134ee565b9050806106cb5760405162461bcd60e51b815260040161061a90615542565b838111156106eb5760405162461bcd60e51b815260040161061a906156c1565b6106f68633876135b8565b6107048260c00151866136ae565b6001600160a01b03871660009081526009602052604090206001015561072a82876136e7565b600061073d826611c37937e08000613475565b9050866001600160a01b0316336001600160a01b03167fe74c91552b64c2e2e7bd255639e004e693bd3e1d01cc33e65610b86afcc1ffed886040516107829190615b07565b60405180910390a36107943383613879565b6107a66107a183836136ae565b613883565b600c546107bc906001600160a01b03168261388f565b506005805460ff1916905595945050505050565b60055460609060ff16156107f65760405162461bcd60e51b815260040161061a90615717565b6060600880548060200260200160405190810160405280929190818152602001828054801561084e57602002820191906000526020600020905b81546001600160a01b03168152600190910190602001808311610830575b50505050509050805167ffffffffffffffff8111801561086d57600080fd5b50604051908082528060200260200182016040528015610897578160200160208202803683370190505b5091506000805b83518110156109305760008382815181106108b557fe5b6020908102919091018101516001600160a01b03811660009081526009909252604090912054909150600160981b90046001600160601b031615610927578085848060010195508151811061090657fe5b60200260200101906001600160a01b031690816001600160a01b0316815250505b5060010161089e565b5082525090565b60038054604080516020601f60026000196101006001881615020190951694909404938401819004810282018101909252828152606093909290918301828280156109c35780601f10610998576101008083540402835291602001916109c3565b820191906000526020600020905b8154815290600101906020018083116109a657829003601f168201915b5050505050905090565b3360008181526001602090815260408083206001600160a01b03871680855292528083208590555191929091600080516020615bbf83398151915290610a14908690615b07565b60405180910390a35060015b92915050565b60055461010090046001600160a01b031615610a545760405162461bcd60e51b815260040161061a906158d1565b6001600160a01b03861615801590610a7457506001600160a01b03811615155b610a905760405162461bcd60e51b815260040161061a906159cc565b60058054610100600160a81b0319166101006001600160a01b038916021790556032670de0b6b3a764000004600755600c80546001600160a01b0319166001600160a01b038316179055604080516020601f8701819004810282018101909252858152610b4b91879087908190840183828082843760009201919091525050604080516020601f8901819004810282018101909252878152925087915086908190840183828082843760009201919091525061389992505050565b505050505050565b60055460009060ff1615610b795760405162461bcd60e51b815260040161061a90615717565b610b81614da5565b610b8a84613910565b509050610b95614da5565b610b9e846133a0565b9050610bd18260c0015183606001516001600160601b03168360c0015184606001516001600160601b0316600754613a5e565b95945050505050565b60025490565b6000336001600160a01b0385161480610c1c57506001600160a01b03841660009081526001602090815260408083203384529091529020548211155b610c385760405162461bcd60e51b815260040161061a90615692565b610c43848484613ac3565b336001600160a01b03851614801590610c8157506001600160a01b038416600090815260016020908152604080832033845290915290205460001914155b15610d07576001600160a01b0384166000908152600160209081526040808320338452909152902054610cb490836136ae565b6001600160a01b038581166000908152600160209081526040808320338085529252918290208490559051918616929091600080516020615bbf83398151915291610cfe91615b07565b60405180910390a35b5060019392505050565b6001600160a01b03811660009081526009602052604090205460ff165b919050565b60055461010090046001600160a01b031690565b601290565b60055461010090046001600160a01b03163314610d7b5760405162461bcd60e51b815260040161061a9061544b565b64e8d4a510008110801590610d98575067016345785d8a00008111155b610db45760405162461bcd60e51b815260040161061a906159f6565b60078190556040517fccfe595973efc7c1f6c29e31974d380470b9431d7770290185b7129419c7e63e90610de9908390615b07565b60405180910390a150565b60055460009060ff1615610e1a5760405162461bcd60e51b815260040161061a90615717565b6005805460ff19166001179055610e2f614da5565b610e38856133a0565b90506000610e618260c0015183606001516001600160601b0316600254600a5489600754613bac565b905083811015610e835760405162461bcd60e51b815260040161061a906155c1565b610e9d8260c001516003670de0b6b3a76400008161065d57fe5b811115610ebc5760405162461bcd60e51b815260040161061a9061573c565b610ec78633836135b8565b610ed58260c00151826136ae565b6001600160a01b038716600090815260096020526040902060010155610efb82876136e7565b6000610f0e866611c37937e08000613475565b9050866001600160a01b0316336001600160a01b03167fe74c91552b64c2e2e7bd255639e004e693bd3e1d01cc33e65610b86afcc1ffed84604051610f539190615b07565b60405180910390a3610f653387613879565b6107a66107a187836136ae565b60055460009060ff1615610f985760405162461bcd60e51b815260040161061a90615717565b610fa0614da5565b506001600160a01b038216600090815260096020908152604091829020825160e081018452815460ff80821615158084526101008304821615159584019590955264ffffffffff62010000830416958301959095526001600160601b03600160381b820481166060840152600160981b8204166080830152600160f81b900490931660a08401526001015460c083015261104c5760405162461bcd60e51b815260040161061a90615767565b80602001516110755750506001600160a01b0381166000908152600b6020526040902054610d2e565b60c0015192915050565b60055460ff16156110a25760405162461bcd60e51b815260040161061a90615717565b6005805460ff19166001179055600654600160a01b900460ff166110d85760405162461bcd60e51b815260040161061a906157b9565b60006110e2610bda565b905060006110f08583613c7b565b90508061110f5760405162461bcd60e51b815260040161061a90615542565b60085483146111305760405162461bcd60e51b815260040161061a90615860565b60005b838110156112535760006008828154811061114a57fe5b6000918252602090912001546001600160a01b03169050611169614da5565b600061117483613910565b915091506000611188868460c00151613475565b9050806111a75760405162461bcd60e51b815260040161061a90615542565b8888868181106111b357fe5b905060200201358111156111d95760405162461bcd60e51b815260040161061a906156c1565b6111ed84846111e88585613d0f565b613d3b565b836001600160a01b0316336001600160a01b03167f63982df10efd8dfaaaa0fcc7f50b2d93b7cba26ccc48adee2873220d485dc39a836040516112309190615b07565b60405180910390a3611243843383613f1b565b5050600190920191506111339050565b5061125d85613f46565b611267338661388f565b50506005805460ff19169055505050565b60055460ff161561129b5760405162461bcd60e51b815260040161061a90615717565b60058054600160ff19909116179081905561010090046001600160a01b031633146112d85760405162461bcd60e51b815260040161061a9061544b565b8083146112f75760405162461bcd60e51b815260040161061a90615860565b60005b838110156112675761134c85858381811061131157fe5b90506020020160208101906113269190614f0d565b84848481811061133257fe5b9050602002016020810190611347919061532c565b613f4f565b6001016112fa565b60055460009060ff161561137a5760405162461bcd60e51b815260040161061a90615717565b6005805460ff19166001179055600654600160a01b900460ff166113b05760405162461bcd60e51b815260040161061a906157b9565b6113b8614da5565b60006113c386613910565b9150915084600014156113e85760405162461bcd60e51b815260040161061a90615a77565b6114088260c001516002670de0b6b3a76400008161140257fe5b04613475565b8511156114275760405162461bcd60e51b815260040161061a906154ed565b600061144e8360c0015184606001516001600160601b0316600254600a548a60075461406c565b9050848110156114705760405162461bcd60e51b815260040161061a906155c1565b61147f87846111e8858a613d0f565b866001600160a01b0316336001600160a01b03167f63982df10efd8dfaaaa0fcc7f50b2d93b7cba26ccc48adee2873220d485dc39a886040516114c29190615b07565b60405180910390a36114d381613f46565b6114dd338261388f565b6114e8873388613f1b565b6005805460ff191690559695505050505050565b611504614da5565b60055460ff16156115275760405162461bcd60e51b815260040161061a90615717565b506001600160a01b038116600090815260096020908152604091829020825160e081018452815460ff80821615158084526101008304821615159584019590955264ffffffffff62010000830416958301959095526001600160601b03600160381b820481166060840152600160981b8204166080830152600160f81b900490931660a08401526001015460c0830152610d2e5760405162461bcd60e51b815260040161061a90615767565b3360009081526001602090815260408083206001600160a01b038616845290915281205480831115611628573360009081526001602090815260408083206001600160a01b0388168452909152812055611657565b61163281846136ae565b3360009081526001602090815260408083206001600160a01b03891684529091529020555b3360008181526001602090815260408083206001600160a01b038916808552925291829020549151909291600080516020615bbf83398151915291610cfe9190615b07565b60055460009060ff16156116c25760405162461bcd60e51b815260040161061a90615717565b6005805460ff19166001179055600654600160a01b900460ff166116f85760405162461bcd60e51b815260040161061a906157b9565b611700614da5565b600061170b86613910565b9150915060006117368360c0015184606001516001600160601b0316600254600a548a600754614108565b9050806117555760405162461bcd60e51b815260040161061a90615542565b848111156117755760405162461bcd60e51b815260040161061a906156c1565b61178f8360c001516002670de0b6b3a76400008161140257fe5b8111156117ae5760405162461bcd60e51b815260040161061a906154ed565b6117bd87846111e88585613d0f565b866001600160a01b0316336001600160a01b03167f63982df10efd8dfaaaa0fcc7f50b2d93b7cba26ccc48adee2873220d485dc39a836040516118009190615b07565b60405180910390a361181186613f46565b61181b338761388f565b6114e8873383613f1b565b6001600160a01b031660009081526020819052604090205490565b600554600090819060ff16156118695760405162461bcd60e51b815260040161061a90615717565b6005805460ff19166001179055600654600160a01b900460ff1661189f5760405162461bcd60e51b815260040161061a906157b9565b6118a7614da5565b60006118b289613910565b915091506118be614da5565b6118c7886133a0565b90506118e38160c001516003670de0b6b3a76400008161065d57fe5b8711156119025760405162461bcd60e51b815260040161061a9061573c565b60006119358460c0015185606001516001600160601b03168460c0015185606001516001600160601b0316600754613a5e565b9050868111156119575760405162461bcd60e51b815260040161061a906157e1565b600061198b8560c0015186606001516001600160601b03168560c0015186606001516001600160601b03168d6007546141a2565b90508a8111156119ad5760405162461bcd60e51b815260040161061a906156c1565b6119b88c3383613f1b565b6119c38a338b6135b8565b6119d18360c001518a6136ae565b60c084018190526001600160a01b038b166000908152600960205260409020600101556119fe838b6136e7565b611a088482613d0f565b9350611a158c8686613d3b565b846020015115611a275760c085018490525b6000611a5a8660c0015187606001516001600160601b03168660c0015187606001516001600160601b0316600754613a5e565b905082811015611a7c5760405162461bcd60e51b815260040161061a90615542565b88811115611a9c5760405162461bcd60e51b815260040161061a906158a8565b611aa6828b613c7b565b831115611ac55760405162461bcd60e51b815260040161061a90615542565b8a6001600160a01b03168d6001600160a01b0316336001600160a01b03167f908fb5ee8f16c6bc9bc3690973819f32a4d4b10188134543c88706e0e1d43378858e604051611b14929190615b10565b60405180910390a46005805460ff19169055909c909b509950505050505050505050565b600181565b600554600090819060ff1615611b655760405162461bcd60e51b815260040161061a90615717565b6005805460ff19166001179055600654600160a01b900460ff16611b9b5760405162461bcd60e51b815260040161061a906157b9565b611ba3614da5565b6000611bae89613910565b91509150611bba614da5565b611bc3886133a0565b9050611bdf8360c001516002670de0b6b3a76400008161140257fe5b891115611bfe5760405162461bcd60e51b815260040161061a906154ed565b6000611c318460c0015185606001516001600160601b03168460c0015185606001516001600160601b0316600754613a5e565b905086811115611c535760405162461bcd60e51b815260040161061a906157e1565b6000611c878560c0015186606001516001600160601b03168560c0015186606001516001600160601b03168f600754614225565b905088811015611ca95760405162461bcd60e51b815260040161061a906155c1565b611cb48c338d613f1b565b611cbf8a33836135b8565b611ccd8360c00151826136ae565b60c084018190526001600160a01b038b16600090815260096020526040902060010155611cfa838b6136e7565b611d04848c613d0f565b9350611d118c8686613d3b565b846020015115611d235760c085018490525b6000611d568660c0015187606001516001600160601b03168660c0015187606001516001600160601b0316600754613a5e565b905082811015611d785760405162461bcd60e51b815260040161061a90615517565b88811115611d985760405162461bcd60e51b815260040161061a906158a8565b611da28c83613c7b565b831115611dc15760405162461bcd60e51b815260040161061a90615542565b8a6001600160a01b03168d6001600160a01b0316336001600160a01b03167f908fb5ee8f16c6bc9bc3690973819f32a4d4b10188134543c88706e0e1d433788f86604051611b14929190615b10565b600c546001600160a01b031690565b60055460ff1615611e425760405162461bcd60e51b815260040161061a90615717565b6005805460ff191660011790556001600160a01b03811660008181526009602052604080822090516370a0823160e01b81529092906370a0823190611e8b90309060040161536f565b60206040518083038186803b158015611ea357600080fd5b505afa158015611eb7573d6000803e3d6000fd5b505050506040513d601f19601f82011682018060405250810190611edb91906152ca565b825490915060ff161561205a578154610100900460ff16612037576001600160a01b0383166000908152600b6020526040902054808210612035576001600160a01b0384166000818152600b6020526040808220829055855461ff001916610100178655517ff7bb8e57ffdfd9a31e7580ee84f68757f44fb4a8a913f44520d22f2da1c955e59190a26000611f7083836136ae565b90506000611f7e8284613c7b565b90506000611f9d6703782dace9d90000611f988185613475565b613d0f565b8654600160381b600160981b031916600160381b6001600160601b0383169081029190911766ffffffffff00001916620100004264ffffffffff1602178855600a54919250611fec9190613d0f565b600a5585546040516001600160a01b03891691600080516020615b9f8339815191529161202991600160381b90046001600160601b031690615b2c565b60405180910390a25050505b505b6001600160a01b03831660009081526009602052604090206001018190556120d7565b6006546120729084906001600160a01b0316836135b8565b6006546040516360b8257960e11b81526001600160a01b039091169063c1704af2906120a490869085906004016153a7565b600060405180830381600087803b1580156120be57600080fd5b505af11580156120d2573d6000803e3d6000fd5b505050505b50506005805460ff1916905550565b60055460009060ff161561210c5760405162461bcd60e51b815260040161061a90615717565b612114614da5565b506001600160a01b038216600090815260096020908152604091829020825160e081018452815460ff80821615158084526101008304821615159584019590955264ffffffffff62010000830416958301959095526001600160601b03600160381b820481166060840152600160981b8204166080830152600160f81b900490931660a08401526001015460c08301526121c05760405162461bcd60e51b815260040161061a90615767565b8060200151156121e25760405162461bcd60e51b815260040161061a90615885565b50506001600160a01b03166000908152600b602052604090205490565b60055461010090046001600160a01b0316331461222e5760405162461bcd60e51b815260040161061a9061544b565b6001600160a01b0381166122545760405162461bcd60e51b815260040161061a906159cc565b60058054610100600160a81b0319166101006001600160a01b038416021790556040517f93a5d7f74a690ad8848fb740519ac14bd303a47c6a1bbb2578357b8db0995a2d90610de990839061536f565b60055460009060ff16156122ca5760405162461bcd60e51b815260040161061a90615717565b50600a5490565b60055460009060ff16156122f75760405162461bcd60e51b815260040161061a90615717565b6001600160a01b03821660009081526009602052604090205460ff1661232f5760405162461bcd60e51b815260040161061a90615767565b506001600160a01b0316600090815260096020526040902054600160381b90046001600160601b031690565b60048054604080516020601f60026000196101006001881615020190951694909404938401819004810282018101909252828152606093909290918301828280156109c35780601f10610998576101008083540402835291602001916109c3565b600554600090819060ff16156123e45760405162461bcd60e51b815260040161061a90615717565b6008546000908190815b81811015612495576008818154811061240357fe5b60009182526020808320909101546001600160a01b03168083526009909152604090912080549195509060ff61010090910416801561245257508054600160981b90046001600160601b031615155b1561248c576001810154600a548254612484929161247f91600160381b90046001600160601b0316613c7b565b613475565b935050612495565b506001016123ee565b50600082116124b65760405162461bcd60e51b815260040161061a90615477565b5090925090509091565b60055461010090046001600160a01b031633146124ef5760405162461bcd60e51b815260040161061a9061544b565b6008541561250f5760405162461bcd60e51b815260040161061a9061563f565b8660028110156125315760405162461bcd60e51b815260040161061a90615a1f565b600a8111156125525760405162461bcd60e51b815260040161061a906154c5565b858114801561256057508381145b61257c5760405162461bcd60e51b815260040161061a90615860565b6000805b828110156128585760008b8b8381811061259657fe5b90506020020160208101906125ab9190614f0d565b905060008888848181106125bb57fe5b90506020020160208101906125d0919061532c565b905060008b8b858181106125e057fe5b9050602002013590506004670de0b6b3a7640000816125fb57fe5b04826001600160601b031610156126245760405162461bcd60e51b815260040161061a9061580e565b68015af1d78b58c400006001600160601b03831611156126565760405162461bcd60e51b815260040161061a9061556b565b620f42408110156126795760405162461bcd60e51b815260040161061a906155e8565b6040518060e001604052806001151581526020016001151581526020014264ffffffffff168152602001836001600160601b03168152602001836001600160601b031681526020018560ff1681526020018281525060096000856001600160a01b03166001600160a01b0316815260200190815260200160002060008201518160000160006101000a81548160ff02191690831515021790555060208201518160000160016101000a81548160ff02191690831515021790555060408201518160000160026101000a81548164ffffffffff021916908364ffffffffff16021790555060608201518160000160076101000a8154816001600160601b0302191690836001600160601b0316021790555060808201518160000160136101000a8154816001600160601b0302191690836001600160601b0316021790555060a082015181600001601f6101000a81548160ff021916908360ff16021790555060c082015181600101559050506008839080600181540180825580915050600190039060005260206000200160009091909190916101000a8154816001600160a01b0302191690836001600160a01b0316021790555061284085836001600160601b0316613d0f565b945061284d838983613f1b565b505050600101612580565b50680176b344f2a78c00008111156128825760405162461bcd60e51b815260040161061a90615593565b600a8190556006805460ff60a01b1916600160a01b1790556040517f183bed17d33ee5be9a47bb997aee6a152d84a34309cdb66f76301de0a40a138990600090a16128d568056bc75e2d63100000613f46565b6128e88468056bc75e2d6310000061388f565b5050600680546001600160a01b0319166001600160a01b039290921691909117905550505050505050565b60055461010090046001600160a01b031633146129425760405162461bcd60e51b815260040161061a9061544b565b6001600160a01b0382166000908152600960205260409020805460ff1661297b5760405162461bcd60e51b815260040161061a90615767565b8054610100900460ff16156129a25760405162461bcd60e51b815260040161061a90615885565b6001600160a01b0383166000908152600b602052604090819020839055517e0c7a55677231b335e6dea005fa240ac2aeafbd62f188372a7d66892b722c52906129ee90859085906153a7565b60405180910390a1505050565b6000612a08338484613ac3565b50600192915050565b60055460ff1615612a345760405162461bcd60e51b815260040161061a90615717565b6005805460ff191660011790556008548114612a625760405162461bcd60e51b815260040161061a90615860565b6000612a6c610bda565b90506000612a81856611c37937e08000613475565b90506000612a8f86836136ae565b90506000612a9d8285613c7b565b905080612abc5760405162461bcd60e51b815260040161061a90615542565b612ac63388613879565b600c54612adc906001600160a01b03168461388f565b612ae582613883565b60005b85811015612cc857600060088281548110612aff57fe5b6000918252602090912001546001600160a01b03169050612b1e614da5565b506001600160a01b038116600090815260096020908152604091829020825160e081018452815460ff80821615158352610100820481161580159584019590955264ffffffffff62010000830416958301959095526001600160601b03600160381b820481166060840152600160981b8204166080830152600160f81b900490931660a08401526001015460c0830152612c8c576000612bc2858360c00151613475565b905080612be15760405162461bcd60e51b815260040161061a90615542565b898985818110612bed57fe5b90506020020135811015612c135760405162461bcd60e51b815260040161061a906155c1565b612c218260c00151826136ae565b6001600160a01b0384166000818152600960205260409081902060010192909255905133907fe74c91552b64c2e2e7bd255639e004e693bd3e1d01cc33e65610b86afcc1ffed90612c73908590615b07565b60405180910390a3612c868333836135b8565b50612cbe565b888884818110612c9857fe5b90506020020135600014612cbe5760405162461bcd60e51b815260040161061a9061578e565b5050600101612ae8565b50506005805460ff19169055505050505050565b60055460ff1615612cff5760405162461bcd60e51b815260040161061a90615717565b60058054600160ff19909116179081905561010090046001600160a01b03163314612d3c5760405162461bcd60e51b815260040161061a9061544b565b8285148015612d4a57508085145b612d665760405162461bcd60e51b815260040161061a90615860565b60085460608167ffffffffffffffff81118015612d8257600080fd5b50604051908082528060200260200182016040528015612dac578160200160208202803683370190505b50905060608767ffffffffffffffff81118015612dc857600080fd5b50604051908082528060200260200182016040528015612e0257816020015b612def614da5565b815260200190600190039081612de75790505b50905060005b88811015612f3d57600960008b8b84818110612e2057fe5b9050602002016020810190612e359190614f0d565b6001600160a01b031681526020808201929092526040908101600020815160e081018352815460ff808216151583526101008204811615159583019590955264ffffffffff62010000820416938201939093526001600160601b03600160381b840481166060830152600160981b8404166080820152600160f81b90920490921660a082015260019091015460c08201528251839083908110612ed457fe5b6020026020010181905250818181518110612eeb57fe5b60200260200101516000015115612f3557600183838381518110612f0b57fe5b602002602001015160a0015160ff1681518110612f2457fe5b911515602092830291909101909101525b600101612e08565b5060005b83811015612f9357828181518110612f5557fe5b6020026020010151612f8b57612f8b60088281548110612f7157fe5b60009182526020822001546001600160a01b031690613f4f565b600101612f41565b5060005b8881101561305f5760008a8a83818110612fad57fe5b9050602002016020810190612fc29190614f0d565b90506000898984818110612fd257fe5b9050602002016020810190612fe7919061532c565b90506703782dace9d900006001600160601b038216101561300d57506703782dace9d900005b83838151811061301957fe5b60200260200101516000015161304b576130468289898681811061303957fe5b90506020020135836142a6565b613055565b6130558282613f4f565b5050600101612f97565b50506005805460ff191690555050505050505050565b60055460609060ff161561309b5760405162461bcd60e51b815260040161061a90615717565b60088054806020026020016040519081016040528092919081815260200182805480156109c357602002820191906000526020600020905b81546001600160a01b031681526001909101906020018083116130d3575050505050905090565b60085490565b60055460009060ff16156131265760405162461bcd60e51b815260040161061a90615717565b5060075490565b3360009081526001602090815260408083206001600160a01b038616845290915281205461315b9083613d0f565b3360008181526001602090815260408083206001600160a01b03891680855292529182902084905590519092600080516020615bbf83398151915291610a149190615b07565b6001600160a01b03918216600090815260016020908152604080832093909416825291909152205490565b60055460009060ff16156131f25760405162461bcd60e51b815260040161061a90615717565b506611c37937e0800090565b60055460009060ff16156132245760405162461bcd60e51b815260040161061a90615717565b6001600160a01b0382166000908152600960205260409020805460ff1661325d5760405162461bcd60e51b815260040161061a90615767565b6001015492915050565b60055461010090046001600160a01b031633146132965760405162461bcd60e51b815260040161061a9061544b565b6040516317066a5760e21b81526001600160a01b03831690635c19a95c906132c290849060040161536f565b600060405180830381600087803b1580156132dc57600080fd5b505af1158015610b4b573d6000803e3d6000fd5b60055461010090046001600160a01b0316331461331f5760405162461bcd60e51b815260040161061a9061544b565b6001600160a01b0381166133455760405162461bcd60e51b815260040161061a906159cc565b600c80546001600160a01b0319166001600160a01b0383161790556040517fc79e675f96e92542a27382e2c3d22ffc5e7862d51251311f06ca685db3f11ff790610de990839061536f565b600654600160a01b900460ff1690565b6133a8614da5565b506001600160a01b038116600090815260096020908152604091829020825160e081018452815460ff80821615158084526101008304821615159584019590955264ffffffffff62010000830416958301959095526001600160601b03600160381b820481166060840152600160981b8204166080830152600160f81b900490931660a08401526001015460c08301526134545760405162461bcd60e51b815260040161061a90615767565b8060200151610d2e5760405162461bcd60e51b815260040161061a9061578e565b600082820283158061348f57508284828161348c57fe5b04145b6134ab5760405162461bcd60e51b815260040161061a90615836565b6706f05b59d3b200008101818110156134d65760405162461bcd60e51b815260040161061a90615836565b6000670de0b6b3a7640000825b049695505050505050565b6000806134fb8786613c7b565b90506000613511670de0b6b3a7640000836136ae565b9050600061351f8286613475565b9050600061353e87613539670de0b6b3a7640000856136ae565b613c7b565b9050600061354c8c836136ae565b9050600061355a828e613c7b565b905060006135688288614586565b90506000613576828e613475565b905060006135848e836136ae565b90506135a381613539670de0b6b3a76400006611c37937e080006136ae565b99505050505050505050509695505050505050565b60006060846001600160a01b031663a9059cbb60e01b85856040516024016135e19291906153a7565b60408051601f198184030181529181526020820180516001600160e01b03166001600160e01b031990941693909317909252905161361f9190615353565b6000604051808303816000865af19150503d806000811461365c576040519150601f19603f3d011682016040523d82523d6000602084013e613661565b606091505b509150915081801561368b57508051158061368b57508080602001905181019061368b9190615292565b6136a75760405162461bcd60e51b815260040161061a9061594e565b5050505050565b60008060006136bd8585614639565b9150915080156136df5760405162461bcd60e51b815260040161061a90615977565b509392505050565b81608001516001600160601b031682606001516001600160601b031611158061371257508160200151155b8061372b5750610708826040015164ffffffffff164203105b1561373557613875565b60608201516080830151600061375e6001600160601b0384166064670de0b6b3a7640000611402565b9050600061377e846001600160601b0316846001600160601b03166136ae565b9050818111156137a15761379b846001600160601b0316836136ae565b92508190505b6703782dace9d900006001600160601b038416116137db57600a54600093506137ca90846136ae565b600a556137d68561465e565b610b4b565b6137e7600a54826136ae565b600a556001600160601b038316606087018190526001600160a01b038616600081815260096020526040908190208054600160381b600160981b031916600160381b9094029390931766ffffffffff00001916620100004264ffffffffff1602179092559051600080516020615b9f83398151915290613868908690615b2c565b60405180910390a2505050505b5050565b61387582826149a0565b61388c816149ab565b50565b6138758282614a54565b600354600260001961010060018416150201909116041580156138bc5750815115155b80156138c85750805115155b6138e45760405162461bcd60e51b815260040161061a906156e7565b81516138f7906003906020850190614de1565b50805161390b906004906020840190614de1565b505050565b613918614da5565b506001600160a01b0381166000908152600960209081526040808320815160e081018352815460ff80821615158084526101008304821615159684019690965264ffffffffff62010000830416948301949094526001600160601b03600160381b820481166060840152600160981b8204166080830152600160f81b900490921660a08301526001015460c082015291906139c55760405162461bcd60e51b815260040161061a90615767565b5060c08101516020820151613a59576001600160a01b0383166000908152600b602052604081205460c08401819052613a0c90613a0290846136ae565b8460c00151613c7b565b90506000613a30600a6004670de0b6b3a76400005b0481613a2957fe5b0483613475565b9050613a486004670de0b6b3a76400005b0482613d0f565b6001600160601b0316606085015250505b915091565b600080613a6b8787613c7b565b90506000613a798686613c7b565b90506000613a878383613c7b565b90506000613aa9670de0b6b3a7640000613539670de0b6b3a7640000896136ae565b9050613ab58282613475565b9a9950505050505050505050565b6001600160a01b038316600090815260208190526040902054811115613afb5760405162461bcd60e51b815260040161061a90615611565b6001600160a01b038316600090815260208190526040902054613b1e90826136ae565b6001600160a01b038085166000908152602081905260408082209390935590841681522054613b4d9082613d0f565b6001600160a01b0380841660008181526020819052604090819020939093559151908516907fddf252ad1be2c89b69c2b068fc378daa952ba7f163c4a11628f55a4df523b3ef90613b9f908590615b07565b60405180910390a3505050565b600080613bb98786613c7b565b90506000613bda8561247f670de0b6b3a76400006611c37937e080006136ae565b90506000613be888836136ae565b90506000613bf6828a613c7b565b90506000613c1582613c10670de0b6b3a764000088613c7b565b614586565b90506000613c23828e613475565b90506000613c318e836136ae565b90506000613c50613c4a670de0b6b3a76400008a6136ae565b8b613475565b9050613c688261247f670de0b6b3a7640000846136ae565b9f9e505050505050505050505050505050565b600081613c9a5760405162461bcd60e51b815260040161061a906158f9565b670de0b6b3a76400008302831580613cc25750670de0b6b3a7640000848281613cbf57fe5b04145b613cde5760405162461bcd60e51b815260040161061a90615668565b60028304810181811015613d045760405162461bcd60e51b815260040161061a90615668565b60008482816134e357fe5b600082820183811015613d345760405162461bcd60e51b815260040161061a906159a2565b9392505050565b8160200151613eee578160c001518110613e97576001600160a01b0383166000818152600b6020908152604080832083905560098252808320805461ff001916610100179055600191860191909152517ff7bb8e57ffdfd9a31e7580ee84f68757f44fb4a8a913f44520d22f2da1c955e59190a26000613dbf828460c001516136ae565b90506000613dd1828560c00151613c7b565b9050613de96703782dace9d90000611f988184613475565b6001600160601b03908116606086018181526001600160a01b03881660009081526009602052604090208054600160381b600160981b031916600160381b9093029290921766ffffffffff00001916620100004264ffffffffff160217909155600a549051613e589216613d0f565b600a5560608401516040516001600160a01b03871691600080516020615b9f83398151915291613e889190615b2c565b60405180910390a25050613ee9565b6000613eaa613a028460c00151846136ae565b90506000613ec3600a6004670de0b6b3a7640000613a21565b9050613ed86004670de0b6b3a7640000613a41565b6001600160601b0316606085015250505b613ef8565b613ef88284614a5f565b6001600160a01b0390921660009081526009602052604090206001019190915550565b60006060846001600160a01b03166323b872dd60e01b8530866040516024016135e193929190615383565b61388c81614bd8565b6001600160a01b0382166000908152600960205260409020805460ff16613f885760405162461bcd60e51b815260040161061a90615767565b6703782dace9d900006001600160601b038316101580613faf57506001600160601b038216155b613fcb5760405162461bcd60e51b815260040161061a9061580e565b68015af1d78b58c400006001600160601b0383161115613ffd5760405162461bcd60e51b815260040161061a9061556b565b80546bffffffffffffffffffffffff60981b1916600160981b6001600160601b038416021781556040516001600160a01b038416907fc7ea88f3376e27ce6ebc2025310023327f743a8377d438258c36b166dd8b29839061405f908590615b2c565b60405180910390a2505050565b6000806140798786613c7b565b90506000614098614092670de0b6b3a7640000846136ae565b85613475565b905060006140b28661247f670de0b6b3a7640000856136ae565b905060006140c08b83613d0f565b905060006140ce828d613c7b565b905060006140dc8287614586565b905060006140ea828d613475565b90506140f6818d6136ae565b9e9d5050505050505050505050505050565b6000806141158786613c7b565b905060006141238786613d0f565b905060006141318289613c7b565b90506000614147670de0b6b3a764000085613c7b565b905060006141558383614586565b90506000614163828e613475565b90506000614171828f6136ae565b9050600061418a613c4a670de0b6b3a76400008a6136ae565b9050613c6882613539670de0b6b3a7640000846136ae565b6000806141af8588613c7b565b905060006141bd87866136ae565b905060006141cb8883613c7b565b905060006141d98285614586565b90506141ed81670de0b6b3a76400006136ae565b9050614201670de0b6b3a7640000876136ae565b94506142166142108c83613475565b86613c7b565b9b9a5050505050505050505050565b6000806142328786613c7b565b90506000614248670de0b6b3a7640000856136ae565b90506142548582613475565b905060006142668a6135398c85613d0f565b905060006142748285614586565b9050600061428a670de0b6b3a7640000836136ae565b90506142968a82613475565b9c9b505050505050505050505050565b6001600160a01b03831660009081526009602052604090205460ff16156142df5760405162461bcd60e51b815260040161061a9061549f565b6703782dace9d900006001600160601b03821610156143105760405162461bcd60e51b815260040161061a9061580e565b68015af1d78b58c400006001600160601b03821611156143425760405162461bcd60e51b815260040161061a9061556b565b620f42408210156143655760405162461bcd60e51b815260040161061a906155e8565b6040518060e00160405280600115158152602001600015158152602001600064ffffffffff16815260200160006001600160601b03168152602001826001600160601b0316815260200160088054905060ff168152602001600081525060096000856001600160a01b03166001600160a01b0316815260200190815260200160002060008201518160000160006101000a81548160ff02191690831515021790555060208201518160000160016101000a81548160ff02191690831515021790555060408201518160000160026101000a81548164ffffffffff021916908364ffffffffff16021790555060608201518160000160076101000a8154816001600160601b0302191690836001600160601b0316021790555060808201518160000160136101000a8154816001600160601b0302191690836001600160601b0316021790555060a082015181600001601f6101000a81548160ff021916908360ff16021790555060c082015181600101559050506008839080600181540180825580915050600190039060005260206000200160009091909190916101000a8154816001600160a01b0302191690836001600160a01b0316021790555081600b6000856001600160a01b03166001600160a01b0316815260200190815260200160002081905550826001600160a01b03167fb2daf560899f6307b318aecfb57eb2812c488da4a4c1cad2019b482fa63294ed828460405161405f929190615b40565b600060018310156145a95760405162461bcd60e51b815260040161061a9061591f565b671bc16d674ec7ffff8311156145d15760405162461bcd60e51b815260040161061a90615a47565b60006145dc83614c47565b905060006145ea84836136ae565b90506000614600866145fb85614c62565b614c70565b905081614611579250610a20915050565b600061462287846305f5e100614cc7565b905061462e8282613475565b979650505050505050565b60008082841061464f5750508082036000614657565b505081810360015b9250929050565b614666614da5565b506001600160a01b038116600090815260096020908152604091829020825160e081018452815460ff808216151583526101008204811615159483019490945264ffffffffff62010000820416948201949094526001600160601b03600160381b850481166060830152600160981b8504166080820152600160f81b90930490911660a0830181905260019091015460c08301819052600854909190600019018082146147c4576008818154811061471a57fe5b600091825260209091200154600880546001600160a01b03909216918490811061474057fe5b9060005260206000200160006101000a8154816001600160a01b0302191690836001600160a01b0316021790555081600960006008858154811061478057fe5b60009182526020808320909101546001600160a01b031683528201929092526040019020805460ff92909216600160f81b026001600160f81b039092169190911790555b60088054806147cf57fe5b60008281526020808220600019908401810180546001600160a01b03191690559092019092556040805160e081018252838152808301848152818301858152606083018681526080840187815260a0850188815260c086018981526001600160a01b038f81168b52600990995296909820945185549451935192519151985160ff199095169015151761ff001916610100931515939093029290921766ffffffffff000019166201000064ffffffffff9092169190910217600160381b600160981b031916600160381b6001600160601b0392831602176bffffffffffffffffffffffff60981b1916600160981b9190961602949094176001600160f81b0316600160f81b60ff9095169490940293909317835551600192909201919091556006546148fe91879116856135b8565b6006546040516360b8257960e11b81526001600160a01b039091169063c1704af29061493090889087906004016153a7565b600060405180830381600087803b15801561494a57600080fd5b505af115801561495e573d6000803e3d6000fd5b505050507f12a8262eb28ee8a8c11e6cf411b3af6ce5bea42abb36e051bf0a65ae602d52ec85604051614991919061536f565b60405180910390a15050505050565b613875823083613ac3565b306000908152602081905260409020548111156149da5760405162461bcd60e51b815260040161061a90615611565b306000908152602081905260409020546149f490826136ae565b30600090815260208190526040902055600254614a1190826136ae565b60025560405160009030907fddf252ad1be2c89b69c2b068fc378daa952ba7f163c4a11628f55a4df523b3ef90614a49908590615b07565b60405180910390a350565b613875308383613ac3565b81608001516001600160601b031682606001516001600160601b0316101580614a8a57508160200151155b80614aa35750610708826040015164ffffffffff164203105b15614aad57613875565b606082015160808301516000614ad66001600160601b0384166064670de0b6b3a7640000611402565b90506000614af6836001600160601b0316856001600160601b03166136ae565b905081811115614b1957614b13846001600160601b031683613d0f565b92508190505b6000614b27600a5483613d0f565b9050680176b344f2a78c0000811115614b44575050505050613875565b600a8190556001600160601b038416606088018190526001600160a01b038716600081815260096020526040908190208054600160381b600160981b031916600160381b9094029390931766ffffffffff00001916620100004264ffffffffff1602179092559051600080516020615b9f83398151915290614bc7908790615b2c565b60405180910390a250505050505050565b30600090815260208190526040902054614bf29082613d0f565b30600090815260208190526040902055600254614c0f9082613d0f565b60025560405130906000907fddf252ad1be2c89b69c2b068fc378daa952ba7f163c4a11628f55a4df523b3ef90614a49908590615b07565b6000670de0b6b3a7640000614c5b83614c62565b0292915050565b670de0b6b3a7640000900490565b60008060028306614c8957670de0b6b3a7640000614c8b565b835b90506002830492505b8215613d3457614ca48485613475565b93506002830615614cbc57614cb98185613475565b90505b600283049250614c94565b6000828180614cde87670de0b6b3a7640000614639565b9092509050670de0b6b3a764000080600060015b888410614d96576000670de0b6b3a764000082029050600080614d268a614d2185670de0b6b3a76400006136ae565b614639565b91509150614d388761247f848c613475565b9650614d448784613c7b565b965086614d5357505050614d96565b8715614d5d579315935b8015614d67579315935b8415614d7e57614d7786886136ae565b9550614d8b565b614d888688613d0f565b95505b505050600101614cf2565b50909998505050505050505050565b6040805160e081018252600080825260208201819052918101829052606081018290526080810182905260a0810182905260c081019190915290565b828054600181600116156101000203166002900490600052602060002090601f016020900481019282601f10614e2257805160ff1916838001178555614e4f565b82800160010185558215614e4f579182015b82811115614e4f578251825591602001919060010190614e34565b50614e5b929150614e5f565b5090565b5b80821115614e5b5760008155600101614e60565b80356001600160a01b0381168114610a2057600080fd5b60008083601f840112614e9c578182fd5b50813567ffffffffffffffff811115614eb3578182fd5b602083019150836020808302850101111561465757600080fd5b60008083601f840112614ede578182fd5b50813567ffffffffffffffff811115614ef5578182fd5b60208301915083602082850101111561465757600080fd5b600060208284031215614f1e578081fd5b613d348383614e74565b60008060408385031215614f3a578081fd5b614f448484614e74565b9150614f538460208501614e74565b90509250929050565b600080600060608486031215614f70578081fd5b8335614f7b81615b89565b92506020840135614f8b81615b89565b929592945050506040919091013590565b60008060008060008060808789031215614fb4578182fd5b614fbe8888614e74565b9550602087013567ffffffffffffffff80821115614fda578384fd5b614fe68a838b01614ecd565b90975095506040890135915080821115614ffe578384fd5b5061500b89828a01614ecd565b909450925061501f90508860608901614e74565b90509295509295509295565b6000806040838503121561503d578182fd5b6150478484614e74565b946020939093013593505050565b600080600080600060a0868803121561506c578081fd5b6150768787614e74565b94506020860135935061508c8760408801614e74565b94979396509394606081013594506080013592915050565b6000806000606084860312156150b8578283fd5b6150c28585614e74565b95602085013595506040909401359392505050565b60008060008060008060008060a0898b0312156150f2578182fd5b883567ffffffffffffffff80821115615109578384fd5b6151158c838d01614e8b565b909a50985060208b013591508082111561512d578384fd5b6151398c838d01614e8b565b909850965060408b0135915080821115615151578384fd5b5061515e8b828c01614e8b565b909550935050606089013561517281615b89565b9150608089013561518281615b89565b809150509295985092959890939650565b600080600080604085870312156151a8578384fd5b843567ffffffffffffffff808211156151bf578586fd5b6151cb88838901614e8b565b909650945060208701359150808211156151e3578384fd5b506151f087828801614e8b565b95989497509550505050565b60008060008060008060608789031215615214578384fd5b863567ffffffffffffffff8082111561522b578586fd5b6152378a838b01614e8b565b9098509650602089013591508082111561524f578586fd5b61525b8a838b01614e8b565b90965094506040890135915080821115615273578384fd5b5061528089828a01614e8b565b979a9699509497509295939492505050565b6000602082840312156152a3578081fd5b81518015158114613d34578182fd5b6000602082840312156152c3578081fd5b5035919050565b6000602082840312156152db578081fd5b5051919050565b6000806000604084860312156152f6578081fd5b83359250602084013567ffffffffffffffff811115615313578182fd5b61531f86828701614e8b565b9497909650939450505050565b60006020828403121561533d578081fd5b81356001600160601b0381168114613d34578182fd5b60008251615365818460208701615b59565b9190910192915050565b6001600160a01b0391909116815260200190565b6001600160a01b039384168152919092166020820152604081019190915260600190565b6001600160a01b03929092168252602082015260400190565b6020808252825182820181905260009190848201906040850190845b818110156154015783516001600160a01b0316835292840192918401916001016153dc565b50909695505050505050565b901515815260200190565b6000602082528251806020840152615437816040850160208701615b59565b601f01601f19169190910160400192915050565b60208082526012908201527122a9292fa727aa2fa1a7a72a2927a62622a960711b604082015260600190565b6020808252600e908201526d4552525f4e4f4e455f524541445960901b604082015260600190565b6020808252600c908201526b11549497d254d7d093d5539160a21b604082015260600190565b6020808252600e908201526d4552525f4d41585f544f4b454e5360901b604082015260600190565b60208082526010908201526f4552525f4d41585f494e5f524154494f60801b604082015260600190565b60208082526011908201527022a9292fa6a0aa242fa0a8282927ac2f9960791b604082015260600190565b6020808252600f908201526e08aa4a4be9a82a890be82a0a0a49eb608b1b604082015260600190565b6020808252600e908201526d11549497d3505617d5d15251d21560921b604082015260600190565b60208082526014908201527311549497d3505617d513d5105317d5d15251d21560621b604082015260600190565b6020808252600d908201526c11549497d31253525517d3d555609a1b604082015260600190565b6020808252600f908201526e4552525f4d494e5f42414c414e434560881b604082015260600190565b60208082526014908201527311549497d25394d551919250d251539517d0905360621b604082015260600190565b6020808252600f908201526e11549497d253925512505312569151608a1b604082015260600190565b60208082526010908201526f11549497d1125597d25395115493905360821b604082015260600190565b60208082526015908201527422a9292fa12a27a5a2a72fa120a22fa1a0a62622a960591b604082015260600190565b6020808252600c908201526b22a9292fa624a6a4aa2fa4a760a11b604082015260600190565b60208082526016908201527511549497d09513d2d15397d25392551250531256915160521b604082015260600190565b6020808252600b908201526a4552525f5245454e54525960a81b604082015260600190565b6020808252601190820152704552525f4d41585f4f55545f524154494f60781b604082015260600190565b6020808252600d908201526c11549497d393d517d093d55391609a1b604082015260600190565b6020808252601190820152704552525f4f55545f4e4f545f524541445960781b604082015260600190565b6020808252600e908201526d4552525f4e4f545f5055424c494360901b604082015260600190565b6020808252601390820152724552525f4241445f4c494d49545f505249434560681b604082015260600190565b6020808252600e908201526d11549497d3525397d5d15251d21560921b604082015260600190565b60208082526010908201526f4552525f4d554c5f4f564552464c4f5760801b604082015260600190565b6020808252600b908201526a22a9292fa0a9292fa622a760a91b604082015260600190565b6020808252600990820152684552525f524541445960b81b604082015260600190565b6020808252600f908201526e4552525f4c494d49545f505249434560881b604082015260600190565b6020808252600e908201526d11549497d0d3d3919251d554915160921b604082015260600190565b6020808252600c908201526b4552525f4449565f5a45524f60a01b604082015260600190565b6020808252601590820152744552525f42504f575f424153455f544f4f5f4c4f5760581b604082015260600190565b6020808252600f908201526e4552525f45524332305f46414c534560881b604082015260600190565b6020808252601190820152704552525f5355425f554e444552464c4f5760781b604082015260600190565b60208082526010908201526f4552525f4144445f4f564552464c4f5760801b604082015260600190565b60208082526010908201526f4552525f4e554c4c5f4144445245535360801b604082015260600190565b6020808252600f908201526e4552525f494e56414c49445f46454560881b604082015260600190565b6020808252600e908201526d4552525f4d494e5f544f4b454e5360901b604082015260600190565b60208082526016908201527508aa4a4be84a09eaebe8482a68abea89e9ebe90928e960531b604082015260600190565b6020808252600b908201526a22a9292fad22a927afa4a760a91b604082015260600190565b600060e08201905082511515825260208301511515602083015264ffffffffff604084015116604083015260608301516001600160601b038082166060850152806080860151166080850152505060ff60a08401511660a083015260c083015160c083015292915050565b90815260200190565b918252602082015260400190565b60ff91909116815260200190565b6001600160601b0391909116815260200190565b6001600160601b03929092168252602082015260400190565b60005b83811015615b74578181015183820152602001615b5c565b83811115615b83576000848401525b50505050565b6001600160a01b038116811461388c57600080fdfe21b12aed5d425f5675450ffeeae01039085e5323974c3099e1828155d9b51e778c5be1e5ebec7d5bd14f71427d1e84f3dd0314c0f7b2291e5b200ac8c7c3b925a264697066735822122060001269fcdebb2a0132ec8e5744320d51987808c2e390027632d0b81d27280e64736f6c634300060c0033",
  "devdoc": {
    "kind": "dev",
    "methods": {
      "configure(address,string,string,address)": {
        "details": "Sets the controller address and the token name & symbol. Note: This saves on storage costs for multi-step pool deployment.",
        "params": {
          "controller": "Controller of the pool",
          "exitFeeRecipient": "Address that receives exit fees",
          "name": "Name of the pool token",
          "symbol": "Symbol of the pool token"
        }
      },
      "delegateCompLikeToken(address,address)": {
        "details": "Delegate a comp-like governance token to an address specified by the controller."
      },
      "exitPool(uint256,uint256[])": {
        "details": "Burns `poolAmountIn` pool tokens in exchange for the amounts of each underlying token's balance proportional to the ratio of tokens burned to total pool supply. The amount of each token transferred to the caller must be greater than or equal to the associated minimum output amount from the `minAmountsOut` array.",
        "params": {
          "minAmountsOut": "Minimum amount of each token to receive, in the same order as the pool's _tokens list.",
          "poolAmountIn": "Exact amount of pool tokens to burn"
        }
      },
      "exitswapExternAmountOut(address,uint256,uint256)": {
        "details": "Burn up to `maxPoolAmountIn` for exactly `tokenAmountOut` of `tokenOut`. Returns the number of pool tokens burned. The pool implicitly burns the tokens for all underlying tokens and swaps them to the desired output token. A swap fee is charged against the output tokens.",
        "params": {
          "maxPoolAmountIn": "Maximum amount of pool tokens to burn",
          "tokenAmountOut": "Exact amount of `tokenOut` to receive",
          "tokenOut": "Token to receive"
        },
        "returns": {
          "_0": "poolAmountIn - Amount of pool tokens burned"
        }
      },
      "exitswapPoolAmountIn(address,uint256,uint256)": {
        "details": "Burns `poolAmountIn` pool tokens in exchange for at least `minAmountOut` of `tokenOut`. Returns the number of tokens sent to the caller. The pool implicitly burns the tokens for all underlying tokens and swaps them to the desired output token. A swap fee is charged against the output tokens.",
        "params": {
          "minAmountOut": "Minimum amount of `tokenOut` to receive",
          "poolAmountIn": "Exact amount of pool tokens to burn",
          "tokenOut": "Token to receive"
        },
        "returns": {
          "_0": "tokenAmountOut - Amount of `tokenOut` received"
        }
      },
      "extrapolatePoolValueFromToken()": {
        "details": "Finds the first token which is both initialized and has a desired weight above 0, then returns the address of that token and the extrapolated value of the pool in terms of that token. The value is extrapolated by multiplying the token's balance by the reciprocal of its normalized weight.",
        "returns": {
          "_0": "(token, extrapolatedValue)"
        }
      },
      "getBalance(address)": {
        "details": "Returns the stored balance of a bound token."
      },
      "getController()": {
        "details": "Returns the controller address."
      },
      "getCurrentDesiredTokens()": {
        "details": "Returns the list of tokens which have a desired weight above 0. Tokens with a desired weight of 0 are set to be phased out of the pool."
      },
      "getCurrentTokens()": {
        "details": "Get all bound tokens."
      },
      "getDenormalizedWeight(address)": {
        "details": "Returns the denormalized weight of a bound token."
      },
      "getExitFeeRecipient()": {
        "details": "Returns the exit fee recipient address."
      },
      "getMinimumBalance(address)": {
        "details": "Get the minimum balance of an uninitialized token. Note: Throws if the token is initialized."
      },
      "getNumTokens()": {
        "details": "Get the number of tokens bound to the pool."
      },
      "getSpotPrice(address,address)": {
        "details": "Returns the spot price for `tokenOut` in terms of `tokenIn`."
      },
      "getTokenRecord(address)": {
        "details": "Returns the record for a token bound to the pool."
      },
      "getTotalDenormalizedWeight()": {
        "details": "Get the total denormalized weight of the pool."
      },
      "getUsedBalance(address)": {
        "details": "Returns the balance of a token which is used in price calculations. If the token is initialized, this is the stored balance; if not, this is the minimum balance."
      },
      "gulp(address)": {
        "details": "Absorb any tokens that have been sent to the pool. If the token is not bound, it will be sent to the unbound token handler."
      },
      "initialize(address[],uint256[],uint96[],address,address)": {
        "details": "Sets up the initial assets for the pool. Note: `tokenProvider` must have approved the pool to transfer the corresponding `balances` of `tokens`.",
        "params": {
          "balances": "Initial balances to transfer",
          "denorms": "Initial denormalized weights for the tokens",
          "tokenProvider": "Address to transfer the balances from",
          "tokens": "Underlying tokens to initialize the pool with"
        }
      },
      "isBound(address)": {
        "details": "Check if a token is bound to the pool."
      },
      "isPublicSwap()": {
        "details": "Check if swapping tokens and joining the pool is allowed."
      },
      "joinPool(uint256,uint256[])": {
        "details": "Mint new pool tokens by providing the proportional amount of each underlying token's balance relative to the proportion of pool tokens minted. For any underlying tokens which are not initialized, the caller must provide the proportional share of the minimum balance for the token rather than the actual balance.",
        "params": {
          "maxAmountsIn": "Maximum amount of each token to pay in the same order as the pool's _tokens list.",
          "poolAmountOut": "Amount of pool tokens to mint"
        }
      },
      "joinswapExternAmountIn(address,uint256,uint256)": {
        "details": "Pay `tokenAmountIn` of `tokenIn` to mint at least `minPoolAmountOut` pool tokens. The pool implicitly swaps `(1- weightTokenIn) * tokenAmountIn` to the other underlying tokens. Thus a swap fee is charged against the input tokens.",
        "params": {
          "minPoolAmountOut": "Minimum amount of pool tokens to mint",
          "tokenAmountIn": "Exact amount of `tokenIn` to pay",
          "tokenIn": "Token to send the pool"
        },
        "returns": {
          "_0": "poolAmountOut - Amount of pool tokens minted"
        }
      },
      "joinswapPoolAmountOut(address,uint256,uint256)": {
        "details": "Pay up to `maxAmountIn` of `tokenIn` to mint exactly `poolAmountOut`. The pool implicitly swaps `(1- weightTokenIn) * tokenAmountIn` to the other underlying tokens. Thus a swap fee is charged against the input tokens.",
        "params": {
          "maxAmountIn": "Maximum amount of `tokenIn` to pay",
          "poolAmountOut": "Exact amount of pool tokens to mint",
          "tokenIn": "Token to send the pool"
        },
        "returns": {
          "_0": "tokenAmountIn - Amount of `tokenIn` paid"
        }
      },
      "reindexTokens(address[],uint96[],uint256[])": {
        "details": "Update the underlying assets held by the pool and their associated weights. Tokens which are not currently bound will be gradually added as they are swapped in to reach the provided minimum balances, which must be an amount of tokens worth the minimum weight of the total pool value. If a currently bound token is not received in this call, the token's desired weight will be set to 0."
      },
      "reweighTokens(address[],uint96[])": {
        "details": "Sets the desired weights for the pool tokens, which will be adjusted over time as they are swapped. Note: This does not check for duplicate tokens or that the total of the desired weights is equal to the target total weight (25). Those assumptions should be met in the controller. Further, the provided tokens should only include the tokens which are not set for removal."
      },
      "setController(address)": {
        "details": "Set the controller address"
      },
      "setExitFeeRecipient(address)": {
        "details": "Set the exit fee recipient address."
      },
      "setMinimumBalance(address,uint256)": {
        "details": "Updates the minimum balance for an uninitialized token. This becomes useful if a token's external price significantly rises after being bound, since the pool can not send a token out until it reaches the minimum balance."
      },
      "setSwapFee(uint256)": {
        "details": "Set the swap fee. Note: Swap fee must be between 0.0001% and 10%"
      },
      "swapExactAmountIn(address,uint256,address,uint256,uint256)": {
        "details": "Execute a token swap with a specified amount of input tokens and a minimum amount of output tokens. Note: Will revert if `tokenOut` is uninitialized.",
        "params": {
          "maxPrice": "Maximum ratio of input to output tokens",
          "minAmountOut": "Minimum amount of `tokenOut` to receive",
          "tokenAmountIn": "Exact amount of `tokenIn` to swap in",
          "tokenIn": "Token to swap in",
          "tokenOut": "Token to swap out"
        },
        "returns": {
          "_0": "(tokenAmountOut, spotPriceAfter)"
        }
      },
      "swapExactAmountOut(address,uint256,address,uint256,uint256)": {
        "details": "Trades at most `maxAmountIn` of `tokenIn` for exactly `tokenAmountOut` of `tokenOut`. Returns the actual input amount and the new spot price after the swap, which can not exceed `maxPrice`.",
        "params": {
          "maxAmountIn": "Maximum amount of `tokenIn` to pay",
          "maxPrice": "Maximum ratio of input to output tokens",
          "tokenAmountOut": "Exact amount of `tokenOut` to receive",
          "tokenIn": "Token to swap in",
          "tokenOut": "Token to swap out"
        },
        "returns": {
          "_0": "(tokenAmountIn, spotPriceAfter)"
        }
      }
    },
    "version": 1
  },
  "userdoc": {
    "kind": "user",
    "methods": {},
    "version": 1
  },
  "storageLayout": {
    "storage": [
      {
        "astId": 1236,
        "contract": "temp-contracts/balancer/IndexPool.sol:IndexPool",
        "label": "_balance",
        "offset": 0,
        "slot": "0",
        "type": "t_mapping(t_address,t_uint256)"
      },
      {
        "astId": 1242,
        "contract": "temp-contracts/balancer/IndexPool.sol:IndexPool",
        "label": "_allowance",
        "offset": 0,
        "slot": "1",
        "type": "t_mapping(t_address,t_mapping(t_address,t_uint256))"
      },
      {
        "astId": 1244,
        "contract": "temp-contracts/balancer/IndexPool.sol:IndexPool",
        "label": "_totalSupply",
        "offset": 0,
        "slot": "2",
        "type": "t_uint256"
      },
      {
        "astId": 1447,
        "contract": "temp-contracts/balancer/IndexPool.sol:IndexPool",
        "label": "_name",
        "offset": 0,
        "slot": "3",
        "type": "t_string_storage"
      },
      {
        "astId": 1449,
        "contract": "temp-contracts/balancer/IndexPool.sol:IndexPool",
        "label": "_symbol",
        "offset": 0,
        "slot": "4",
        "type": "t_string_storage"
      },
      {
        "astId": 1859,
        "contract": "temp-contracts/balancer/IndexPool.sol:IndexPool",
        "label": "_mutex",
        "offset": 0,
        "slot": "5",
        "type": "t_bool"
      },
      {
        "astId": 1861,
        "contract": "temp-contracts/balancer/IndexPool.sol:IndexPool",
        "label": "_controller",
        "offset": 1,
        "slot": "5",
        "type": "t_address"
      },
      {
        "astId": 1863,
        "contract": "temp-contracts/balancer/IndexPool.sol:IndexPool",
        "label": "_unbindHandler",
        "offset": 0,
        "slot": "6",
        "type": "t_contract(TokenUnbindHandler)5060"
      },
      {
        "astId": 1865,
        "contract": "temp-contracts/balancer/IndexPool.sol:IndexPool",
        "label": "_publicSwap",
        "offset": 20,
        "slot": "6",
        "type": "t_bool"
      },
      {
        "astId": 1867,
        "contract": "temp-contracts/balancer/IndexPool.sol:IndexPool",
        "label": "_swapFee",
        "offset": 0,
        "slot": "7",
        "type": "t_uint256"
      },
      {
        "astId": 1870,
        "contract": "temp-contracts/balancer/IndexPool.sol:IndexPool",
        "label": "_tokens",
        "offset": 0,
        "slot": "8",
        "type": "t_array(t_address)dyn_storage"
      },
      {
        "astId": 1874,
        "contract": "temp-contracts/balancer/IndexPool.sol:IndexPool",
        "label": "_records",
        "offset": 0,
        "slot": "9",
        "type": "t_mapping(t_address,t_struct(Record)5086_storage)"
      },
      {
        "astId": 1876,
        "contract": "temp-contracts/balancer/IndexPool.sol:IndexPool",
        "label": "_totalWeight",
        "offset": 0,
        "slot": "10",
        "type": "t_uint256"
      },
      {
        "astId": 1880,
        "contract": "temp-contracts/balancer/IndexPool.sol:IndexPool",
        "label": "_minimumBalances",
        "offset": 0,
        "slot": "11",
        "type": "t_mapping(t_address,t_uint256)"
      },
      {
        "astId": 1882,
        "contract": "temp-contracts/balancer/IndexPool.sol:IndexPool",
        "label": "_exitFeeRecipient",
        "offset": 0,
        "slot": "12",
        "type": "t_address"
      }
    ],
    "types": {
      "t_address": {
        "encoding": "inplace",
        "label": "address",
        "numberOfBytes": "20"
      },
      "t_array(t_address)dyn_storage": {
        "base": "t_address",
        "encoding": "dynamic_array",
        "label": "address[]",
        "numberOfBytes": "32"
      },
      "t_bool": {
        "encoding": "inplace",
        "label": "bool",
        "numberOfBytes": "1"
      },
      "t_contract(TokenUnbindHandler)5060": {
        "encoding": "inplace",
        "label": "contract TokenUnbindHandler",
        "numberOfBytes": "20"
      },
      "t_mapping(t_address,t_mapping(t_address,t_uint256))": {
        "encoding": "mapping",
        "key": "t_address",
        "label": "mapping(address => mapping(address => uint256))",
        "numberOfBytes": "32",
        "value": "t_mapping(t_address,t_uint256)"
      },
      "t_mapping(t_address,t_struct(Record)5086_storage)": {
        "encoding": "mapping",
        "key": "t_address",
        "label": "mapping(address => struct IIndexPool.Record)",
        "numberOfBytes": "32",
        "value": "t_struct(Record)5086_storage"
      },
      "t_mapping(t_address,t_uint256)": {
        "encoding": "mapping",
        "key": "t_address",
        "label": "mapping(address => uint256)",
        "numberOfBytes": "32",
        "value": "t_uint256"
      },
      "t_string_storage": {
        "encoding": "bytes",
        "label": "string",
        "numberOfBytes": "32"
      },
      "t_struct(Record)5086_storage": {
        "encoding": "inplace",
        "label": "struct IIndexPool.Record",
        "members": [
          {
            "astId": 5073,
            "contract": "temp-contracts/balancer/IndexPool.sol:IndexPool",
            "label": "bound",
            "offset": 0,
            "slot": "0",
            "type": "t_bool"
          },
          {
            "astId": 5075,
            "contract": "temp-contracts/balancer/IndexPool.sol:IndexPool",
            "label": "ready",
            "offset": 1,
            "slot": "0",
            "type": "t_bool"
          },
          {
            "astId": 5077,
            "contract": "temp-contracts/balancer/IndexPool.sol:IndexPool",
            "label": "lastDenormUpdate",
            "offset": 2,
            "slot": "0",
            "type": "t_uint40"
          },
          {
            "astId": 5079,
            "contract": "temp-contracts/balancer/IndexPool.sol:IndexPool",
            "label": "denorm",
            "offset": 7,
            "slot": "0",
            "type": "t_uint96"
          },
          {
            "astId": 5081,
            "contract": "temp-contracts/balancer/IndexPool.sol:IndexPool",
            "label": "desiredDenorm",
            "offset": 19,
            "slot": "0",
            "type": "t_uint96"
          },
          {
            "astId": 5083,
            "contract": "temp-contracts/balancer/IndexPool.sol:IndexPool",
            "label": "index",
            "offset": 31,
            "slot": "0",
            "type": "t_uint8"
          },
          {
            "astId": 5085,
            "contract": "temp-contracts/balancer/IndexPool.sol:IndexPool",
            "label": "balance",
            "offset": 0,
            "slot": "1",
            "type": "t_uint256"
          }
        ],
        "numberOfBytes": "64"
      },
      "t_uint256": {
        "encoding": "inplace",
        "label": "uint256",
        "numberOfBytes": "32"
      },
      "t_uint40": {
        "encoding": "inplace",
        "label": "uint40",
        "numberOfBytes": "5"
      },
      "t_uint8": {
        "encoding": "inplace",
        "label": "uint8",
        "numberOfBytes": "1"
      },
      "t_uint96": {
        "encoding": "inplace",
        "label": "uint96",
        "numberOfBytes": "12"
      }
    }
  },
  "gasEstimates": {
    "creation": {
      "codeDepositCost": "4714400",
      "executionCost": "5533",
      "totalCost": "4719933"
    },
    "external": {
      "VERSION_NUMBER()": "383",
      "allowance(address,address)": "infinite",
      "approve(address,uint256)": "infinite",
      "balanceOf(address)": "1389",
      "configure(address,string,string,address)": "infinite",
      "decimals()": "396",
      "decreaseApproval(address,uint256)": "infinite",
      "delegateCompLikeToken(address,address)": "infinite",
      "exitPool(uint256,uint256[])": "infinite",
      "exitswapExternAmountOut(address,uint256,uint256)": "infinite",
      "exitswapPoolAmountIn(address,uint256,uint256)": "infinite",
      "extrapolatePoolValueFromToken()": "infinite",
      "getBalance(address)": "3034",
      "getController()": "1215",
      "getCurrentDesiredTokens()": "infinite",
      "getCurrentTokens()": "infinite",
      "getDenormalizedWeight(address)": "3099",
      "getExitFee()": "1176",
      "getExitFeeRecipient()": "1138",
      "getMinimumBalance(address)": "4457",
      "getNumTokens()": "1139",
      "getSpotPrice(address,address)": "infinite",
      "getSwapFee()": "1995",
      "getTokenRecord(address)": "3711",
      "getTotalDenormalizedWeight()": "2018",
      "getUsedBalance(address)": "4451",
      "gulp(address)": "infinite",
      "increaseApproval(address,uint256)": "infinite",
      "initialize(address[],uint256[],uint96[],address,address)": "infinite",
      "isBound(address)": "1408",
      "isPublicSwap()": "1211",
      "joinPool(uint256,uint256[])": "infinite",
      "joinswapExternAmountIn(address,uint256,uint256)": "infinite",
      "joinswapPoolAmountOut(address,uint256,uint256)": "infinite",
      "name()": "infinite",
      "reindexTokens(address[],uint96[],uint256[])": "infinite",
      "reweighTokens(address[],uint96[])": "infinite",
      "setController(address)": "23308",
      "setExitFeeRecipient(address)": "23298",
      "setMinimumBalance(address,uint256)": "24561",
      "setSwapFee(uint256)": "22282",
      "swapExactAmountIn(address,uint256,address,uint256,uint256)": "infinite",
      "swapExactAmountOut(address,uint256,address,uint256,uint256)": "infinite",
      "symbol()": "infinite",
      "totalSupply()": "1096",
      "transfer(address,uint256)": "45619",
      "transferFrom(address,address,uint256)": "infinite"
    },
    "internal": {
      "_bind(address,uint256,uint96)": "infinite",
      "_burnPoolShare(uint256)": "infinite",
      "_decreaseDenorm(struct IIndexPool.Record memory,address)": "infinite",
      "_getInputToken(address)": "infinite",
      "_getOutputToken(address)": "infinite",
      "_increaseDenorm(struct IIndexPool.Record memory,address)": "infinite",
      "_mintPoolShare(uint256)": "infinite",
      "_pullPoolShare(address,uint256)": "infinite",
      "_pullUnderlying(address,address,uint256)": "infinite",
      "_pushPoolShare(address,uint256)": "infinite",
      "_pushUnderlying(address,address,uint256)": "infinite",
      "_setDesiredDenorm(address,uint96)": "infinite",
      "_unbind(address)": "infinite",
      "_updateInputToken(address,struct IIndexPool.Record memory,uint256)": "infinite"
    }
  }
}